:100000000C943E000C945B000C945B000C945B0021
:100010000C945B000C945B000C945B000C945B00F4
:100020000C945B000C945B000C945B000C945B00E4
:100030000C945B000C945B000C945B000C945B00D4
:100040000C945B000C945B000C945B000C945B00C4
:100050000C94AA000C94C9000C945B000C945B00F7
:100060000C945B000C945B000C945B000C945B00A4
:100070000C9415030C9434030C945B0011241FBEE4
:10008000CFEFD8E0DEBFCDBF11E0A0E0B1E0E0ED02
:10009000FCE002C005900D92A23AB107D9F725E025
:1000A000A2EAB1E001C01D92AD3CB207E1F70E94A7
:1000B000E8020C9466060C9400009093C5008093AF
:1000C000C40088E98093C1008EE08093C200109242
:1000D000A4021092A5021092A2011092A301089509
:1000E0009091A5028091A4029817D1F3E091A40207
:1000F000EF5FE093A402F0E0EA55FD4F80810895A0
:100100002091A3012F5F9091A2012917E1F3E22F23
:10011000F0E0EC55FE4F80832093A301E1ECF0E08A
:1001200080818062808308952091A3012F5F909148
:10013000A2012917E1F3E22FF0E0EC55FE4F808396
:100140002093A301E1ECF0E080818062808380E075
:1001500090E008951F920F920FB60F9211248F9383
:100160009F93EF93FF938091C600E091A502EF5F0C
:10017000E093A5029091A402F0E0EA55FD4F808340
:10018000FF91EF919F918F910F900FBE0F901F9055
:1001900018951F920F920FB60F9211248F939F9371
:1001A000EF93FF939091A3018091A201981761F0C2
:1001B000E091A201EF5FE093A201F0E0EC55FE4F69
:1001C00080818093C60005C0E1ECF0E080818F7DE6
:1001D0008083FF91EF919F918F910F900FBE0F90B1
:1001E0001F90189580E090E02FEF33E0FC01EE0FB8
:1001F000FF1FEE0FFF1FE455FA4F11821082338369
:10020000228301968530910589F70895EF92FF9238
:100210000F931F93CF93DF930F2EF0E0EF2EF0E0BC
:10022000FF2EF02D00E010E0C7010E941906E80142
:10023000CC0FDD1FCC0FDD1FC455DA4F99838883A7
:10024000C70102960E9419069B838A830F5F1F4F86
:1002500084E0E80EF11C0530110531F7DF91CF91F4
:100260001F910F91FF90EF9008958DE08093810092
:100270008AE49CE4909389008093880082E08093D4
:100280006F000895ECE7F0E09081907E908390817C
:10029000892B80830895CF93DF93ECE7F0E0808192
:1002A00080648083CAE7D0E0888181608883888108
:1002B00082608883888184608883A4E6B0E08C9122
:1002C0008E7F8C9380818F7D80838FE380937E00EF
:1002D00088818068888310927B008FE10E944201B0
:1002E000888180648883EAE7F0E0808184FFFDCF25
:1002F000EAE7F0E0808180648083808184FFFDCF25
:10030000209178008091790090E0982F8827820FC3
:10031000911D99231CF491958195910905972CF0D5
:100320008091A60381608093A6038EE10E94420122
:10033000EAE7F0E0808180648083808184FFFDCFE4
:10034000209178008091790090E0982F8827820F83
:10035000911D815E91099C0122F422273327281BDD
:10036000390B253031052CF08091A60382608093F3
:10037000A603EAE7F0E080818F778083DF91CF9159
:10038000089588E40E944201EAE7F0E080818064F9
:100390008083808184FFFDCF8091780090917900E7
:1003A0009093C6058093C5058EE091E09F938F934F
:1003B0000E9485038091C6058F938091C5058F9318
:1003C0008AE191E09F938F930E9485030F900F9095
:1003D0000F900F900F900F9008952F923F924F9291
:1003E0005F926F927F928F929F92AF92BF92CF92C5
:1003F000DF92EF92FF920F931F93CF93DF9300D082
:100400001F92CDB7DEB70E9406010E94F200EAE714
:10041000F0E080818068808319828981853008F0CE
:10042000BFC00F2EF5E02F2EF02D312C0AE710E083
:10043000AA24A394B12C0F2EF8E7CF2ED12CF02DA7
:1004400055245394412C0F2EF6E98F2EF1E09F2E68
:10045000F02D0F2EF8E86F2EF1E07F2EF02D898120
:100460000E9442011B821A82222D332DF8018081C5
:1004700080648083F801808184FFFCCFE981F0E013
:10048000EE0FFF1FEE0FFF1FE455FA4F80819181A1
:10049000E981F0E0EE0FFF1FEE0FFF1FE455FA4F6A
:1004A00042815381652D4E155F0508F0642D611161
:1004B00007C0452DE816F90608F0442D442371F0D5
:1004C00099814091A6039D5FB50102C0660F771F19
:1004D0009A95E2F7CB01842B8093A603F601E08086
:1004E000F1808A819B818E0D9F1D9B838A83215081
:1004F000310909F0BBCF8A819B81622D732D0E9447
:100500005D03898181110DC07F936F9384E591E034
:100510009F938F930E9485030F900F900F900F90E1
:1005200038C08981813069F47F936F938BE691E0C5
:100530009F938F930E9485030F900F900F900F90C1
:1005400028C08981823069F47F936F938AE791E0B4
:100550009F938F930E9485030F900F900F900F90A1
:1005600018C08981833059F47F936F937F926F9283
:100570000E9485030F900F900F900F900AC07F93F9
:100580006F939F928F920E9485030F900F900F9010
:100590000F9089818F5F89838981853008F45FCFCF
:1005A0000E94C1010F900F900F90DF91CF911F918A
:1005B0000F91FF90EF90DF90CF90BF90AF909F9002
:1005C0008F907F906F905F904F903F902F90089505
:1005D0000E94350183E091E00E945D0083E091E09C
:1005E0000E94020380E091E09093CA058093C905C0
:1005F00078940E944B010E94ED010E9470000E94BD
:100600008000FBCF9093C5008093C40088E980935D
:10061000C1008EE08093C2001092A9041092AA0437
:100620001092A7031092A80308951F920F920FB67D
:100630000F9211248F939F93EF93FF938091C600A5
:10064000E091AA04EF5FE093AA049091A904F0E07E
:10065000E555FB4F8083FF91EF919F918F910F9014
:100660000FBE0F901F9018951F920F920FB60F920A
:1006700011248F939F93EF93FF939091A803809100
:10068000A703981761F0E091A703EF5FE093A7033A
:10069000F0E0E755FC4F80818093C60005C0E1EC97
:1006A000F0E080818F7D8083FF91EF919F918F910A
:1006B0000F900FBE0F901F90189597FB072E16F402
:1006C000009407D077FD09D00E94710307FC05D084
:1006D0003EF4909581959F4F0895709561957F4F59
:1006E0000895AA1BBB1B51E107C0AA1FBB1FA61779
:1006F000B70710F0A61BB70B881F991F5A95A9F7CB
:1007000080959095BC01CD010895A0E0B0E0EBE8A4
:10071000F3E00C943F06AE014B5F5F4FFA0161912D
:100720007191AF018091C9059091CA050E949B0308
:10073000E2E00C945B06ACE0B0E0E1EAF3E00C949C
:100740002F067C016B018A01FC01178216828381CE
:1007500081FFBDC1CE0101964C01F7019381F601E5
:1007600093FD859193FF81916F01882309F4ABC1BB
:10077000853239F493FD859193FF81916F01853224
:1007800029F4B70190E00E948305E7CF512C312C6A
:1007900020E02032A0F48B3269F030F4803259F03E
:1007A000833269F420612CC08D3239F0803339F402
:1007B000216026C02260246023C0286021C027FD5C
:1007C00027C030ED380F3A3078F426FF06C0FAE043
:1007D0005F9E300D1124532E13C08AE0389E300DD9
:1007E0001124332E20620CC08E3221F426FD6BC101
:1007F000206406C08C3611F4206802C0883641F4AB
:10080000F60193FD859193FF81916F018111C1CF15
:10081000982F9F7D9554933028F40C5F1F4FFFE372
:10082000F9830DC0833631F0833771F0833509F0D9
:100830005BC022C0F801808189830E5F1F4F442472
:100840004394512C540115C03801F2E06F0E711C15
:10085000F801A080B18026FF03C0652D70E002C0C2
:100860006FEF7FEFC5012C870E9478052C01830173
:100870002C852F77222E17C03801F2E06F0E711CE5
:10088000F801A080B18026FF03C0652D70E002C092
:100890006FEF7FEFC5012C870E946D052C012C8521
:1008A0002068222E830123FC1BC0832D90E0481674
:1008B0005906B0F4B70180E290E00E9483053A94B3
:1008C000F4CFF50127FC859127FE81915F01B701E7
:1008D00090E00E94830531103A94F1E04F1A5108DC
:1008E0004114510471F7E5C0843611F0893639F5A9
:1008F000F80127FF07C060817181828193810C5FBD
:100900001F4F08C060817181072E000C880B990B66
:100910000E5F1F4F2F76722E97FF09C0909580951E
:10092000709561957F4F8F4F9F4F2068722E2AE000
:1009300030E0A4010E94BB05A82EA81844C085374A
:1009400029F42F7EB22E2AE030E025C0F22FF97F65
:10095000BF2E8F36C1F018F4883579F0B4C08037D7
:1009600019F0883721F0AFC02F2F2061B22EB4FECE
:100970000DC08B2D8460B82E09C024FF0AC09F2FA4
:100980009660B92E06C028E030E005C020E130E0D6
:1009900002C020E132E0F801B7FE07C0608171813A
:1009A000828193810C5F1F4F06C06081718180E05E
:1009B00090E00E5F1F4FA4010E94BB05A82EA8184F
:1009C000FB2DFF777F2E76FE0BC0372D3E7FA514C3
:1009D00050F474FE0AC072FC08C0372D3E7E05C07C
:1009E000BA2C372D03C0BA2C01C0B52C34FF0DC072
:1009F000FE01EA0DF11D8081803311F4397E09C0BA
:100A000032FF06C0B394B39404C0832F867809F0F4
:100A1000B39433FD13C030FF06C05A2CB31418F43E
:100A2000530C5B18B32CB31468F4B70180E290E068
:100A30003C870E948305B3943C85F5CFB31410F432
:100A40003B1801C0312C34FF12C0B70180E390E0A5
:100A50003C870E9483053C8532FF17C031FD03C0EF
:100A600088E790E002C088E590E0B7010CC0832FD2
:100A7000867859F031FF02C08BE201C080E237FD79
:100A80008DE2B70190E00E948305A51438F4B70108
:100A900080E390E00E9483055A94F7CFAA94F40172
:100AA000EA0DF11D8081B70190E00E948305A1103D
:100AB000F5CF332009F451CEB70180E290E00E94D7
:100AC00083053A94F6CFF7018681978102C08FEFB4
:100AD0009FEF2C96E2E10C944B06FC0105906150CF
:100AE00070400110D8F7809590958E0F9F1F089544
:100AF000FC016150704001900110D8F780959095ED
:100B00008E0F9F1F08950F931F93CF93DF93FB01C9
:100B1000238121FD03C08FEF9FEF28C022FF16C065
:100B200046815781248135814217530744F4A081BF
:100B3000B1819D012F5F3F4F318320838C932681AC
:100B400037812F5F3F4F3783268310C0EB01092F7A
:100B5000182F0084F185E02D0995892BE1F68E810F
:100B60009F8101969F838E83812F902FDF91CF915C
:100B70001F910F910895FA01AA27283051F12031D1
:100B800081F1E8946F936E7F6E5F7F4F8F4F9F4F21
:100B9000AF4FB1E03ED0B4E03CD0670F781F891F63
:100BA0009A1FA11D680F791F8A1F911DA11D6A0F31
:100BB000711D811D911DA11D20D009F468943F91E4
:100BC0002AE0269F11243019305D3193DEF6CF01E3
:100BD0000895462F4770405D4193B3E00FD0C9F7A9
:100BE000F6CF462F4F70405D4A3318F0495D31FD16
:100BF0004052419302D0A9F7EACFB4E0A695979569
:100C0000879577956795BA95C9F70097610571053E
:100C100008959B01AC010A2E069457954795379588
:100C20002795BA95C9F7620F731F841F951FA01DE2
:100C30000895A8E1B0E042E050E00C942106DC0108
:100C4000CB01FC01F999FECF06C0F2BDE1BDF89AD7
:100C5000319600B40D9241505040B8F708952F924C
:100C60003F924F925F926F927F928F929F92AF923C
:100C7000BF92CF92DF92EF92FF920F931F93CF9389
:100C8000DF93CDB7DEB7CA1BDB0B0FB6F894DEBF20
:100C90000FBECDBF09942A88398848885F846E8446
:100CA0007D848C849B84AA84B984C884DF80EE8090
:100CB000FD800C811B81AA81B981CE0FD11D0FB699
:100CC000F894DEBF0FBECDBFED010895F894FFCFBD
:100CD00000000002000000009400000000000A472D
:100CE00050532053656E736F7200203D20257500B0
:100CF0000A436172626F6E204D6F6E6F7869646532
:100D0000000A487964726F67656E000A416D6D6F05
:100D10006E6961000A4D657468616E65000A4F7AFC
:100D20006F6E65000A436172626F6E204D6F6E6F69
:100D300078696465203D2025750A00487964726FE2
:100D400067656E203D2025750A00416D6D6F6E69E7
:100D500061203D2025750A004D657468616E65202F
:100D60003D2025750A004F7A6F6E65203D20257560
:020D70000A0077
:00000001FF
