S01F000043616E61727920536F667477617265205061636B6167652E7372656370
S11300008EC00000A7C00000A5C00000A3C000006F
S1130010A1C000009FC000009DC000009BC0000064
S113002099C0000097C0000095C0000093C0000074
S113003091C0000014C100008DC000008BC00000FE
S11300400DC1000087C0000085C0000083C000000F
S113005081C00000B6C100007DC000007BC000006C
S113006079C0000077C0000019C1000073C000000F
S1130070F7C1000014C200006DC000006801BA019D
S1130080BA01BA01BA01BA01BA01BA016801BA01E6
S1130090BA01BA01BA01BA01BA01BA016A01BA01D4
S11300A0BA01BA01BA01BA01BA01BA01BA01BA0174
S11300B0BA01BA01BA01BA01BA01BA016A01BA01B4
S11300C0BA01BA01BA01BA01BA01BA01BA01BA0154
S11300D0BA01BA01BA01BA01BA01BA01B601BA0148
S11300E0BA01BA01BA01BA01BA01BA019301BA015B
S11300F0BA01BA01BA01BA01BA01BA01BA01BA0124
S1130100BA01BA01BA01BA01BA01BA018701BA0146
S1130110BA01BA01BA01BA01BA01BA01A50111249E
S11301201FBECFEFD8E0DEBFCDBF11E0A0E0B1E04D
S1130130E2E7FAE002C005900D92AA32B107D9F7BE
S113014024E0AAE2B1E001C01D92A63AB207E1F7A9
S113015037D08DC455CF87E084B985B115B82B9AB3
S1130160389A399A409A419A0895EF92FF920F93E0
S11301701F93CF93DF934ED18A30D9F480917A03C1
S11301808C34B9F4CAE7D3E00F2EF2EBEF2EF3E090
S1130190FF2EF02D0FE011E089911F928F931F9392
S11301A00F93ACD10F900F900F900F90CE15DF05E9
S11301B099F7DF91CF911F910F91FF90EF900895E0
S11301C0CADF10929F0410929E0410925A0380E09A
S11301D091E09093A3048093A20433D083E091E050
S11301E0DDD052D0789483E191E09F938F9386D1B0
S11301F00F900F9007E111E0C7E2D1E080915A031C
S11302008130E1F710925A0380919E0490919F04EB
S1130210019690939F0480939E0480919E049091F4
S11302209F049F938F931F930F9368D1DF93CF9372
S113023065D19BDF0F900F900F900F900F900F9050
S1130240DDCF8DE0809381008AE49CE49093890063
S11302508093880082E080936F00089518951F9220
S11302600F920FB60F9211248F939F9395B182E052
S1130270892785B981E080935A039F918F910F90CC
S11302800FBE0F901F90189581E18093B8008FEFF7
S11302908093BB0084E08093BC0008951F920F926A
S11302A00FB60F9211242F933F938F939F93AF9385
S11302B0BF93EF93FF93E091B9008E2F90E0FC0180
S11302C03897E135F10508F055C0E25CFF4F10C1E5
S11302D010922A01E0912A0180912C01E81770F410
S11302E081E08E0F80932A01F0E0E35DFE4F808170
S11302F08093BB0085E88093BC0043C080912B01B0
S1130300816080932B0184E98093BC003AC0E09122
S11303102A0181E08E0F80932A018091BB00F0E0D6
S1130320E35DFE4F808320912A0130E080912C010F
S113033090E001972817390724F485EC8093BC00DA
S113034020C085E88093BC001CC08091BB00E09174
S11303502A01F0E0E35DFE4F808380912B018160F0
S113036080932B0184E98093BC000BC085EA8093C1
S1130370BC0007C08091B90080930E0184E0809393
S1130380BC00FF91EF91BF91AF919F918F913F91ED
S11303902F910F900FBE0F901F9018959093C5004A
S11303A08093C40088E98093C1008EE08093C200EA
S11303B010923F021092400210923D0110923E01B1
S11303C008951F920F920FB60F9211248F939F934B
S11303D0EF93FF9390913E0180913D01981761F056
S11303E0E0913D01EF5FE0933D01F0E0E15CFE4F01
S11303F080818093C60005C0E1ECF0E080818F7DB0
S11304008083FF91EF919F918F910F900FBE0F907A
S11304101F90189590914403809143039817D1F34A
S1130420E0914303EF5FE0934303F0E0EA58FC4FAD
S113043080810895209142022F5F909141022917F3
S1130440E1F3E22FF0E0ED5BFD4F80832093420265
S1130450E9ECF0E080818062808380E090E00895A0
S11304601F920F920FB60F9211248F939F93EF93C5
S1130470FF938091CE00E0914403EF5FE093440347
S113048090914303F0E0EA58FC4F8083FF91EF9191
S11304909F918F910F900FBE0F901F9018951F92F0
S11304A00F920FB60F9211248F939F93EF93FF93A4
S11304B09091420280914102981761F0E0914102CB
S11304C0EF5FE0934102F0E0ED5BFD4F80818093AC
S11304D0CE0005C0E9ECF0E080818F7D8083FF9140
S11304E0EF919F918F910F900FBE0F901F901895D1
S11304F0EE0FFF1F0590F491E02D0994A0E0B0E009
S1130500E3E8F2E08DC2AE014B5F5F4FFA01619107
S11305107191AF018091A2049091A30402D0E2E012
S11305209BC2ACE0B0E0E6E9F2E06AC27C016B0198
S11305308A01FC0117821682838181FFB0C1CE013A
S113054001964C01F7019381F60193FD859193FF88
S113055081916F01882309F49EC1853239F493FD9A
S1130560859193FF81916F01853221F4B70190E069
S1130570B1D1E8CF512C312C20E02032A0F48B32C1
S113058069F030F4803259F0833269F420612CC070
S11305908D3239F0803339F4216026C02260246022
S11305A023C0286021C027FD27C030ED380F3A3022
S11305B078F426FF06C0FAE05F9E300D1124532E16
S11305C013C08AE0389E300D1124332E20620CC0F3
S11305D08E3221F426FD5FC1206406C08C3611F4EE
S11305E0206802C0883641F4F60193FD859193FF9B
S11305F081916F018111C1CF982F9F7D95549330C4
S113060028F40C5F1F4FFFE3F9830DC0833631F0EC
S1130610833771F0833509F057C021C0F801808118
S113062089830E5F1F4F44244394512C540114C0FA
S11306303801F2E06F0E711CF801A080B18026FF32
S113064003C0652D70E002C06FEF7FEFC5012C87FA
S113065036D12C0183012C852F77222E16C0380128
S1130660F2E06F0E711CF801A080B18026FF03C078
S1130670652D70E002C06FEF7FEFC5012C8714D1A8
S11306802C012C852068222E830123FC19C0832D84
S113069090E048165906A0F4B70180E290E01AD120
S11306A03A94F5CFF50127FC859127FE81915F01EE
S11306B0B70190E00FD131103A94F1E04F1A51088C
S11306C04114510479F7DEC0843611F0893631F5CE
S11306D0F80127FF07C060817181828193810C5FDB
S11306E01F4F08C060817181072E000C880B990B85
S11306F00E5F1F4F2F76722E97FF09C0909580953D
S1130700709561957F4F8F4F9F4F2068722E2AE01E
S113071030E0A40117D1A82EA81843C0853729F4C6
S11307202F7EB22E2AE030E025C0F22FF97FBF2EB3
S11307308F36C1F018F4883579F0ADC0803719F0E0
S1130740883721F0A8C02F2F2061B22EB4FE0DC02F
S11307508B2D8460B82E09C024FF0AC09F2F966099
S1130760B92E06C028E030E005C020E130E002C028
S113077020E132E0F801B7FE07C060817181828117
S113078093810C5F1F4F06C06081718180E090E00F
S11307900E5F1F4FA401D6D0A82EA818FB2DFF77FB
S11307A07F2E76FE0BC0372D3E7FA51450F474FEC9
S11307B00AC072FC08C0372D3E7E05C0BA2C372D06
S11307C003C0BA2C01C0B52C34FF0DC0FE01EA0DE4
S11307D0F11D8081803311F4397E09C032FF06C0D7
S11307E0B394B39404C0832F867809F0B39433FD93
S11307F012C030FF06C05A2CB31418F4530C5B1803
S1130800B32CB31460F4B70180E290E03C8762D06B
S1130810B3943C85F6CFB31410F43B1801C0312CCB
S113082034FF11C0B70180E390E03C8753D03C858E
S113083032FF16C031FD03C088E790E002C088E5AE
S113084090E0B7010CC0832F867851F031FF02C0CD
S11308508BE201C080E237FD8DE2B70190E03AD02F
S1130860A51430F4B70180E390E034D05A94F8CF63
S1130870AA94F401EA0DF11D8081B70190E02AD019
S1130880A110F6CF332009F45DCEB70180E290E0E9
S113089021D03A94F7CFF7018681978102C08FEF78
S11308A09FEF2C96E2E1C8C0FC01059061507040B6
S11308B00110D8F7809590958E0F9F1F0895FC0125
S11308C06150704001900110D8F7809590958E0F7B
S11308D09F1F08950F931F93CF93DF93FB012381F1
S11308E021FD03C08FEF9FEF28C022FF16C0468171
S11308F05781248135814217530744F4A081B18183
S11309009D012F5F3F4F318320838C932681378154
S11309102F5F3F4F3783268310C0EB01092F182F19
S11309200084F185E02D0995892BE1F68E819F8164
S113093001969F838E83812F902FDF91CF911F91FA
S11309400F910895FA01AA27283051F1203181F13D
S1130950E8946F936E7F6E5F7F4F8F4F9F4FAF4FC3
S1130960B1E03ED0B4E03CD0670F781F891F9A1FD6
S1130970A11D680F791F8A1F911DA11D6A0F711D8A
S1130980811D911DA11D20D009F468943F912AE096
S1130990269F11243019305D3193DEF6CF0108957E
S11309A0462F4770405D4193B3E00FD0C9F7F6CFAF
S11309B0462F4F70405D4A3318F0495D31FD405277
S11309C0419302D0A9F7EACFB4E0A695979587950D
S11309D077956795BA95C9F70097610571050895EC
S11309E09B01AC010A2E0694579547953795279598
S11309F0BA95C9F7620F731F841F951FA01D089530
S1130A002F923F924F925F926F927F928F929F921A
S1130A10AF92BF92CF92DF92EF92FF920F931F9308
S1130A20CF93DF93CDB7DEB7CA1BDB0B0FB6F894B9
S1130A30DEBF0FBECDBF09942A88398848885F84F9
S1130A406E847D848C849B84AA84B984C884DF806A
S1130A50EE80FD800C811B81AA81B981CE0FD11D4E
S1130A600FB6F894DEBF0FBECDBFED010895F89424
S1050A70FFCFB2
S1130A7200000002000000001A0200000000F82535
S1130A82642000686920000A5365636F6E647320F2
S10D0A923D202575200A0068690064
S9030000FC
