:1000000096C00000B3C00000B1C00000AFC0000047
:10001000ADC00000ABC00000A9C00000A7C0000038
:10002000A5C00000A3C00000A1C000009FC0000048
:100030009DC000000C94490B99C0000097C00000BF
:100040000C94480B93C0000091C000008FC00000CA
:100050008DC000000C94860C89C0000087C0000091
:1000600085C0000083C000000C94B70B7FC0000067
:100070000C94C60C7BC0000079C0000077C0000063
:1000800075C0000073C0000071C00000D30B250CC8
:10009000250C250C250C250C250C250CD30B250C2B
:1000A000250C250C250C250C250C250CD50B250C19
:1000B000250C250C250C250C250C250C250C250CB8
:1000C000250C250C250C250C250C250CD50B250CF9
:1000D000250C250C250C250C250C250C250C250C98
:1000E000250C250C250C250C250C250C210C250C8C
:1000F000250C250C250C250C250C250CFE0B250CA0
:10010000250C250C250C250C250C250C250C250C67
:10011000250C250C250C250C250C250CF20B250C8B
:10012000250C250C250C250C250C250C100C112458
:100130001FBECFEFD0E4DEBFCDBF11E0A0E0B1E045
:10014000E2E4F3E200E00BBF02C007900D92AA3C8C
:10015000B107D9F726E0AAECB1E001C01D92A13D9C
:10016000B207E1F70E94000A0C949F110C94330B24
:10017000ECE7F0E09081907E90839081892B8083E2
:100180000895CF93DF93ECE7F0E080818064808373
:10019000CAE7D0E088818160888388818260888313
:1001A000888184608883A4E6B0E08C918E7F8C93F4
:1001B00080818F7D80838FE380937E00888180683B
:1001C000888310927B008FE1D3DF888180648883ED
:1001D000EAE7F0E0808184FFFDCFEAE7F0E080818C
:1001E00080648083808184FFFDCF8091780090E0DF
:1001F0009093CB018093CA01909179002091CA011C
:100200003091CB01892F90E0982F8827820F931F80
:100210009093CB018093CA018091CA019091CB0148
:1002200099231CF491958195910905972CF0809163
:100230002A03816080932A038EE19ADFEAE7F0E0E7
:10024000808180648083808184FFFDCF80917800ED
:1002500090E09093CB018093CA0190917900209116
:10026000CA013091CB01892F90E0982F8827820F07
:10027000931F9093CB018093CA018091CA01909102
:10028000CB01815E91099093CB018093CA0180914B
:10029000CA019091CB0199231CF491958195910904
:1002A00005972CF080912A03826080932A03EAE765
:1002B000F0E080818F778083DF91CF91089587E090
:1002C00084B985B115B82B9A389A399A409A419ACF
:1002D000089580E090E02FEF33E0FC01EE0FFF1F68
:1002E000EE0FFF1FE150FD4F1182108233832283F6
:1002F00001968530910589F70895EF92FF920F934B
:100300001F93CF93DF930F2EF9EEEF2EF2E0FF2E27
:10031000F02D00E010E0C7010E948A11E801CC0F27
:10032000DD1FCC0FDD1FC150DD4F99838883C701CE
:1003300002960E948A119B838A830F5F1F4F84E07D
:10034000E80EF11C0530110531F7DF91CF911F91B7
:100350000F91FF90EF900895AF92BF92CF92DF92EE
:10036000EF92FF920F931F93CF93DF931F92CDB71E
:10037000DEB710922A0310921D03BFDFAADFEAE75F
:10038000F0E080818068808319828981853008F05F
:1003900051C00AE710E00F2EF8E7EF2EF12CF02DF8
:1003A000BB24B394A12CCC24C394D12C8981E0DE4E
:1003B000F801808180648083F801808184FFFCCF14
:1003C000F70180819181E981F0E0EE0FFF1FEE0FD0
:1003D000FF1FE150FD4F20813181E981F0E0EE0FF8
:1003E000FF1FEE0FFF1FE150FD4F628173814B2D08
:1003F0008217930708F04A2D411107C02B2D68176B
:10040000790708F02A2D222371F0998120912A037F
:100410009D5FA60102C0440F551F9A95E2F7CA01DD
:10042000822B80932A0389818F5F8983898185301C
:1004300008F4BCCFEAE7F0E080818F7780830F90EB
:10044000DF91CF911F910F91FF90EF90DF90CF90B0
:10045000BF90AF900895AF92BF92CF92DF92EF928C
:10046000FF920F931F93CF93DF9300D01F92CDB7CE
:10047000DEB7EAE7F0E080818068808319828981B5
:10048000853008F073C00AE710E00F2EF8E7EF2E72
:10049000F12CF02DCC24C394D12CBB24B394A12CEB
:1004A000898166DE1B821A8224E030E0F8018081B7
:1004B00080648083F801808184FFFCCFF701808114
:1004C0009181E981F0E0EE0FFF1FEE0FFF1FE15079
:1004D000FD4F40815181E981F0E0EE0FFF1FEE0FEB
:1004E000FF1FE150FD4F0280F381E02D6B2D84173B
:1004F000950708F06A2D611107C04B2DE817F90721
:1005000008F04A2D442371F0598160912A035D5F00
:10051000F60102C0EE0FFF1F5A95E2F7AF01462B1E
:1005200040932A034A815B81840F951F9B838A83B2
:100530002150310909F0BACF8A819B81E981F0E02D
:10054000EE0FFF1FE25EFC4F9C01992314F42D5F18
:100550003F4F3595279535952795318320838981A0
:100560008F5F89838981853008F49ACF0F900F902F
:100570000F90DF91CF911F910F91FF90EF90DF903F
:10058000CF90BF90AF9008951F93CF93DF93E1E397
:10059000F3E084EC8083118284E0828363E0CF0106
:1005A0000E946C0B0E94680B8111FCCFE1E3F3E029
:1005B00084EC808381E0818362E0CF010E946C0B38
:1005C0000E94680B8111FCCFC1E3D3E015EC1883C6
:1005D000198262E0CE010E946C0B0E94680B8111AF
:1005E000FCCF62E0CE010E94980B80934103898189
:1005F0008093420480FDEBCFE1E3F3E084EC808361
:100600008FE8818362E0CF010E946C0B0E94680B2F
:100610008111FCCFE1E3F3E085EC8083118212824B
:1006200063E0CF010E946C0B0E94680B8111FCCF2C
:1006300063E081E393E00E94980B80934103E1E340
:10064000F3E0818190E0982F88272281820F911D0D
:10065000DF91CF911F910895FF920F931F93CF9336
:10066000DF9380910001882359F1C2E4D3E00F2E7B
:10067000FCEEFF2EF02D03EF1DEEF882098362E001
:10068000CE010E946C0B0E94680B8111FCCF188375
:100690006AE1CE010E946C0B0E94680B8111FCCFB5
:1006A0006AE1CE010E94980B80934103898183FB0C
:1006B000882780F980930001809100018111DDCFAE
:1006C000E2E4F3E08CEE808388E8818362E0CF018E
:1006D0000E946C0BFDD78111FDCF8DEE80934203FC
:1006E0006BE182E493E0F8D7F3D78111FDCF6BE1A2
:1006F00082E493E00E94980B80934103C3E4D3E02B
:100700000BE414E02EE533E0D801FE0181918D93D6
:10071000E217F307D9F78BE18093CD01EBE4F4E026
:10072000818190E0982F88272081822B9093460426
:1007300080934504838190E0982F88272281822B23
:1007400090934A0480934904858190E0982F8827EC
:100750002481822B9093C2048093C104878190E00E
:10076000982F88272681822B9093B6048093B50416
:10077000818590E0982F88272085822B90937E0496
:1007800080937D04838590E0982F88272285822B93
:100790009093B8048093B704858590E0982F8827BC
:1007A0002485822B9093800480937F04878590E03A
:1007B000982F88272685822B90938F0480938E0410
:1007C000818990E0982F88272089822B9093C404F8
:1007D0008093C304838990E0982F88272289822BF5
:1007E0009093440480934304858990E0982F882750
:1007F0002489822B9093BA048093B904878990E06E
:10080000982F88272689822B9093C0048093BF0459
:10081000818D90E09093780480937704E2E4F3E094
:100820008CEE808381EE818362E0CF0155D750D773
:100830008111FDCF8DEE8093420368E082E493E066
:100840004BD746D78111FDCF68E082E493E070D7A3
:10085000809341032AE433E08991F80181938F0169
:10086000C217D307C9F787E08093CD01EBE4F4E02A
:10087000828190E0982F88272181822B9093C60453
:100880008093C504838190E09093BE048093BD045F
:10089000858182958695877090E0248140E1249F30
:1008A00090011124282B392B3093480420934704BE
:1008B000268140E1249F90011124822B932B909359
:1008C000BC048093BB04878190E09093890480935B
:1008D0008804DF91CF911F910F91FF900895E2E47A
:1008E000F3E08CEE808380EE818386EB828363E08D
:1008F000CF01F2D6EDD68111FDCFE2E4F3E08CEE2C
:10090000808380ED818362E0CF01E6D6E1D681115C
:10091000FDCF8DEE8093420362E082E493E0DCD66B
:10092000D7D68111FDCF62E082E493E001D78093B6
:10093000410380914303803669F5E2E4F3E08CEEF5
:10094000808382EF818381E0828363E0CF01C4D61C
:10095000BFD68111FDCFE2E4F3E08CEE808385EF1A
:10096000818380E1828363E0CF01B6D6B1D6811165
:10097000FDCF72DE81E380938104E2E4F3E09CEE3C
:10098000908394EF9183828363E0CF01A5D6A0D6B4
:100990008111FDCF0895FF920F931F93CF93DF93A3
:1009A00081E08093CC018091CC01882331F1C2E4B5
:1009B000D3E00F2EFCEEFF2EF02D03EF1DEEF8829C
:1009C000098362E0CE0188D683D68111FDCF1883DA
:1009D00062E0CE0181D67CD68111FDCF62E0CE01EE
:1009E000A7D680934103898183FB882780F9809370
:1009F000CC018091CC018111E2CFE2E4F3E08CEEF6
:100A0000808387EF818362E0CF0166D661D6811152
:100A1000FDCF8DEE8093420369E082E493E05CD6E3
:100A200057D68111FDCF69E082E493E081D68093AF
:100A30004103E3E4F3E0ABE4B4E02BE433E0819181
:100A40008D93E217F307D9F7EBE4F4E0808190E0AF
:100A5000A0E0B0E0AC01BD01032E3CE0440F551F07
:100A6000661F771F3A95D1F7302D9181892F90E03D
:100A7000A0E0B0E0880F991FAA1FBB1F880F991F25
:100A8000AA1FBB1F880F991FAA1FBB1F880F991F82
:100A9000AA1FBB1F842B952BA62BB72B2281229537
:100AA0002F70822B8093910490939204A0939304CF
:100AB000B0939404838190E0A0E0B0E0AC01BD016C
:100AC000032E3CE0440F551F661F771F3A95D1F760
:100AD000302D9481892F90E0A0E0B0E0880F991F1D
:100AE000AA1FBB1F880F991FAA1FBB1F880F991F22
:100AF000AA1FBB1F880F991FAA1FBB1F842B952BF2
:100B0000A62BB72B258122952F70822B80937904F9
:100B100090937A04A0937B04B0937C04868190E048
:100B2000A0E0B0E0BA2FA92F982F88272781822B29
:100B30008093950490939604A0939704B09398049F
:100B4000E2E4F3E08CEE808384EF818381E38283AF
:100B500063E0CF01C1D5BCD58111FDCFDF91CF912D
:100B60001F910F91FF9008958F929F92AF92BF9225
:100B7000CF92DF92EF92FF9220914504309146048C
:100B80006B017C01689413F8F594E794D794C794AB
:100B90001694D1F7C21AD30AE108F108DC01CB019F
:100BA000689412F8B595A795979587951694D1F7FF
:100BB000220F331F4C015D01821A930AA108B1086C
:100BC000A5019401A0914904B0914A0458D74B0162
:100BD0005C01072E7BE0B594A794979487947A954F
:100BE000D1F7702DA7019601C701B60126D79B0149
:100BF000AC01012E1CE055954795379527951A9520
:100C0000D1F7102DA091C104B091C20438D7DC01F6
:100C1000CB01072E7EE0B595A795979587957A9598
:100C2000D1F7702D880D991DAA1DBB1D8093C70497
:100C30009093C804A093C904B093CA046C017D01C9
:100C4000CC0CDD1CEE1CFF1CCC0CDD1CEE1CFF1CB8
:100C50008C0D9D1DAE1DBF1D80589F4FAF4FBF4FC8
:100C6000692F7A2F8B2F992787FD9A95FF90EF9008
:100C7000DF90CF90BF90AF909F908F9008952F926C
:100C80003F924F925F926F927F928F929F92AF921C
:100C9000BF92CF92DF92EF92FF920F931F93CF9369
:100CA000DF93CDB7DEB766970FB6F894DEBF0FBE01
:100CB000CDBF698B7A8B8B8B9C8B8091C704909175
:100CC000C804A091C904B091CA049C01AD01345F6D
:100CD0004140510929833A834B835C83550F220B92
:100CE000322FA9012D833E834F835887A980BA8074
:100CF000CB80DC80ED80FE2C0E2D1E2D2A2D3B2D71
:100D00004C2D5D2D602F702F802F9E2DBED62987F4
:100D10003A874B875C876D877E878F87988B30916A
:100D20007E0420917D04932F990F990BE02E0F2DB7
:100D3000492F592F692F792F892FA7D60CE0C6D7B5
:100D4000622E732E842E952E6E8B7D8B582E492EFF
:100D50003091B8042091B704932F990F990BA9846F
:100D6000BA84CB84DC84ED84FE840F851889492FF6
:100D7000592F692F792F892F88D608E0C0D7A62C44
:100D8000B72CC82CD92CEE88FD88052D142DD5D76D
:100D900070588F4F9F4F2090B5043090B604A22C0E
:100DA000B32CC12CD12CE12CF12C00E010E06DD63D
:100DB00001E2A5D7322E232E942E5E8B6D8B472E0B
:100DC000582E692EA0E0CBD709F437C13091C40466
:100DD0002091C304932F990F990BA984BA84CB84D3
:100DE000DC84ED84FE840F851889492F592F692FE3
:100DF000792F892F4AD629873A874B87752E862ED9
:100E00007C878D879E8730918F0420918E04932F4D
:100E1000990F990BA980BA80CB80DC80ED80FE2CE5
:100E20000E2D1E2D492F592F692F792F892F2DD641
:100E300001E14CD7A984BA84CB84D72CE82CFC845C
:100E40000D851E857AD7A22EB32EC42ED52EE62E62
:100E5000F72E782E192F80E090E0A0E1B0E02989EC
:100E60003A894B895C89821B930BA40BB50B9C01BF
:100E7000AD01550F220B322FA90129833A834B83F1
:100E80005C83282F392F4A2F5B2F6981762F862F7D
:100E9000962F0FE11BD7822E39834D835987B62FAA
:100EA000A72FF82FE92F3091800420917F04932FF2
:100EB000990F990B492F592F692F792F892F03E209
:100EC00005D7072D3AD7A22EB32EC42ED52EE62E47
:100ED000F72E082F192F282D39814D8159856B2F19
:100EE0007A2F8F2F9E2F32D70F2EF5E3AF2EF02DB6
:100EF0000F2EFCE0BF2EF02DC12CD12CE12CF12CBB
:100F000000E010E0C2D5A32CB22CC92CDE88ED88FD
:100F1000F42C052D162D0CD62E873D8749835D8335
:100F200069877A878B879C870DE0E9D6922E832E7E
:100F3000742E652E562E472E382E292E3091C00441
:100F40002091BF04932F990F990BA92CB82CC72C73
:100F5000D62CE52CF42C032D122D492F592F692F57
:100F6000792F892F92D591D509E1C9D6AE84BD8458
:100F7000C980DD80E984FA840B851C85DED6222EAB
:100F8000332E442E552E662E772E882E992E309194
:100F9000BA042091B904932F990F990B492F592F17
:100FA000692F792F892F71D503E1A9D6A22EB32EEF
:100FB000C42ED52EE62EF72E082F192F222D332DD5
:100FC000442D552D662D772D882D992DB6D608E008
:100FD00096D6A22EB32EC42ED52EE62EF72E082F8F
:100FE000192F8091430490914404092E000CAA0B00
:100FF000BB0B880F991FAA1FBB1F880F991FAA1F21
:10100000BB1F880F991FAA1FBB1F880F991FAA1FFC
:10101000BB1F2C013D01770C4408542C3201282FB2
:10102000392F4A2F5B2F642D742D842D942D85D656
:10103000622F732F842F952F04C060E070E080E052
:1010400090E066960FB6F894DEBF0FBECDBFDF917D
:10105000CF911F910F91FF90EF90DF90CF90BF90B5
:10106000AF909F908F907F906F905F904F903F9048
:101070002F9008952F923F924F925F926F927F929E
:101080008F929F92AF92BF92CF92DF92EF92FF9298
:101090000F931F93CF93DF93CDB7DEB767970FB64C
:1010A000F894DEBF0FBECDBF2B013C018091C70479
:1010B0009091C804A091C904B091CA046C017D014B
:1010C000FF0CCC08DC2C7601282F392F4A2F5B2F00
:1010D0006C2D7C2D8C2D9C2D3C5241405109610979
:1010E0007109810991092F8B3E8B498359876A8742
:1010F0007B878C879D87032E3EE0440C551C661C25
:10110000771C3A95D1F7302D53014201BB0C88086A
:10111000982C54013091480420914704932F990F43
:10112000990B492F592F692F792F892F04E1CED59B
:10113000F22FE32FC42ED52EE62EF72E082F192FCF
:10114000242D352D462D572D682D782D882D982D41
:10115000AF2EBE2EFBD5222E332E442E552E662EBC
:10116000772E882E992E3091BC042091BB04932FAA
:10117000990F990BAF88BE88C980D984EA84FB8413
:101180000C851D85492F592F692F792F892F7DD4E3
:10119000A22EB32EC42ED52EE62EF72E082F192FF1
:1011A000222D332D442D552D662D772D882D992DEB
:1011B000CDD5305C4F4F5F4F6F4F7F4F8F4F9F4F5D
:1011C0000FE09DD52E873F87488B598B6A8B7B8B91
:1011D0008C8B9D8B4091BD045091BE04AF88BE881E
:1011E000C980D984EA84FB840C851D85242F352F82
:1011F00040E050E060E070E080E090E046D40BE03A
:101200007ED530584F4F5F4F6F4F7F4F8F4F9F4F5F
:10121000222E332E442E552E662E772E882E992E72
:101220003091890420918804932F990F990B0C8594
:10123000492F592F692F792F892F27D40AE05FD59D
:10124000A22EB32EC42ED52EE62EF72E082F192F40
:10125000222D332D442D552D662D772D882D992D3A
:1012600014D40AE04CD5405E5F4F6F4F7F4F8F4FD5
:101270009F4FB090C604A090C5041B2D110F110BF9
:10128000C12ED12EE12EF12E012FFFD3305E4F4F14
:101290005F4F6F4F7F4F8F4F9F4F0EE030D5A22E85
:1012A000B32EC42ED52EE62EF72E082F192F2E85FD
:1012B0003F85488959896A897B898C899D89E5D3CD
:1012C000422E532E642E752E862E972E8A8799874E
:1012D0000FE015D5A22EB32EC42ED52EE62EF72E56
:1012E000082F192FD2D307E00AD5E0917704F091A7
:1012F00078045F01C12CD12CE12CF12C8701E9830A
:10130000BA82CB82DC82ED82FE820F831887C12CE9
:10131000D12CE12CF12C00E010E0B7D304E0EFD4A5
:10132000A22EB32EC42ED52EE62EF72E082F192F5F
:10133000242D352D462D572D682D792D8A8599859B
:1013400005D5F22E032F142F59876983B72FF82F55
:10135000E92FA0E004D544F4F12C00E010E0198658
:101360001982B0E0F0E0E0E08F2C902EA12EB9843D
:10137000C980DB2EEF2EAE2F2F2D302F412F5B2D6E
:101380006C2D7B2F8F2F9E2F211531054105594143
:10139000610571058105910561F05CF0812C912C4E
:1013A000A12C0F2EF9E1BF2EF02DC12CD12CE12C58
:1013B000A0E0282D392D4A2D5B2D6C2D7D2D8E2DF5
:1013C0009A2F0CE09CD4622F732F842F952F679651
:1013D0000FB6F894DEBF0FBECDBFDF91CF911F9146
:1013E0000F91FF90EF90DF90CF90BF90AF909F90C4
:1013F0008F907F906F905F904F903F902F900895C7
:101400000E945F011092B4041092B3041092FE0285
:101410008BE291E09093CE068093CD062FD181E8A8
:1014200090E029D281E890E09ED248D10E94C1008C
:101430000E94AC012A9A2FE784E89EE12150804067
:101440009040E1F700C000002A982FE784E89EE171
:10145000215080409040E1F700C0000078943FDACE
:1014600081E091E045D20F2EFAE3AF2EF1E0BF2EDE
:10147000F02D0F2EFBECCF2EF5E0DF2EF02D0F2EF2
:10148000F8E4EF2EF1E0FF2EF02D0CE411E0CEE1B8
:10149000D3E00F2EF0E68F2EF1E09F2EF02D0F2ED1
:1014A000F9E62F2EF1E03F2EF02D8091FE028130E3
:1014B000E1F71092FE028091B3049091B40401967A
:1014C0009093B4048093B3048091B3049091B404D6
:1014D0009F938F93BF92AF925DD4DF92CF92FF9292
:1014E000EF9258D451D88093190390931A039F9385
:1014F0008F931F930F934ED40E942B0289818F9359
:1015000088818F939F928F9245D48B818F938A810C
:101510008F933F922F923ED48D818F938C818F93A6
:1015200081E791E09F938F9335D48F818F938E8144
:101530008F938AE791E09F938F932CD489858F9323
:1015400088858F9384E891E09F938F9323D48DB700
:101550009EB780960FB6F8949EBF0FBE8DBF1BDA64
:101560006091790470917A0480917B0490917C045D
:10157000FBDA609373047093740480937504909302
:1015800076049F938F937F936F938DE891E09F9361
:101590008F9300D460919104709192048091930490
:1015A000909194046CDB6093820470938304809325
:1015B000840490938504BB2797FDBA95A92F982F93
:1015C000872FBF93AF939F938F938CE991E09F9365
:1015D0008F93E0D360919504709196048091970465
:1015E0009091980447DD2B013C0160938A0470932D
:1015F0008B0480938C0490938D04A8EEB3E09B0140
:10160000AC0133D2DC01CB01072E7AE0B595A7956A
:10161000979587957A95D1F7702DBF93AF939F9348
:101620008F93D301C201072E7AE0B595A7959795C0
:1016300087957A95D1F7702DBF93AF939F938F9332
:1016400082EB91E09F938F93A5D3E9ECF0E080814A
:10165000806980838DB79EB746960FB6F8949EBF7B
:101660000FBE8DBF22CF1F920F920FB60F92112483
:101670002A9A0F900FBE0F901F9018958DE08093BF
:1016800081008AE49CE49093890080938800089507
:1016900018951F920F920FB60F9211248F939F935C
:1016A00095B182E0892785B981E08093FE029F9100
:1016B0008F910F900FBE0F901F90189581E180932E
:1016C000B8008FEF8093BB0084E08093BC00089546
:1016D0008091BC0081780895CF93DF93EC01ECEB0F
:1016E000F0E090819178E9F76093D0018881809350
:1016F000D10180FD12C0623080F0FE013196A2ED72
:10170000B1E06250262F30E02E5F3F4F2C0F3D1F7F
:1017100091919D93E217F307D9F71092CF0188EFCB
:101720008093390185EA8093BC00DF91CF910895C1
:10173000AC01ECEBF0E090819178E9F78091CF017A
:1017400080FF11C0662379F0A1EDB1E0FA0161508C
:10175000262F30E02F5F3F4F240F351F9D9191932F
:10176000E217F307D9F78091CF01817008951F9296
:101770000F920FB60F9211240BB60F922F933F9337
:101780008F939F93AF93BF93EF93FF93E091B90033
:101790008E2F90E0FC013897E135F10508F055C037
:1017A000EA5BFF4F59C11092CE01E091CE018091CA
:1017B000D001E81770F481E08E0F8093CE01F0E045
:1017C000EF52FE4F80818093BB0085E88093BC0080
:1017D00043C08091CF0181608093CF0184E98093E1
:1017E000BC003AC0E091CE0181E08E0F8093CE0123
:1017F0008091BB00F0E0EF52FE4F80832091CE013C
:1018000030E08091D00190E001972817390724F447
:1018100085EC8093BC0020C085E88093BC001CC090
:101820008091BB00E091CE01F0E0EF52FE4F80834B
:101830008091CF0181608093CF0184E98093BC00C7
:101840000BC085EA8093BC0007C08091B9008093EB
:10185000390184E08093BC00FF91EF91BF91AF917B
:101860009F918F913F912F910F900BBE0F900FBEC4
:101870000F901F9018959093C5008093C40088E046
:101880008093C10086E08093C2001092E302109220
:10189000E4021092E1011092E20108952091E20128
:1018A0002F5F9091E1012917E1F3E22FF0E0ED5174
:1018B000FE4F80832093E201E1ECF0E080818062C2
:1018C000808308952091E2012F5F9091E101291713
:1018D000E1F3E22FF0E0ED51FE4F80832093E2012F
:1018E000E1ECF0E080818062808380E090E0089508
:1018F000CF93DF93EC018881882329F02196CEDFF6
:1019000089918111FCCFDF91CF9108951F920F92A1
:101910000FB60F9211240BB60F928F939F93EF93F4
:10192000FF939091E2018091E101981761F0E091BD
:10193000E101EF5FE093E101F0E0ED51FE4F8081C6
:101940008093C60005C0E1ECF0E080818F7D80834C
:10195000FF91EF919F918F910F900BBE0F900FBE53
:101960000F901F9018959093CD008093CC0080E944
:101970008093C90086E08093CA001092E70210921B
:10198000E8021092E5021092E60208951F920F926B
:101990000FB60F9211240BB60F922F933F938F9394
:1019A0009F93AF93BF93CF93DF93EF93FF93909168
:1019B000CE008091E8028F5F8093E8022091E702D9
:1019C000E82FF0E0E553FB4F90839A3029F5909192
:1019D000D0049734E9F4E0E02E2F30E0D901A5538C
:1019E000BA4FE901C553DB4F99819C93EF5F8E1786
:1019F00098F7F0E0E553FA4F1082E9ECF0E08081CF
:101A0000108281E08093FE0295B182E0892785B93A
:101A10001092E7021092E802FF91EF91DF91CF91CF
:101A2000BF91AF919F918F913F912F910F900BBEDE
:101A30000F900FBE0F901F901895DB018F939F930F
:101A400014D0BF91AF91A29F800D911DA39F900DC7
:101A5000B29F900D11240895EE0FFF1F0024001C6B
:101A60000BBE0790F691E02D099485D1A59F900DAE
:101A7000B49F900DA49F800D911D11240895B7FF70
:101A8000F4CFF3DF821B930B0895DF93CF931F9363
:101A90000F939A9DF02D219FF00D8B9DF00D8A9D47
:101AA000E02DF10D039FF00D029FE00DF11D4E9D05
:101AB000E00DF11D5E9DF00D4F9DF00D7F936F9336
:101AC000BF92AF925F934F93D50155D18B01AC017B
:101AD000D70151D1EB01E80FF91FD6011FD02F918B
:101AE0003F91D60148D1C60FD71FE81FF91FAF910C
:101AF000BF9114D02F913F913ED1C60FD71FE81F41
:101B0000F91FD60138D1E60FF71F9801BE01CF01AA
:101B100011240F911F91CF91DF9108952CD1460F81
:101B2000571FC81FD91F08F431960895689401C043
:101B3000E894F92FF12B0AF027C0A0E0B0E0E2EA28
:101B4000FDE093C0092E05941AF479D0112392F484
:101B5000F0E80F26FFEFE094F09400951095B09414
:101B6000C094D094A194BF0ACF0ADF0AEF0AFF0AFB
:101B70000F0B1F0B13D007FC62D0CDB7DEB7ECE024
:101B800090C0689401C0E8948F929F92CF93DF93A6
:101B900005D0DF91CF919F908F900895882499244C
:101BA000F401E401B0E49F93AA279A158B049C04E6
:101BB000ED05FE05CF05D007A10798F4AD2FDC2F6A
:101BC000CF2FFE2FE92D982C892E982F872F762F37
:101BD000652F542F432F322F2227B85031F7BF9152
:101BE00027C01B2EBF91BB27220F331F441F551F39
:101BF000661F771F881F991F881C991CEE1FFF1FE7
:101C0000CC1FDD1FAA1FBB1F8A149B04EC05FD051A
:101C1000CE05DF05A007B10748F08A189B08EC093C
:101C2000FD09CE09DF09A00BB10B21601A94E1F682
:101C30002EF49401AF01BE01CD01000C0895609512
:101C400070958095909530954095509521953F4F92
:101C50004F4F5F4F6F4F7F4F8F4F9F4F08952F9282
:101C60003F924F925F926F927F928F929F92AF922C
:101C7000BF92CF92DF92EF92FF920F931F93CF9379
:101C8000DF93CDB7DEB7CA1BDB0B0FB6F894DEBF10
:101C90000FBECDBF09942A88398848885F846E8436
:101CA0007D848C849B84AA84B984C884DF80EE8080
:101CB000FD800C811B81AA81B981CE0FD11D0FB689
:101CC000F894DEBF0FBECDBFED0108950F9308302D
:101CD00090F0982F872F762F652F542F432F322F78
:101CE00022270850F4CF220F331F441F551F661FB1
:101CF000771F881F991F0A95B2F70F91089597FBD8
:101D000010F8169400080F93083098F00850232F0D
:101D1000342F452F562F672F782F892F902DF4CFF2
:101D20000594979587957795679557954795379536
:101D300027950A95AAF70F9108952A0D3B1D4C1D72
:101D40005D1D6E1D7F1D801F911F08952A193B097F
:101D50004C095D096E097F09800B910B08950024E1
:101D6000A7FD00942A173005400550056005700551
:101D7000800590050895A29FB001B39FC001A39F65
:101D8000700D811D1124911DB29F700D811D1124B4
:101D9000911D0895CF93DF93CDB7DEB7AE014B5FB2
:101DA0005F4FFA0161917191AF018091CD069091E1
:101DB000CE0603D0DF91CF9108952F923F924F929C
:101DC0005F926F927F928F929F92AF92BF92CF92CB
:101DD000DF92EF92FF920F931F93CF93DF93CDB7D4
:101DE000DEB72B970FB6F894DEBF0FBECDBF6C01E8
:101DF0007B018A01FC0117821682838181FFBFC1AA
:101E0000CE0101963C01F6019381F70193FD859186
:101E100093FF81917F01882309F4ADC1853239F4A4
:101E200093FD859193FF81917F01853221F4B60165
:101E300090E0D6D1E8CF912C212C312CFFE1F31585
:101E4000D8F08B3279F038F4803279F08332A1F413
:101E5000232D20611DC08D3261F0803369F4232D64
:101E6000216016C0832D8260382EE32DE4603E2E63
:101E70002AC0F32DF8601DC037FC2DC020ED280FBF
:101E80002A3040F08E32B9F436FC75C1232D20641F
:101E9000322E19C036FE06C08AE0989E200D11240D
:101EA000922E11C0EAE02E9E200D1124222EF32D39
:101EB000F0623F2E08C08C3621F4832D8068382EC6
:101EC00002C0883641F4F70193FD859193FF81911B
:101ED0007F018111B3CF982F9F7D9554933028F4C3
:101EE0000C5F1F4F9FE399830DC0833631F083371A
:101EF00071F0833509F055C020C0F80180818983D5
:101F00000E5F1F4F88248394912C530112C0280127
:101F1000F2E04F0E511CF801A080B18036FE03C0E4
:101F2000692D70E002C06FEF7FEFC5014ED14C010B
:101F30008201F32DFF773F2E15C0280122E0420ECB
:101F4000511CF801A080B18036FE03C0692D70E0FD
:101F500002C06FEF7FEFC5012DD14C01F32DF0686A
:101F60003F2E820133FC19C0822D90E0881699061D
:101F7000A0F4B60180E290E033D12A94F5CFF501C8
:101F800037FC859137FE81915F01B60190E028D141
:101F900021102A9421E0821A91088114910479F782
:101FA000E1C0843611F0893639F5F80137FE07C0F3
:101FB00060817181828193810C5F1F4F08C06081B5
:101FC0007181072E000C880B990B0E5F1F4FF32DAC
:101FD000FF763F2E97FF09C090958095709561958B
:101FE0007F4F8F4F9F4FF0683F2E2AE030E0A301D4
:101FF00033D1882E861844C0853731F4232D2F7EA7
:10200000B22E2AE030E025C0932D997FB92E8F366D
:10201000C1F018F4883579F0AEC0803719F08837F0
:1020200021F0A9C0E92FE061BE2EB4FE0DC0FB2D4A
:10203000F460BF2E09C034FE0AC0292F2660B22EDC
:1020400006C028E030E005C020E130E002C020E119
:1020500032E0F801B7FE07C060817181828193810F
:102060000C5F1F4F06C06081718180E090E00E5FC1
:102070001F4FA301F1D0882E8618FB2DFF773F2E2E
:1020800036FE0DC0232D2E7FA22E891458F434FE67
:102090000BC032FC09C0832D8E7EA82E05C0B82C43
:1020A000A32C03C0B82C01C0B92CA4FE0FC0FE01A4
:1020B000E80DF11D8081803321F49A2D997EA92E9F
:1020C00009C0A2FE06C0B394B39404C08A2D8678DA
:1020D00009F0B394A3FC10C0A0FE06C0B21480F4B3
:1020E000280C922C9B180DC0B21458F4B60180E253
:1020F00090E076D0B394F8CFB21418F42B1802C045
:10210000982C212CA4FE0FC0B60180E390E068D08B
:10211000A2FE16C0A1FC03C088E790E002C088E5DB
:1021200090E0B6010CC08A2D867851F0A1FE02C065
:102130008BE201C080E2A7FC8DE2B60190E050D0B6
:10214000891430F4B60180E390E04AD09A94F8CF35
:102150008A94F301E80DF11D8081B60190E040D032
:102160008110F6CF222009F44ECEB60180E290E035
:1021700037D02A94F7CFF6018681978102C08FEF7E
:102180009FEF2B960FB6F894DEBF0FBECDBFDF9149
:10219000CF911F910F91FF90EF90DF90CF90BF9064
:1021A000AF909F908F907F906F905F904F903F90F7
:1021B0002F900895FC010590615070400110D8F7F0
:1021C000809590958E0F9F1F0895FC01615070407F
:1021D00001900110D8F7809590958E0F9F1F08955C
:1021E0000F931F93CF93DF93FB01238121FD03C046
:1021F0008FEF9FEF2CC022FF16C0468157812481AC
:1022000035814217530744F4A081B1819D012F5FAE
:102210003F4F318320838C93268137812F5F3F4F3F
:102220003783268314C08B01EC01FB010084F18508
:10223000E02D0995892BE1F6D80116968D919C9198
:102240001797019617969C938E931697CE01DF9160
:10225000CF911F910F910895FA01AA27283051F1CB
:10226000203181F1E8946F936E7F6E5F7F4F8F4FC7
:102270009F4FAF4FB1E03ED0B4E03CD0670F781F26
:10228000891F9A1FA11D680F791F8A1F911DA11D0B
:102290006A0F711D811D911DA11D20D009F4689444
:1022A0003F912AE0269F11243019305D3193DEF6EC
:1022B000CF010895462F4770405D4193B3E00FD0A2
:1022C000C9F7F6CF462F4F70405D4A3318F0495D8D
:1022D00031FD4052419302D0A9F7EACFB4E0A69570
:1022E0009795879577956795BA95C9F70097610592
:1022F000710508959B01AC010A2E069457954795E8
:1023000037952795BA95C9F7620F731F841F951FDC
:10231000A01D0895A8E1B0E042E050E002C0DC0159
:10232000CB01FC01F999FECF06C0F2BDE1BDF89AE0
:10233000319600B40D9241505040B8F70895F8948A
:02234000FFCFCD
:102342000148656C6C6F20576F726C6421212054B8
:1023520068652073657269616C20706F72742069A0
:102362007320776F726B696E6721000000000200B4
:10237200000000620C00000000F80A5365636F6EF3
:102382006473203D202575000A2573004C494441A1
:10239200522064697374616E6365203D2025750067
:1023A2000A434F203D202575000A48203D2025750F
:1023B200000A4E41203D202575000A434834203D45
:1023C200202575000A4F33203D202575000A4365FC
:1023D2006C73697573203D20256C75000A50726517
:1023E200737375726520696E205061203D20256CE3
:1023F20075000A48756D69646974792525203D2048
:0A240200256C752E256C750A00008C
:00000001FF
