:100000008EC00000A9C00000A7C00000A5C000006D
:10001000A3C00000A1C000009FC000009DC0000060
:100020009BC0000099C0000097C0000095C0000070
:1000300093C000000C94C50B8FC000008DC0000061
:100040000C94C40B89C0000087C0000085C000006C
:1000500083C000000C94FE0C7FC000007DC0000037
:100060007BC0000079C000000C94330C75C0000008
:100070000C943A0D0C94820D6FC000004D0C9F0C37
:100080009F0C9F0C9F0C9F0C9F0C9F0C4D0C9F0C6A
:100090009F0C9F0C9F0C9F0C9F0C9F0C4F0C9F0C58
:1000A0009F0C9F0C9F0C9F0C9F0C9F0C9F0C9F0CF8
:1000B0009F0C9F0C9F0C9F0C9F0C9F0C4F0C9F0C38
:1000C0009F0C9F0C9F0C9F0C9F0C9F0C9F0C9F0CD8
:1000D0009F0C9F0C9F0C9F0C9F0C9F0C9B0C9F0CCC
:1000E0009F0C9F0C9F0C9F0C9F0C9F0C780C9F0CDF
:1000F0009F0C9F0C9F0C9F0C9F0C9F0C9F0C9F0CA8
:100100009F0C9F0C9F0C9F0C9F0C9F0C6C0C9F0CCA
:100110009F0C9F0C9F0C9F0C9F0C9F0C8A0C112412
:100120001FBECFEFD8E0DEBFCDBF12E0A0E0B1E050
:10013000E6EEF3E202C005900D92A838B107D9F7B8
:1001400028E0A8E8B2E001C01D92A437B207E1F7A9
:100150000E94490A0C94F11153CFECE7F0E0908132
:10016000907E90839081892B80830895CF93DF9335
:10017000ECE7F0E0808180648083CAE7D0E088818A
:100180008160888388818260888388818460888395
:10019000A4E6B0E08C918E7F8C9380818F7D8083EC
:1001A0008FE380937E0088818068888310927B0033
:1001B0008FE1D3DF888180648883EAE7F0E0808183
:1001C00084FFFDCFEAE7F0E0808180648083808156
:1001D00084FFFDCF8091780090E090938902809316
:1001E0008802909179002091880230918902892FAC
:1001F00090E0982F8827820F931F90938902809315
:100200008802809188029091890299231CF491952B
:100210008195910905972CF08091E7048160809386
:10022000E7048EE19ADFEAE7F0E080818064808372
:10023000808184FFFDCF8091780090E090938902C7
:1002400080938802909179002091880230918902F0
:10025000892F90E0982F8827820F931F909389020F
:10026000809388028091880290918902815E910931
:1002700090938902809388028091880290918902EC
:1002800099231CF491958195910905972CF0809103
:10029000E70482608093E704EAE7F0E080818F77EB
:1002A0008083DF91CF91089587E084B985B115B837
:1002B0002B9A389A399A409A419A089580E090E0B2
:1002C0002FEF33E0FC01EE0FFF1FEE0FFF1FE35493
:1002D000FB4F118210823383228301968530910572
:1002E00089F70895EF92FF920F931F93CF93DF93B7
:1002F0000F2EF7EAEF2EF4E0FF2EF02D00E010E0D5
:10030000C7010E94DC11E801CC0FDD1FCC0FDD1FFF
:10031000C354DB4F99838883C70102960E94DC1186
:100320009B838A830F5F1F4F84E0E80EF11C05302A
:10033000110531F7DF91CF911F910F91FF90EF9051
:100340000895AF92BF92CF92DF92EF92FF920F93F8
:100350001F93CF93DF931F92CDB7DEB71092E704C0
:100360001092DA04BFDFAADFEAE7F0E0808180685C
:10037000808319828981853008F051C00AE710E036
:100380000F2EF8E7EF2EF12CF02DBB24B394A12C07
:10039000CC24C394D12C8981E0DEF8018081806473
:1003A0008083F801808184FFFCCFF70180819181F7
:1003B000E981F0E0EE0FFF1FEE0FFF1FE354FB4F4C
:1003C00020813181E981F0E0EE0FFF1FEE0FFF1F6A
:1003D000E354FB4F628173814B2D6817790708F056
:1003E0004A2D411107C04B2D8217930708F04A2D63
:1003F000442371F099812091E7049D5FA60102C01A
:10040000440F551F9A95E2F7CA01822B8093E704A7
:1004100089818F5F89838981853008F4BCCFEAE7C1
:10042000F0E080818F7780830F90DF91CF911F91D3
:100430000F91FF90EF90DF90CF90BF90AF90089515
:100440008F929F92AF92BF92CF92DF92EF92FF92E4
:100450000F931F93CF93DF9300D01F92CDB7DEB7DA
:10046000EAE7F0E0808180688083198289818530A5
:1004700008F076C06894882482F8912C0AE710E08E
:100480000F2EF8E7EF2EF12CF02DCC24C394D12CB5
:10049000BB24B394A12C898160DE1B821A82282D93
:1004A000392DF801808180648083F801808184FF88
:1004B000FCCFF70180819181E981F0E0EE0FFF1F11
:1004C000EE0FFF1FE354FB4F40815181E981F0E0C3
:1004D000EE0FFF1FEE0FFF1FE354FB4F628173818E
:1004E000EB2D6817790708F0EA2DE11107C06B2D95
:1004F0008417950708F06A2D662371F05981609181
:10050000E7045D5FF60102C0EE0FFF1F5A95E2F7A8
:10051000AF01462B4093E7044A815B81840F951F0E
:100520009B838A832150310909F0BBCF8A819B814B
:10053000E981F0E0EE0FFF1FE552FB4F9C0199238C
:1005400014F42D5F3F4F35952795359527953183C9
:10055000208389818F5F89838981853008F49BCFCF
:100560000F900F900F90DF91CF911F910F91FF90FF
:10057000EF90DF90CF90BF90AF909F908F900895B5
:100580001F93CF93DF93EEEEF4E084EC808311822F
:1005900084E0828363E0CF010E94E80B0E94E40BB9
:1005A0008111FCCFEEEEF4E084EC808381E0818366
:1005B00062E0CF010E94E80B0E94E40B8111FCCFA6
:1005C000CEEED4E015EC1883198262E0CE010E94D1
:1005D000E80B0E94E40B8111FCCF62E0CE010E9487
:1005E000140C8093FE0489818093FF0580FDEBCF7E
:1005F000EEEEF4E084EC80838FE8818362E0CF014B
:100600000E94E80B0E94E40B8111FCCFEEEEF4E0B7
:1006100085EC80831182128263E0CF010E94E80B97
:100620000E94E40B8111FCCF63E08EEE94E00E9407
:10063000140C8093FE04EEEEF4E0818190E0982F9C
:1006400088272281820F911DDF91CF911F910895FC
:10065000FF920F931F93CF93DF9380910001882324
:1006600059F1CFEFD4E00F2EFCEEFF2EF02D03EF6B
:100670001DEEF882098362E0CE010E94E80B0E9421
:10068000E40B8111FCCF18836AE1CE010E94E80BD4
:100690000E94E40B8111FCCF6AE1CE010E94140C90
:1006A0008093FE04898183FB882780F98093000171
:1006B000809100018111DDCFEFEFF4E08CEE8083BB
:1006C00088E8818362E0CF010E94E80B0E94E40B7E
:1006D0008111FCCF8DEE8093FF046BE18FEF94E0EE
:1006E0000E94E80B0E94E40B8111FCCF6BE18FEFBD
:1006F00094E00E94140C8093FE04C0E0D5E008E072
:1007000016E02BE135E0D801FE0181918D93E217CF
:10071000F307D9F78BE180938B02E8E0F6E0818163
:1007200090E0982F88272081822B90930306809356
:100730000206838190E0982F88272281822B909354
:10074000070680930606858190E0982F88272481EC
:10075000822B9093650680936406878190E0982FA2
:1007600088272681822B909359068093580681858D
:1007700090E0982F88272085822B90933B068093CA
:100780003A06838590E0982F88272285822B9093C4
:100790005B0680935A06858590E0982F88272485EC
:1007A000822B90933D0680933C06878590E0982F9E
:1007B00088272685822B90934C0680934B0681894F
:1007C00090E0982F88272089822B9093670680934A
:1007D0006606838990E0982F88272289822B909340
:1007E000010680930006858990E0982F8827248948
:1007F000822B90935D0680935C06878990E0982F0A
:1008000088272689822B9093630680936206818DC8
:1008100090E09093350680933406EFEFF4E08CEE91
:10082000808381EE818362E0CF01D2D7CDD7811161
:10083000FDCF8DEE8093FF0468E08FEF94E0C8D782
:10084000C3D78111FDCF68E08FEF94E0EDD780939F
:10085000FE0427E035E08991F80181938F01C217EA
:10086000D307C9F787E080938B02E8E0F6E0828146
:1008700090E0982F88272181822B9093690680939E
:100880006806838190E0909361068093600685817D
:1008900082958695877090E0248140E1249F9001A5
:1008A0001124282B392B309305062093040626812A
:1008B00040E1249F90011124822B932B90935F069B
:1008C00080935E06878190E090934606809345066C
:1008D000DF91CF911F910F91FF900895EFEFF4E01A
:1008E0008CEE808380EE818386EB828363E0CF0190
:1008F0006FD76AD78111FDCFEFEFF4E08CEE8083E4
:1009000080ED818362E0CF0163D75ED78111FDCF97
:100910008DEE8093FF0462E08FEF94E059D754D7B7
:100920008111FDCF62E08FEF94E07ED78093FE04CB
:1009300080910005803669F5EFEFF4E08CEE80835E
:1009400082EF818381E0828363E0CF0141D73CD78E
:100950008111FDCFEFEFF4E08CEE808385EF818392
:1009600080E1828363E0CF0133D72ED78111FDCFA1
:100970006FDE81E380933E06EFEFF4E09CEE908320
:1009800094EF9183828363E0CF0122D71DD7811139
:10099000FDCF0895FF920F931F93CF93DF9381E0D4
:1009A00080938A0280918A02882331F1CFEFD4E0CC
:1009B0000F2EFCEEFF2EF02D03EF1DEEF8820983C3
:1009C00062E0CE0105D700D78111FDCF188362E028
:1009D000CE01FED6F9D68111FDCF62E0CE0124D73B
:1009E0008093FE04898183FB882780F980938A02A3
:1009F00080918A028111E2CFEFEFF4E08CEE8083E8
:100A000087EF818362E0CF01E3D6DED68111FDCF8F
:100A10008DEE8093FF0469E08FEF94E0D9D6D4D6B1
:100A20008111FDCF69E08FEF94E0FED68093FE0444
:100A3000E0E0F5E0A8E0B6E028E035E081918D93B4
:100A4000E217F307D9F7E8E0F6E0818190E0A0E053
:100A5000B0E0880F991FAA1FBB1F880F991FAA1FFC
:100A6000BB1F880F991FAA1FBB1F880F991FAA1FA2
:100A7000BB1F408150E060E070E0032E3CE0440F7B
:100A8000551F661F771F3A95D1F7302D842B952B74
:100A9000A62BB72B228122952F70822B80934E0696
:100AA00090934F06A0935006B0935106848190E036
:100AB000A0E0B0E0880F991FAA1FBB1F880F991FE5
:100AC000AA1FBB1F880F991FAA1FBB1F880F991F42
:100AD000AA1FBB1F438150E060E070E0032E3CE0A2
:100AE000440F551F661F771F3A95D1F7302D842B81
:100AF000952BA62BB72B258122952F70822B8093C7
:100B0000360690933706A0933806B093390686814F
:100B100090E0A0E0B0E0BA2FA92F982F8827278176
:100B2000822B8093520690935306A0935406B09361
:100B30005506EFEFF4E08CEE808384EF818381E350
:100B4000828363E0CF0144D63FD68111FDCFDF9190
:100B5000CF911F910F91FF9008958F929F92AF9226
:100B6000BF92CF92DF92EF92FF92209102063091D6
:100B700003066B017C01689413F8F594E794D7940D
:100B8000C7941694D1F7C21AD30AE108F108DC0120
:100B9000CB01689412F8B595A7959795879516940B
:100BA000D1F7220F331F4C015D01821A930AA1086D
:100BB000B108A5019401A0910606B0910706EAD7F5
:100BC0004B015C01072E7BE0B594A7949794879422
:100BD0007A95D1F7702DA7019601C701B601BBD751
:100BE0009B01AC01012E1CE0559547953795279543
:100BF0001A95D1F7102DA0916406B0916506CAD759
:100C0000DC01CB01072E7EE0B595A79597958795DA
:100C10007A95D1F7702D880D991DAA1DBB1D809363
:100C20006A0690936B06A0936C06B0936D066C01F8
:100C30007D01CC0CDD1CEE1CFF1CCC0CDD1CEE1C65
:100C4000FF1C8C0D9D1DAE1DBF1D80589F4FAF4FCB
:100C5000BF4F692F7A2F8B2F992787FD9A95FF9089
:100C6000EF90DF90CF90BF90AF909F908F900895BE
:100C70002F923F924F925F926F927F928F929F92AC
:100C8000AF92BF92CF92DF92EF92FF920F931F939A
:100C9000CF93DF93CDB7DEB76E970FB6F894DEBF74
:100CA0000FBECDBF6E8B7F8B888F998F80916A0628
:100CB00090916B06A0916C06B0916D068C019D0120
:100CC000145F2140310909831A832B833C83330F3E
:100CD000000B102F98010D831E832F833887A98066
:100CE000BA80CB80DC80ED80FE2C0E2D1E2D2A2DAF
:100CF0003B2D4C2D5D2D602F702F802F9E2D50D7BA
:100D00002D873E874F87588B698B7A8B8B8B9C8B7B
:100D1000109166061A8F209167062E8F30914B0630
:100D20003B8F40914C064D8F50913C065C8F8091DB
:100D30003D068D8B30913B0620913A06932F990FFB
:100D4000990BFE2C0E2D1E2D492F592F692F792F0F
:100D5000892F26D70CE00E94F10E422E532E642ECE
:100D6000752E862E972E282E392EB0905B06A090D9
:100D70005A061B2D110F110BC12ED12EE12EF12E73
:100D8000012F2D853E854F85588969897A898B8900
:100D90009C8906D708E00E940A0FA42CB52CC62C0B
:100DA000D72CE82CF92C022D132D0E94280F7058F7
:100DB0008F4F9F4F2090580630905906A22CB32C8D
:100DC000C12CD12CE12CF12C00E010E0E9D601E29D
:100DD0000E940A0F29873A874B87452E562E7C871B
:100DE000382E292E652D832D922DA0E00E943A0FDA
:100DF00009F46CC1AA8C1E8D110F110BBE8CC12E73
:100E0000D12EE12EF12E012F2D853E854F8558895B
:100E100069897A898B899C89C3D62D873E87642E00
:100E2000752E862E972E888B9F872B8D9D8D990FE3
:100E3000990BA980BA80CB80DC80ED80FE2C0E2D32
:100E40001E2D3D8D492F592F692F792F892FA8D617
:100E500001E1C7D7AD84BE84C62CD72CE82CF92C71
:100E600008891F85F5D7A22EB32EC42ED52EE62EC7
:100E7000F72EE82F192F80E090E0A0E1B0E02E8956
:100E80003F89488D598D821B930BA40BB50B3C01F8
:100E90004D01990C6608762C4301282F392F4A2FD3
:100EA0005B2F662D762D862D962D0FE19AD7822EFB
:100EB000932EF42F752EB62FA72F682E9D832C8D81
:100EC0009D89990F990B3D89492F592F692F792FAA
:100ED000892F03E286D70E2FBBD7A22EB32EC42EA6
:100EE000D52EE62EF72E082F192F282D392D4F2F0E
:100EF000572D6B2F7A2F862D9D81B3D7822E932E5F
:100F00004983652EB62FA72FF82FE92F03E069D765
:100F1000A82CB92CC980D62CEB2EFA2E0F2F1E2F01
:100F2000A0D7A22EB32EC42ED52EE62EF72E782EC5
:100F3000192F03E056D7072D94D703E052D7A82CDA
:100F4000B92CC980D62CEB2EFA2E0F2F1E2F89D745
:100F500002E047D70F2F85D701E043D70F2F81D766
:100F6000A984BA84CB84D42CE52CFC84032D122DC7
:100F70006AD62E873D8749835D8369877A878B8709
:100F80009C870DE047D7822E932E742E652E562E09
:100F9000472E382E292E3091630620916206932F1A
:100FA000990F990BA82CB92CC72CD62CE52CF42C16
:100FB000032D122D492F592F692F792F892FF0D505
:100FC000A22EB32EC42ED52EE62EF72E082F192FC3
:100FD000282D392D472D562D652D742D832D922DBD
:100FE000DFD509E117D7A22EB32EC42ED52EE62EBB
:100FF000F72E082F192F2E853D8549815D81698542
:101000007A858B859C8524D7222E332E442E552E0F
:10101000662E772E882E992E30915D0620915C06E3
:10102000932F990F990BAE84BD84C980DD80E9842C
:10103000FA840B851C85492F592F692F792F892F09
:10104000AFD503E1E7D6A22EB32EC42ED52EE62EC1
:10105000F72E082F192F222D332D442D552D662DB7
:10106000772D882D992DF4D608E0D4D6409000062F
:1010700050900106052C000C66087708440C551C9E
:10108000661C771C440C551C661C771C440C551CB4
:10109000661C771C440C551C661C771C830172016E
:1010A000110FEE08FE2C8701E982FA820B831C8364
:1010B000A42CB52CC62CD72CE980FE2C0E2D1E2D71
:1010C000C7D6622F732F842F952F04C060E070E085
:1010D00080E090E06E960FB6F894DEBF0FBECDBFF5
:1010E000DF91CF911F910F91FF90EF90DF90CF9004
:1010F000BF90AF909F908F907F906F905F904F9038
:101100003F902F9008952F923F924F925F926F924F
:101110007F928F929F92AF92BF92CF92DF92EF9287
:10112000FF920F931F93CF93DF93CDB7DEB76797EF
:101130000FB6F894DEBF0FBECDBF2B013C018091EE
:101140006A0690916B06A0916C06B0916D066C01D9
:101150007D01FF0CCC08DC2C7601282F392F4A2F7B
:101160005B2F6C2D7C2D8C2D9C2D3C5241405109C8
:1011700061097109810991092F8B3E8B4983598738
:101180006A877B878C879D87032E3EE0440C551C25
:10119000661C771C3A95D1F7302D53014201BB0CE8
:1011A0008808982C54013091050620910406932F4D
:1011B000990F990B492F592F692F792F892F04E106
:1011C00010D6F22FE32FC42ED52EE62EF72E082FA1
:1011D000192F242D352D462D572D682D782D882D2E
:1011E000982DAF2EBE2E3DD6222E332E442E552EB8
:1011F000662E772E882E992E30915F0620915E06FE
:10120000932F990F990BAF88BE88C980D984EA843F
:10121000FB840C851D85492F592F692F792F892F24
:10122000BFD4A22EB32EC42ED52EE62EF72E082F15
:10123000192F222D332D442D552D662D772D882DD8
:10124000992D0FD6305C4F4F5F4F6F4F7F4F8F4FB1
:101250009F4F0FE0DFD52E873F87488B598B6A8BD6
:101260007B8B8C8B9D8B3091460620914506932F6E
:10127000990F990BAF88BE88C980D984EA84FB8412
:101280000C851D85492F592F692F792F892F88D4D7
:101290000AE0C0D5822E932E742E652E562E472E30
:1012A000382E292E40916006509161060C85242F1E
:1012B000352F40E050E060E070E080E090E070D4D6
:1012C0000BE0A8D530584F4F5F4F6F4F7F4F8F4F78
:1012D0009F4FA22EB32EC42ED52EE62EF72E082F0A
:1012E000192F282D392D472D562D652D742D832D21
:1012F000922D56D40AE08ED5405E5F4F6F4F7F4FE0
:101300008F4F9F4FB0906906A09068061B2D110F5C
:10131000110BC12ED12EE12EF12E012F41D4305EC2
:101320004F4F5F4F6F4F7F4F8F4F9F4F0EE072D5E4
:10133000A22EB32EC42ED52EE62EF72E082F192F4F
:101340002E853F85488959896A897B898C899D8941
:1013500027D4422E532E642E752E862E972E282E9D
:10136000392E0FE057D5A22EB32EC42ED52EE62E41
:10137000F72E082F192F14D407E04CD5E09134062E
:10138000F09135065F01C12CD12CE12CF12C8701A5
:10139000E983BA82CB82DC82ED82FE820F831887DA
:1013A000C12CD12CE12CF12C00E010E0F9D304E0A9
:1013B00031D5A22EB32EC42ED52EE62EF72E082F11
:1013C000192F242D352D462D572D682D792D822D41
:1013D000932D47D5F22E032F142F652E762EB72F7F
:1013E000F82FE92FA0E046D544F4F12C00E010E0FE
:1013F000612C712CB0E0F0E0E0E08F2C902EA12E5B
:10140000B62CC72CDB2EEF2EAE2F2F2D302F412FD9
:10141000562D672D7B2F8F2F9E2F211531054105CE
:101420005941610571058105910561F05CF0812CE0
:10143000912CA12C0F2EF9E1BF2EF02DC12CD12C17
:10144000E12CA0E0282D392D4A2D5B2D6C2D7D2D12
:101450008E2D9A2F0CE0DED4622F732F842F952FC0
:1014600067960FB6F894DEBF0FBECDBFDF91CF9168
:101470001F910F91FF90EF90DF90CF90BF90AF90B2
:101480009F908F907F906F905F904F903F902F90A4
:1014900008950E9454011092570610925606109219
:1014A000BC048BE291E090937108809370085FD147
:1014B00081E890E058D281E890E0C9D27BD10E94C7
:1014C000B6000E94A101789409DA81E091E088D207
:1014D0002FE784E89EE1215080409040E1F700C072
:1014E00000008AE391E09F938F93DFD40F900F90D9
:1014F0000F2EFEE3AF2EF1E0BF2EF02DC6EBD7E0AE
:101500000F2EFEE48F2EF1E09F2EF02D0F2EF3E62E
:101510006F2EF1E07F2EF02D0F2EFBEDEF2EF4E07D
:10152000FF2EF02D0F2EFEE2CF2EF2E0DF2EF02D5B
:101530008091BC048130E1F71092BC048091560682
:101540009091570601969093570680935606809186
:101550005606909157069F938F93BF92AF92A5D452
:101560000EE617E00F900F900F900F90D8018D911D
:101570008D010CD20C171D07C9F702D88093D60431
:101580009093D7049F938F939F928F928ED4809144
:10159000D7048F938091D6048F937F926F9285D4D6
:1015A00080917607F3D10F2EF7E74F2EF7E05F2EED
:1015B000F02DEDB7FEB738960FB6F894FEBF0FBE0C
:1015C000EDBF18E009C0D2018D912D01DFD110FFD0
:1015D00003C08AE390E07CD41F5F1E30A1F78AE548
:1015E00090E076D40E942002F70181818F93808160
:1015F0008F93A0EEB1E0BF93AF9357D4D70113966A
:101600008C9113978F9312968C918F93A6EFB1E0E4
:10161000BF93AF934AD4D70115968C9115978F93AA
:1016200014968C918F93A5E0B2E0BF93AF933DD415
:10163000D70117968C9117978F9316968C918F934D
:10164000A3E1B2E0BF93AF9330D4D70119968C9148
:1016500019978F9318968C918F93A1E2B2E0BF9364
:10166000AF9323D497D96091360670913706809155
:1016700038069091390671DA60933006709331061E
:1016800080933206909333069F938F937F936F934B
:10169000DF92CF920AD460914E0670914F068091EE
:1016A000500690915106E4DA60933F06709340062D
:1016B0008093410690934206BB2797FDBA95A92FC8
:1016C000982F872FBF93AF939F938F938EE392E0D2
:1016D0009F938F93EAD38DB79EB780960FB6F894F9
:1016E0009EBF0FBE8DBF60915206709153068091D0
:1016F00054069091550607DD1B012C0160934706A7
:10170000709348068093490690934A06A8EEB3E08A
:101710009B01AC0135D2DC01CB01072E7AE0B595F7
:10172000A795979587957A95D1F7702DBF93AF932D
:101730009F938F93D201C101072E7AE0B595A795AB
:10174000979587957A95D1F7702DBF93AF939F9317
:101750008F9385E592E09F938F93A7D3ADB7BEB7E4
:101760001A960FB6F894BEBF0FBEADBFE1CE8DE0A6
:10177000809381008AE49CE49093890080938800A0
:1017800082E080936F00089518951F920F920FB614
:101790000F9211248F939F9395B182E0892785B989
:1017A00081E08093BC049F918F910F900FBE0F90AA
:1017B0001F90189581E18093B8008FEF8093BB0054
:1017C00084E08093BC0008958091BC0081780895E6
:1017D000CF93DF93EC01ECEBF0E090819178E9F7A7
:1017E00060938E02888180938F0280FD12C06230E8
:1017F00080F0FE013196A0E9B2E06250262F30E081
:101800002E5F3F4F2C0F3D1F91919D93E217F307E1
:10181000D9F710928D0288EF8093390185EA809381
:10182000BC00DF91CF910895AC01ECEBF0E090812A
:101830009178E9F780918D0280FF11C0662379F0DD
:10184000AFE8B2E0FA016150262F30E02F5F3F4F42
:10185000240F351F9D919193E217F307D9F78091DB
:101860008D02817008951F920F920FB60F9211246E
:101870002F933F938F939F93AF93BF93EF93FF93D8
:10188000E091B9008E2F90E0FC013897E135F10529
:1018900008F055C0E25CFF4F6DC110928C02E091E0
:1018A0008C0280918E02E81770F481E08E0F809395
:1018B0008C02F0E0E157FD4F80818093BB0085E80A
:1018C0008093BC0043C080918D02816080938D0223
:1018D00084E98093BC003AC0E0918C0281E08E0FD5
:1018E00080938C028091BB00F0E0E157FD4F808334
:1018F00020918C0230E080918E0290E001972817B1
:10190000390724F485EC8093BC0020C085E88093DF
:10191000BC001CC08091BB00E0918C02F0E0E1575C
:10192000FD4F808380918D02816080938D0284E9D8
:101930008093BC000BC085EA8093BC0007C08091F7
:10194000B9008093390184E08093BC00FF91EF914E
:10195000BF91AF919F918F913F912F910F900FBEAB
:101960000F901F9018959093C5008093C40088E94C
:101970008093C1008EE08093C2001092A103109268
:10198000A20310929F021092A00208952091A0023B
:101990002F5F90919F022917E1F3E22FF0E0EF55BE
:1019A000FD4F80832093A002E1ECF0E08081806213
:1019B000808308952091A0022F5F90919F022917A4
:1019C000E1F3E22FF0E0EF55FD4F80832093A0027A
:1019D000E1ECF0E080818062808380E090E0089517
:1019E000CF93DF93EC018881882329F02196CEDF05
:1019F00089918111FCCFDF91CF9108951F920F92B1
:101A00000FB60F9211248F939F93EF93FF939091B2
:101A1000A00280919F02981761F0E0919F02EF5F12
:101A2000E0939F02F0E0EF55FD4F80818093C60068
:101A300005C0E1ECF0E080818F7D8083FF91EF9124
:101A40009F918F910F900FBE0F901F9018959093BC
:101A5000CD008093CC0088E98093C90086E0809314
:101A6000CA001092A5041092A6041092A30310922B
:101A7000A40308951F920F920FB60F9211242F9373
:101A80003F938F939F93AF93BF93CF93DF93EF9346
:101A9000FF939091CE008091A6048F5F8093A6045F
:101AA0002091A504E82FF0E0E259F94F90839A3095
:101AB000D1F490917306973491F4E0E02E2F30E04A
:101AC000D901A259B84FE901C259D94F98819C93C5
:101AD000EF5F8E1798F7F0E0E259F84F11821092FD
:101AE000A5041092A604FF91EF91DF91CF91BF91D1
:101AF000AF919F918F913F912F910F900FBE0F90BB
:101B00001F9018951F920F920FB60F9211248F936A
:101B10009F93EF93FF939091A4038091A303981751
:101B200061F0E091A303EF5FE093A303F0E0EB55D6
:101B3000FC4F80818093CE0005C0E9ECF0E080810D
:101B40008F7D8083FF91EF919F918F910F900FBEBA
:101B50000F901F901895DB018F939F9311D0BF9129
:101B6000AF91A29F800D911DA39F900DB29F900DEC
:101B700011240895EE0FFF1F0590F491E02D0994B4
:101B800085D1A59F900DB49F900DA49F800D911DB0
:101B900011240895B7FFF4CFF3DF821B930B089550
:101BA000DF93CF931F930F939A9DF02D219FF00DFC
:101BB0008B9DF00D8A9DE02DF10D039FF00D029F8E
:101BC000E00DF11D4E9DE00DF11D5E9DF00D4F9D50
:101BD000F00D7F936F93BF92AF925F934F93D501B8
:101BE00055D18B01AC01D70151D1EB01E80FF91FA1
:101BF000D6011FD02F913F91D60148D1C60FD71FD4
:101C0000E81FF91FAF91BF9114D02F913F913ED1A2
:101C1000C60FD71FE81FF91FD60138D1E60FF71FEF
:101C20009801BE01CF0111240F911F91CF91DF9137
:101C300008952CD1460F571FC81FD91F08F431969D
:101C40000895689401C0E894F92FF12B0AF027C099
:101C5000A0E0B0E0EDE2FEE093C0092E05941AF496
:101C600079D0112392F4F0E80F26FFEFE094F0947E
:101C700000951095B094C094D094A194BF0ACF0A57
:101C8000DF0AEF0AFF0A0F0B1F0B13D007FC62D00D
:101C9000CDB7DEB7ECE090C0689401C0E8948F92B5
:101CA0009F92CF93DF9305D0DF91CF919F908F903C
:101CB000089588249924F401E401B0E49F93AA27AD
:101CC0009A158B049C04ED05FE05CF05D007A107EE
:101CD00098F4AD2FDC2FCF2FFE2FE92D982C892ED5
:101CE000982F872F762F652F542F432F322F22279F
:101CF000B85031F7BF9127C01B2EBF91BB27220FD1
:101D0000331F441F551F661F771F881F991F881C8C
:101D1000991CEE1FFF1FCC1FDD1FAA1FBB1F8A14BB
:101D20009B04EC05FD05CE05DF05A007B10748F0D3
:101D30008A189B08EC09FD09CE09DF09A00BB10B3D
:101D400021601A94E1F62EF49401AF01BE01CD0199
:101D5000000C08956095709580959095309540950C
:101D6000509521953F4F4F4F5F4F6F4F7F4F8F4F94
:101D70009F4F08952F923F924F925F926F927F9262
:101D80008F929F92AF92BF92CF92DF92EF92FF928B
:101D90000F931F93CF93DF93CDB7DEB7CA1BDB0B37
:101DA0000FB6F894DEBF0FBECDBF09942A883988DC
:101DB00048885F846E847D848C849B84AA84B984E3
:101DC000C884DF80EE80FD800C811B81AA81B981EF
:101DD000CE0FD11D0FB6F894DEBF0FBECDBFED0103
:101DE00008950F93083090F0982F872F762F652F46
:101DF000542F432F322F22270850F4CF220F331FA6
:101E0000441F551F661F771F881F991F0A95B2F739
:101E10000F91089597FB10F8169400080F9308305F
:101E200098F00850232F342F452F562F672F782FE7
:101E3000892F902DF4CF0594979587957795679581
:101E400057954795379527950A95AAF70F910895C5
:101E50002A0D3B1D4C1D5D1D6E1D7F1D801F911F9A
:101E600008952A193B094C095D096E097F09800B09
:101E7000910B08950024A7FD00942A173005400512
:101E8000500560057005800590050895A29FB0017A
:101E9000B39FC001A39F700D811D1124911DB29F9E
:101EA000700D811D1124911D0895A0E0B0E0EAE5B8
:101EB000FFE070CFAE014B5F5F4FFA01619171910E
:101EC000AF01809170089091710807D0E2E07ECF59
:101ED0006091700870917108D9C1ACE0B0E0E2E7A0
:101EE000FFE048CF7C016B018A01FC01178216825A
:101EF000838181FFB0C1CE0101964C01F70193812E
:101F0000F60193FD859193FF81916F01882309F478
:101F10009EC1853239F493FD859193FF81916F01C4
:101F2000853221F4B70190E0B1D1E8CF512C312CAA
:101F300020E02032A0F48B3269F030F4803259F086
:101F4000833269F420612CC08D3239F0803339F44A
:101F5000216026C02260246023C0286021C027FDA4
:101F600027C030ED380F3A3078F426FF06C0FAE08B
:101F70005F9E300D1124532E13C08AE0389E300D21
:101F80001124332E20620CC08E3221F426FD5FC155
:101F9000206406C08C3611F4206802C0883641F4F3
:101FA000F60193FD859193FF81916F018111C1CF5E
:101FB000982F9F7D9554933028F40C5F1F4FFFE3BB
:101FC000F9830DC0833631F0833771F0833509F022
:101FD00057C021C0F801808189830E5F1F4F4424C0
:101FE0004394512C540114C03801F2E06F0E711C5F
:101FF000F801A080B18026FF03C0652D70E002C00B
:102000006FEF7FEFC5012C8736D12C0183012C8522
:102010002F77222E16C03801F2E06F0E711CF801E6
:10202000A080B18026FF03C0652D70E002C06FEF75
:102030007FEFC5012C8714D12C012C852068222E1E
:10204000830123FC19C0832D90E048165906A0F4A3
:10205000B70180E290E01AD13A94F5CFF50127FC60
:10206000859127FE81915F01B70190E00FD131107A
:102070003A94F1E04F1A51084114510479F7DEC047
:10208000843611F0893631F5F80127FF07C06081E9
:102090007181828193810C5F1F4F08C060817181C3
:1020A000072E000C880B990B0E5F1F4F2F76722E98
:1020B00097FF09C090958095709561957F4F8F4FE0
:1020C0009F4F2068722E2AE030E0A40117D1A82E7D
:1020D000A81843C0853729F42F7EB22E2AE030E0BD
:1020E00025C0F22FF97FBF2E8F36C1F018F4883546
:1020F00079F0ADC0803719F0883721F0A8C02F2FB4
:102100002061B22EB4FE0DC08B2D8460B82E09C0A4
:1021100024FF0AC09F2F9660B92E06C028E030E049
:1021200005C020E130E002C020E132E0F801B7FE56
:1021300007C060817181828193810C5F1F4F06C04F
:102140006081718180E090E00E5F1F4FA401D6D0C6
:10215000A82EA818FB2DFF777F2E76FE0BC0372DFB
:102160003E7FA51450F474FE0AC072FC08C0372DDF
:102170003E7E05C0BA2C372D03C0BA2C01C0B52C49
:1021800034FF0DC0FE01EA0DF11D8081803311F492
:10219000397E09C032FF06C0B394B39404C0832FC4
:1021A000867809F0B39433FD12C030FF06C05A2C74
:1021B000B31418F4530C5B18B32CB31460F4B701C8
:1021C00080E290E03C8762D0B3943C85F6CFB314B4
:1021D00010F43B1801C0312C34FF11C0B70180E36B
:1021E00090E03C8753D03C8532FF16C031FD03C0E0
:1021F00088E790E002C088E590E0B7010CC0832F2B
:10220000867851F031FF02C08BE201C080E237FDD9
:102210008DE2B70190E03AD0A51430F4B70180E325
:1022200090E034D05A94F8CFAA94F401EA0DF11D4D
:102230008081B70190E02AD0A110F6CF332009F4B5
:102240005DCEB70180E290E021D03A94F7CFF7015C
:102250008681978102C08FEF9FEF2C96E2E1A6CD99
:10226000FC010590615070400110D8F78095909561
:102270008E0F9F1F0895FC01615070400190011066
:10228000D8F7809590958E0F9F1F08950F931F93F9
:10229000CF93DF93FB01238121FD03C08FEF9FEFDD
:1022A00028C022FF16C046815781248135814217FC
:1022B000530744F4A081B1819D012F5F3F4F3183CB
:1022C00020838C93268137812F5F3F4F378326836E
:1022D00010C0EB01092F182F0084F185E02D09951E
:1022E000892BE1F68E819F8101969F838E83812FBA
:1022F000902FDF91CF911F910F910895FA01AA2796
:10230000283051F1203181F1E8946F936E7F6E5F38
:102310007F4F8F4F9F4FAF4FB1E03ED0B4E03CD0E6
:10232000670F781F891F9A1FA11D680F791F8A1FC9
:10233000911DA11D6A0F711D811D911DA11D20D030
:1023400009F468943F912AE0269F11243019305DEA
:102350003193DEF6CF010895462F4770405D4193DB
:10236000B3E00FD0C9F7F6CF462F4F70405D4A3328
:1023700018F0495D31FD4052419302D0A9F7EACFF0
:10238000B4E0A6959795879577956795BA95C9F71F
:1023900000976105710508959B01AC010A2E069412
:1023A0005795479537952795BA95C9F7620F731FCB
:1023B000841F951FA01D0895A8E1B0E042E050E001
:1023C00002C0DC01CB01FC01F999FECF06C0F2BDD1
:1023D000E1BDF89A319600B40D9241505040B8F7E3
:0623E0000895F894FFCF00
:1023E6000148656C6C6F20576F726C642121205414
:1023F60068652073657269616C20706F72742069FC
:102406007320776F726B696E67210000000002000F
:10241600000000DA0C00000000F8686920000A538A
:1024260065636F6E6473203D202575200A000A4C93
:10243600494441522064697374616E6365203D208E
:102446002575000A204C69444152206D65737361FD
:102456006765203D20687474703A2F2F63616E6142
:1024660072792E63686F72647372742E636F6D2F48
:102476006D6561737572656D656E74732F75726CBB
:102486005F6372656174653F696E737472756D65BD
:102496006E745F69643D3326646973743D257526E1
:1024A6006B65793D34653666626137343230656313
:1024B60039653838316635313062636464622600C6
:1024C6000A436172626F6E204D6F6E6F7869646544
:1024D600203D202575000A487964726F67656E2075
:1024E6003D202575000A416D6D6F6E6961203D20A6
:1024F6002575000A4D657468616E65203D20257559
:10250600000A4F7A6F6E65203D2025750A000A4342
:10251600656C73697573203D20256C750A000A5039
:102526007265737375726520696E205061203D2057
:10253600256C750A000A2048756D696469747920EE
:10254600696E2070657263656E742072656C617465
:102556006976652068756D69646974793D20256CB6
:08256600752E256C750A0000BA
:00000001FF
