S01F000043616E61727920536F667477617265205061636B6167652E7372656370
S11300008EC00000A8C00000A6C00000A4C000006C
S1130010A2C00000A0C000009EC000009CC0000060
S11300209AC0000098C0000096C0000094C0000070
S113003092C00000B2C700008EC000008CC0000057
S1130040ABC7000088C0000086C0000084C0000068
S113005082C000000C9406097EC000007CC0000031
S11300607AC0000078C000000C943B0874C0000003
S11300700C9442090C948A096EC000005508A70824
S1130080A708A708A708A708A708A7085508A70846
S1130090A708A708A708A708A708A7085708A70834
S11300A0A708A708A708A708A708A708A708A708D4
S11300B0A708A708A708A708A708A7085708A70814
S11300C0A708A708A708A708A708A708A708A708B4
S11300D0A708A708A708A708A708A708A308A708A8
S11300E0A708A708A708A708A708A7088008A708BB
S11300F0A708A708A708A708A708A708A708A70884
S1130100A708A708A708A708A708A7087408A708A6
S1130110A708A708A708A708A708A70892081124F2
S11301201FBECFEFD8E0DEBFCDBF11E0A0E0B1E04D
S1130130E0E1FAE102C005900D92A83DB107D9F7BC
S113014027E0A8EDB1E001C01D92A63AB207E1F79D
S113015028D60C94060D54CFECE7F0E09081907E05
S113016090839081892B80830895CF93DF93ECE76C
S1130170F0E0808180648083CAE7D0E08881816078
S11301808883888182608883888184608883A4E6E8
S1130190B0E08C918E7F8C9380818F7D80838FE300
S11301A080937E0088818068888310927B008FE131
S11301B0D3DF888180648883EAE7F0E0808184FF6C
S11301C0FDCFEAE7F0E0808180648083808184FF52
S11301D0FDCF8091780090E09093D9018093D8016D
S11301E0909179002091D8013091D901892F90E024
S11301F0982F8827820F931F9093D9018093D80159
S11302008091D8019091D90199231CF491958195FD
S1130210910905972CF0809137048160809337040D
S11302208EE19ADFEAE7F0E0808180648083808158
S113023084FFFDCF8091780090E09093D901809362
S1130240D801909179002091D8013091D901892F5A
S113025090E0982F8827820F931F9093D901809361
S1130260D8018091D8019091D901815E9109909330
S1130270D9018093D8018091D8019091D901992313
S11302801CF491958195910905972CF08091370480
S1130290826080933704EAE7F0E080818F7780837F
S11302A0DF91CF91089587E084B985B115B82B9A71
S11302B0389A399A409A419A089580E090E02FEF55
S11302C033E0FC01EE0FFF1FEE0FFF1FE35FFB4F58
S11302D0118210823383228301968530910589F738
S11302E00895EF92FF920F931F93CF93DF930F2EF6
S11302F0F7EFEF2EF3E0FF2EF02D00E010E0C70142
S11303000E94F10CE801CC0FDD1FCC0FDD1FC35F91
S1130310DB4F99838883C70102960E94F10C9B836B
S11303208A830F5F1F4F84E0E80EF11C053011052E
S113033031F7DF91CF911F910F91FF90EF900895C6
S1130340AF92BF92CF92DF92EF92FF920F931F93DF
S1130350CF93DF931F92CDB7DEB71092370410927C
S11303602A04BFDFAADFEAE7F0E0808180688083A7
S113037019828981853008F051C00AE710E00F2EF8
S1130380F8E7EF2EF12CF02DBB24B394A12CCC2450
S1130390C394D12C8981E0DEF8018081806480835C
S11303A0F801808184FFFCCFF70180819181E9818C
S11303B0F0E0EE0FFF1FEE0FFF1FE35FFB4F208106
S11303C03181E981F0E0EE0FFF1FEE0FFF1FE35FC5
S11303D0FB4F628173814B2D8217930708F04A2DDE
S11303E0411107C02B2D6817790708F02A2D222305
S11303F071F09981209137049D5FA60102C0440FDA
S1130400551F9A95E2F7CA01822B8093370489819C
S11304108F5F89838981853008F4BCCFEAE7F0E0F7
S113042080818F7780830F90DF91CF911F910F91FF
S1130430FF90EF90DF90CF90BF90AF900895AF9270
S1130440BF92CF92DF92EF92FF920F931F93CF93BD
S1130450DF9300D01F92CDB7DEB7EAE7F0E08081EA
S11304608068808319828981853008F073C00AE727
S113047010E00F2EF8E7EF2EF12CF02DCC24C394CE
S1130480D12CBB24B394A12C898166DE1B821A82F1
S113049024E030E0F801808180648083F801808169
S11304A084FFFCCFF70180819181E981F0E0EE0FB8
S11304B0FF1FEE0FFF1FE35FFB4F40815181E98176
S11304C0F0E0EE0FFF1FEE0FFF1FE35FFB4F028014
S11304D0F381E02D6B2D8417950708F06A2D6111C7
S11304E007C04B2DE817F90708F04A2D442371F093
S11304F05981609137045D5FF60102C0EE0FFF1F62
S11305005A95E2F7AF01462B409337044A815B8149
S1130510840F951F9B838A832150310909F0BACF38
S11305208A819B81E981F0E0EE0FFF1FE55DFB4FBF
S11305309C01992314F42D5F3F4F359527953595EC
S113054027953183208389818F5F898389818530D1
S113055008F49ACF0F900F900F90DF91CF911F91D5
S11305600F91FF90EF90DF90CF90BF90AF900895E0
S11305701F93CF93DF93EEE3F4E084EC8083118246
S113058084E0828363E0CF012BD526D58111FDCF92
S1130590EEE3F4E084EC808381E0818362E0CF01C8
S11305A01FD51AD58111FDCFCEE3D4E015EC188305
S11305B0198262E0CE0114D50FD58111FDCF62E01E
S11305C0CE013AD580934E04898180934F0580FDF6
S11305D0EECFEEE3F4E084EC80838FE8818362E085
S11305E0CF01FED4F9D48111FDCFEEE3F4E085EC24
S11305F080831182128263E0CF01F2D4EDD48111A1
S1130600FDCF63E08EE394E017D580934E04EEE3D0
S1130610F4E0818190E0982F88272281820F911D38
S1130620DF91CF911F910895FF920F931F93CF9362
S1130630DF9380910001882331F1CFE4D4E00F2EC1
S1130640FCEEFF2EF02D03EF1DEEF882098362E02D
S1130650CE01C6D4C1D48111FDCF18836AE1CE0185
S1130660BFD4BAD48111FDCF6AE1CE01E5D4809321
S11306704E04898183FB882780F98093000180914F
S113068000018111E2CFEFE4F4E08CEE808388E88E
S1130690818362E0CF01A4D49FD48111FDCF8DEE7C
S11306A080934F046AE18FE494E09AD495D4811145
S11306B0FDCF6AE18FE494E0BFD480934E04E0E57B
S11306C0F4E0A6E5B5E02AE634E081918D93E217E3
S11306D0F307D9F78AE18093DB01E6E5F5E0818150
S11306E090E0982F88272081822B90935305809344
S11306F05205838190E0982F88272281822B909342
S1130700550580935405858190E0982F882724818E
S1130710822B9093990580939805878190E0982F78
S113072088272681822B909391058093900581855B
S113073090E0982F88272085822B909379058093C9
S11307407805838590E0982F88272285822B9093C3
S1130750930580939205858590E0982F88272485BA
S1130760822B90937B0580937A05878590E0982F60
S113077088272685822B909384058093830581891D
S113078090E0982F88272089822B90939B05809353
S11307909A05838990E0982F88272289822B909349
S11307A0510580935005858990E0982F88272489E6
S11307B0822B9093950580939405878990E0982FD8
S11307C088272689822B9093970580939605DF913D
S11307D0CF911F910F91FF900895EFE4F4E08CEE18
S11307E0808380EE818386EB828363E0CF01F8D33C
S11307F0F3D38111FDCFEFE4F4E08CEE808380ED40
S1130800818362E0CF01ECD3E7D38111FDCF8DEE7C
S113081080934F0462E08FE494E0E2D3DDD381114E
S1130820FDCF62E08FE494E007D480934E0480917E
S11308305004803669F5EFE4F4E08CEE808382EFB7
S1130840818381E0828363E0CF01CAD3C5D3811160
S1130850FDCFEFE4F4E08CEE808385EF818380E1CB
S1130860828363E0CF01BCD3B7D38111FDCFDCDE3B
S113087081E380937C05EFE4F4E09CEE908394EFB5
S11308809183828363E0CF01ABD3A6D38111FDCFE3
S11308900895FF920F931F93CF93DF9381E080938A
S11308A0DA018091DA01882331F1CFE4D4E00F2E0C
S11308B0FCEEFF2EF02D03EF1DEEF882098362E0BB
S11308C0CE018ED389D38111FDCF188362E0CE018E
S11308D087D382D38111FDCF62E0CE01ADD3809363
S11308E04E04898183FB882780F98093DA01809103
S11308F0DA018111E2CFEFE4F4E08CEE808387EF3C
S1130900818362E0CF016CD367D38111FDCF8DEE7B
S113091080934F0469E08FE494E062D35DD3811146
S1130920FDCF69E08FE494E087D380934E04E0E543
S1130930F4E0A6E5B5E028E534E081918D93E21773
S1130940F307D9F7E6E5F5E0808190E0A0E0B0E0B8
S1130950AC01BD01032E3CE0440F551F661F771FF9
S11309603A95D1F7302D9181892F90E0A0E0B0E045
S1130970880F991FAA1FBB1F880F991FAA1FBB1F8F
S1130980880F991FAA1FBB1F880F991FAA1FBB1F7F
S1130990842B952BA62BB72B228122952F70822B8B
S11309A08093860590938705A0938805B093890565
S11309B0838190E0A0E0B0E0AC01BD01032E3CE0F7
S11309C0440F551F661F771F3A95D1F7302D948138
S11309D0892F90E0A0E0B0E0880F991FAA1FBB1FE9
S11309E0880F991FAA1FBB1F880F991FAA1FBB1F1F
S11309F0880F991FAA1FBB1F842B952BA62BB72BDF
S1130A00258122952F70822B809374059093750510
S1130A10A0937605B0937705868190E0A0E0B0E0DE
S1130A20BA2FA92F982F88272781822B80938A0594
S1130A3090938B05A0938C05B0938D05EFE4F4E0BF
S1130A408CEE808384EF818381E3828363E0CF0132
S1130A50C7D2C2D28111FDCFDF91CF911F910F91E7
S1130A60FF9008958F929F92AF92BF92CF92DF92A0
S1130A70EF92FF9220915205309153056B017C0156
S1130A80689413F8F594E794D794C7941694D1F71F
S1130A90C21AD30AE108F108DC01CB01689412F808
S1130AA0B595A795979587951694D1F7220F331F7F
S1130AB04C015D01821A930AA108B108A5019401B1
S1130AC0A0915405B091550589D44B015C01072EC2
S1130AD07BE0B594A794979487947A95D1F7702D79
S1130AE0A7019601C701B6013ED49B01AC01012EBA
S1130AF01CE055954795379527951A95D1F7102DF4
S1130B00A0919805B091990569D4DC01CB01072E19
S1130B107EE0B595A795979587957A95D1F7702D31
S1130B20880D991DAA1DBB1D80939C0590939D055E
S1130B30A0939E05B0939F056C017D01CC0CDD1C38
S1130B40EE1CFF1CCC0CDD1CEE1CFF1C8C0D9D1D33
S1130B50AE1DBF1D80589F4FAF4FBF4F692F7A2FD7
S1130B608B2F992787FD9A95FF90EF90DF90CF9078
S1130B70BF90AF909F908F9008954F925F926F9225
S1130B807F928F929F92AF92BF92CF92DF92EF9219
S1130B90FF92CF93DF9300D000D0CDB7DEB72B0107
S1130BA03C01C0909C05D0909D05E0909E05F0907E
S1130BB09F0524EFD21A21E0E20AF108A701960169
S1130BC0C701B601D0D369837A838B839C83A091B8
S1130BD07805B091790502D44B015C01072E7CE0C5
S1130BE0880C991CAA1CBB1C7A95D1F7702DA09176
S1130BF09205B091930529813A814B815C81EED3B2
S1130C00BB2797FDBA95A92F982F872F9C01AD017B
S1130C10280D391D4A1D5B1DA0919005B0919105C9
S1130C20D3D34B015C01BB0C8808982C540181146C
S1130C309104A104B10409F49EC0A0919A05B09155
S1130C409B0529813A814B815C81C8D369837A836E
S1130C508B839C8377244694779466245524442478
S1130C60A0918305B0918405A7019601B7D3DC0157
S1130C70CB01072E71E1880F991FAA1FBB1F7A951C
S1130C80D1F7702D29813A814B815C81820F931FAA
S1130C90A41FB51FA3019201281B390B4A0B5B0B40
S1130CA0A5E3BCE091D3A50194016CD349015A0199
S1130CB069017A010B2EBDE0F594E794D794C794AB
S1130CC0BA95D1F7B02DA0919605B0919705A701DB
S1130CD0960184D39B01AC01C701B60144D3DC0166
S1130CE0CB01072E79E1B595A795979587957A95C8
S1130CF0D1F7702D6C017D01C80CD91CEA1CFB1CBA
S1130D00A0919405B0919505A501940167D3DC01E8
S1130D10CB01072E73E1B595A795979587957A959D
S1130D20D1F7702D8C0D9D1DAE1DBF1D492F5A2F5F
S1130D306B2F772767FD7A95809150059091510527
S1130D40092E000CAA0BBB0B840F951FA61FB71FFF
S1130D50880F991FAA1FBB1F880F991FAA1FBB1FAB
S1130D60BC01CD01660F771F881F991F660F771F7F
S1130D70881F991F03C060E070E0CB010F900F90B3
S1130D800F900F90DF91CF91FF90EF90DF90CF9075
S1130D90BF90AF909F908F907F906F905F904F9097
S1130DA0089581DA10928F0510928E0510920C042A
S1130DB08BE291E09093A3078093A207E0D081E8AF
S1130DC090E0D9D181E890E04AD2FCD0CED9B8DA0B
S1130DD0789403DD81E091E00BD22FE784E89EE173
S1130DE0215080409040E1F700C000008AE391E088
S1130DF09F938F9361D30F900F900F2EFEE3EF2EEE
S1130E00F1E0FF2EF02D0F2EF4ED8F2EF6E09F2E45
S1130E10F02D0F2EFEE4AF2EF1E0BF2EF02D0BE2ED
S1130E2014E00F2EF3E6CF2EF1E0DF2EF02D0F2E7F
S1130E30F9E76F2EF1E07F2EF02D0F2EF8E84F2EFC
S1130E40F1E05F2EF02D0F2EF6E92F2EF1E03F2E6C
S1130E50F02D80910C048130E1F710920C04809104
S1130E608E0590918F05019690938F0580938E0542
S1130E7080918E0590918F059F938F93FF92EF92AF
S1130E801BD3C0EAD6E00F900F900F900F9089917A
S1130E9085D1C815D905D9F76BDB809326049093C7
S1130EA027049F938F93BF92AF9206D3C8DAF801B9
S1130EB081818F9380818F93DF92CF92FDD2F8014D
S1130EC083818F9382818F937F926F92F5D2F80101
S1130ED085818F9384818F935F924F92EDD2F80135
S1130EE087818F9386818F933F922F92E5D2F80169
S1130EF081858F9380858F9384EA91E09F938F936C
S1130F00DBD2C7DC6091740570917505809176051C
S1130F1090917705A7DD60937005709371058093B8
S1130F207205909373059F938F937F936F9381EBD7
S1130F3091E09F938F93C0D260918605709187054D
S1130F40809188059091890518DE60937D057093E2
S1130F507E0580937F05909380059F938F937F9365
S1130F606F9381EC91E09F938F93A6D28DB79EB738
S1130F7084960FB6F8949EBF0FBE8DBF6ACF8DE0E6
S1130F80809381008AE49CE4909389008093880094
S1130F9082E080936F00089518951F920F920FB608
S1130FA00F9211248F939F9395B182E0892785B97D
S1130FB081E080930C049F918F910F900FBE0F904E
S1130FC01F90189581E18093B8008FEF8093BB0048
S1130FD084E08093BC0008958091BC0081780895DA
S1130FE0CF93DF93EC01ECEBF0E090819178E9F79B
S1130FF06093DE0188818093DF0180FD12C062303E
S113100080F0FE013196A0EEB1E06250262F30E070
S11310102E5F3F4F2C0F3D1F91919D93E217F307D5
S1131020D9F71092DD0188EF8093390185EA809326
S1131030BC00DF91CF910895AC01ECEBF0E090811E
S11310409178E9F78091DD0180FF11C0662379F082
S1131050AFEDB1E0FA016150262F30E02F5F3F4F32
S1131060240F351F9D919193E217F307D9F78091CF
S1131070DD01817008951F920F920FB60F92112413
S11310802F933F938F939F93AF93BF93EF93FF93CC
S1131090E091B9008E2F90E0FC013897E135F1051D
S11310A008F055C0E25CFF4F89C11092DC01E09169
S11310B0DC018091DE01E81770F481E08E0F8093EB
S11310C0DC01F0E0E152FE4F80818093BB0085E8B3
S11310D08093BC0043C08091DD0181608093DD0179
S11310E084E98093BC003AC0E091DC0181E08E0F7A
S11310F08093DC018091BB00F0E0E152FE4F8083DD
S11311002091DC0130E08091DE0190E00197281706
S1131110390724F485EC8093BC0020C085E88093D3
S1131120BC001CC08091BB00E091DC01F0E0E15206
S1131130FE4F80838091DD0181608093DD0184E92D
S11311408093BC000BC085EA8093BC0007C08091EB
S1131150B9008093390184E08093BC00FF91EF9142
S1131160BF91AF919F918F913F912F910F900FBE9F
S11311700F901F9018959093C5008093C40088E940
S11311808093C1008EE08093C2001092F10210920D
S1131190F2021092EF011092F00108952091F001F3
S11311A02F5F9091EF012917E1F3E22FF0E0EF5068
S11311B0FE4F80832093F001E1ECF0E080818062B7
S11311C0808308952091F0012F5F9091EF012917FA
S11311D0E1F3E22FF0E0EF50FE4F80832093F00123
S11311E0E1ECF0E080818062808380E090E008950B
S11311F0CF93DF93EC018881882329F02196CEDFF9
S113120089918111FCCFDF91CF9108951F920F92A4
S11312100FB60F9211248F939F93EF93FF939091A6
S1131220F0018091EF01981761F0E091EF01EF5F19
S1131230E093EF01F0E0EF50FE4F80818093C60011
S113124005C0E1ECF0E080818F7D8083FF91EF9118
S11312509F918F910F900FBE0F901F9018959093B0
S1131260CD008093CC0088E98093C90086E0809308
S1131270CA001092F5031092F6031092F302109232
S1131280F40208951F920F920FB60F9211242F9318
S11312903F938F939F93AF93BF93CF93DF93EF933A
S11312A0FF939091CE008091F6038F5F8093F603B5
S11312B02091F503E82FF0E0E056FA4F90839A303E
S11312C0D1F49091A5059C3491F4E0E02E2F30E008
S11312D0D901A056B94FE901C056DA4F98819C93C1
S11312E0EF5F8E1798F7F0E0E056F94F11821092F5
S11312F0F5031092F603FF91EF91DF91CF91BF9127
S1131300AF919F918F913F912F910F900FBE0F90AE
S11313101F9018951F920F920FB60F9211248F935E
S11313209F93EF93FF939091F4028091F3029817A7
S113133061F0E091F302EF5FE093F302F0E0EB5031
S1131340FD4F80818093CE0005C0E9ECF0E0808100
S11313508F7D8083FF91EF919F918F910F900FBEAE
S11313600F901F901895DB018F939F932DD0BF9101
S1131370AF91A29F800D911DA39F900DB29F900DE0
S113138011240895052E97FB16F400940FD057FDF1
S113139005D061D007FC02D046F408C050954095B2
S11313A0309521953F4F4F4F5F4F0895909580950D
S11313B0709561957F4F8F4F9F4F0895EE0FFF1FDC
S11313C00590F491E02D099468D0A59F900DB49FE9
S11313D0900DA49F800D911D11240895B7FFF4CFA3
S11313E0F3DF821B930B08952F923F924F925F92EB
S11313F06F927F928F929F92AF92BF92CF92DF9221
S1131400EF92FF920F931F93CF93DF93CDB7DEB785
S1131410CA1BDB0B0FB6F894DEBF0FBECDBF099419
S11314202A88398848885F846E847D848C849B8470
S1131430AA84B984C884DF80EE80FD800C811B817E
S1131440AA81B981CE0FD11D0FB6F894DEBF0FBEAD
S1131450CDBFED010895A1E21A2EAA1BBB1BFD010D
S11314600DC0AA1FBB1FEE1FFF1FA217B307E4077F
S1131470F50720F0A21BB30BE40BF50B661F771FD7
S1131480881F991F1A9469F76095709580959095B7
S11314909B01AC01BD01CF010895A29FB001B39F90
S11314A0C001A39F700D811D1124911DB29F700D69
S11314B0811D1124911D0895A0E0B0E0E1E6FAE059
S11314C0A3CFAE014B5F5F4FFA0161917191AF0100
S11314D08091A2079091A30702D0E2E0B1CFABE0E4
S11314E0B0E0E4E7FAE080CF6C017B018A01FC0103
S11314F017821682838181FFBFC1CE0101963C0110
S1131500F6019381F70193FD859193FF81917F010A
S1131510882309F4ADC1853239F493FD859193FF95
S113152081917F01853221F4B60190E0C0D1E8CFEA
S1131530912C212C312CFFE1F315D8F08B3279F06A
S113154038F4803279F08332A1F4232D20611DC058
S11315508D3261F0803369F4232D216016C0832D10
S11315608260382EE32DE4603E2E2AC0F32DF8600D
S11315701DC037FC2DC020ED280F2A3040F08E32DC
S1131580B9F436FC75C1232D2064322E19C036FE01
S113159006C08AE0989E200D1124922E11C0EAE024
S11315A02E9E200D1124222EF32DF0623F2E08C012
S11315B08C3621F4832D8068382E02C0883641F49D
S11315C0F70193FD859193FF81917F018111B3CF41
S11315D0982F9F7D9554933028F40C5F1F4F9FE301
S11315E099830DC0833631F0833771F0833509F068
S11315F055C020C0F801808189830E5F1F4F882465
S11316008394912C530112C02801F2E04F0E511C17
S1131610F801A080B18036FE03C0692D70E002C0DD
S11316206FEF7FEFC50138D14C018201F32DFF77B5
S11316303F2E15C0280122E0420E511CF801A08063
S1131640B18036FE03C0692D70E002C06FEF7FEFFA
S1131650C50117D14C01F32DF0683F2E820133FCF4
S113166019C0822D90E088169906A0F4B60180E294
S113167090E01DD12A94F5CFF50137FC859137FE12
S113168081915F01B60190E012D121102A9421E0EA
S1131690821A91088114910479F7E1C0843611F01B
S11316A0893639F5F80137FE07C06081718182817E
S11316B093810C5F1F4F08C060817181072E000C5D
S11316C0880B990B0E5F1F4FF32DFF763F2E97FF6C
S11316D009C090958095709561957F4F8F4F9F4F6E
S11316E0F0683F2E2AE030E0A3011DD1882E861831
S11316F044C0853731F4232D2F7EB22E2AE030E00A
S113170025C0932D997FB92E8F36C1F018F48835F2
S113171079F0AEC0803719F0883721F0A9C0E92FDD
S1131720E061BE2EB4FE0DC0FB2DF460BF2E09C0D7
S113173034FE0AC0292F2660B22E06C028E030E00D
S113174005C020E130E002C020E132E0F801B7FE3C
S113175007C060817181828193810C5F1F4F06C035
S11317606081718180E090E00E5F1F4FA301DBD0A8
S1131770882E8618FB2DFF773F2E36FE0DC0232DB5
S11317802E7FA22E891458F434FE0BC032FC09C0FB
S1131790832D8E7EA82E05C0B82CA32C03C0B82C94
S11317A001C0B92CA4FE0FC0FE01E80DF11D80811B
S11317B0803321F49A2D997EA92E09C0A2FE06C079
S11317C0B394B39404C08A2D867809F0B394A3FC2F
S11317D010C0A0FE06C0B21480F4280C922C9B18F2
S11317E00DC0B21458F4B60180E290E060D0B39416
S11317F0F8CFB21418F42B1802C0982C212CA4FE94
S11318000FC0B60180E390E052D0A2FE16C0A1FC46
S113181003C088E790E002C088E590E0B6010CC000
S11318208A2D867851F0A1FE02C08BE201C080E2CD
S1131830A7FC8DE2B60190E03AD0891430F4B601E9
S113184080E390E034D09A94F8CF8A94F301E80DC1
S1131850F11D8081B60190E02AD08110F6CF2220BC
S113186009F44ECEB60180E290E021D02A94F7CF5D
S1131870F6018681978102C08FEF9FEF2B96E2E1FC
S1131880CFCDFC010590615070400110D8F78095D0
S113189090958E0F9F1F0895FC0161507040019038
S11318A00110D8F7809590958E0F9F1F08950F9380
S11318B01F93CF93DF93FB01238121FD03C08FEF9F
S11318C09FEF2CC022FF16C04681578124813581A9
S11318D04217530744F4A081B1819D012F5F3F4F0C
S11318E0318320838C93268137812F5F3F4F378349
S11318F0268314C08B01EC01FB010084F185E02DEB
S11319000995892BE1F6D80116968D919C9117972C
S1131910019617969C938E931697CE01DF91CF91E3
S11319201F910F910895FA01AA27283051F120310F
S113193081F1E8946F936E7F6E5F7F4F8F4F9F4F5F
S1131940AF4FB1E03ED0B4E03CD0670F781F891FA1
S11319509A1FA11D680F791F8A1F911DA11D6A0F6F
S1131960711D811D911DA11D20D009F468943F9122
S11319702AE0269F11243019305D3193DEF6CF0121
S11319800895462F4770405D4193B3E00FD0C9F7E7
S1131990F6CF462F4F70405D4A3318F0495D31FD54
S11319A04052419302D0A9F7EACFB4E0A6959795A7
S11319B0879577956795BA95C9F70097610571057D
S11319C008959B01AC010A2E0694579547953795C7
S11319D02795BA95C9F7620F731F841F951FA01D21
S11319E00895A8E1B0E042E050E002C0DC01CB0180
S11319F0FC01F999FECF06C0F2BDE1BDF89A31961B
S1131A0000B40D9241505040B8F70895F894FFCFB8
S1131A100148656C6C6F20576F726C6421212054EF
S1131A2068652073657269616C20706F72742069D7
S1131A307320776F726B696E6721000000000200EB
S1131A40000000E20800000000F8686920000A5362
S1131A5065636F6E6473203D202575200A000A4C6F
S1131A60494441522064697374616E6365203D206A
S1131A702575000A436172626F6E204D6F6E6F7838
S1131A80696465203D202575000A487964726F6792
S1131A90656E203D202575000A416D6D6F6E69618C
S1131AA0203D202575000A4D657468616E65203DF2
S1131AB0202575000A4F7A6F6E65203D2025750A32
S1131AC0000A43656C73697573203D20256C750AA3
S1131AD0000A507265737375726520696E205061D7
S10B1AE0203D20256C750A006D
S9030000FC
