S01F000043616E61727920536F667477617265205061636B6167652E7372656370
S11300008EC00000A7C00000A5C00000A3C000006F
S1130010A1C000009FC000009DC000009BC0000064
S113002099C0000097C0000095C0000093C0000074
S113003091C0000046C100008DC000008BC00000CC
S11300403FC1000087C0000085C0000083C00000DD
S113005081C000004DC200007DC000007BC00000D4
S113006079C0000077C000009AC1000073C000008E
S113007068C2000085C200006DC00000E9013B02B7
S11300803B023B023B023B023B023B02E9013B02D7
S11300903B023B023B023B023B023B02EB013B02C5
S11300A03B023B023B023B023B023B023B023B0264
S11300B03B023B023B023B023B023B02EB013B02A5
S11300C03B023B023B023B023B023B023B023B0244
S11300D03B023B023B023B023B023B0237023B0238
S11300E03B023B023B023B023B023B0214023B024B
S11300F03B023B023B023B023B023B023B023B0214
S11301003B023B023B023B023B023B0208023B0236
S11301103B023B023B023B023B023B022602112410
S11301201FBECFEFD8E0DEBFCDBF11E0A0E0B1E04D
S1130130E4E5FBE002C005900D92A233B107D9F7C4
S113014024E0A2E3B1E001C01D92AF3AB207E1F7A7
S113015068D0FEC455CF87E084B985B115B82B9A11
S1130160389A399A409A419A08951F93CF93DF930E
S1130170E4E9F4E084EC8083118284E0828363E028
S1130180CF01C2D0BDD08111FDCFE4E9F4E084EC0D
S1130190808381E0818362E0CF01B6D0B1D0811148
S11301A0FDCFC4E9D4E015EC1883198262E0CE01D6
S11301B0ABD0A6D08111FDCF62E0CE01D1D0809327
S11301C0A40489818093A50480FDEECFE4E9F4E0E2
S11301D084EC80838FE8818362E0CF0195D090D056
S11301E08111FDCFE4E9F4E085EC80831182128271
S11301F063E0CF0189D084D08111FDCF63E084E92D
S113020094E0AED08093A404E4E9F4E0818190E02A
S1130210982F88272281820F911DDF91CF911F9102
S1130220089599DF1092A8041092A7041092620412
S113023080E091E09093AC048093AB0434D083E0ED
S113024091E02DD153D078940FE011E0CDE1D1E0CD
S1130250809162048130E1F7109262048091A704D6
S11302609091A80401969093A8048093A704809188
S1130270A7049091A8049F938F931F930F93AFD1DA
S113028074DF80937C0490937D049F938F93DF931A
S1130290CF93A5D18DB79EB708960FB6F8949EBF9D
S11302A00FBE8DBFD5CF8DE0809381008AE49CE49E
S11302B0909389008093880082E080936F00089572
S11302C018951F920F920FB60F9211248F939F933C
S11302D095B182E0892785B981E0809362049F917A
S11302E08F910F900FBE0F901F90189581E180930E
S11302F0B8008FEF8093BB0084E08093BC00089526
S11303008091BC0081780895CF93DF93EC01ECEBEE
S1130310F0E090819178E9F76093340188818093CB
S1130320350180FD12C0623080F0FE013196A6E3F3
S1130330B1E06250262F30E02E5F3F4F2C0F3D1F5F
S113034091919D93E217F307D9F71092330188EF47
S113035080930E0185EA8093BC00DF91CF910895CC
S1130360AC01ECEBF0E090819178E9F780913301F6
S113037080FF11C0662379F0A5E3B1E0FA01615072
S1130380262F30E02F5F3F4F240F351F9D9191930F
S1130390E217F307D9F780913301817008951F9212
S11303A00F920FB60F9211242F933F938F939F9325
S11303B0AF93BF93EF93FF93E091B9008E2F90E03A
S11303C0FC013897E135F10508F055C0E25CFF4FB8
S11303D000C110923201E091320180913401E8179A
S11303E070F481E08E0F80933201F0E0EB5CFE4FFD
S11303F080818093BB0085E88093BC0043C08091DA
S1130400330181608093330184E98093BC003AC056
S1130410E091320181E08E0F809332018091BB0024
S1130420F0E0EB5CFE4F80832091320130E080915C
S1130430340190E001972817390724F485EC809360
S1130440BC0020C085E88093BC001CC08091BB0028
S1130450E0913201F0E0EB5CFE4F80838091330148
S113046081608093330184E98093BC000BC085EAEA
S11304708093BC0007C08091B90080930E0184E092
S11304808093BC00FF91EF91BF91AF919F918F91A9
S11304903F912F910F900FBE0F901F90189590933E
S11304A0C5008093C40088E98093C1008EE08093E6
S11304B0C200109247021092480210924501109215
S11304C046010895209146012F5F90914501291717
S11304D0E1F3E22FF0E0E95BFE4F808320934601D5
S11304E0E1ECF0E080818062808380E090E0089518
S11304F01F920F920FB60F9211248F939F93EF9335
S1130500FF939091460180914501981761F0E09125
S11305104501EF5FE0934501F0E0E95BFE4F808128
S11305208093C60005C0E1ECF0E080818F7D80837C
S1130530FF91EF919F918F910F900FBE0F901F909D
S113054018951F920F920FB60F9211248F939F93B9
S1130550EF93FF938091CE00E0914C03EF5FE09323
S11305604C0390914B03F0E0E35BFC4F8083FF91DD
S1130570EF919F918F910F900FBE0F901F90189540
S11305801F920F920FB60F9211248F939F93EF93A4
S1130590FF9390914A0280914902981761F0E0918B
S11305A04902EF5FE0934902F0E0E55BFD4F808193
S11305B08093CE0005C0E9ECF0E080818F7D8083DC
S11305C0FF91EF919F918F910F900FBE0F901F900D
S11305D01895EE0FFF1F0590F491E02D0994A0E00B
S11305E0B0E0E4EFF2E08DC2AE014B5F5F4FFA0181
S11305F061917191AF018091AB049091AC0402D0F0
S1130600E2E09BC2ACE0B0E0E7E0F3E06AC27C0168
S11306106B018A01FC0117821682838181FFB0C1BC
S1130620CE0101964C01F7019381F60193FD85916A
S113063093FF81916F01882309F49EC1853239F4B7
S113064093FD859193FF81916F01853221F4B70168
S113065090E0B1D1E8CF512C312C20E02032A0F42D
S11306608B3269F030F4803259F0833269F42061BE
S11306702CC08D3239F0803339F4216026C02260D9
S1130680246023C0286021C027FD27C030ED380F27
S11306903A3078F426FF06C0FAE05F9E300D11244C
S11306A0532E13C08AE0389E300D1124332E20625D
S11306B00CC08E3221F426FD5FC1206406C08C3646
S11306C011F4206802C0883641F4F60193FD859147
S11306D093FF81916F018111C1CF982F9F7D955414
S11306E0933028F40C5F1F4FFFE3F9830DC083366A
S11306F031F0833771F0833509F057C021C0F80118
S1130700808189830E5F1F4F44244394512C5401EC
S113071014C03801F2E06F0E711CF801A080B180A2
S113072026FF03C0652D70E002C06FEF7FEFC501A7
S11307302C8736D12C0183012C852F77222E16C0CD
S11307403801F2E06F0E711CF801A080B18026FF21
S113075003C0652D70E002C06FEF7FEFC5012C87E9
S113076014D12C012C852068222E830123FC19C06E
S1130770832D90E048165906A0F4B70180E290E07A
S11307801AD13A94F5CFF50127FC859127FE819182
S11307905F01B70190E00FD131103A94F1E04F1AA4
S11307A051084114510479F7DEC0843611F08936BA
S11307B031F5F80127FF07C060817181828193813F
S11307C00C5F1F4F08C060817181072E000C880BDD
S11307D0990B0E5F1F4F2F76722E97FF09C09095CD
S11307E08095709561957F4F8F4F9F4F2068722E33
S11307F02AE030E0A40117D1A82EA81843C08537F9
S113080029F42F7EB22E2AE030E025C0F22FF97FA2
S1130810BF2E8F36C1F018F4883579F0ADC080371B
S113082019F0883721F0A8C02F2F2061B22EB4FE12
S11308300DC08B2D8460B82E09C024FF0AC09F2FE1
S11308409660B92E06C028E030E005C020E130E013
S113085002C020E132E0F801B7FE07C06081718177
S1130860828193810C5F1F4F06C06081718180E09B
S113087090E00E5F1F4FA401D6D0A82EA818FB2D20
S1130880FF777F2E76FE0BC0372D3E7FA51450F4E4
S113089074FE0AC072FC08C0372D3E7E05C0BA2C17
S11308A0372D03C0BA2C01C0B52C34FF0DC0FE0196
S11308B0EA0DF11D8081803311F4397E09C032FFC5
S11308C006C0B394B39404C0832F867809F0B3941C
S11308D033FD12C030FF06C05A2CB31418F4530C65
S11308E05B18B32CB31460F4B70180E290E03C874A
S11308F062D0B3943C85F6CFB31410F43B1801C016
S1130900312C34FF11C0B70180E390E03C8753D011
S11309103C8532FF16C031FD03C088E790E002C079
S113092088E590E0B7010CC0832F867851F031FF41
S113093002C08BE201C080E237FD8DE2B70190E096
S11309403AD0A51430F4B70180E390E034D05A943F
S1130950F8CFAA94F401EA0DF11D8081B70190E06B
S11309602AD0A110F6CF332009F45DCEB70180E27E
S113097090E021D03A94F7CFF7018681978102C0A5
S11309808FEF9FEF2C96E2E1C8C0FC010590615007
S113099070400110D8F7809590958E0F9F1F089591
S11309A0FC016150704001900110D8F7809590953A
S11309B08E0F9F1F08950F931F93CF93DF93FB0117
S11309C0238121FD03C08FEF9FEF28C022FF16C0B3
S11309D046815781248135814217530744F4A0810D
S11309E0B1819D012F5F3F4F318320838C932681FA
S11309F037812F5F3F4F3783268310C0EB01092FC8
S1130A00182F0084F185E02D0995892BE1F68E815C
S1130A109F8101969F838E83812F902FDF91CF91A9
S1130A201F910F910895FA01AA27283051F120311E
S1130A3081F1E8946F936E7F6E5F7F4F8F4F9F4F6E
S1130A40AF4FB1E03ED0B4E03CD0670F781F891FB0
S1130A509A1FA11D680F791F8A1F911DA11D6A0F7E
S1130A60711D811D911DA11D20D009F468943F9131
S1130A702AE0269F11243019305D3193DEF6CF0130
S1130A800895462F4770405D4193B3E00FD0C9F7F6
S1130A90F6CF462F4F70405D4A3318F0495D31FD63
S1130AA04052419302D0A9F7EACFB4E0A6959795B6
S1130AB0879577956795BA95C9F70097610571058C
S1130AC008959B01AC010A2E0694579547953795D6
S1130AD02795BA95C9F7620F731F841F951FA01D30
S1130AE008952F923F924F925F926F927F928F92CE
S1130AF09F92AF92BF92CF92DF92EF92FF920F93A9
S1130B001F93CF93DF93CDB7DEB7CA1BDB0B0FB6B2
S1130B10F894DEBF0FBECDBF09942A88398848886F
S1130B205F846E847D848C849B84AA84B984C88405
S1130B30DF80EE80FD800C811B81AA81B981CE0FFC
S1130B40D11D0FB6F894DEBF0FBECDBFED010895E1
S1070B50F894FFCF43
S1130B540000000200000000620200000000F80A25
S1130B645365636F6E6473203D202575000A4C49F8
S1130B744441522064697374616E6365203D202589
S1050B847500F6
S9030000FC
