:1000000096C00000B3C00000B1C00000AFC0000047
:10001000ADC00000ABC00000A9C00000A7C0000038
:10002000A5C00000A3C00000A1C000009FC0000048
:100030009DC000009BC0000099C0000097C0000058
:100040000C94380C93C0000091C000008FC00000D9
:100050008DC000000C94610D89C0000087C00000B5
:1000600085C0000083C000000C94920C7FC000008B
:100070000C94A10D0C94F80D79C0000077C000001D
:1000800075C0000073C0000071C00000AE0C000D10
:10009000000D000D000D000D000D000DAE0C000D4B
:1000A000000D000D000D000D000D000DB00C000D39
:1000B000000D000D000D000D000D000D000D000DD8
:1000C000000D000D000D000D000D000DB00C000D19
:1000D000000D000D000D000D000D000D000D000DB8
:1000E000000D000D000D000D000D000DFC0C000DAD
:1000F000000D000D000D000D000D000DD90C000DC0
:10010000000D000D000D000D000D000D000D000D87
:10011000000D000D000D000D000D000DCD0C000DAB
:10012000000D000D000D000D000D000DEB0C112455
:100130001FBECFEFD0E4DEBFCDBF13E0A0E0B1E043
:10014000E4E9F5E200E00BBF02C007900D92AC328B
:10015000B107D9F729E0ACE2B3E001C01D92A332A8
:10016000B207E1F70E94610A0C94C81249CFECE78C
:10017000F0E09081907E90839081892B8083089518
:10018000CF93DF93ECE7F0E0808180648083CAE75F
:10019000D0E08881816088838881826088838881BB
:1001A00084608883A4E6B0E08C918E7F8C938081FC
:1001B0008F7D80838FE380937E0088818068888331
:1001C00010927B008FE1D3DF888180648883EAE727
:1001D000F0E0808184FFFDCFEAE7F0E08081806479
:1001E0008083808184FFFDCF8091780090E09093A0
:1001F0002D0380932C039091790020912C03309152
:100200002D03892F90E0982F8827820F931F9093BA
:100210002D0380932C0380912C0390912D0399231F
:100220001CF491958195910905972CF080918C058E
:10023000816080938C058EE19ADFEAE7F0E08081AF
:1002400080648083808184FFFDCF8091780090E07E
:1002500090932D0380932C039091790020912C038F
:1002600030912D03892F90E0982F8827820F931FBC
:1002700090932D0380932C0380912C0390912D0358
:10028000815E910990932D0380932C0380912C0320
:1002900090912D0399231CF49195819591090597CF
:1002A0002CF080918C05826080938C05EAE7F0E069
:1002B00080818F778083DF91CF91089587E084B923
:1002C00085B115B82B9A389A399A409A419A08956F
:1002D00080E090E02FEF33E0FC01EE0FFF1FEE0F08
:1002E000FF1FEF59FA4F1182108233832283019648
:1002F0008530910589F70895EF92FF920F931F9330
:10030000CF93DF930F2EFBE4EF2EF5E0FF2EF02DC1
:1003100000E010E0C7010E94B312E801CC0FDD1F1E
:10032000CC0FDD1FCF59DA4F99838883C70102961E
:100330000E94B3129B838A830F5F1F4F84E0E80EF5
:10034000F11C0530110531F7DF91CF911F910F910D
:10035000FF90EF900895AF92BF92CF92DF92EF920D
:10036000FF920F931F93CF93DF931F92CDB7DEB70A
:1003700010928C0510927F05BFDFAADFEAE7F0E05C
:1003800080818068808319828981853008F051C01E
:100390000AE710E00F2EF8E7EF2EF12CF02DBB242A
:1003A000B394A12CCC24C394D12C8981E0DEF80134
:1003B000808180648083F801808184FFFCCFF70115
:1003C00080819181E981F0E0EE0FFF1FEE0FFF1FAA
:1003D000EF59FA4F20813181E981F0E0EE0FFF1FE4
:1003E000EE0FFF1FEF59FA4F628173814B2D681793
:1003F000790708F04A2D411107C04B2D821793074A
:1004000008F04A2D442371F0998120918C059D5F5D
:10041000A60102C0440F551F9A95E2F7CA01822B2C
:1004200080938C0589818F5F89838981853008F469
:10043000BCCFEAE7F0E080818F7780830F90DF9177
:10044000CF911F910F91FF90EF90DF90CF90BF90D1
:10045000AF9008958F929F92AF92BF92CF92DF920A
:10046000EF92FF920F931F93CF93DF9300D01F92D1
:10047000CDB7DEB7EAE7F0E080818068808319823B
:100480008981853008F076C06894882482F8912CA0
:100490000AE710E00F2EF8E7EF2EF12CF02DCC2418
:1004A000C394D12CBB24B394A12C898160DE1B8220
:1004B0001A82282D392DF801808180648083F8010B
:1004C000808184FFFCCFF70180819181E981F0E098
:1004D000EE0FFF1FEE0FFF1FEF59FA4F40815181C2
:1004E000E981F0E0EE0FFF1FEE0FFF1FEF59FA4F0B
:1004F00062817381EB2D6817790708F0EA2DE1110D
:1005000007C06B2D8417950708F06A2D662371F0DC
:10051000598160918C055D5FF60102C0EE0FFF1FEF
:100520005A95E2F7AF01462B40938C054A815B81D7
:10053000840F951F9B838A832150310909F0BBCF1B
:100540008A819B81E981F0E0EE0FFF1FE058FA4FAE
:100550009C01992314F42D5F3F4F359527953595D0
:1005600027953183208389818F5F898389818530B5
:1005700008F49BCF0F900F900F90DF91CF911F91B8
:100580000F91FF90EF90DF90CF90BF90AF909F9032
:100590008F9008951F93CF93DF93E3E9F5E084EC08
:1005A0008083118284E0828363E0CF010E94470C44
:1005B0000E94430C8111FCCFE3E9F5E084EC8083D9
:1005C00081E0818362E0CF010E94470C0E94430CCE
:1005D0008111FCCFC3E9D5E015EC1883198262E0E4
:1005E000CE010E94470C0E94430C8111FCCF62E0B7
:1005F000CE010E94730C8093A30589818093A40689
:1006000080FDEBCFE3E9F5E084EC80838FE8818324
:1006100062E0CF010E94470C0E94430C8111FCCF85
:10062000E3E9F5E085EC80831182128263E0CF017B
:100630000E94470C0E94430C8111FCCF63E083E9C8
:1006400095E00E94730C8093A305E3E9F5E08181B6
:1006500090E0982F88272281820F911DDF91CF9102
:100660001F910895FF920F931F93CF93DF93809173
:100670000001882359F1C4EAD5E00F2EFCEEFF2ECD
:10068000F02D03EF1DEEF882098362E0CE010E9497
:10069000470C0E94430C8111FCCF18836AE1CE0104
:1006A0000E94470C0E94430C8111FCCF6AE1CE01ED
:1006B0000E94730C8093A305898183FB882780F9AE
:1006C00080930001809100018111DDCFE4EAF5E023
:1006D0008CEE808388E8818362E0CF010E94470C22
:1006E0000E94430C8111FCCF8DEE8093A4056BE139
:1006F00084EA95E00E94470C0E94430C8111FCCFD4
:100700006BE184EA95E00E94730C8093A305C5EA2F
:10071000D5E00DEA16E020EC35E0D801FE0181912C
:100720008D93E217F307D9F78BE180932F03EDEA5E
:10073000F6E0818190E0982F88272081822B90938A
:10074000A8068093A706838190E0982F88272281AE
:10075000822B9093AC068093AB06858190E0982F16
:1007600088272481822B9093140780931307878115
:1007700090E0982F88272681822B909308078093FA
:100780000707818590E0982F88272085822B9093FA
:10079000E0068093DF06838590E0982F88272285E6
:1007A000822B90930A0780930907858590E0982F04
:1007B00088272485822B9093E2068093E106878523
:1007C00090E0982F88272685822B9093F1068093BE
:1007D000F006818990E0982F88272089822B9093BA
:1007E000160780931507838990E0982F8827228920
:1007F000822B9093A6068093A506858990E0982F7A
:1008000088272489822B90930C0780930B07878974
:1008100090E0982F88272689822B90931207809347
:100820001107818D90E09093DA068093D906E4EA6F
:10083000F5E08CEE808381EE818362E0CF010E943F
:10084000470C0E94430C8111FCCF8DEE8093A405D0
:1008500068E084EA95E00E94470C0E94430C8111F5
:10086000FCCF68E084EA95E00E94730C8093A305B6
:100870002CEA35E08991F80181938F01C217D307E3
:10088000C9F787E080932F03EDEAF6E0828190E0DC
:10089000982F88272181822B909318078093170720
:1008A000838190E09093100780930F078581829554
:1008B0008695877090E0248140E1249F9001112467
:1008C000282B392B3093AA062093A906268140E1D4
:1008D000249F90011124822B932B90930E078093D9
:1008E0000D07878190E09093EB068093EA06DF91F5
:1008F000CF911F910F91FF900895E4EAF5E08CEEFF
:10090000808380EE818386EB828363E0CF01BFD753
:10091000BAD78111FDCFE4EAF5E08CEE808380ED5B
:10092000818362E0CF01B3D7AED78111FDCF8DEEC9
:100930008093A40562E084EA95E0A9D7A4D7811149
:10094000FDCF62E084EA95E0CED78093A305809145
:10095000A505803669F5E4EAF5E08CEE808382EF48
:10096000818381E0828363E0CF0191D78CD78111AD
:10097000FDCFE4EAF5E08CEE808385EF818380E1B2
:10098000828363E0CF0183D77ED78111FDCF6ADEFA
:1009900081E38093E306E4EAF5E09CEE908394EF34
:1009A0009183828363E0CF0172D76DD78111FDCF30
:1009B0000895FF920F931F93CF93DF9381E080936D
:1009C0002E0380912E03882331F1C4EAD5E00F2E47
:1009D000FCEEFF2EF02D03EF1DEEF882098362E09E
:1009E000CE0155D750D78111FDCF188362E0CE01DB
:1009F0004ED749D78111FDCF62E0CE0174D78093E5
:100A0000A305898183FB882780F980932E03809139
:100A10002E038111E2CFE4EAF5E08CEE808387EFCC
:100A2000818362E0CF0133D72ED78111FDCF8DEEC8
:100A30008093A40569E084EA95E029D724D7811141
:100A4000FDCF69E084EA95E04ED78093A305E5EAFF
:100A5000F5E0ADEAB6E02DEA35E081918D93E2173D
:100A6000F307D9F7EDEAF6E0818190E0A0E0B0E08D
:100A7000880F991FAA1FBB1F880F991FAA1FBB1F92
:100A8000880F991FAA1FBB1F880F991FAA1FBB1F82
:100A9000408150E060E070E0032E3CE0440F551FC1
:100AA000661F771F3A95D1F7302D842B952BA62BF7
:100AB000B72B228122952F70822B8093F30690937F
:100AC000F406A093F506B093F606848190E0A0E0CA
:100AD000B0E0880F991FAA1FBB1F880F991FAA1F7C
:100AE000BB1F880F991FAA1FBB1F880F991FAA1F22
:100AF000BB1F438150E060E070E0032E3CE0440FF8
:100B0000551F661F771F3A95D1F7302D842B952BF3
:100B1000A62BB72B258122952F70822B8093DB0685
:100B20009093DC06A093DD06B093DE06868190E00C
:100B3000A0E0B0E0BA2FA92F982F88272781822B19
:100B40008093F7069093F806A093F906B093FA06FF
:100B5000E4EAF5E08CEE808384EF818381E3828395
:100B600063E0CF0194D68FD68111FDCFDF91CF9175
:100B70001F910F91FF9008958F929F92AF92BF9215
:100B8000CF92DF92EF92FF922091A7063091A806B4
:100B90006B017C01689413F8F594E794D794C7949B
:100BA0001694D1F7C21AD30AE108F108DC01CB018F
:100BB000689412F8B595A795979587951694D1F7EF
:100BC000220F331F4C015D01821A930AA108B1085C
:100BD000A5019401A091AB06B091AC060E94470E0E
:100BE0004B015C01072E7BE0B594A7949794879402
:100BF0007A95D1F7702DA7019601C701B6010E9421
:100C0000250E9B01AC01012E1CE0559547953795AB
:100C100027951A95D1F7102DA0911307B0911407BD
:100C20000E94470EDC01CB01072E7EE0B595A7950B
:100C3000979587957A95D1F7702D880D991DAA1DE6
:100C4000BB1D8093190790931A07A0931B07B093BD
:100C50001C076C017D01CC0CDD1CEE1CFF1CCC0CB8
:100C6000DD1CEE1CFF1C8C0D9D1DAE1DBF1D805894
:100C70009F4FAF4FBF4F692F7A2F8B2F992787FD3B
:100C80009A95FF90EF90DF90CF90BF90AF909F909C
:100C90008F9008952F923F924F925F926F927F9222
:100CA0008F929F92AF92BF92CF92DF92EF92FF927C
:100CB0000F931F93CF93DF93CDB7DEB76E970FB629
:100CC000F894DEBF0FBECDBF6E8B7F8B888F998F60
:100CD0008091190790911A07A0911B07B0911C07EA
:100CE0008C019D01145F2140310909831A832B83F4
:100CF0003C83330F000B102F98010D831E832F832D
:100D00003887A980BA80CB80DC80ED80FE2C0E2D48
:100D10001E2D2A2D3B2D4C2D5D2D602F702F802FE9
:100D20009E2DBBD72D873E874F87588B698B7A8B3B
:100D30008B8B9C8B109115071A8F209116072E8F85
:100D40003091F0063B8F4091F1064D8F5091E106B6
:100D50005C8F8091E2068D8B3091E0062091DF065A
:100D6000932F990F990BFE2C0E2D1E2D492F592FC5
:100D7000692F792F892F91D70CE00E946E0F422E98
:100D8000532E642E752E862E972E282E392EB09037
:100D90000A07A09009071B2D110F110BC12ED12E90
:100DA000E12EF12E012F2D853E854F8558896989C9
:100DB0007A898B899C8971D708E00E94870FA42CBF
:100DC000B52CC62CD72CE82CF92C022D132D0E9403
:100DD000A50F70588F4F9F4F20900707309008073E
:100DE000A22CB32CC12CD12CE12CF12C00E010E072
:100DF00054D701E20E94870F29873A874B87452EF7
:100E0000562E7C87382E292E652D832D922DA0E01D
:100E10000E94B70F09F472C1AA8C1E8D110F110B1D
:100E2000BE8CC12ED12EE12EF12E012F2D853E85B7
:100E30004F85588969897A898B899C892ED72D8716
:100E40003E87642E752E862E972E888B9F872B8D3E
:100E50009D8D990F990BA980BA80CB80DC80ED80A5
:100E6000FE2C0E2D1E2D3D8D492F592F692F792FC8
:100E7000892F13D701E10E946E0FAD84BE84C62C6A
:100E8000D72CE82CF92C08891F850E94A50FA22ECB
:100E9000B32EC42ED52EE62EF72EE82F192F80E084
:100EA00090E0A0E1B0E02E893F89488D598D821BEA
:100EB000930BA40BB50B3C014D01990C6608762CE5
:100EC0004301282F392F4A2F5B2F662D762D862D33
:100ED000962D0FE10E946E0F822E932EF42F752E09
:100EE000B62FA72F682E9D832C8D9D89990F990B66
:100EF0003D89492F592F692F792F892F03E2EED78A
:100F00000E2F0E94A50FA22EB32EC42ED52EE62E94
:100F1000F72E082F192F282D392D4F2F572D6B2FD6
:100F20007A2F862D9D810E94AE0F822E932E4983AB
:100F3000652EB62FA72FF82FE92F03E0CFD7A82CC7
:100F4000B92CC980D62CEB2EFA2E0F2F1E2F0E9403
:100F5000AE0FA22EB32EC42ED52EE62EF72E782E4F
:100F6000192F03E0BBD7072DF9D703E0B7D7A82C7B
:100F7000B92CC980D62CEB2EFA2E0F2F1E2FEED7B0
:100F800002E0ACD70F2FEAD701E0A8D70F2FE6D7A2
:100F9000A984BA84CB84D42CE52CFC84032D122D97
:100FA000CFD62E873D8749835D8369877A878B8774
:100FB0009C870DE0ACD7822E932E742E652E562E74
:100FC000472E382E292E3091120720911107932F8A
:100FD000990F990BA82CB92CC72CD62CE52CF42CE6
:100FE000032D122D492F592F692F792F892F55D66F
:100FF000A22EB32EC42ED52EE62EF72E082F192F93
:10100000282D392D472D562D652D742D832D922D8C
:1010100044D609E17CD7A22EB32EC42ED52EE62EBF
:10102000F72E082F192F2E853D8549815D81698511
:101030007A858B859C8589D7222E332E442E552E7A
:10104000662E772E882E992E30910C0720910B0753
:10105000932F990F990BAE84BD84C980DD80E984FC
:10106000FA840B851C85492F592F692F792F892FD9
:1010700014D603E14CD7A22EB32EC42ED52EE62EC5
:10108000F72E082F192F222D332D442D552D662D87
:10109000772D882D992D59D708E039D74090A5068E
:1010A0005090A606052C000C66087708440C551CC9
:1010B000661C771C440C551C661C771C440C551C84
:1010C000661C771C440C551C661C771C830172013E
:1010D000110FEE08FE2C8701E982FA820B831C8334
:1010E000A42CB52CC62CD72CE980FE2C0E2D1E2D41
:1010F0002CD7622F732F842F952F04C060E070E0EF
:1011000080E090E06E960FB6F894DEBF0FBECDBFC4
:10111000DF91CF911F910F91FF90EF90DF90CF90D3
:10112000BF90AF909F908F907F906F905F904F9007
:101130003F902F9008952F923F924F925F926F921F
:101140007F928F929F92AF92BF92CF92DF92EF9257
:10115000FF920F931F93CF93DF93CDB7DEB76797BF
:101160000FB6F894DEBF0FBECDBF2B013C018091BE
:10117000190790911A07A0911B07B0911C076C01E9
:101180007D01FF0CCC08DC2C7601282F392F4A2F4B
:101190005B2F6C2D7C2D8C2D9C2D3C524140510998
:1011A00061097109810991092F8B3E8B4983598708
:1011B0006A877B878C879D87032E3EE0440C551CF5
:1011C000661C771C3A95D1F7302D53014201BB0CB8
:1011D0008808982C54013091AA062091A906932FD3
:1011E000990F990B492F592F692F792F892F04E1D6
:1011F00075D6F22FE32FC42ED52EE62EF72E082F0C
:10120000192F242D352D462D572D682D782D882DFD
:10121000982DAF2EBE2EA2D6222E332E442E552E22
:10122000662E772E882E992E30910E0720910D076D
:10123000932F990F990BAF88BE88C980D984EA840F
:10124000FB840C851D85492F592F692F792F892FF4
:1012500024D5A22EB32EC42ED52EE62EF72E082F7F
:10126000192F222D332D442D552D662D772D882DA8
:10127000992D74D6305C4F4F5F4F6F4F7F4F8F4F1C
:101280009F4F0FE044D62E873F87488B598B6A8B40
:101290007B8B8C8B9D8B3091EB062091EA06932FF4
:1012A000990F990BAF88BE88C980D984EA84FB84E2
:1012B0000C851D85492F592F692F792F892FEDD442
:1012C0000AE025D6822E932E742E652E562E472E9A
:1012D000382E292E40910F07509110070C85242F8E
:1012E000352F40E050E060E070E080E090E0D5D441
:1012F0000BE00DD630584F4F5F4F6F4F7F4F8F4FE2
:101300009F4FA22EB32EC42ED52EE62EF72E082FD9
:10131000192F282D392D472D562D652D742D832DF0
:10132000922DBBD40AE0F3D5405E5F4F6F4F7F4FE5
:101330008F4F9F4FB0901807A09017071B2D110FCC
:10134000110BC12ED12EE12EF12E012FA6D4305E2D
:101350004F4F5F4F6F4F7F4F8F4F9F4F0EE0D7D54F
:10136000A22EB32EC42ED52EE62EF72E082F192F1F
:101370002E853F85488959896A897B898C899D8911
:101380008CD4422E532E642E752E862E972E282E08
:10139000392E0FE0BCD5A22EB32EC42ED52EE62EAC
:1013A000F72E082F192F79D407E0B1D5E091D9068F
:1013B000F091DA065F01C12CD12CE12CF12C8701D0
:1013C000E983BA82CB82DC82ED82FE820F831887AA
:1013D000C12CD12CE12CF12C00E010E05ED404E013
:1013E00096D5A22EB32EC42ED52EE62EF72E082F7C
:1013F000192F242D352D462D572D682D792D822D11
:10140000932DACD5F22E032F142F652E762EB72FE9
:10141000F82FE92FA0E0ABD544F4F12C00E010E068
:10142000612C712CB0E0F0E0E0E08F2C902EA12E2A
:10143000B62CC72CDB2EEF2EAE2F2F2D302F412FA9
:10144000562D672D7B2F8F2F9E2F2115310541059E
:101450005941610571058105910561F05CF0812CB0
:10146000912CA12C0F2EF9E1BF2EF02DC12CD12CE7
:10147000E12CA0E0282D392D4A2D5B2D6C2D7D2DE2
:101480008E2D9A2F0CE043D5622F732F842F952F2A
:1014900067960FB6F894DEBF0FBECDBFDF91CF9138
:1014A0001F910F91FF90EF90DF90CF90BF90AF9082
:1014B0009F908F907F906F905F904F903F902F9074
:1014C0000895CF93DF9300D0CDB7DEB70E945E01C1
:1014D0001092060710920507109260058BE291E0CA
:1014E0009093200980931F09B6D181E890E09ED2A5
:1014F00081E890E013D3BDD10E94C0000E94AB01EF
:101500007894FBD981E091E0CED22FE784E89EE188
:10151000215080409040E1F700C000008AE391E054
:101520009F938F933FD50F900F900F2EFDE18F2E3D
:10153000F8E09F2EF02D0F2EFEE42F2EF1E03F2E2F
:10154000F02D0F2EFFEF6F2EF6E07F2EF02D0F2ED9
:10155000F0E8AF2EF5E0BF2EF02D809160058130D0
:10156000E1F71092600580910507909106070196BA
:1015700090930607809305078091050790910607D1
:101580009F938F93AEE3B1E0BF93AF930BD58401EC
:101590000F900F900F900F90D8018D918D0159D21F
:1015A000B8E005361B07C1F70E94CA0280937B058D
:1015B00090937C059F938F933F922F92F3D48091C9
:1015C0007C058F9380917B058F93A3E6B1E0BF9359
:1015D000AF93E8D4D40118968C913BD2F401808566
:1015E000D30118968C9306E218E00F2EF8E0CF2E68
:1015F000F7E0DF2EF02D0FB6F894DEBF0FBECDBFA3
:101600006894552453F8780185E698E09A83898395
:101610000FC08701D7018D917D011BD2F801808118
:10162000D6018D936D0150FE03C08AE390E0CDD4C6
:101630005394BEE05B12EDCF8AE590E0C6D40E94E1
:101640002A02F50181818F9380818F93A0EEB1E012
:10165000BF93AF93A7D4D50113968C9113978F9313
:1016600012968C918F93A6EFB1E0BF93AF939AD46B
:10167000D50115968C9115978F9314968C918F9315
:10168000A5E0B2E0BF93AF938DD4D50117968C91AE
:1016900017978F9316968C918F93A3E1B2E0BF9327
:1016A000AF9380D4D50119968C9119978F93189682
:1016B0008C918F9381E292E09F938F9373D479D929
:1016C0006091DB067091DC068091DD069091DE066C
:1016D00053DA6093D5067093D6068093D70690931D
:1016E000D8069F938F937F936F938EE292E09F93A0
:1016F0008F938BEF96E09F938F936CD48091D80655
:101700008F938091D7068F938091D6068F93809187
:10171000D5068F9382E392E09F938F9343D40FB6C5
:10172000F894DEBF0FBECDBF6091F3067091F40652
:101730008091F5069091F606ADDA6093E406709319
:10174000E5068093E6069093E706BB2797FDBA95DA
:10175000A92F982F872FBF93AF939F938F9382E4E6
:1017600092E09F938F931ED46091F7067091F806D4
:101770008091F9069091FA06DEDC6B017C016093A2
:10178000EC067093ED068093EE069093EF06A8EEBC
:10179000B3E09B01AC0171D2DC01CB01072E7AE0F2
:1017A000B595A795979587957A95D1F7702DBF93A5
:1017B000AF939F938F93D701C601072E7AE0B5951B
:1017C000A795979587957A95D1F7702DBF93AF938D
:1017D0009F938F9389E592E09F938F93E3D38091BA
:1017E00078054091780523E037E03F932F9321E07F
:1017F00037E03F932F937F926F929091EF069F93E4
:101800009091EE069F939091ED069F939091EC0638
:101810009F939091E7069F939091E6069F939091F6
:10182000E5069F939091E4069F9390E002969F9324
:101830008F931F924F938BE892E09F938F93B2D335
:10184000E9ECF0E08081806180830FB6F894DEBF20
:101850000FBECDBF82CE8DE0809381008AE49CE4F0
:10186000909389008093880082E080936F000895B0
:10187000189581E18093B8008FEF8093BB0084E0DE
:101880008093BC0008958091BC0081780895CF9327
:10189000DF93EC01ECEBF0E090819178E9F7609355
:1018A000320388818093330380FD12C0623080F060
:1018B000FE013196A4E3B3E06250262F30E02E5FA4
:1018C0003F4F2C0F3D1F91919D93E217F307D9F7DE
:1018D0001092310388EF8093390185EA8093BC0030
:1018E000DF91CF910895AC01ECEBF0E0908191781D
:1018F000E9F78091310380FF11C0662379F0A3E3FB
:10190000B3E0FA016150262F30E02F5F3F4F240FE4
:10191000351F9D919193E217F307D9F78091310319
:10192000817008951F920F920FB60F9211240BB67B
:101930000F922F933F938F939F93AF93BF93EF9308
:10194000FF93E091B9008E2F90E0FC013897E135CC
:10195000F10508F055C0EA5BFF4F86C110923003D5
:10196000E091300380913203E81770F481E08E0F2C
:1019700080933003F0E0ED5CFC4F80818093BB00EE
:1019800085E88093BC0043C08091310381608093DF
:10199000310384E98093BC003AC0E091300381E0D8
:1019A0008E0F809330038091BB00F0E0ED5CFC4F24
:1019B00080832091300330E08091320390E00197E2
:1019C0002817390724F485EC8093BC0020C085E8F3
:1019D0008093BC001CC08091BB00E0913003F0E01C
:1019E000ED5CFC4F808380913103816080933103F3
:1019F00084E98093BC000BC085EA8093BC0007C0DB
:101A00008091B9008093390184E08093BC00FF91FC
:101A1000EF91BF91AF919F918F913F912F910F9037
:101A20000BBE0F900FBE0F901F9018959093C5009E
:101A30008093C40088E98093C1008EE08093C20047
:101A400010924504109246041092430310924403EE
:101A50000895209144032F5F909143032917E1F3E8
:101A6000E22FF0E0EB5BFC4F808320934403E1EC3A
:101A7000F0E08081806280830895209144032F5F8D
:101A8000909143032917E1F3E22FF0E0EB5BFC4F69
:101A9000808320934403E1ECF0E0808180628083C6
:101AA00080E090E00895CF93DF93EC018881882354
:101AB00029F02196CEDF89918111FCCFDF91CF9162
:101AC00008951F920F920FB60F9211240BB60F922A
:101AD0008F939F93EF93FF939091440380914303DF
:101AE000981761F0E0914303EF5FE0934303F0E068
:101AF000EB5BFC4F80818093C60005C0E1ECF0E019
:101B000080818F7D8083FF91EF919F918F910F90C6
:101B10000BBE0F900FBE0F901F9018959093CD00A5
:101B20008093CC0088E98093C90086E08093CA0046
:101B30001092490510924A051092470410924804E9
:101B400008951F920F920FB60F9211240BB60F92A9
:101B50002F933F938F939F93AF93BF93CF93DF9335
:101B6000EF93FF939091CE0080914A058F5F809311
:101B70004A0520914905E82FF0E0E35EF84F908395
:101B80009A3029F5909122079734E9F4E0E02E2F5E
:101B900030E0D901A35EB74FE901C35ED84F988109
:101BA0009C93EF5F8E1798F7F0E0E35EF74F11829A
:101BB000E9ECF0E08081108281E08093600595B1CE
:101BC00082E0892785B91092490510924A05FF9154
:101BD000EF91DF91CF91BF91AF919F918F913F9105
:101BE0002F910F900BBE0F900FBE0F901F90189566
:101BF0001F920F920FB60F9211240BB60F928F9374
:101C00009F93EF93FF939091480480914704981716
:101C100061F0E0914704EF5FE0934704F0E0E75B99
:101C2000FB4F80818093CE0005C0E9ECF0E080811D
:101C30008F7D8083FF91EF919F918F910F900BBECD
:101C40000F900FBE0F901F901895DB018F939F93FD
:101C500014D0BF91AF91A29F800D911DA39F900DB5
:101C6000B29F900D11240895EE0FFF1F0024001C59
:101C70000BBE0790F691E02D099485D1A59F900D9C
:101C8000B49F900DA49F800D911D11240895B7FF5E
:101C9000F4CFF3DF821B930B0895DF93CF931F9351
:101CA0000F939A9DF02D219FF00D8B9DF00D8A9D35
:101CB000E02DF10D039FF00D029FE00DF11D4E9DF3
:101CC000E00DF11D5E9DF00D4F9DF00D7F936F9324
:101CD000BF92AF925F934F93D50155D18B01AC0169
:101CE000D70151D1EB01E80FF91FD6011FD02F9179
:101CF0003F91D60148D1C60FD71FE81FF91FAF91FA
:101D0000BF9114D02F913F913ED1C60FD71FE81F2E
:101D1000F91FD60138D1E60FF71F9801BE01CF0198
:101D200011240F911F91CF91DF9108952CD1460F6F
:101D3000571FC81FD91F08F431960895689401C031
:101D4000E894F92FF12B0AF027C0A0E0B0E0EAEA0E
:101D5000FEE093C0092E05941AF479D0112392F471
:101D6000F0E80F26FFEFE094F09400951095B09402
:101D7000C094D094A194BF0ACF0ADF0AEF0AFF0AE9
:101D80000F0B1F0B13D007FC62D0CDB7DEB7ECE012
:101D900090C0689401C0E8948F929F92CF93DF9394
:101DA00005D0DF91CF919F908F900895882499243A
:101DB000F401E401B0E49F93AA279A158B049C04D4
:101DC000ED05FE05CF05D007A10798F4AD2FDC2F58
:101DD000CF2FFE2FE92D982C892E982F872F762F25
:101DE000652F542F432F322F2227B85031F7BF9140
:101DF00027C01B2EBF91BB27220F331F441F551F27
:101E0000661F771F881F991F881C991CEE1FFF1FD4
:101E1000CC1FDD1FAA1FBB1F8A149B04EC05FD0508
:101E2000CE05DF05A007B10748F08A189B08EC092A
:101E3000FD09CE09DF09A00BB10B21601A94E1F670
:101E40002EF49401AF01BE01CD01000C0895609500
:101E500070958095909530954095509521953F4F80
:101E60004F4F5F4F6F4F7F4F8F4F9F4F08952F9270
:101E70003F924F925F926F927F928F929F92AF921A
:101E8000BF92CF92DF92EF92FF920F931F93CF9367
:101E9000DF93CDB7DEB7CA1BDB0B0FB6F894DEBFFE
:101EA0000FBECDBF09942A88398848885F846E8424
:101EB0007D848C849B84AA84B984C884DF80EE806E
:101EC000FD800C811B81AA81B981CE0FD11D0FB677
:101ED000F894DEBF0FBECDBFED0108950F9308301B
:101EE00090F0982F872F762F652F542F432F322F66
:101EF00022270850F4CF220F331F441F551F661F9F
:101F0000771F881F991F0A95B2F70F91089597FBC5
:101F100010F8169400080F93083098F00850232FFB
:101F2000342F452F562F672F782F892F902DF4CFE0
:101F30000594979587957795679557954795379524
:101F400027950A95AAF70F9108952A0D3B1D4C1D60
:101F50005D1D6E1D7F1D801F911F08952A193B096D
:101F60004C095D096E097F09800B910B08950024CF
:101F7000A7FD00942A17300540055005600570053F
:101F8000800590050895A29FB001B39FC001A39F53
:101F9000700D811D1124911DB29F700D811D1124A2
:101FA000911D0895CF93DF93CDB7DEB7AE014B5FA0
:101FB0005F4FFA0161917191AF0180911F0990917A
:101FC000200937D0DF91CF91089560911F0970915A
:101FD000200933C20F931F93CF93DF93CDB7DEB7A2
:101FE0002E970FB6F894DEBF0FBECDBF0D891E89A8
:101FF00086E08C831A8309838FEF9FE79E838D830E
:10200000AE01475E5F4F6F89788DCE01019611D08A
:102010002F813885F801E20FF31F10822E960FB63C
:10202000F894DEBF0FBECDBFDF91CF911F910F910E
:1020300008952F923F924F925F926F927F928F926C
:102040009F92AF92BF92CF92DF92EF92FF920F9347
:102050001F93CF93DF93CDB7DEB72C970FB6F894CD
:10206000DEBF0FBECDBF7C016B018A01FC01178270
:102070001682838181FFB0C1CE0101964C01F70128
:102080009381F60193FD859193FF81916F018823E0
:1020900009F49EC1853239F493FD859193FF8191B6
:1020A0006F01853221F4B70190E0C7D1E8CF512C00
:1020B000312C20E02032A0F48B3269F030F48032F1
:1020C00059F0833269F420612CC08D3239F08033AD
:1020D00039F4216026C02260246023C0286021C01A
:1020E00027FD27C030ED380F3A3078F426FF06C0C0
:1020F000FAE05F9E300D1124532E13C08AE0389E03
:10210000300D1124332E20620CC08E3221F426FDB6
:102110005FC1206406C08C3611F4206802C0883686
:1021200041F4F60193FD859193FF81916F01811137
:10213000C1CF982F9F7D9554933028F40C5F1F4F8B
:10214000FFE3F9830DC0833631F0833771F08335B7
:1021500009F057C021C0F801808189830E5F1F4FAD
:1021600044244394512C540114C03801F2E06F0E02
:10217000711CF801A080B18026FF03C0652D70E0BE
:1021800002C06FEF7FEFC5012C874CD12C0183017A
:102190002C852F77222E16C03801F2E06F0E711CAD
:1021A000F801A080B18026FF03C0652D70E002C059
:1021B0006FEF7FEFC5012C872AD12C012C85206879
:1021C000222E830123FC19C0832D90E04816590666
:1021D000A0F4B70180E290E030D13A94F5CFF50158
:1021E00027FC859127FE81915F01B70190E025D101
:1021F00031103A94F1E04F1A51084114510479F723
:10220000DEC0843611F0893631F5F80127FF07C0AA
:1022100060817181828193810C5F1F4F08C0608152
:102220007181072E000C880B990B0E5F1F4F2F76C4
:10223000722E97FF09C090958095709561957F4F9C
:102240008F4F9F4F2068722E2AE030E0A4012DD1DD
:10225000A82EA81843C0853729F42F7EB22E2AE075
:1022600030E025C0F22FF97FBF2E8F36C1F018F471
:10227000883579F0ADC0803719F0883721F0A8C0D3
:102280002F2F2061B22EB4FE0DC08B2D8460B82E8E
:1022900009C024FF0AC09F2F9660B92E06C028E00F
:1022A00030E005C020E130E002C020E132E0F8017A
:1022B000B7FE07C060817181828193810C5F1F4FDF
:1022C00006C06081718180E090E00E5F1F4FA40125
:1022D000ECD0A82EA818FB2DFF777F2E76FE0BC022
:1022E000372D3E7FA51450F474FE0AC072FC08C05E
:1022F000372D3E7E05C0BA2C372D03C0BA2C01C045
:10230000B52C34FF0DC0FE01EA0DF11D8081803334
:1023100011F4397E09C032FF06C0B394B39404C0EF
:10232000832F867809F0B39433FD12C030FF06C0C6
:102330005A2CB31418F4530C5B18B32CB31460F478
:10234000B70180E290E03C8778D0B3943C85F6CF2B
:10235000B31410F43B1801C0312C34FF11C0B70185
:1023600080E390E03C8769D03C8532FF16C031FDA8
:1023700003C088E790E002C088E590E0B7010CC098
:10238000832F867851F031FF02C08BE201C080E2DA
:1023900037FD8DE2B70190E050D0A51430F4B701BD
:1023A00080E390E04AD05A94F8CFAA94F401EA0D61
:1023B000F11D8081B70190E040D0A110F6CF33200D
:1023C00009F45DCEB70180E290E037D03A94F7CFC0
:1023D000F7018681978102C08FEF9FEF2C960FB691
:1023E000F894DEBF0FBECDBFDF91CF911F910F914B
:1023F000FF90EF90DF90CF90BF90AF909F908F9025
:102400007F906F905F904F903F902F900895FC01C8
:102410000590615070400110D8F7809590958E0F0F
:102420009F1F0895FC016150704001900110D8F782
:10243000809590958E0F9F1F08950F931F93CF93B4
:10244000DF93FB01238121FD03C08FEF9FEF28C0A5
:1024500022FF16C0468157812481358142175307D8
:1024600044F4A081B1819D012F5F3F4F31832083D0
:102470008C93268137812F5F3F4F3783268310C08F
:10248000EB01092F182F0084F185E02D0995892B88
:10249000E1F68E819F8101969F838E83812F902FFD
:1024A000DF91CF911F910F910895FA01AA2728304B
:1024B00051F1203181F1E8946F936E7F6E5F7F4F11
:1024C0008F4F9F4FAF4FB1E03ED0B4E03CD0670F8D
:1024D000781F891F9A1FA11D680F791F8A1F911DE0
:1024E000A11D6A0F711D811D911DA11D20D009F430
:1024F00068943F912AE0269F11243019305D319372
:10250000DEF6CF010895462F4770405D4193B3E05A
:102510000FD0C9F7F6CF462F4F70405D4A3318F001
:10252000495D31FD4052419302D0A9F7EACFB4E0B2
:10253000A6959795879577956795BA95C9F700976A
:102540006105710508959B01AC010A2E069457950B
:10255000479537952795BA95C9F7620F731F841F62
:10256000951FA01D0895A8E1B0E042E050E002C030
:10257000DC01CB01FC01F999FECF06C0F2BDE1BD43
:10258000F89A319600B40D9241505040B8F7089532
:04259000F894FFCFED
:102594000148656C6C6F20576F726C642121205464
:1025A40068652073657269616C20706F727420694C
:1025B4007320776F726B696E672100000000020060
:1025C4000000003D0D00000000F8686920000A5377
:1025D40065636F6E6473203D202575200A000A4CE4
:1025E400494441522064697374616E6365203D20DF
:1025F4002575000A204C69444152206D657373614E
:102604006765203D20687474703A2F2F63616E6192
:1026140072792E63686F72647372742E636F6D2F98
:102624006D6561737572656D656E74732F75726C0B
:102634005F6372656174653F696E737472756D650D
:102644006E745F69643D3326646973743D25752631
:102654006B65793D34653666626137343230656363
:102664003965383831663531306263646462260016
:102674000A436172626F6E204D6F6E6F7869646594
:10268400203D202575000A487964726F67656E20C5
:102694003D202575000A416D6D6F6E6961203D20F6
:1026A4002575000A4D657468616E65203D202575A9
:1026B400000A4F7A6F6E65203D2025750A00256C4F
:1026C40075000A43656C73697573203D20256C752C
:1026D4000A000A507265737375726520696E205022
:1026E40061203D20256C750A000A2048756D6964D7
:1026F40069747920696E2070657263656E742072E6
:10270400656C61746976652068756D69646974794E
:102714003D20256C752E256C750A000A20424D4516
:10272400206D657373616765203D20687474703A29
:102734002F2F63616E6172792E63686F7264737296
:10274400742E636F6D2F6D6561737572656D656E43
:1027540074732F75726C5F6372656174653F696E23
:10276400737472756D656E745F69643D312674654A
:102774006D703D252E35732E252E357326707265AA
:10278400733D256C752668756D3D256C75266B65E6
:10279400793D346536666261373432306563396554
:1027A400383831663531306263646462252E3373A0
:0C27B4003A252E34733A252E33730000B2
:00000001FF
