:100000008EC00000A9C00000A7C00000A5C000006D
:10001000A3C00000A1C000009FC000009DC0000060
:100020009BC0000099C0000097C0000095C0000070
:1000300093C000000C940B0C8FC000008DC000001A
:100040000C940A0C89C0000087C0000085C0000025
:1000500083C000000C94440D7FC000007DC00000F0
:100060007BC0000079C000000C94790C75C00000C2
:100070000C94800D0C94C80D6FC00000930CE50C1F
:10008000E50CE50CE50CE50CE50CE50C930CE50C3A
:10009000E50CE50CE50CE50CE50CE50C950CE50C28
:1000A000E50CE50CE50CE50CE50CE50CE50CE50CC8
:1000B000E50CE50CE50CE50CE50CE50C950CE50C08
:1000C000E50CE50CE50CE50CE50CE50CE50CE50CA8
:1000D000E50CE50CE50CE50CE50CE50CE10CE50C9C
:1000E000E50CE50CE50CE50CE50CE50CBE0CE50CAF
:1000F000E50CE50CE50CE50CE50CE50CE50CE50C78
:10010000E50CE50CE50CE50CE50CE50CB20CE50C9A
:10011000E50CE50CE50CE50CE50CE50CD00C112428
:100120001FBECFEFD8E0DEBFCDBF13E0A0E0B1E04F
:10013000E2EBF4E202C005900D92AE31B107D9F7BF
:1001400029E0AEE1B3E001C01D92AF30B207E1F7A4
:100150000E94520A0C94571253CFECE7F0E09081C2
:10016000907E90839081892B80830895CF93DF9335
:10017000ECE7F0E0808180648083CAE7D0E088818A
:100180008160888388818260888388818460888395
:10019000A4E6B0E08C918E7F8C9380818F7D8083EC
:1001A0008FE380937E0088818068888310927B0033
:1001B0008FE1D3DF888180648883EAE7F0E0808183
:1001C00084FFFDCFEAE7F0E0808180648083808156
:1001D00084FFFDCF8091780090E090931F0380937F
:1001E0001E039091790020911E0330911F03892FE7
:1001F00090E0982F8827820F931F90931F0380937E
:100200001E0380911E0390911F0399231CF4919566
:100210008195910905972CF080917E0581608093EE
:100220007E058EE19ADFEAE7F0E0808180648083DA
:10023000808184FFFDCF8091780090E090931F0330
:1002400080931E039091790020911E0330911F032B
:10025000892F90E0982F8827820F931F90931F0378
:1002600080931E0380911E0390911F03815E91096C
:1002700090931F0380931E0380911E0390911F0390
:1002800099231CF491958195910905972CF0809103
:100290007E05826080937E05EAE7F0E080818F77BB
:1002A0008083DF91CF91089587E084B985B115B837
:1002B0002B9A389A399A409A419A089580E090E0B2
:1002C0002FEF33E0FC01EE0FFF1FEE0FFF1FED5A83
:1002D000FA4F118210823383228301968530910573
:1002E00089F70895EF92FF920F931F93CF93DF93B7
:1002F0000F2EFDE3EF2EF5E0FF2EF02D00E010E0D5
:10030000C7010E944212E801CC0FDD1FCC0FDD1F98
:10031000CD5ADA4F99838883C70102960E94421210
:100320009B838A830F5F1F4F84E0E80EF11C05302A
:10033000110531F7DF91CF911F910F91FF90EF9051
:100340000895AF92BF92CF92DF92EF92FF920F93F8
:100350001F93CF93DF931F92CDB7DEB710927E0528
:1003600010927105BFDFAADFEAE7F0E080818068C4
:10037000808319828981853008F051C00AE710E036
:100380000F2EF8E7EF2EF12CF02DBB24B394A12C07
:10039000CC24C394D12C8981E0DEF8018081806473
:1003A0008083F801808184FFFCCFF70180819181F7
:1003B000E981F0E0EE0FFF1FEE0FFF1FED5AFA4F3D
:1003C00020813181E981F0E0EE0FFF1FEE0FFF1F6A
:1003D000ED5AFA4F628173814B2D6817790708F047
:1003E0004A2D411107C04B2D8217930708F04A2D63
:1003F000442371F0998120917E059D5FA60102C082
:10040000440F551F9A95E2F7CA01822B80937E050F
:1004100089818F5F89838981853008F4BCCFEAE7C1
:10042000F0E080818F7780830F90DF91CF911F91D3
:100430000F91FF90EF90DF90CF90BF90AF90089515
:100440008F929F92AF92BF92CF92DF92EF92FF92E4
:100450000F931F93CF93DF9300D01F92CDB7DEB7DA
:10046000EAE7F0E0808180688083198289818530A5
:1004700008F076C06894882482F8912C0AE710E08E
:100480000F2EF8E7EF2EF12CF02DCC24C394D12CB5
:10049000BB24B394A12C898160DE1B821A82282D93
:1004A000392DF801808180648083F801808184FF88
:1004B000FCCFF70180819181E981F0E0EE0FFF1F11
:1004C000EE0FFF1FED5AFA4F40815181E981F0E0B4
:1004D000EE0FFF1FEE0FFF1FED5AFA4F628173817F
:1004E000EB2D6817790708F0EA2DE11107C06B2D95
:1004F0008417950708F06A2D662371F05981609181
:100500007E055D5FF60102C0EE0FFF1F5A95E2F710
:10051000AF01462B40937E054A815B81840F951F76
:100520009B838A832150310909F0BBCF8A819B814B
:10053000E981F0E0EE0FFF1FEE58FA4F9C0199237E
:1005400014F42D5F3F4F35952795359527953183C9
:10055000208389818F5F89838981853008F49BCFCF
:100560000F900F900F90DF91CF911F910F91FF90FF
:10057000EF90DF90CF90BF90AF909F908F900895B5
:100580001F93CF93DF93E5E8F5E084EC808311823D
:1005900084E0828363E0CF010E942E0C0E942A0C2B
:1005A0008111FCCFE5E8F5E084EC808381E0818374
:1005B00062E0CF010E942E0C0E942A0C8111FCCF18
:1005C000C5E8D5E015EC1883198262E0CE010E94DF
:1005D0002E0C0E942A0C8111FCCF62E0CE010E94F9
:1005E0005A0C8093950589818093960680FDEBCF08
:1005F000E5E8F5E084EC80838FE8818362E0CF0159
:100600000E942E0C0E942A0C8111FCCFE5E8F5E037
:1006100085EC80831182128263E0CF010E942E0C50
:100620000E942A0C8111FCCF63E085E895E00E94CE
:100630005A0C80939505E5E8F5E0818190E0982FCC
:1006400088272281820F911DDF91CF911F910895FC
:10065000FF920F931F93CF93DF9380910001882324
:1006600059F1C6E9D5E00F2EFCEEFF2EF02D03EF79
:100670001DEEF882098362E0CE010E942E0C0E94DA
:100680002A0C8111FCCF18836AE1CE010E942E0C46
:100690000E942A0C8111FCCF6AE1CE010E945A0C03
:1006A00080939505898183FB882780F980930001D9
:1006B000809100018111DDCFE6E9F5E08CEE8083C9
:1006C00088E8818362E0CF010E942E0C0E942A0CF0
:1006D0008111FCCF8DEE809396056BE186E995E064
:1006E0000E942E0C0E942A0C8111FCCF6BE186E93E
:1006F00095E00E945A0C80939505C7E9D5E00FE973
:1007000016E022EB35E0D801FE0181918D93E217CE
:10071000F307D9F78BE180932103EFE9F6E08181BC
:1007200090E0982F88272081822B90939A068093BF
:100730009906838190E0982F88272281822B9093BD
:100740009E0680939D06858190E0982F88272481BE
:10075000822B909300078093FF06878190E0982F6B
:1007600088272681822B9093F4068093F306818557
:1007700090E0982F88272085822B9093D206809333
:10078000D106838590E0982F88272285822B90932D
:10079000F6068093F506858590E0982F88272485B6
:1007A000822B9093D4068093D306878590E0982F70
:1007B00088272685822B9093E3068093E206818921
:1007C00090E0982F88272089822B909302078093AE
:1007D0000107838990E0982F88272289822B9093A4
:1007E000980680939706858990E0982F882724891A
:1007F000822B9093F8068093F706878990E0982FD4
:1008000088272689822B9093FE068093FD06818D92
:1008100090E09093CC068093CB06E6E9F5E08CEE71
:10082000808381EE818362E0CF010E942E0C0E94C2
:100830002A0C8111FCCF8DEE8093960568E086E945
:1008400095E00E942E0C0E942A0C8111FCCF68E0DA
:1008500086E995E00E945A0C809395052EE935E0D3
:100860008991F80181938F01C217D307C9F787E0F7
:1008700080932103EFE9F6E0828190E0982F8827AA
:100880002181822B9093040780930307838190E05A
:100890009093FC068093FB068581829586958770F0
:1008A00090E0248140E1249F90011124282B392BD2
:1008B00030939C0620939B06268140E1249F900163
:1008C0001124822B932B9093FA068093F90687814B
:1008D00090E09093DD068093DC06DF91CF911F912D
:1008E0000F91FF900895E6E9F5E08CEE808380EEAD
:1008F000818386EB828363E0CF01B0D7ABD78111D0
:10090000FDCFE6E9F5E08CEE808380ED818362E047
:10091000CF01A4D79FD78111FDCF8DEE809396058F
:1009200062E086E995E09AD795D78111FDCF62E024
:1009300086E995E0BFD7809395058091970580362D
:1009400069F5E6E9F5E08CEE808382EF818381E052
:10095000828363E0CF0182D77DD78111FDCFE6E9A5
:10096000F5E08CEE808385EF818380E1828363E014
:10097000CF0174D76FD78111FDCF6ADE81E38093F9
:10098000D506E6E9F5E09CEE908394EF91838283AF
:1009900063E0CF0163D75ED78111FDCF0895FF9249
:1009A0000F931F93CF93DF9381E080932003809177
:1009B0002003882331F1C6E9D5E00F2EFCEEFF2E8F
:1009C000F02D03EF1DEEF882098362E0CE0146D7D9
:1009D00041D78111FDCF188362E0CE013FD73AD7CE
:1009E0008111FDCF62E0CE0165D7809395058981A5
:1009F00083FB882780F98093200380912003811155
:100A0000E2CFE6E9F5E08CEE808387EF818362E058
:100A1000CF0124D71FD78111FDCF8DEE809396058E
:100A200069E086E995E01AD715D78111FDCF69E015
:100A300086E995E03FD780939505E7E9F5E0AFE9D2
:100A4000B6E02FE935E081918D93E217F307D9F7EE
:100A5000EFE9F6E0818190E0A0E0B0E0880F991F17
:100A6000AA1FBB1F880F991FAA1FBB1F880F991FA2
:100A7000AA1FBB1F880F991FAA1FBB1F408150E0F0
:100A800060E070E0032E3CE0440F551F661F771FA7
:100A90003A95D1F7302D842B952BA62BB72B22819D
:100AA00022952F70822B8093E5069093E606A09303
:100AB000E706B093E806848190E0A0E0B0E0880FFC
:100AC000991FAA1FBB1F880F991FAA1FBB1F880F42
:100AD000991FAA1FBB1F880F991FAA1FBB1F438105
:100AE00050E060E070E0032E3CE0440F551F661FAD
:100AF000771F3A95D1F7302D842B952BA62BB72B4A
:100B0000258122952F70822B8093CD069093CE065F
:100B1000A093CF06B093D006868190E0A0E0B0E02D
:100B2000BA2FA92F982F88272781822B8093E90637
:100B30009093EA06A093EB06B093EC06E6E9F5E0A5
:100B40008CEE808384EF818381E3828363E0CF0135
:100B500085D680D68111FDCFDF91CF911F910F9166
:100B6000FF9008958F929F92AF92BF92CF92DF92A3
:100B7000EF92FF922091990630919A066B017C01C9
:100B8000689413F8F594E794D794C7941694D1F722
:100B9000C21AD30AE108F108DC01CB01689412F80B
:100BA000B595A795979587951694D1F7220F331F82
:100BB0004C015D01821A930AA108B108A5019401B4
:100BC000A0919D06B0919E060E94100E4B015C0103
:100BD000072E7BE0B594A794979487947A95D1F7E4
:100BE000702DA7019601C701B601FBD79B01AC018F
:100BF000012E1CE055954795379527951A95D1F705
:100C0000102DA091FF06B09100070E94100EDC018C
:100C1000CB01072E7EE0B595A795979587957A9598
:100C2000D1F7702D880D991DAA1DBB1D8093050756
:100C300090930607A0930707B09308076C017D0106
:100C4000CC0CDD1CEE1CFF1CCC0CDD1CEE1CFF1CB8
:100C50008C0D9D1DAE1DBF1D80589F4FAF4FBF4FC8
:100C6000692F7A2F8B2F992787FD9A95FF90EF9008
:100C7000DF90CF90BF90AF909F908F9008952F926C
:100C80003F924F925F926F927F928F929F92AF921C
:100C9000BF92CF92DF92EF92FF920F931F93CF9369
:100CA000DF93CDB7DEB76E970FB6F894DEBF0FBEF9
:100CB000CDBF6E8B7F8B888F998F80910507909128
:100CC0000607A0910707B09108078C019D01145FEA
:100CD0002140310909831A832B833C83330F000B96
:100CE000102F98010D831E832F833887A980BA8027
:100CF000CB80DC80ED80FE2C0E2D1E2D2A2D3B2D71
:100D00004C2D5D2D602F702F802F9E2D8FD72D871E
:100D10003E874F87588B698B7A8B8B8B9C8B10917E
:100D200001071A8F209102072E8F3091E2063B8F28
:100D30004091E3064D8F5091D3065C8F8091D4068D
:100D40008D8B3091D2062091D106932F990F990B5C
:100D5000FE2C0E2D1E2D492F592F692F792F892FEB
:100D600065D70CE00E94370F422E532E642E752E4D
:100D7000862E972E282E392EB090F606A090F506D6
:100D80001B2D110F110BC12ED12EE12EF12E012F93
:100D90002D853E854F85588969897A898B899C89FB
:100DA00045D708E00E94500FA42CB52CC62CD72C98
:100DB000E82CF92C022D132D0E946E0F70588F4FC6
:100DC0009F4F2090F3063090F406A22CB32CC12C38
:100DD000D12CE12CF12C00E010E028D701E20E9498
:100DE000500F29873A874B87452E562E7C87382E01
:100DF000292E652D832D922DA0E00E94800F09F4ED
:100E00006EC1AA8C1E8D110F110BBE8CC12ED12E5E
:100E1000E12EF12E012F2D853E854F855889698958
:100E20007A898B899C8902D72D873E87642E752EFF
:100E3000862E972E888B9F872B8D9D8D990F990BD2
:100E4000A980BA80CB80DC80ED80FE2C0E2D1E2D7B
:100E50003D8D492F592F692F792F892FE7D601E131
:100E60000E94370FAD84BE84C62CD72CE82CF92CF9
:100E700008891F850E946E0FA22EB32EC42ED52E78
:100E8000E62EF72EE82F192F80E090E0A0E1B0E0E9
:100E90002E893F89488D598D821B930BA40BB50B6E
:100EA0003C014D01990C6608762C4301282F392FFF
:100EB0004A2F5B2F662D762D862D962D0FE1D7D7E5
:100EC000822E932EF42F752EB62FA72F682E9D837A
:100ED0002C8D9D89990F990B3D89492F592F692F89
:100EE000792F892F03E2C3D70E2FF8D7A22EB32E66
:100EF000C42ED52EE62EF72E082F192F282D392D8A
:100F00004F2F572D6B2F7A2F862D9D81F0D7822E54
:100F1000932E4983652EB62FA72FF82FE92F03E0D4
:100F2000A6D7A82CB92CC980D62CEB2EFA2E0F2FC1
:100F30001E2FDDD7A22EB32EC42ED52EE62EF72ED1
:100F4000782E192F03E093D7072DD1D703E08FD741
:100F5000A82CB92CC980D62CEB2EFA2E0F2F1E2FC1
:100F6000C6D702E084D70F2FC2D701E080D70F2F5A
:100F7000BED7A984BA84CB84D42CE52CFC84032D61
:100F8000122DA7D62E873D8749835D8369877A878F
:100F90008B879C870DE084D7822E932E742E652E2E
:100FA000562E472E382E292E3091FE062091FD0612
:100FB000932F990F990BA82CB92CC72CD62CE52C64
:100FC000F42C032D122D492F592F692F792F892F9A
:100FD0002DD6A22EB32EC42ED52EE62EF72E082FF8
:100FE000192F282D392D472D562D652D742D832D24
:100FF000922D1CD609E154D7A22EB32EC42ED52E85
:10100000E62EF72E082F192F2E853D8549815D810B
:1010100069857A858B859C8561D7222E332E442E57
:10102000552E662E772E882E992E3091F806209117
:10103000F706932F990F990BAE84BD84C980DD808C
:10104000E984FA840B851C85492F592F692F792F44
:10105000892FECD503E124D7A22EB32EC42ED52E92
:10106000E62EF72E082F192F222D332D442D552D26
:10107000662D772D882D992D31D708E011D7409016
:10108000970650909806052C000C66087708440CCB
:10109000551C661C771C440C551C661C771C440CA4
:1010A000551C661C771C440C551C661C771C830160
:1010B0007201110FEE08FE2C8701E982FA820B8380
:1010C0001C83A42CB52CC62CD72CE980FE2C0E2D0D
:1010D0001E2D04D7622F732F842F952F04C060E03C
:1010E00070E080E090E06E960FB6F894DEBF0FBE21
:1010F000CDBFDF91CF911F910F91FF90EF90DF90C7
:10110000CF90BF90AF909F908F907F906F905F90A7
:101110004F903F902F9008952F923F924F925F9261
:101120006F927F928F929F92AF92BF92CF92DF92F7
:10113000EF92FF920F931F93CF93DF93CDB7DEB75C
:1011400067970FB6F894DEBF0FBECDBF2B013C01F1
:101150008091050790910607A0910707B0910807B5
:101160006C017D01FF0CCC08DC2C7601282F392F77
:101170004A2F5B2F6C2D7C2D8C2D9C2D3C52414099
:10118000510961097109810991092F8B3E8B4983AE
:1011900059876A877B878C879D87032E3EE0440CA6
:1011A000551C661C771C3A95D1F7302D530142012E
:1011B000BB0C8808982C540130919C0620919B060A
:1011C000932F990F990B492F592F692F792F892F19
:1011D00004E14DD6F22FE32FC42ED52EE62EF72EA6
:1011E000082F192F242D352D462D572D682D782D9C
:1011F000882D982DAF2EBE2E7AD6222E332E442E39
:10120000552E662E772E882E992E3091FA06209133
:10121000F906932F990F990BAF88BE88C980D9849E
:10122000EA84FB840C851D85492F592F692F792F5E
:10123000892FFCD4A22EB32EC42ED52EE62EF72E47
:10124000082F192F222D332D442D552D662D772D46
:10125000882D992D4CD6305C4F4F5F4F6F4F7F4F8D
:101260008F4F9F4F0FE01CD62E873F87488B598B9F
:101270006A8B7B8B8C8B9D8B3091DD062091DC06FD
:10128000932F990F990BAF88BE88C980D984EA84BF
:10129000FB840C851D85492F592F692F792F892FA4
:1012A000C5D40AE0FDD5822E932E742E652E562EBF
:1012B000472E382E292E4091FB065091FC060C85B6
:1012C000242F352F40E050E060E070E080E090E0B7
:1012D000ADD40BE0E5D530584F4F5F4F6F4F7F4F88
:1012E0008F4F9F4FA22EB32EC42ED52EE62EF72E53
:1012F000082F192F282D392D472D562D652D742D8A
:10130000832D922D93D40AE0CBD5405E5F4F6F4F73
:101310007F4F8F4F9F4FB0900407A09003071B2D66
:10132000110F110BC12ED12EE12EF12E012F7ED4E3
:10133000305E4F4F5F4F6F4F7F4F8F4F9F4F0EE08D
:10134000AFD5A22EB32EC42ED52EE62EF72E082F03
:10135000192F2E853F85488959896A897B898C890F
:101360009D8964D4422E532E642E752E862E972E80
:10137000282E392E0FE094D5A22EB32EC42ED52EB2
:10138000E62EF72E082F192F51D407E089D5E091CA
:10139000CB06F091CC065F01C12CD12CE12CF12CB5
:1013A0008701E983BA82CB82DC82ED82FE820F83E1
:1013B0001887C12CD12CE12CF12C00E010E036D4A0
:1013C00004E06ED5A22EB32EC42ED52EE62EF72E17
:1013D000082F192F242D352D462D572D682D792DA9
:1013E000822D932D84D5F22E032F142F652E762E69
:1013F000B72FF82FE92FA0E083D544F4F12C00E0BB
:1014000010E0612C712CB0E0F0E0E0E08F2C902E29
:10141000A12EB62CC72CDB2EEF2EAE2F2F2D302F6A
:10142000412F562D672D7B2F8F2F9E2F2115310594
:1014300041055941610571058105910561F05CF037
:10144000812C912CA12C0F2EF9E1BF2EF02DC12C57
:10145000D12CE12CA0E0282D392D4A2D5B2D6C2DAF
:101460007D2D8E2D9A2F0CE01BD5622F732F842F8C
:10147000952F67960FB6F894DEBF0FBECDBFDF91F4
:10148000CF911F910F91FF90EF90DF90CF90BF9081
:10149000AF909F908F907F906F905F904F903F9014
:1014A0002F9008950E9454011092F2061092F106B6
:1014B000109252058BE291E090930C0980930B09F6
:1014C0009CD181E890E095D281E890E006D3B8D134
:1014D0000E94B6000E94A101789405DA81E091E0B3
:1014E000C5D22FE784E89EE1215080409040E1F78B
:1014F00000C000008AE391E09F938F931CD50F906A
:101500000F900F2EFEE3AF2EF1E0BF2EF02DC1E5C0
:10151000D8E00F2EFEE48F2EF1E09F2EF02D0F2E3F
:10152000F3E66F2EF1E07F2EF02D0F2EF2E7EF2E77
:10153000F5E0FF2EF02D0F2EFEE2CF2EF2E0DF2E93
:10154000F02D809152058130E1F710925205809183
:10155000F1069091F20601969093F2068093F106BF
:101560008091F1069091F2069F938F93BF92AF9274
:10157000E2D409E018E00F900F900F900F90D8017F
:101580008D918D0149D20C171D07C9F70E94C00229
:1015900080936D0590936E059F938F939F928F928A
:1015A000CAD480916E058F9380916D058F937F9241
:1015B0006F92C1D4809111082FD20F2EF2E14F2EDD
:1015C000F8E05F2EF02DEDB7FEB738960FB6F89421
:1015D000FEBF0FBEEDBF18E009C0D2018D912D01F5
:1015E0001BD210FF03C08AE390E0B8D41F5F1E3007
:1015F000A1F78AE590E0B2D40E942002F701818130
:101600008F9380818F93A0EEB1E0BF93AF9393D47B
:10161000D70113968C9113978F9312968C918F9379
:10162000A6EFB1E0BF93AF9386D4D70115968C9106
:1016300015978F9314968C918F93A5E0B2E0BF938A
:10164000AF9379D4D70117968C9117978F931696ED
:101650008C918F93A3E1B2E0BF93AF936CD4D70189
:1016600019968C9119978F9318968C918F93A1E26C
:10167000B2E0BF93AF935FD492D96091CD067091E1
:10168000CE068091CF069091D0066CDA6093C706A3
:101690007093C8068093C9069093CA069F938F9350
:1016A0007F936F93DF92CF928DEE96E09F938F930F
:1016B0005AD48091CA068F938091C9068F938091E6
:1016C000C8068F938091C7068F9382E392E09F9321
:1016D0008F9331D48DB79EB782960FB6F8949EBF84
:1016E0000FBE8DBF6091E5067091E6068091E7061A
:1016F0009091E806C4DA6093D6067093D70680937B
:10170000D8069093D906BB2797FDBA95A92F982F95
:10171000872FBF93AF939F938F9382E492E09F9321
:101720008F9309D46091E9067091EA068091EB06E7
:101730009091EC06F1DC1B012C016093DE067093A6
:10174000DF068093E0069093E106A8EEB3E09B01EC
:10175000AC015CD2DC01CB01072E7AE0B595A795F0
:10176000979587957A95D1F7702DBF93AF939F93F7
:101770008F93D201C101072E7AE0B595A795979571
:1017800087957A95D1F7702DBF93AF939F938F93E1
:1017900089E592E09F938F93CED380916A05209143
:1017A0006A059091E1069F939091E0069F93909136
:1017B000DF069F939091DE069F939091D9069F93A9
:1017C0009091D8069F939091D7069F939091D606BB
:1017D0009F9390E002969F938F931F922F938BE895
:1017E00092E09F938F93A7D3ADB7BEB75E960FB627
:1017F000F894BEBF0FBEADBFA4CE8DE08093810034
:101800008AE49CE4909389008093880082E080932E
:101810006F00089518951F920F920FB60F92112422
:101820008F939F9395B182E0892785B981E080935A
:1018300052059F918F910F900FBE0F901F9018959A
:1018400081E18093B8008FEF8093BB0084E08093A8
:10185000BC0008958091BC0081780895CF93DF93F8
:10186000EC01ECEBF0E090819178E9F760932403D0
:1018700088818093250380FD12C0623080F0FE01D4
:101880003196A6E2B3E06250262F30E02E5F3F4F44
:101890002C0F3D1F91919D93E217F307D9F71092FA
:1018A000230388EF8093390185EA8093BC00DF91A0
:1018B000CF910895AC01ECEBF0E090819178E9F7DD
:1018C0008091230380FF11C0662379F0A5E2B3E085
:1018D000FA016150262F30E02F5F3F4F240F351F54
:1018E0009D919193E217F307D9F7809123038170BB
:1018F00008951F920F920FB60F9211242F933F93CA
:101900008F939F93AF93BF93EF93FF93E091B900B1
:101910008E2F90E0FC013897E135F10508F055C0B5
:10192000E25CFF4F6DC110922203E091220380918F
:101930002403E81770F481E08E0F80932203F0E017
:10194000EB5DFC4F80818093BB0085E88093BC00F9
:1019500043C08091230381608093230384E98093B3
:10196000BC003AC0E091220381E08E0F80932203F5
:101970008091BB00F0E0EB5DFC4F8083209122035F
:1019800030E08091240390E001972817390724F470
:1019900085EC8093BC0020C085E88093BC001CC00F
:1019A0008091BB00E0912203F0E0EB5DFC4F80836F
:1019B0008091230381608093230384E98093BC009A
:1019C0000BC085EA8093BC0007C08091B90080936A
:1019D000390184E08093BC00FF91EF91BF91AF91FA
:1019E0009F918F913F912F910F900FBE0F901F905D
:1019F00018959093C5008093C40088E98093C10036
:101A00008EE08093C2001092370410923804109236
:101A10003503109236030895209136032F5F90917D
:101A200035032917E1F3E22FF0E0E95CFC4F8083F6
:101A300020933603E1ECF0E080818062808308959A
:101A4000209136032F5F909135032917E1F3E22FA0
:101A5000F0E0E95CFC4F808320933603E1ECF0E09A
:101A600080818062808380E090E00895CF93DF934F
:101A7000EC018881882329F02196CEDF899181119C
:101A8000FCCFDF91CF9108951F920F920FB60F9266
:101A900011248F939F93EF93FF939091360380913E
:101AA0003503981761F0E0913503EF5FE09335035C
:101AB000F0E0E95CFC4F80818093C60005C0E1EC5A
:101AC000F0E080818F7D8083FF91EF919F918F91D6
:101AD0000F900FBE0F901F9018959093CD0080939C
:101AE000CC0088E98093C90086E08093CA001092F8
:101AF0003B0510923C051092390410923A04089567
:101B00001F920F920FB60F9211242F933F938F9332
:101B10009F93AF93BF93CF93DF93EF93FF939091F6
:101B2000CE0080913C058F5F80933C0520913B0562
:101B3000E82FF0E0E75FF84F90839A30D1F490916E
:101B40000E07973491F4E0E02E2F30E0D901A75F23
:101B5000B74FE901C75FD84F98819C93EF5F8E170D
:101B600098F7F0E0E75FF74F118210923B05109273
:101B70003C05FF91EF91DF91CF91BF91AF919F9184
:101B80008F913F912F910F900FBE0F901F9018953E
:101B90001F920F920FB60F9211248F939F93EF9382
:101BA000FF9390913A0480913904981761F0E09185
:101BB0003904EF5FE0933904F0E0E55CFB4F80818E
:101BC0008093CE0005C0E9ECF0E080818F7D8083BA
:101BD000FF91EF919F918F910F900FBE0F901F90EB
:101BE0001895DB018F939F9311D0BF91AF91A29F66
:101BF000800D911DA39F900DB29F900D112408950B
:101C0000EE0FFF1F0590F491E02D099485D1A59F5B
:101C1000900DB49F900DA49F800D911D11240895E7
:101C2000B7FFF4CFF3DF821B930B0895DF93CF93BD
:101C30001F930F939A9DF02D219FF00D8B9DF00D1A
:101C40008A9DE02DF10D039FF00D029FE00DF11D27
:101C50004E9DE00DF11D5E9DF00D4F9DF00D7F93AB
:101C60006F93BF92AF925F934F93D50155D18B0184
:101C7000AC01D70151D1EB01E80FF91FD6011FD0FC
:101C80002F913F91D60148D1C60FD71FE81FF91FEA
:101C9000AF91BF9114D02F913F913ED1C60FD71F66
:101CA000E81FF91FD60138D1E60FF71F9801BE01D2
:101CB000CF0111240F911F91CF91DF9108952CD165
:101CC000460F571FC81FD91F08F43196089568940E
:101CD00001C0E894F92FF12B0AF027C0A0E0B0E092
:101CE000E3E7FEE093C0092E05941AF479D011239E
:101CF00092F4F0E80F26FFEFE094F0940095109531
:101D0000B094C094D094A194BF0ACF0ADF0AEF0A1E
:101D1000FF0A0F0B1F0B13D007FC62D0CDB7DEB745
:101D2000ECE090C0689401C0E8948F929F92CF93AA
:101D3000DF9305D0DF91CF919F908F9008958824F5
:101D40009924F401E401B0E49F93AA279A158B0427
:101D50009C04ED05FE05CF05D007A10798F4AD2F33
:101D6000DC2FCF2FFE2FE92D982C892E982F872F2F
:101D7000762F652F542F432F322F2227B85031F75B
:101D8000BF9127C01B2EBF91BB27220F331F441FBB
:101D9000551F661F771F881F991F881C991CEE1FEF
:101DA000FF1FCC1FDD1FAA1FBB1F8A149B04EC055D
:101DB000FD05CE05DF05A007B10748F08A189B088E
:101DC000EC09FD09CE09DF09A00BB10B21601A94C3
:101DD000E1F62EF49401AF01BE01CD01000C08958F
:101DE000609570958095909530954095509521958A
:101DF0003F4F4F4F5F4F6F4F7F4F8F4F9F4F089514
:101E00002F923F924F925F926F927F928F929F920A
:101E1000AF92BF92CF92DF92EF92FF920F931F93F8
:101E2000CF93DF93CDB7DEB7CA1BDB0B0FB6F894A9
:101E3000DEBF0FBECDBF09942A88398848885F84E9
:101E40006E847D848C849B84AA84B984C884DF805A
:101E5000EE80FD800C811B81AA81B981CE0FD11D3E
:101E60000FB6F894DEBF0FBECDBFED0108950F93FE
:101E7000083090F0982F872F762F652F542F432FFF
:101E8000322F22270850F4CF220F331F441F551F33
:101E9000661F771F881F991F0A95B2F70F91089543
:101EA00097FB10F8169400080F93083098F008502C
:101EB000232F342F452F562F672F782F892F902DC2
:101EC000F4CF05949795879577956795579547959E
:101ED000379527950A95AAF70F9108952A0D3B1D6E
:101EE0004C1D5D1D6E1D7F1D801F911F08952A19B9
:101EF0003B094C095D096E097F09800B910B089520
:101F00000024A7FD00942A17300540055005600500
:101F10007005800590050895A29FB001B39FC00190
:101F2000A39F700D811D1124911DB29F700D811D05
:101F30001124911D0895A0E0B0E0E0EAFFE070CF29
:101F4000AE014B5F5F4FFA0161917191AF018091DA
:101F50000B0990910C0927D0E2E07ECF60910B092C
:101F600070910C09F9C1AEE0B0E0E8EBFFE056CFAC
:101F70000D891E8986E08C831A8309838FEF9FE782
:101F80009E838D83AE01475E5F4F6F89788DCE0152
:101F9000019609D02F813885F801E20FF31F1082D6
:101FA0002E96E4E057CFACE0B0E0E8EDFFE028CFBC
:101FB0007C016B018A01FC0117821682838181FFFB
:101FC000B0C1CE0101964C01F7019381F60193FD5A
:101FD000859193FF81916F01882309F49EC1853219
:101FE00039F493FD859193FF81916F01853221F43E
:101FF000B70190E0B1D1E8CF512C312C20E0203254
:10200000A0F48B3269F030F4803259F0833269F4F5
:1020100020612CC08D3239F0803339F4216026C024
:102020002260246023C0286021C027FD27C030ED36
:10203000380F3A3078F426FF06C0FAE05F9E300D84
:102040001124532E13C08AE0389E300D1124332EF4
:1020500020620CC08E3221F426FD5FC1206406C0D0
:102060008C3611F4206802C0883641F4F60193FDE5
:10207000859193FF81916F018111C1CF982F9F7D31
:102080009554933028F40C5F1F4FFFE3F9830DC084
:10209000833631F0833771F0833509F057C021C0A2
:1020A000F801808189830E5F1F4F44244394512C93
:1020B000540114C03801F2E06F0E711CF801A080C9
:1020C000B18026FF03C0652D70E002C06FEF7FEF87
:1020D000C5012C8736D12C0183012C852F77222E28
:1020E00016C03801F2E06F0E711CF801A080B180BB
:1020F00026FF03C0652D70E002C06FEF7FEFC501C2
:102100002C8714D12C012C852068222E830123FCDE
:1021100019C0832D90E048165906A0F4B70180E25B
:1021200090E01AD13A94F5CFF50127FC859127FE6E
:1021300081915F01B70190E00FD131103A94F1E045
:102140004F1A51084114510479F7DEC0843611F05A
:10215000893631F5F80127FF07C0608171818281DE
:1021600093810C5F1F4F08C060817181072E000CA6
:10217000880B990B0E5F1F4F2F76722E97FF09C0A9
:1021800090958095709561957F4F8F4F9F4F2068F8
:10219000722E2AE030E0A40117D1A82EA81843C05F
:1021A000853729F42F7EB22E2AE030E025C0F22FA9
:1021B000F97FBF2E8F36C1F018F4883579F0ADC0A5
:1021C000803719F0883721F0A8C02F2F2061B22E58
:1021D000B4FE0DC08B2D8460B82E09C024FF0AC048
:1021E0009F2F9660B92E06C028E030E005C020E1A0
:1021F00030E002C020E132E0F801B7FE07C06081A4
:102200007181828193810C5F1F4F06C06081718153
:1022100080E090E00E5F1F4FA401D6D0A82EA81832
:10222000FB2DFF777F2E76FE0BC0372D3E7FA5144A
:1022300050F474FE0AC072FC08C0372D3E7E05C003
:10224000BA2C372D03C0BA2C01C0B52C34FF0DC0F9
:10225000FE01EA0DF11D8081803311F4397E09C041
:1022600032FF06C0B394B39404C0832F867809F07C
:10227000B39433FD12C030FF06C05A2CB31418F4C7
:10228000530C5B18B32CB31460F4B70180E290E0F8
:102290003C8762D0B3943C85F6CFB31410F43B185E
:1022A00001C0312C34FF11C0B70180E390E03C87BE
:1022B00053D03C8532FF16C031FD03C088E790E063
:1022C00002C088E590E0B7010CC0832F867851F0FA
:1022D00031FF02C08BE201C080E237FD8DE2B70121
:1022E00090E03AD0A51430F4B70180E390E034D008
:1022F0005A94F8CFAA94F401EA0DF11D8081B70138
:1023000090E02AD0A110F6CF332009F45DCEB701BA
:1023100080E290E021D03A94F7CFF701868197814F
:1023200002C08FEF9FEF2C96E2E186CDFC01059075
:10233000615070400110D8F7809590958E0F9F1FC7
:102340000895FC016150704001900110D8F780950C
:1023500090958E0F9F1F08950F931F93CF93DF9338
:10236000FB01238121FD03C08FEF9FEF28C022FFD7
:1023700016C046815781248135814217530744F4A2
:10238000A081B1819D012F5F3F4F318320838C93CA
:10239000268137812F5F3F4F3783268310C0EB01A3
:1023A000092F182F0084F185E02D0995892BE1F67E
:1023B0008E819F8101969F838E83812F902FDF9145
:1023C000CF911F910F910895FA01AA27283051F15A
:1023D000203181F1E8946F936E7F6E5F7F4F8F4F56
:1023E0009F4FAF4FB1E03ED0B4E03CD0670F781FB5
:1023F000891F9A1FA11D680F791F8A1F911DA11D9A
:102400006A0F711D811D911DA11D20D009F46894D2
:102410003F912AE0269F11243019305D3193DEF67A
:10242000CF010895462F4770405D4193B3E00FD030
:10243000C9F7F6CF462F4F70405D4A3318F0495D1B
:1024400031FD4052419302D0A9F7EACFB4E0A695FE
:102450009795879577956795BA95C9F70097610520
:10246000710508959B01AC010A2E06945795479576
:1024700037952795BA95C9F7620F731F841F951F6B
:10248000A01D0895A8E1B0E042E050E002C0DC01E8
:10249000CB01FC01F999FECF06C0F2BDE1BDF89A6F
:1024A000319600B40D9241505040B8F70895F89419
:0224B000FFCF5C
:1024B2000148656C6C6F20576F726C642121205447
:1024C20068652073657269616C20706F727420692F
:1024D2007320776F726B696E672100000000020043
:1024E200000000200D00000000F8686920000A5377
:1024F20065636F6E6473203D202575200A000A4CC7
:10250200494441522064697374616E6365203D20C1
:102512002575000A204C69444152206D6573736130
:102522006765203D20687474703A2F2F63616E6175
:1025320072792E63686F72647372742E636F6D2F7B
:102542006D6561737572656D656E74732F75726CEE
:102552005F6372656174653F696E737472756D65F0
:102562006E745F69643D3326646973743D25752614
:102572006B65793D34653666626137343230656346
:1025820039653838316635313062636464622600F9
:102592000A436172626F6E204D6F6E6F7869646577
:1025A200203D202575000A487964726F67656E20A8
:1025B2003D202575000A416D6D6F6E6961203D20D9
:1025C2002575000A4D657468616E65203D2025758C
:1025D200000A4F7A6F6E65203D2025750A00256C32
:1025E20075000A43656C73697573203D20256C750F
:1025F2000A000A507265737375726520696E205005
:1026020061203D20256C750A000A2048756D6964B9
:1026120069747920696E2070657263656E742072C8
:10262200656C61746976652068756D696469747931
:102632003D20256C752E256C750A000A20424D45F9
:10264200206D657373616765203D20687474703A0C
:102652002F2F63616E6172792E63686F7264737279
:10266200742E636F6D2F6D6561737572656D656E26
:1026720074732F75726C5F6372656174653F696E06
:10268200737472756D656E745F69643D312674652D
:102692006D703D252E35732E252E3573267072658D
:1026A200733D256C752668756D3D256C75266B65C9
:1026B200793D346536666261373432306563396537
:0E26C20038383166353130626364646200007E
:00000001FF
