:1000000096C00000B3C00000B1C00000AFC0000047
:10001000ADC00000ABC00000A9C00000A7C0000038
:10002000A5C00000A3C00000A1C000009FC0000048
:100030009DC000000C94680B99C0000097C00000A0
:100040000C94670B93C0000091C000008FC00000AB
:100050008DC000000C94860C89C0000087C0000091
:1000600085C0000083C000000C94D60B7FC0000048
:100070000C94C80C7BC0000079C0000077C0000061
:1000800075C0000073C0000071C00000F20B440C8A
:10009000440C440C440C440C440C440CF20B440C33
:1000A000440C440C440C440C440C440CF40B440C21
:1000B000440C440C440C440C440C440C440C440CC0
:1000C000440C440C440C440C440C440CF40B440C01
:1000D000440C440C440C440C440C440C440C440CA0
:1000E000440C440C440C440C440C440C400C440C94
:1000F000440C440C440C440C440C440C1D0C440CA7
:10010000440C440C440C440C440C440C440C440C6F
:10011000440C440C440C440C440C440C110C440C92
:10012000440C440C440C440C440C440C2F0C11247F
:100130001FBECFEFD0E4DEBFCDBF11E0A0E0B1E045
:10014000E0E2F3E200E00BBF02C007900D92AA3C90
:10015000B107D9F725E0AAECB1E001C01D92A13E9C
:10016000B207E1F70E94240A0C948E110C94520BF2
:10017000ECE7F0E09081907E90839081892B8083E2
:100180000895CF93DF93ECE7F0E080818064808373
:10019000CAE7D0E088818160888388818260888313
:1001A000888184608883A4E6B0E08C918E7F8C93F4
:1001B00080818F7D80838FE380937E00888180683B
:1001C000888310927B008FE1D3DF888180648883ED
:1001D000EAE7F0E0808184FFFDCFEAE7F0E080818C
:1001E00080648083808184FFFDCF8091780090E0DF
:1001F0009093CB018093CA01909179002091CA011C
:100200003091CB01892F90E0982F8827820F931F80
:100210009093CB018093CA018091CA019091CB0148
:1002200099231CF491958195910905972CF0809163
:10023000A80381608093A8038EE19ADFEAE7F0E0EB
:10024000808180648083808184FFFDCF80917800ED
:1002500090E09093CB018093CA0190917900209116
:10026000CA013091CB01892F90E0982F8827820F07
:10027000931F9093CB018093CA018091CA01909102
:10028000CB01815E91099093CB018093CA0180914B
:10029000CA019091CB0199231CF491958195910904
:1002A00005972CF08091A80382608093A803EAE769
:1002B000F0E080818F778083DF91CF910895FF9266
:1002C0000F931F93CF93DF9380910001882359F1FF
:1002D000C3E0D3E00F2EFCEEFF2EF02D03EF1DEE5A
:1002E000F882098362E0CE010E948B0B0E94870B8B
:1002F0008111FCCF18836AE1CE010E948B0B0E9412
:10030000870B8111FCCF6AE1CE010E94B70B80936D
:10031000D503898183FB882780F980930001809130
:1003200000018111DDCFE3E0F3E08CEE808388E80B
:10033000818362E0CF010E948B0B0E94870B8111A9
:10034000FCCF8DEE809303036BE183E093E00E948A
:100350008B0B0E94870B8111FCCF6BE183E093E054
:100360000E94B70B8093D503C4E0D3E00FE213E003
:100370002FE133E0D801FE0181918D93E217F3075D
:10038000D9F78BE18093CD01EFE2F3E0818190E03A
:10039000982F88272081822B90930203809301035A
:1003A000838190E0982F88272281822B90932E03BF
:1003B00080932D03858190E0982F88272481822BBC
:1003C0009093BC038093BB03878190E0982F88278C
:1003D0002681822B9093AA038093A903818590E0C4
:1003E000982F88272085822B90936703809366033C
:1003F000838590E0982F88272285822B9093AC03E9
:100400008093AB03858590E0982F88272485822BE5
:100410009093690380936803878590E0982F8827DD
:100420002685822B9093850380938403818990E0B5
:10043000982F88272089822B9093BE038093BD0339
:10044000838990E0982F88272289822B909300033C
:100450008093FF02858990E0982F88272489822B3A
:100460009093AE038093AD03878990E0982F8827FF
:100470002689822B9093BA038093B903818D90E0F3
:1004800090935C0380935B03E3E0F3E08CEE808366
:1004900081EE818362E0CF010E948B0B0E94870B6B
:1004A0008111FCCF8DEE8093030368E083E093E03D
:1004B0000E948B0B0E94870B8111FCCF68E083E0C8
:1004C00093E00E94B70B8093D5032BE033E0899132
:1004D000F80181938F01C217D307C9F787E0809392
:1004E000CD01EFE2F3E0828190E0982F882721810F
:1004F000822B9093C0038093BF03838190E09093FD
:10050000B4038093B303858182958695877090E0CC
:10051000248140E1249F90011124282B392B309312
:100520002C0320932B03268140E1249F900111246A
:10053000822B932B9093B1038093B003878190E03B
:100540009093720380937103DF91CF911F910F916C
:10055000FF900895E3E0F3E08CEE808380EE8183EA
:1005600086EB828363E0CF010E948B0B0E94870B96
:100570008111FCCFE3E0F3E08CEE808380ED81839A
:1005800062E0CF010E948B0B0E94870B8111FCCF90
:100590008DEE8093030362E083E093E00E948B0B77
:1005A0000E94870B8111FCCF62E083E093E00E9400
:1005B000B70B8093D50380910403803699F5E3E06F
:1005C000F3E08CEE808382EF818381E0828363E0BD
:1005D000CF010E948B0B0E94870B8111FCCFE3E0BF
:1005E000F3E08CEE808385EF818380E1828363E09A
:1005F000CF010E948B0B0E94870B8111FCCF5FDE25
:1006000081E380936A03E3E0F3E09CEE908394EF50
:100610009183828363E0CF010E948B0B0E94870B42
:100620008111FCCF0895FF920F931F93CF93DF9317
:1006300081E08093CC018091CC01882359F1C3E003
:10064000D3E00F2EFCEEFF2EF02D03EF1DEEF8820F
:10065000098362E0CE010E948B0B0E94870B8111FF
:10066000FCCF188362E0CE010E948B0B0E94870BA7
:100670008111FCCF62E0CE010E94B70B8093D503BD
:10068000898183FB882780F98093CC018091CC01FC
:100690008111DDCFE3E0F3E08CEE808387EF81838F
:1006A00062E0CF010E948B0B0E94870B8111FCCF6F
:1006B0008DEE8093030369E083E093E00E948B0B4F
:1006C0000E94870B8111FCCF69E083E093E00E94D8
:1006D000B70B8093D503E4E0F3E0AFE2B3E02CE0A6
:1006E00033E081918D93E217F307D9F7EFE2F3E05E
:1006F000818190E0A0E0B0E0880F991FAA1FBB1F86
:10070000880F991FAA1FBB1F880F991FAA1FBB1F05
:10071000880F991FAA1FBB1F408150E060E070E066
:10072000032E3CE0440F551F661F771F3A95D1F703
:10073000302D842B952BA62BB72B228122952F7041
:10074000822B8093860390938703A0938803B093B2
:100750008903848190E0A0E0B0E0880F991FAA1F70
:10076000BB1F880F991FAA1FBB1F880F991FAA1FA5
:10077000BB1F880F991FAA1FBB1F438150E060E079
:1007800070E0032E3CE0440F551F661F771F3A951B
:10079000D1F7302D842B952BA62BB72B25812295B5
:1007A0002F70822B80935E0390935F03A09360036E
:1007B000B0936103868190E0A0E0B0E0BA2FA92F4A
:1007C000982F88272781822B80938A0390938B030D
:1007D000A0938C03B0938D03E3E0F3E08CEE808371
:1007E00084EF818381E3828363E0CF0194D78FD745
:1007F0008111FDCFDF91CF911F910F91FF9008954F
:100800008F929F92AF92BF92CF92DF92EF92FF9220
:1008100020910103309102036B017C01689413F86D
:10082000F594E794D794C7941694D1F7C21AD30AD3
:10083000E108F108DC01CB01689412F8B595A795A1
:10084000979587951694D1F7220F331F4C015D01C0
:10085000821A930AA108B108A5019401A0912D0361
:10086000B0912E030E94410D4B015C01072E7BE0ED
:10087000B594A794979487947A95D1F7702DA70192
:100880009601C701B6010E941F0D9B01AC01012E0C
:100890001CE055954795379527951A95D1F7102D5A
:1008A000A091BB03B091BC030E94410DDC01CB01C0
:1008B000072E7EE0B595A795979587957A95D1F700
:1008C000702D880D991DAA1DBB1D8093C1039093A7
:1008D000C203A093C303B093C4036C017D01CC0C8D
:1008E000DD1CEE1CFF1CCC0CDD1CEE1CFF1C8C0D5B
:1008F0009D1DAE1DBF1D80589F4FAF4FBF4F692F2D
:100900007A2F8B2F992787FD9A95FF90EF90DF9094
:10091000CF90BF90AF909F908F9008952F923F926D
:100920004F925F926F927F928F929F92AF92BF92FF
:10093000CF92DF92EF92FF920F931F93CF93DF93AB
:10094000CDB7DEB76E970FB6F894DEBF0FBECDBF42
:100950006E8B7F8B888F998F8091C1039091C2039A
:10096000A091C303B091C4038C019D01145F214089
:10097000310909831A832B833C83330F000B102F1B
:1009800098010D831E832F833887A980BA80CB807E
:10099000DC80ED80FE2C0E2D1E2D2A2D3B2D4C2DA6
:1009A0005D2D602F702F802F9E2D0E94470D2D876B
:1009B0003E874F87588B698B7A8B8B8B9C8B1091E2
:1009C000BD031A8F2091BE032E8F309184033B8F7D
:1009D000409185034D8F509168035C8F809169032E
:1009E0008D8B3091670320916603932F990F990B9C
:1009F000FE2C0E2D1E2D492F592F692F792F892F4F
:100A00000E94470D0CE00E94680E422E532E642E69
:100A1000752E862E972E282E392EB090AC03A090DE
:100A2000AB031B2D110F110BC12ED12EE12EF12E78
:100A3000012F2D853E854F85588969897A898B8953
:100A40009C890E94470D08E00E94810EA42CB52CC1
:100A5000C62CD72CE82CF92C022D132D0E949F0EAA
:100A600070588F4F9F4F2090A9033090AA03A22C5B
:100A7000B32CC12CD12CE12CF12C00E010E00E9411
:100A8000470D01E20E94810E29873A874B87452E48
:100A9000562E7C87382E292E652D832D922DA0E091
:100AA0000E94B10E09F47FC1AA8C1E8D110F110B8B
:100AB000BE8CC12ED12EE12EF12E012F2D853E852B
:100AC0004F85588969897A898B899C89E0D72D87D8
:100AD0003E87642E752E862E972E888B9F872B8DB2
:100AE0009D8D990F990BA980BA80CB80DC80ED8019
:100AF000FE2C0E2D1E2D3D8D492F592F692F792F3C
:100B0000892FC5D701E10E94680EAD84BE84C62C32
:100B1000D72CE82CF92C08891F850E949F0EA22E45
:100B2000B32EC42ED52EE62EF72EE82F192F80E0F7
:100B300090E0A0E1B0E02E893F89488D598D821B5D
:100B4000930BA40BB50B3C014D01990C6608762C58
:100B50004301282F392F4A2F5B2F662D762D862DA6
:100B6000962D0FE10E94680E822E932EF42F752E83
:100B7000B62FA72F682E9D832C8D9D89990F990BD9
:100B80003D89492F592F692F792F892F03E20E9420
:100B9000680E0E2F0E949F0EA22EB32EC42ED52EAD
:100BA000E62EF72E082F192F282D392D4F2F572DD0
:100BB0006B2F7A2F862D9D810E94A80E822E932E58
:100BC0004983652EB62FA72FF82FE92F03E00E9447
:100BD000680EA82CB92CC980D62CEB2EFA2E0F2F1C
:100BE0001E2F0E94A80EA22EB32EC42ED52EE62EA6
:100BF000F72E782E192F03E00E94680E072D0E9411
:100C0000A80E03E00E94680EA82CB92CC980D62C2F
:100C1000EB2EFA2E0F2F1E2F0E94A80E02E00E942C
:100C2000680E0F2F0E94A80E01E00E94680E0F2F81
:100C30000E94A80EA984BA84CB84D42CE52CFC8411
:100C4000032D122D77D72E873D8749835D836987D2
:100C50007A878B879C870DE00E94810E822E932ECF
:100C6000742E652E562E472E382E292E3091BA031B
:100C70002091B903932F990F990BA82CB92CC72C4D
:100C8000D62CE52CF42C032D122D492F592F692F2A
:100C9000792F892FFCD6A22EB32EC42ED52EE62E68
:100CA000F72E082F192F282D392D472D562D652D5C
:100CB000742D832D922DEBD609E10E94810EA22E78
:100CC000B32EC42ED52EE62EF72E082F192F2E85E3
:100CD0003D8549815D8169857A858B859C850E94EA
:100CE0009F0E222E332E442E552E662E772E882EC2
:100CF000992E3091AE032091AD03932F990F990B4C
:100D0000AE84BD84C980DD80E984FA840B851C85AE
:100D1000492F592F692F792F892FB9D603E1F1D7A0
:100D2000A22EB32EC42ED52EE62EF72E082F192F65
:100D3000222D332D442D552D662D772D882D992D5F
:100D4000FED708E0DED74090FF0250900003052C4C
:100D5000000C66087708440C551C661C771C440C74
:100D6000551C661C771C440C551C661C771C440CD7
:100D7000551C661C771C83017201110FEE08FE2CB6
:100D80008701E982FA820B831C83A42CB52CC62C24
:100D9000D72CE980FE2C0E2D1E2DD1D7622F732F5C
:100DA000842F952F04C060E070E080E090E06E96A4
:100DB0000FB6F894DEBF0FBECDBFDF91CF911F916C
:100DC0000F91FF90EF90DF90CF90BF90AF909F90EA
:100DD0008F907F906F905F904F903F902F900895ED
:100DE0002F923F924F925F926F927F928F929F923B
:100DF000AF92BF92CF92DF92EF92FF920F931F9329
:100E0000CF93DF93CDB7DEB767970FB6F894DEBF09
:100E10000FBECDBF2B013C018091C1039091C20355
:100E2000A091C303B091C4036C017D01FF0CCC08F9
:100E3000DC2C7601282F392F4A2F5B2F6C2D7C2D2F
:100E40008C2D9C2D3C524140510961097109810949
:100E500091092F8B3E8B498359876A877B878C87C3
:100E60009D87032E3EE0440C551C661C771C3A956A
:100E7000D1F7302D53014201BB0C8808982C540146
:100E800030912C0320912B03932F990F990B492F0D
:100E9000592F692F792F892F04E11AD7F22FE32FC9
:100EA000C42ED52EE62EF72E082F192F242D352DE2
:100EB000462D572D682D782D882D982DAF2EBE2EBE
:100EC00047D7222E332E442E552E662E772E882E6F
:100ED000992E3091B1032091B003932F990F990B64
:100EE000AF88BE88C980D984EA84FB840C851D85BF
:100EF000492F592F692F792F892FC9D5A22EB32EAB
:100F0000C42ED52EE62EF72E082F192F222D332D85
:100F1000442D552D662D772D882D992D19D7305CB0
:100F20004F4F5F4F6F4F7F4F8F4F9F4F0FE0E9D66F
:100F30002E873F87488B598B6A8B7B8B8C8B9D8B45
:100F40003091720320917103932F990F990BAF8801
:100F5000BE88C980D984EA84FB840C851D85492F0D
:100F6000592F692F792F892F92D50AE0CAD6822E60
:100F7000932E742E652E562E472E382E292E4091F4
:100F8000B3035091B4030C85242F352F40E050E07B
:100F900060E070E080E090E07AD50BE0B2D63058A7
:100FA0004F4F5F4F6F4F7F4F8F4F9F4FA22EB32EEC
:100FB000C42ED52EE62EF72E082F192F282D392DC9
:100FC000472D562D652D742D832D922D60D50AE069
:100FD00098D6405E5F4F6F4F7F4F8F4F9F4FB090BF
:100FE000C003A090BF031B2D110F110BC12ED12EDA
:100FF000E12EF12E012F4BD5305E4F4F5F4F6F4FDB
:101000007F4F8F4F9F4F0EE07CD6A22EB32EC42E63
:10101000D52EE62EF72E082F192F2E853F854889CD
:1010200059896A897B898C899D8931D5422E532EB5
:10103000642E752E862E972E282E392E0FE061D61F
:10104000A22EB32EC42ED52EE62EF72E082F192F42
:101050001ED507E056D6E0915B03F0915C035F017B
:10106000C12CD12CE12CF12C8701E983BA82CB82EF
:10107000DC82ED82FE820F831887C12CD12CE12CFB
:10108000F12C00E010E003D504E03BD6A22EB32EF5
:10109000C42ED52EE62EF72E082F192F242D352DF0
:1010A000462D572D682D792D822D932D51D6F22E58
:1010B000032F142F652E762EB72FF82FE92FA0E0DF
:1010C00050D644F4F12C00E010E0612C712CB0E01B
:1010D000F0E0E0E08F2C902EA12EB62CC72CDB2E5A
:1010E000EF2EAE2F2F2D302F412F562D672D7B2F1A
:1010F0008F2F9E2F2115310541055941610571053D
:101100008105910561F05CF0812C912CA12C0F2EB2
:10111000F9E1BF2EF02DC12CD12CE12CA0E0282D1F
:10112000392D4A2D5B2D6C2D7D2D8E2D9A2F0CE0A7
:10113000E8D5622F732F842F952F67960FB6F894FA
:10114000DEBF0FBECDBFDF91CF911F910F91FF90FA
:10115000EF90DF90CF90BF90AF909F908F907F9057
:101160006F905F904F903F902F90089587E084B9E3
:1011700085B115B82B9A389A399A409A419A0895B0
:1011800080E090E02FEF33E0FC01EE0FFF1FEE0F49
:10119000FF1FEC5EFC4F1182108233832283019685
:1011A0008530910589F70895EF92FF920F931F9371
:1011B000CF93DF930F2EFAEEEF2EF2E0FF2EF02DFD
:1011C00000E010E0C7010E947911E801CC0FDD1F9B
:1011D000CC0FDD1FCC5EDC4F99838883C70102965C
:1011E0000E9479119B838A830F5F1F4F84E0E80E72
:1011F000F11C0530110531F7DF91CF911F910F914F
:10120000FF90EF900895AF92BF92CF92DF92EF924E
:10121000FF920F931F93CF93DF931F92CDB7DEB74B
:101220001092A80310927703BFDFAADFEAE7F0E08D
:1012300080818068808319828981853008F052C05E
:101240000AE710E00F2EF8E7EF2EF12CF02DBB246B
:10125000B394A12CCC24C394D12C89810E94B800D2
:10126000F801808180648083F801808184FFFCCF55
:10127000F70180819181E981F0E0EE0FFF1FEE0F11
:10128000FF1FEC5EFC4F20813181E981F0E0EE0F21
:10129000FF1FEE0FFF1FEC5EFC4F628173814B2D31
:1012A0006817790708F04A2D411107C04B2D8217A6
:1012B000930708F04A2D442371F099812091A803E7
:1012C0009D5FA60102C0440F551F9A95E2F7CA011F
:1012D000822B8093A80389818F5F898389818530E0
:1012E00008F4BBCFEAE7F0E080818F7780830F902E
:1012F000DF91CF911F910F91FF90EF90DF90CF90F2
:10130000BF90AF9008958F929F92AF92BF92CF926D
:10131000DF92EF92FF920F931F93CF93DF9300D052
:101320001F92CDB7DEB7EAE7F0E080818068808366
:1013300019828981853008F077C06894882482F802
:10134000912C0AE710E00F2EF8E7EF2EF12CF02D8C
:10135000CC24C394D12CBB24B394A12C89810E94AA
:10136000B8001B821A82282D392DF80180818064F3
:101370008083F801808184FFFCCFF7018081918117
:10138000E981F0E0EE0FFF1FEE0FFF1FEC5EFC4F58
:1013900040815181E981F0E0EE0FFF1FEE0FFF1F4A
:1013A000EC5EFC4F62817381EB2D6817790708F0C2
:1013B000EA2DE11107C06B2D8417950708F06A2DFF
:1013C000662371F059816091A8035D5FF60102C048
:1013D000EE0FFF1F5A95E2F7AF01462B4093A8038B
:1013E0004A815B81840F951F9B838A832150310939
:1013F00009F0BBCF8A819B81E981F0E0EE0FFF1FEE
:10140000E858FC4F9C01992314F42D5F3F4F35950C
:101410002795359527953183208389818F5F89832F
:101420008981853008F49ACF0F900F900F90DF914B
:10143000CF911F910F91FF90EF90DF90CF90BF90D1
:10144000AF909F908F90089591DE1092DA031092E2
:10145000D903109213038BE291E09093DE05809301
:10146000DD052BD181E890E025D281E890E07DD2A6
:1014700044D10E94C100C7DE2A9A2A9878946AD87B
:1014800081E091E09F938F938AE391E09F938F9304
:1014900083D495B181E0982795B995B1892785B90D
:1014A0000F900F900F900F900F2EFEE3AF2EF1E0F4
:1014B000BF2EF02D0F2EFBEDCF2EF4E0DF2EF02D02
:1014C0000F2EFAE3EF2EF1E0FF2EF02D0CE411E0E9
:1014D000C8E7D3E00F2EF1E68F2EF1E09F2EF02D1E
:1014E0000F2EFAE62F2EF1E03F2EF02D8091130300
:1014F0008130E1F7109213038091D9039091DA03C0
:1015000001969093DA038093D9038091D903909147
:10151000DA039F938F93BF92AF923ED4DF92CF9224
:10152000FF92EF9239D4809165038F938091640389
:101530008F931F930F9330D4E6DE89818F93888138
:101540008F939F928F9228D48B818F938A818F93D0
:101550003F922F9221D48D818F938C818F93A2E71C
:10156000B1E0BF93AF9318D48F818F938E818F9307
:10157000ABE7B1E0BF93AF930FD489858F93888594
:101580008F93A5E8B1E0BF93AF9306D4ADB7BEB7D4
:1015900090960FB6F894BEBF0FBEADBF44D8609111
:1015A0005E0370915F03809160039091610328D97D
:1015B00060935703709358038093590390935A0391
:1015C0009F938F937F936F93AEE8B1E0BF93AF93F8
:1015D000E3D3609186037091870380918803909193
:1015E00089039CD960936B0370936C0380936D03A4
:1015F00090936E03BB2797FDBA95A92F982F872F3D
:10160000BF93AF939F938F93ADE9B1E0BF93AF9337
:10161000C3D360918A0370918B0380918C03909166
:101620008D03DEDB2B013C01609373037093740325
:101630008093750390937603A8EEB3E09B01AC0111
:1016400016D2DC01CB01072E7AE0B595A7959795C8
:1016500087957A95D1F7702DBF93AF939F938F9312
:10166000D301C201072E7AE0B595A7959795879586
:101670007A95D1F7702DBF93AF939F938F93A3EB80
:10168000B1E0BF93AF9388D3ADB7BEB756960FB650
:10169000F894BEBF0FBEADBFE9ECF0E08081806979
:1016A000808324CF1F920F920FB60F9211242A9A93
:1016B0000F900FBE0F901F9018958DE080938100C2
:1016C0008AE49CE49093890080938800089518959B
:1016D0001F920F920FB60F9211248F939F9395B183
:1016E00082E0892785B981E0809313039F918F91D0
:1016F0000F900FBE0F901F90189581E18093B80056
:101700008FEF8093BB0084E08093BC0008958091AC
:10171000BC0081780895CF93DF93EC01ECEBF0E00F
:1017200090819178E9F76093D00188818093D1010D
:1017300080FD12C0623080F0FE013196A2EDB1E072
:101740006250262F30E02E5F3F4F2C0F3D1F9191AE
:101750009D93E217F307D9F71092CF0188EF80939A
:10176000390185EA8093BC00DF91CF910895AC01E7
:10177000ECEBF0E090819178E9F78091CF0180FF68
:1017800011C0662379F0A1EDB1E0FA016150262F76
:1017900030E02F5F3F4F240F351F9D919193E2174B
:1017A000F307D9F78091CF01817008951F920F92AE
:1017B0000FB60F9211240BB60F922F933F938F9376
:1017C0009F93AF93BF93EF93FF93E091B9008E2F58
:1017D00090E0FC013897E135F10508F055C0EA5B6F
:1017E000FF4F3CC11092CE01E091CE018091D0011B
:1017F000E81770F481E08E0F8093CE01F0E0EF5295
:10180000FE4F80818093BB0085E88093BC0043C07D
:101810008091CF0181608093CF0184E98093BC00E7
:101820003AC0E091CE0181E08E0F8093CE0180918D
:10183000BB00F0E0EF52FE4F80832091CE0130E0FC
:101840008091D00190E001972817390724F485ECA6
:101850008093BC0020C085E88093BC001CC08091B0
:10186000BB00E091CE01F0E0EF52FE4F808380910B
:10187000CF0181608093CF0184E98093BC000BC0CD
:1018800085EA8093BC0007C08091B900809339013C
:1018900084E08093BC00FF91EF91BF91AF919F9145
:1018A0008F913F912F910F900BBE0F900FBE0F9015
:1018B0001F9018959093C5008093C40088E0809392
:1018C000C10086E08093C2001092E3021092E4020D
:1018D0001092E1011092E201089591E09093E502E7
:1018E0002091E2012F5F9091E1012917E1F3E22FAE
:1018F000F0E0ED51FE4F80832093E201E1ECF0E057
:1019000080818062808380E090E008951F920F9232
:101910000FB60F9211240BB60F928F939F93EF93F4
:10192000FF939091E2018091E101981761F0E091BD
:10193000E101EF5FE093E101F0E0ED51FE4F8081C6
:101940008093C60007C0E1ECF0E080818F7D80834A
:101950001092E502FF91EF919F918F910F900BBE36
:101960000F900FBE0F901F9018959093CD0080930D
:10197000CC0080E98093C90086E08093CA00109271
:10198000E8021092E9021092E6021092E70208952E
:101990001F920F920FB60F9211240BB60F922F9336
:1019A0003F938F939F93AF93BF93CF93DF93EF9327
:1019B000FF939091CE008091E9028F5F8093E902BE
:1019C0002091E802E82FF0E0E552FC4F90839A3036
:1019D00029F59091E0039734E9F4E0E02E2F30E010
:1019E000D901A552BB4FE901C552DC4F99819C93A7
:1019F000EF5F8E1798F7F0E0E852FB4F1082E9ECAA
:101A0000F0E08081108281E08093130395B182E041
:101A1000892785B91092E8021092E902FF91EF91AF
:101A2000DF91CF91BF91AF919F918F913F912F9176
:101A30000F900BBE0F900FBE0F901F901895DB01FB
:101A40008F939F9314D0BF91AF91A29F800D911D52
:101A5000A39F900DB29F900D11240895EE0FFF1FCC
:101A60000024001C0BBE0790F691E02D099485D14F
:101A7000A59F900DB49F900DA49F800D911D1124E2
:101A80000895B7FFF4CFF3DF821B930B0895DF9324
:101A9000CF931F930F939A9DF02D219FF00D8B9D57
:101AA000F00D8A9DE02DF10D039FF00D029FE00DDA
:101AB000F11D4E9DE00DF11D5E9DF00D4F9DF00D51
:101AC0007F936F93BF92AF925F934F93D50155D1A0
:101AD0008B01AC01D70151D1EB01E80FF91FD60101
:101AE0001FD02F913F91D60148D1C60FD71FE81FB5
:101AF000F91FAF91BF9114D02F913F913ED1C60FE6
:101B0000D71FE81FF91FD60138D1E60FF71F98013C
:101B1000BE01CF0111240F911F91CF91DF91089544
:101B20002CD1460F571FC81FD91F08F431960895AE
:101B3000689401C0E894F92FF12B0AF027C0A0E0C7
:101B4000B0E0E4EAFDE093C0092E05941AF479D0E0
:101B5000112392F4F0E80F26FFEFE094F094009543
:101B60001095B094C094D094A194BF0ACF0ADF0A14
:101B7000EF0AFF0A0F0B1F0B13D007FC62D0CDB783
:101B8000DEB7ECE090C0689401C0E8948F929F9219
:101B9000CF93DF9305D0DF91CF919F908F900895E1
:101BA00088249924F401E401B0E49F93AA279A15AC
:101BB0008B049C04ED05FE05CF05D007A10798F422
:101BC000AD2FDC2FCF2FFE2FE92D982C892E982FAB
:101BD000872F762F652F542F432F322F2227B8506F
:101BE00031F7BF9127C01B2EBF91BB27220F331F98
:101BF000441F551F661F771F881F991F881C991C3B
:101C0000EE1FFF1FCC1FDD1FAA1FBB1F8A149B04E2
:101C1000EC05FD05CE05DF05A007B10748F08A18E1
:101C20009B08EC09FD09CE09DF09A00BB10B21606F
:101C30001A94E1F62EF49401AF01BE01CD01000C1F
:101C40000895609570958095909530954095509544
:101C500021953F4F4F4F5F4F6F4F7F4F8F4F9F4F9C
:101C600008952F923F924F925F926F927F928F9240
:101C70009F92AF92BF92CF92DF92EF92FF920F931B
:101C80001F93CF93DF93CDB7DEB7CA1BDB0B0FB625
:101C9000F894DEBF0FBECDBF09942A8839884888E2
:101CA0005F846E847D848C849B84AA84B984C88478
:101CB000DF80EE80FD800C811B81AA81B981CE0F6F
:101CC000D11D0FB6F894DEBF0FBECDBFED01089554
:101CD0000F93083090F0982F872F762F652F542F71
:101CE000432F322F22270850F4CF220F331F441FD7
:101CF000551F661F771F881F991F0A95B2F70F910E
:101D0000089597FB10F8169400080F93083098F088
:101D10000850232F342F452F562F672F782F892FC8
:101D2000902DF4CF0594979587957795679557955E
:101D30004795379527950A95AAF70F9108952A0D8B
:101D40003B1D4C1D5D1D6E1D7F1D801F911F089545
:101D50002A193B094C095D096E097F09800B910B1B
:101D600008950024A7FD00942A173005400550056A
:101D700060057005800590050895A29FB001B39F8E
:101D8000C001A39F700D811D1124911DB29F700D84
:101D9000811D1124911D0895CF93DF93CDB7DEB738
:101DA000AE014B5F5F4FFA0161917191AF0180917C
:101DB000DD059091DE0503D0DF91CF9108952F923C
:101DC0003F924F925F926F927F928F929F92AF92CB
:101DD000BF92CF92DF92EF92FF920F931F93CF9318
:101DE000DF93CDB7DEB72C970FB6F894DEBF0FBEEA
:101DF000CDBF7C016B018A01FC01178216828381B1
:101E000081FFB0C1CE0101964C01F7019381F6012B
:101E100093FD859193FF81916F01882309F49EC101
:101E2000853239F493FD859193FF81916F0185325D
:101E300021F4B70190E0C7D1E8CF512C312C20E03C
:101E40002032A0F48B3269F030F4803259F08332C2
:101E500069F420612CC08D3239F0803339F421606F
:101E600026C02260246023C0286021C027FD27C02F
:101E700030ED380F3A3078F426FF06C0FAE05F9E66
:101E8000300D1124532E13C08AE0389E300D1124DA
:101E9000332E20620CC08E3221F426FD5FC12064F7
:101EA00006C08C3611F4206802C0883641F4F60171
:101EB00093FD859193FF81916F018111C1CF982F7F
:101EC0009F7D9554933028F40C5F1F4FFFE3F983F7
:101ED0000DC0833631F0833771F0833509F057C078
:101EE00021C0F801808189830E5F1F4F44244394F1
:101EF000512C540114C03801F2E06F0E711CF8012E
:101F0000A080B18026FF03C0652D70E002C06FEF96
:101F10007FEFC5012C874CD12C0183012C852F77B5
:101F2000222E16C03801F2E06F0E711CF801A0805D
:101F3000B18026FF03C0652D70E002C06FEF7FEF18
:101F4000C5012C872AD12C012C852068222E8301E3
:101F500023FC19C0832D90E048165906A0F4B70160
:101F600080E290E030D13A94F5CFF50127FC8591DD
:101F700027FE81915F01B70190E025D131103A949D
:101F8000F1E04F1A51084114510479F7DEC084364C
:101F900011F0893631F5F80127FF07C060817181A2
:101FA000828193810C5F1F4F08C060817181072E71
:101FB000000C880B990B0E5F1F4F2F76722E97FF28
:101FC00009C090958095709561957F4F8F4F9F4F79
:101FD0002068722E2AE030E0A4012DD1A82EA81886
:101FE00043C0853729F42F7EB22E2AE030E025C089
:101FF000F22FF97FBF2E8F36C1F018F4883579F0B3
:10200000ADC0803719F0883721F0A8C02F2F20618C
:10201000B22EB4FE0DC08B2D8460B82E09C024FFF3
:102020000AC09F2F9660B92E06C028E030E005C098
:1020300020E130E002C020E132E0F801B7FE07C045
:1020400060817181828193810C5F1F4F06C0608126
:10205000718180E090E00E5F1F4FA401ECD0A82EAC
:10206000A818FB2DFF777F2E76FE0BC0372D3E7F05
:10207000A51450F474FE0AC072FC08C0372D3E7ED1
:1020800005C0BA2C372D03C0BA2C01C0B52C34FFC3
:102090000DC0FE01EA0DF11D8081803311F4397EFF
:1020A00009C032FF06C0B394B39404C0832F86786E
:1020B00009F0B39433FD12C030FF06C05A2CB3149C
:1020C00018F4530C5B18B32CB31460F4B70180E21E
:1020D00090E03C8778D0B3943C85F6CFB31410F4ED
:1020E0003B1801C0312C34FF11C0B70180E390E0F0
:1020F0003C8769D03C8532FF16C031FD03C088E7BC
:1021000090E002C088E590E0B7010CC0832F86788C
:1021100051F031FF02C08BE201C080E237FD8DE259
:10212000B70190E050D0A51430F4B70180E390E0FF
:102130004AD05A94F8CFAA94F401EA0DF11D808197
:10214000B70190E040D0A110F6CF332009F45DCE66
:10215000B70180E290E037D03A94F7CFF70186815B
:10216000978102C08FEF9FEF2C960FB6F894DEBFD9
:102170000FBECDBFDF91CF911F910F91FF90EF90D8
:10218000DF90CF90BF90AF909F908F907F906F9097
:102190005F904F903F902F900895FC010590615003
:1021A00070400110D8F7809590958E0F9F1F08956D
:1021B000FC016150704001900110D8F78095909516
:1021C0008E0F9F1F08950F931F93CF93DF93FB01F3
:1021D000238121FD03C08FEF9FEF28C022FF16C08F
:1021E00046815781248135814217530744F4A081E9
:1021F000B1819D012F5F3F4F318320838C932681D6
:1022000037812F5F3F4F3783268310C0EB01092FA3
:10221000182F0084F185E02D0995892BE1F68E8138
:102220009F8101969F838E83812F902FDF91CF9185
:102230001F910F910895FA01AA27283051F12031FA
:1022400081F1E8946F936E7F6E5F7F4F8F4F9F4F4A
:10225000AF4FB1E03ED0B4E03CD0670F781F891F8C
:102260009A1FA11D680F791F8A1F911DA11D6A0F5A
:10227000711D811D911DA11D20D009F468943F910D
:102280002AE0269F11243019305D3193DEF6CF010C
:102290000895462F4770405D4193B3E00FD0C9F7D2
:1022A000F6CF462F4F70405D4A3318F0495D31FD3F
:1022B0004052419302D0A9F7EACFB4E0A695979592
:1022C000879577956795BA95C9F700976105710568
:1022D00008959B01AC010A2E0694579547953795B2
:1022E0002795BA95C9F7620F731F841F951FA01D0C
:1022F0000895A8E1B0E042E050E002C0DC01CB016B
:10230000FC01F999FECF06C0F2BDE1BDF89A319605
:1023100000B40D9241505040B8F70895F894FFCFA3
:102320000148656C6C6F20576F726C6421212054DA
:1023300068652073657269616C20706F72742069C2
:102340007320776F726B696E6721000000000200D6
:102350000000006D0C00000000F80A2573000A530D
:1023600065636F6E6473203D202575000A4C4944F7
:1023700041522064697374616E6365203D20257548
:10238000000A434F203D202575000A48203D2025A6
:1023900075000A4E41203D202575000A434834202F
:1023A0003D202575000A4F33203D202575000A4346
:1023B000656C73697573203D20256C75000A507239
:1023C00065737375726520696E205061203D20250C
:1023D0006C75000A48756D69646974792525203D1E
:0A23E00020256C752E256C750A008F
:00000001FF
