S01F000043616E61727920536F667477617265205061636B6167652E7372656370
S11300008EC00000A7C00000A5C00000A3C000006F
S1130010A1C000009FC000009DC000009BC0000064
S113002099C0000097C0000095C0000093C0000074
S113003091C00000E8C000008DC000008BC000002B
S1130040E1C0000087C0000085C0000083C000003C
S113005081C0000077C100007DC000007BC00000AB
S113006079C0000077C00000EDC0000073C000003C
S1130070BBC10000E3C100006DC000003C018E0163
S11300808E018E018E018E018E018E013C018E0146
S11300908E018E018E018E018E018E013E018E0134
S11300A08E018E018E018E018E018E018E018E01D4
S11300B08E018E018E018E018E018E013E018E0114
S11300C08E018E018E018E018E018E018E018E01B4
S11300D08E018E018E018E018E018E018A018E01A8
S11300E08E018E018E018E018E018E0167018E01BB
S11300F08E018E018E018E018E018E018E018E0184
S11301008E018E018E018E018E018E015B018E01A6
S11301108E018E018E018E018E018E0179011124D2
S11301201FBECFEFD8E0DEBFCDBF11E0A0E0B1E04D
S1130130E0E1FAE002C005900D92A632B107D9F7CA
S113014024E0A6E2B1E001C01D92A03AB207E1F7B3
S11301500CD05CC455CF87E084B985B115B82B9A0F
S1130160389A399A409A419A0895F5DF1092990481
S1130170109298041092540380E091E090939D04AF
S113018080939C0432D081E890E005D151D07894DA
S11301908FE091E09F938F9380D10F900F9003E1B4
S11301A011E0C3E2D1E0809154038130E1F7109271
S11301B05403809198049091990401969093990422
S11301C08093980480919804909199049F938F93BD
S11301D01F930F9362D1DF93CF935FD10F900F9052
S11301E00F900F900F900F90DECF8DE080938100E1
S11301F08AE49CE4909389008093880082E0809351
S11302006F00089518951F920F920FB60F92112444
S11302108F939F9395B182E0892785B981E080937C
S113022054039F918F910F900FBE0F901F901895BC
S113023081E18093B8008FEF8093BB0084E08093CA
S1130240BC0008951F920F920FB60F9211242F93A2
S11302503F938F939F93AF93BF93EF93FF93E0915B
S1130260B9008E2F90E0FC013897E135F10508F0D4
S113027055C0E25CFF4F0BC110922601E0912601AC
S113028080912801E81770F481E08E0F8093260195
S1130290F0E0E75DFE4F80818093BB0085E88093AA
S11302A0BC0043C08091270181608093270184E9C9
S11302B08093BC003AC0E091260181E08E0F8093C8
S11302C026018091BB00F0E0E75DFE4F8083209122
S11302D0260130E08091280190E001972817390722
S11302E024F485EC8093BC0020C085E88093BC0096
S11302F01CC08091BB00E0912601F0E0E75DFE4F59
S113030080838091270181608093270184E9809311
S1130310BC000BC085EA8093BC0007C08091B90083
S113032080930E0184E08093BC00FF91EF91BF9114
S1130330AF919F918F913F912F910F900FBE0F908E
S11303401F9018951F920F920FB60F9211248F933E
S11303509F93EF93FF9390913A01809139019817FD
S113036061F0E0913901EF5FE0933901F0E0E55C81
S1130370FE4F80818093C60005C0E1ECF0E08081EF
S11303808F7D8083FF91EF919F918F910F900FBE8E
S11303900F901F9018959093CD008093CC0088E91E
S11303A08093C90086E08093CA0010923D031092A6
S11303B03E0310923B0210923C02089520913C02AD
S11303C02F5F90913B022917E1F3E22FF0E0E35C09
S11303D0FD4F808320933C02E9ECF0E08081806251
S11303E0808380E090E008951F920F920FB60F92E1
S11303F011248F939F93EF93FF938091CE00E0910C
S11304003E03EF5FE0933E0390913D03F0E0E0593B
S1130410FC4F8083809170048A3039F48091740396
S11304208C3419F488E38150F1F7FF91EF919F9197
S11304308F910F900FBE0F901F9018951F920F92DF
S11304400FB60F9211248F939F93EF93FF93909184
S11304503C0280913B02981761F0E0913B02EF5F10
S1130460E0933B02F0E0E35CFD4F80818093CE009B
S113047005C0E9ECF0E080818F7D8083FF91EF91EE
S11304809F918F910F900FBE0F901F901895EE0FB4
S1130490FF1F0590F491E02D0994A0E0B0E0E2E59F
S11304A0F2E08DC2AE014B5F5F4FFA016191719131
S11304B0AF0180919C0490919D0402D0E2E09BC224
S11304C0ACE0B0E0E5E6F2E06AC27C016B018A01CF
S11304D0FC0117821682838181FFB0C1CE0101968F
S11304E04C01F7019381F60193FD859193FF81916E
S11304F06F01882309F49EC1853239F493FD8591F7
S113050093FF81916F01853221F4B70190E0B1D15D
S1130510E8CF512C312C20E02032A0F48B3269F04A
S113052030F4803259F0833269F420612CC08D326A
S113053039F0803339F4216026C02260246023C05E
S1130540286021C027FD27C030ED380F3A3078F4F9
S113055026FF06C0FAE05F9E300D1124532E13C00F
S11305608AE0389E300D1124332E20620CC08E3266
S113057021F426FD5FC1206406C08C3611F4206886
S113058002C0883641F4F60193FD859193FF819171
S11305906F018111C1CF982F9F7D9554933028F41A
S11305A00C5F1F4FFFE3F9830DC0833631F08337AF
S11305B071F0833509F057C021C0F8018081898327
S11305C00E5F1F4F44244394512C540114C038012E
S11305D0F2E06F0E711CF801A080B18026FF03C009
S11305E0652D70E002C06FEF7FEFC5012C8736D117
S11305F02C0183012C852F77222E16C03801F2E0BE
S11306006F0E711CF801A080B18026FF03C0652D18
S113061070E002C06FEF7FEFC5012C8714D12C016D
S11306202C852068222E830123FC19C0832D90E0A1
S113063048165906A0F4B70180E290E01AD13A9422
S1130640F5CFF50127FC859127FE81915F01B70164
S113065090E00FD131103A94F1E04F1A510841144F
S1130660510479F7DEC0843611F0893631F5F8018A
S113067027FF07C060817181828193810C5F1F4FC6
S113068008C060817181072E000C880B990B0E5FE6
S11306901F4F2F76722E97FF09C090958095709505
S11306A061957F4F8F4F9F4F2068722E2AE030E074
S11306B0A40117D1A82EA81843C0853729F42F7E8A
S11306C0B22E2AE030E025C0F22FF97FBF2E8F36FC
S11306D0C1F018F4883579F0ADC0803719F0883747
S11306E021F0A8C02F2F2061B22EB4FE0DC08B2D97
S11306F08460B82E09C024FF0AC09F2F9660B92ECB
S113070006C028E030E005C020E130E002C020E16E
S113071032E0F801B7FE07C0608171818281938164
S11307200C5F1F4F06C06081718180E090E00E5F16
S11307301F4FA401D6D0A82EA818FB2DFF777F2E1B
S113074076FE0BC0372D3E7FA51450F474FE0AC00C
S113075072FC08C0372D3E7E05C0BA2C372D03C06D
S1130760BA2C01C0B52C34FF0DC0FE01EA0DF11DF9
S11307708081803311F4397E09C032FF06C0B394FE
S1130780B39404C0832F867809F0B39433FD12C068
S113079030FF06C05A2CB31418F4530C5B18B32C56
S11307A0B31460F4B70180E290E03C8762D0B39464
S11307B03C85F6CFB31410F43B1801C0312C34FF40
S11307C011C0B70180E390E03C8753D03C8532FFF1
S11307D016C031FD03C088E790E002C088E590E0D0
S11307E0B7010CC0832F867851F031FF02C08BE231
S11307F001C080E237FD8DE2B70190E03AD0A51444
S113080030F4B70180E390E034D05A94F8CFAA943E
S1130810F401EA0DF11D8081B70190E02AD0A11006
S1130820F6CF332009F45DCEB70180E290E021D009
S11308303A94F7CFF7018681978102C08FEF9FEF3B
S11308402C96E2E1C8C0FC01059061507040011093
S1130850D8F7809590958E0F9F1F0895FC016150E5
S1130860704001900110D8F7809590958E0F9F1FCE
S113087008950F931F93CF93DF93FB01238121FDF1
S113088003C08FEF9FEF28C022FF16C04681578117
S1130890248135814217530744F4A081B1819D011D
S11308A02F5F3F4F318320838C93268137812F5FC5
S11308B03F4F3783268310C0EB01092F182F008484
S11308C0F185E02D0995892BE1F68E819F810196B2
S11308D09F838E83812F902FDF91CF911F910F9152
S11308E00895FA01AA27283051F1203181F1E894C2
S11308F06F936E7F6E5F7F4F8F4F9F4FAF4FB1E00F
S11309003ED0B4E03CD0670F781F891F9A1FA11D09
S1130910680F791F8A1F911DA11D6A0F711D811D0A
S1130920911DA11D20D009F468943F912AE0269FCF
S113093011243019305D3193DEF6CF010895462F2E
S11309404770405D4193B3E00FD0C9F7F6CF462F0F
S11309504F70405D4A3318F0495D31FD4052419378
S113096002D0A9F7EACFB4E0A69597958795779535
S11309706795BA95C9F700976105710508959B01BC
S1130980AC010A2E06945795479537952795BA9545
S1130990C9F7620F731F841F951FA01D08952F921E
S11309A03F924F925F926F927F928F929F92AF92FB
S11309B0BF92CF92DF92EF92FF920F931F93CF9348
S11309C0DF93CDB7DEB7CA1BDB0B0FB6F894DEBFDF
S11309D00FBECDBF09942A88398848885F846E8405
S11309E07D848C849B84AA84B984C884DF80EE804F
S11309F0FD800C811B81AA81B981CE0FD11D0FB658
S1130A00F894DEBF0FBECDBFED010895F894FFCF7B
S1130A100000000200000000DE0100000000F86891
S1130A206920000A5365636F6E6473203D20257549
S1090A30200A00686900C1
S9030000FC
