S01F000043616E61727920536F667477617265205061636B6167652E7372656370
S11300008EC00000A9C00000A7C00000A5C0000069
S1130010A3C00000A1C000009FC000009DC000005C
S11300209BC0000099C0000097C0000095C000006C
S113003093C000000C946D0B8FC000008DC00000B5
S11300400C946C0B89C0000087C0000085C00000C0
S113005083C000000C94A60C7FC000007DC000008B
S11300607BC0000079C000000C94DB0B75C000005D
S11300700C94E20C0C942A0D6FC00000F50B470C95
S1130080470C470C470C470C470C470CF50B470C27
S1130090470C470C470C470C470C470CF70B470C15
S11300A0470C470C470C470C470C470C470C470CB4
S11300B0470C470C470C470C470C470CF70B470CF5
S11300C0470C470C470C470C470C470C470C470C94
S11300D0470C470C470C470C470C470C430C470C88
S11300E0470C470C470C470C470C470C200C470C9B
S11300F0470C470C470C470C470C470C470C470C64
S1130100470C470C470C470C470C470C140C470C86
S1130110470C470C470C470C470C470C320C112476
S11301201FBECFEFD8E0DEBFCDBF12E0A0E0B1E04C
S1130130ECE2F3E202C005900D92A630B107D9F7C4
S113014027E0A6E0B2E001C01D92A23FB207E1F7AA
S11301500E94440A0C94941153CFECE7F0E0908190
S1130160907E90839081892B80830895CF93DF9331
S1130170ECE7F0E0808180648083CAE7D0E0888186
S11301808160888388818260888388818460888391
S1130190A4E6B0E08C918E7F8C9380818F7D8083E8
S11301A08FE380937E0088818068888310927B002F
S11301B08FE1D3DF888180648883EAE7F0E080817F
S11301C084FFFDCFEAE7F0E0808180648083808152
S11301D084FFFDCF8091780090E090930702809394
S11301E00602909179002091060230910702892F2E
S11301F090E0982F8827820F931F90930702809393
S11302000602809106029091070299231CF49195AD
S11302108195910905972CF0809165048160809304
S113022065048EE19ADFEAE7F0E0808180648083F0
S1130230808184FFFDCF8091780090E09093070245
S11302408093060290917900209106023091070272
S1130250892F90E0982F8827820F931F909307028D
S1130260809306028091060290910702815E9109B3
S113027090930702809306028091060290910702F0
S113028099231CF491958195910905972CF08091FF
S11302906504826080936504EAE7F0E080818F77EB
S11302A08083DF91CF91089587E084B985B115B833
S11302B02B9A389A399A409A419A089580E090E0AE
S11302C02FEF33E0FC01EE0FFF1FEE0FFF1FE55C85
S11302D0FB4F11821082338322830196853091056E
S11302E089F70895EF92FF920F931F93CF93DF93B3
S11302F00F2EF5E2EF2EF4E0FF2EF02D00E010E0DB
S1130300C7010E947F11E801CC0FDD1FCC0FDD1F58
S1130310C55CDB4F99838883C70102960E947F11D5
S11303209B838A830F5F1F4F84E0E80EF11C053026
S1130330110531F7DF91CF911F910F91FF90EF904D
S11303400895AF92BF92CF92DF92EF92FF920F93F4
S11303501F93CF93DF931F92CDB7DEB7109265043E
S113036010925804BFDFAADFEAE7F0E080818068DA
S1130370808319828981853008F051C00AE710E032
S11303800F2EF8E7EF2EF12CF02DBB24B394A12C03
S1130390CC24C394D12C8981E0DEF801808180646F
S11303A08083F801808184FFFCCFF70180819181F3
S11303B0E981F0E0EE0FFF1FEE0FFF1FE55CFB4F3E
S11303C020813181E981F0E0EE0FFF1FEE0FFF1F66
S11303D0E55CFB4F628173814B2D6817790708F048
S11303E04A2D411107C04B2D8217930708F04A2D5F
S11303F0442371F09981209165049D5FA60102C098
S1130400440F551F9A95E2F7CA01822B8093650425
S113041089818F5F89838981853008F4BCCFEAE7BD
S1130420F0E080818F7780830F90DF91CF911F91CF
S11304300F91FF90EF90DF90CF90BF90AF90089511
S11304408F929F92AF92BF92CF92DF92EF92FF92E0
S11304500F931F93CF93DF9300D01F92CDB7DEB7D6
S1130460EAE7F0E0808180688083198289818530A1
S113047008F076C06894882482F8912C0AE710E08A
S11304800F2EF8E7EF2EF12CF02DCC24C394D12CB1
S1130490BB24B394A12C898160DE1B821A82282D8F
S11304A0392DF801808180648083F801808184FF84
S11304B0FCCFF70180819181E981F0E0EE0FFF1F0D
S11304C0EE0FFF1FE55CFB4F40815181E981F0E0B5
S11304D0EE0FFF1FEE0FFF1FE55CFB4F6281738180
S11304E0EB2D6817790708F0EA2DE11107C06B2D91
S11304F08417950708F06A2D662371F0598160917D
S113050065045D5FF60102C0EE0FFF1F5A95E2F726
S1130510AF01462B409365044A815B81840F951F8C
S11305209B838A832150310909F0BBCF8A819B8147
S1130530E981F0E0EE0FFF1FE75AFB4F9C0199237E
S113054014F42D5F3F4F35952795359527953183C5
S1130550208389818F5F89838981853008F49BCFCB
S11305600F900F900F90DF91CF911F910F91FF90FB
S1130570EF90DF90CF90BF90AF909F908F900895B1
S11305801F93CF93DF93ECE6F4E084EC8083118235
S113059084E0828363E0CF010E94900B0E948C0B65
S11305A08111FCCFECE6F4E084EC808381E081836C
S11305B062E0CF010E94900B0E948C0B8111FCCF52
S11305C0CCE6D4E015EC1883198262E0CE010E94D7
S11305D0900B0E948C0B8111FCCF62E0CE010E9433
S11305E0BC0B80937C04898180937D0580FDEBCFD7
S11305F0ECE6F4E084EC80838FE8818362E0CF0151
S11306000E94900B0E948C0B8111FCCFECE6F4E06D
S113061085EC80831182128263E0CF010E94900BEB
S11306200E948C0B8111FCCF63E08CE694E00E9465
S1130630BC0B80937C04ECE6F4E0818190E0982F7D
S113064088272281820F911DDF91CF911F910895F8
S1130650FF920F931F93CF93DF9380910001882320
S113066059F1CDE7D4E00F2EFCEEFF2EF02D03EF71
S11306701DEEF882098362E0CE010E94900B0E9475
S11306808C0B8111FCCF18836AE1CE010E94900B80
S11306900E948C0B8111FCCF6AE1CE010E94BC0B3D
S11306A080937C04898183FB882780F980930001EF
S11306B0809100018111DDCFEDE7F4E08CEE8083C1
S11306C088E8818362E0CF010E94900B0E948C0B2A
S11306D08111FCCF8DEE80937D046BE18DE794E076
S11306E00E94900B0E948C0B8111FCCF6BE18DE773
S11306F094E00E94BC0B80937C04CEE7D4E006E82F
S113070015E029E934E0D801FE0181918D93E217C7
S1130710F307D9F78BE180930902E6E8F5E08181DC
S113072090E0982F88272081822B909381058093D5
S11307308005838190E0982F88272281822B9093D3
S1130740850580938405858190E0982F88272481EE
S1130750822B9093E3058093E205878190E0982FA4
S113076088272681822B9093D7058093D60581858F
S113077090E0982F88272085822B9093B905809349
S1130780B805838590E0982F88272285822B909343
S1130790D9058093D805858590E0982F88272485EE
S11307A0822B9093BB058093BA05878590E0982FA0
S11307B088272685822B9093CA058093C905818951
S11307C090E0982F88272089822B9093E5058093C9
S11307D0E405838990E0982F88272289822B9093BF
S11307E07F0580937E05858990E0982F882724894A
S11307F0822B9093DB058093DA05878990E0982F0C
S113080088272689822B9093E1058093E005818DCA
S113081090E09093B3058093B205EDE7F4E08CEE9D
S1130820808381EE818362E0CF017AD775D781110D
S1130830FDCF8DEE80937D0468E08DE794E070D762
S11308406BD78111FDCF68E08DE794E095D7809355
S11308507C0425E834E08991F80181938F01C21763
S1130860D307C9F787E080930902E6E8F5E08281BF
S113087090E0982F88272181822B9093E70580931D
S1130880E605838190E09093DF058093DE05858102
S113089082958695877090E0248140E1249F9001A1
S11308A01124282B392B309383052093820526812C
S11308B040E1249F90011124822B932B9093DD051A
S11308C08093DC05878190E09093C4058093C305F1
S11308D0DF91CF911F910F91FF900895EDE7F4E020
S11308E08CEE808380EE818386EB828363E0CF018C
S11308F017D712D78111FDCFEDE7F4E08CEE80839A
S113090080ED818362E0CF010BD706D78111FDCF43
S11309108DEE80937D0462E08DE794E001D7FCD6F0
S11309208111FDCF62E08DE794E026D780937C04AB
S113093080917E04803669F5EDE7F4E08CEE8083E7
S113094082EF818381E0828363E0CF01E9D6E4D63C
S11309508111FDCFEDE7F4E08CEE808385EF818398
S113096080E1828363E0CF01DBD6D6D68111FDCF4F
S11309706FDE81E38093BC05EDE7F4E09CEE9083A9
S113098094EF9183828363E0CF01CAD6C5D68111E7
S1130990FDCF0895FF920F931F93CF93DF9381E0D0
S11309A08093080280910802882331F1CDE7D4E0D6
S11309B00F2EFCEEFF2EF02D03EF1DEEF8820983BF
S11309C062E0CE01ADD6A8D68111FDCF188362E0D6
S11309D0CE01A6D6A1D68111FDCF62E0CE01CCD640
S11309E080937C04898183FB882780F980930802A3
S11309F0809108028111E2CFEDE7F4E08CEE808370
S1130A0087EF818362E0CF018BD686D68111FDCF3B
S1130A108DEE80937D0469E08DE794E081D67CD6E9
S1130A208111FDCF69E08DE794E0A6D680937C0424
S1130A30EEE7F4E0A6E8B5E026E834E081918D9392
S1130A40E217F307D9F7E6E8F5E0818190E0A0E04A
S1130A50B0E0880F991FAA1FBB1F880F991FAA1FF8
S1130A60BB1F880F991FAA1FBB1F880F991FAA1F9E
S1130A70BB1F408150E060E070E0032E3CE0440F77
S1130A80551F661F771F3A95D1F7302D842B952B70
S1130A90A62BB72B228122952F70822B8093CC0515
S1130AA09093CD05A093CE05B093CF05848190E0BB
S1130AB0A0E0B0E0880F991FAA1FBB1F880F991FE1
S1130AC0AA1FBB1F880F991FAA1FBB1F880F991F3E
S1130AD0AA1FBB1F438150E060E070E0032E3CE09E
S1130AE0440F551F661F771F3A95D1F7302D842B7D
S1130AF0952BA62BB72B258122952F70822B8093C3
S1130B00B4059093B505A093B605B093B705868157
S1130B1090E0A0E0B0E0BA2FA92F982F8827278172
S1130B20822B8093D0059093D105A093D205B093E6
S1130B30D305EDE7F4E08CEE808384EF818381E3D9
S1130B40828363E0CF01ECD5E7D58111FDCFDF913E
S1130B50CF911F910F91FF9008958F929F92AF9222
S1130B60BF92CF92DF92EF92FF9220918005309155
S1130B7081056B017C01689413F8F594E794D7948C
S1130B80C7941694D1F7C21AD30AE108F108DC011C
S1130B90CB01689412F8B595A79597958795169407
S1130BA0D1F7220F331F4C015D01821A930AA10869
S1130BB0B108A5019401A0918405B091850592D74F
S1130BC04B015C01072E7BE0B594A794979487941E
S1130BD07A95D1F7702DA7019601C701B60163D7A5
S1130BE09B01AC01012E1CE055954795379527953F
S1130BF01A95D1F7102DA091E205B091E30572D7B3
S1130C00DC01CB01072E7EE0B595A79597958795D6
S1130C107A95D1F7702D880D991DAA1DBB1D80935F
S1130C20E8059093E905A093EA05B093EB056C0100
S1130C307D01CC0CDD1CEE1CFF1CCC0CDD1CEE1C61
S1130C40FF1C8C0D9D1DAE1DBF1D80589F4FAF4FC7
S1130C50BF4F692F7A2F8B2F992787FD9A95FF9085
S1130C60EF90DF90CF90BF90AF909F908F900895BA
S1130C702F923F924F925F926F927F928F929F92A8
S1130C80AF92BF92CF92DF92EF92FF920F931F9396
S1130C90CF93DF93CDB7DEB76E970FB6F894DEBF70
S1130CA00FBECDBF6E8B7F8B888F998F8091E805A7
S1130CB09091E905A091EA05B091EB058C019D01A5
S1130CC0145F2140310909831A832B833C83330F3A
S1130CD0000B102F98010D831E832F833887A98062
S1130CE0BA80CB80DC80ED80FE2C0E2D1E2D2A2DAB
S1130CF03B2D4C2D5D2D602F702F802F9E2DF8D60F
S1130D002D873E874F87588B698B7A8B8B8B9C8B77
S1130D101091E4051A8F2091E5052E8F3091C905B5
S1130D203B8F4091CA054D8F5091BA055C8F8091DD
S1130D30BB058D8B3091B9052091B805932F990F80
S1130D40990BFE2C0E2D1E2D492F592F692F792F0B
S1130D50892FCED60CE0EDD7422E532E642E752E5D
S1130D60862E972E282E392EB090D905A090D8051E
S1130D701B2D110F110BC12ED12EE12EF12E012F9F
S1130D802D853E854F85588969897A898B899C8907
S1130D90AFD608E0E7D7A42CB52CC62CD72CE82C6A
S1130DA0F92C022D132DFCD770588F4F9F4F209094
S1130DB0D6053090D705A22CB32CC12CD12CE12C14
S1130DC0F12C00E010E094D601E2CCD729873A87D1
S1130DD04B87452E562E7C87382E292E652D832D44
S1130DE0922DA0E0EFD709F46CC1AA8C1E8D110FCF
S1130DF0110BBE8CC12ED12EE12EF12E012F2D858B
S1130E003E854F85588969897A898B899C8970D6F2
S1130E102D873E87642E752E862E972E888B9F876E
S1130E202B8D9D8D990F990BA980BA80CB80DC8086
S1130E30ED80FE2C0E2D1E2D3D8D492F592F692F2F
S1130E40792F892F55D601E174D7AD84BE84C62C81
S1130E50D72CE82CF92C08891F85A2D7A22EB32EF3
S1130E60C42ED52EE62EF72EE82F192F80E090E021
S1130E70A0E1B0E02E893F89488D598D821B930BE8
S1130E80A40BB50B3C014D01990C6608762C43016B
S1130E90282F392F4A2F5B2F662D762D862D962DE0
S1130EA00FE147D7822E932EF42F752EB62FA72F3E
S1130EB0682E9D832C8D9D89990F990B3D89492F0F
S1130EC0592F692F792F892F03E233D70E2F68D733
S1130ED0A22EB32EC42ED52EE62EF72E082F192FB0
S1130EE0282D392D4F2F572D6B2F7A2F862D9D812D
S1130EF060D7822E932E4983652EB62FA72FF82F05
S1130F00E92F03E016D7A82CB92CC980D62CEB2ED8
S1130F10FA2E0F2F1E2F4DD7A22EB32EC42ED52E50
S1130F20E62EF72E782E192F03E003D7072D41D78D
S1130F3003E0FFD6A82CB92CC980D62CEB2EFA2EB0
S1130F400F2F1E2F36D702E0F4D60F2F32D701E031
S1130F50F0D60F2F2ED7A984BA84CB84D42CE52CB9
S1130F60FC84032D122D17D62E873D8749835D837C
S1130F7069877A878B879C870DE0F4D6822E932E1F
S1130F80742E652E562E472E382E292E3091E105CB
S1130F902091E005932F990F990BA82CB92CC72CFD
S1130FA0D62CE52CF42C032D122D492F592F692F03
S1130FB0792F892F9DD5A22EB32EC42ED52EE62EA1
S1130FC0F72E082F192F282D392D472D562D652D35
S1130FD0742D832D922D8CD509E1C4D6A22EB32E67
S1130FE0C42ED52EE62EF72E082F192F2E853D85DB
S1130FF049815D8169857A858B859C85D1D6222E30
S1131000332E442E552E662E772E882E992E30910F
S1131010DB052091DA05932F990F990BAE84BD84DB
S1131020C980DD80E984FA840B851C85492F592FFA
S1131030692F792F892F5CD503E194D6A22EB32E84
S1131040C42ED52EE62EF72E082F192F222D332D40
S1131050442D552D662D772D882D992DA1D608E088
S113106081D640907E0550907F05052C000C6608C3
S11310707708440C551C661C771C440C551C661CD4
S1131080771C440C551C661C771C440C551C661CB0
S1131090771C83017201110FEE08FE2C8701E9828F
S11310A0FA820B831C83A42CB52CC62CD72CE98084
S11310B0FE2C0E2D1E2D74D6622F732F842F952F88
S11310C004C060E070E080E090E06E960FB6F894A3
S11310D0DEBF0FBECDBFDF91CF911F910F91FF9067
S11310E0EF90DF90CF90BF90AF909F908F907F90C4
S11310F06F905F904F903F902F9008952F923F9262
S11311004F925F926F927F928F929F92AF92BF9213
S1131110CF92DF92EF92FF920F931F93CF93DF93BF
S1131120CDB7DEB767970FB6F894DEBF0FBECDBF5D
S11311302B013C018091E8059091E905A091EA0515
S1131140B091EB056C017D01FF0CCC08DC2C760121
S1131150282F392F4A2F5B2F6C2D7C2D8C2D9C2D05
S11311603C524140510961097109810991092F8B50
S11311703E8B498359876A877B878C879D87032E9B
S11311803EE0440C551C661C771C3A95D1F7302D73
S113119053014201BB0C8808982C540130918305FB
S11311A020918205932F990F990B492F592F692F5D
S11311B0792F892F04E1BDD5F22FE32FC42ED52E2C
S11311C0E62EF72E082F192F242D352D462D572DB9
S11311D0682D782D882D982DAF2EBE2EEAD5222E7F
S11311E0332E442E552E662E772E882E992E30912E
S11311F0DD052091DC05932F990F990BAF88BE88EC
S1131200C980D984EA84FB840C851D85492F592F14
S1131210692F792F892F6CD4A22EB32EC42ED52EEC
S1131220E62EF72E082F192F222D332D442D552D60
S1131230662D772D882D992DBCD5305C4F4F5F4F8F
S11312406F4F7F4F8F4F9F4F0FE08CD52E873F8777
S1131250488B598B6A8B7B8B8C8B9D8B3091C4050F
S11312602091C305932F990F990BAF88BE88C9802D
S1131270D984EA84FB840C851D85492F592F692F55
S1131280792F892F35D40AE06DD5822E932E742EB2
S1131290652E562E472E382E292E4091DE0550916C
S11312A0DF050C85242F352F40E050E060E070E02E
S11312B080E090E01DD40BE055D530584F4F5F4F80
S11312C06F4F7F4F8F4F9F4FA22EB32EC42ED52E1C
S11312D0E62EF72E082F192F282D392D472D562DA0
S11312E0652D742D832D922D03D40AE03BD5405EE9
S11312F05F4F6F4F7F4F8F4F9F4FB090E705A09088
S1131300E6051B2D110F110BC12ED12EE12EF12E4E
S1131310012FEED3305E4F4F5F4F6F4F7F4F8F4F94
S11313209F4F0EE01FD5A22EB32EC42ED52EE62E2F
S1131330F72E082F192F2E853F85488959896A89E8
S11313407B898C899D89D4D3422E532E642E752E8D
S1131350862E972E282E392E0FE004D5A22EB32EDA
S1131360C42ED52EE62EF72E082F192FC1D307E051
S1131370F9D4E091B205F091B3055F01C12CD12CF1
S1131380E12CF12C8701E983BA82CB82DC82ED82E5
S1131390FE820F831887C12CD12CE12CF12C00E0A4
S11313A010E0A6D304E0DED4A22EB32EC42ED52E94
S11313B0E62EF72E082F192F242D352D462D572DC7
S11313C0682D792D822D932DF4D4F22E032F142F12
S11313D0652E762EB72FF82FE92FA0E0F3D444F42E
S11313E0F12C00E010E0612C712CB0E0F0E0E0E0C2
S11313F08F2C902EA12EB62CC72CDB2EEF2EAE2FC9
S11314002F2D302F412F562D672D7B2F8F2F9E2F61
S11314102115310541055941610571058105910584
S113142061F05CF0812C912CA12C0F2EF9E1BF2EE0
S1131430F02DC12CD12CE12CA0E0282D392D4A2DE2
S11314405B2D6C2D7D2D8E2D9A2F0CE08BD4622F6D
S1131450732F842F952F67960FB6F894DEBF0FBEB7
S1131460CDBFDF91CF911F910F91FF90EF90DF904F
S1131470CF90BF90AF909F908F907F906F905F9030
S11314804F903F902F9008950E9454011092D505DB
S11314901092D40510923A048BE291E09093EF07F6
S11314A08093EE070CD181E890E005D281E890E0CA
S11314B076D228D10E94B6000E94A10178940EDA57
S11314C081E091E035D22FE784E89EE1215080400D
S11314D09040E1F700C000008AE391E09F938F936E
S11314E08CD40F900F900F2EFEE3AF2EF1E0BF2EA1
S11314F0F02DC0E2D7E00F2EFEE4CF2EF1E0DF2E78
S1131500F02D09E514E00F2EF3E6EF2EF1E0FF2EA7
S1131510F02D0F2EF9E76F2EF1E07F2EF02D0F2E18
S1131520F8E84F2EF1E05F2EF02D0F2EF6E92F2E66
S1131530F1E03F2EF02D80913A048130E1F71092D2
S11315403A048091D4059091D50501969093D505E0
S11315508093D4058091D4059091D5059F938F9362
S1131560BF92AF924AD40F2EFCEE8F2EF6E09F2E40
S1131570F02D0F900F900F900F90D4018D914D018D
S1131580ADD18C169D06C9F70E94C0028093540405
S1131590909355049F938F93DF92CF922ED40E9401
S11315A02002F80181818F9380818F93FF92EF92C3
S11315B024D4D80113968C9113978F9312968C91FF
S11315C08F937F926F9219D4F80185818F938481D0
S11315D08F935F924F9211D4D80117968C911797DD
S11315E08F9316968C918F933F922F9206D4F80185
S11315F081858F9380858F93A4EAB1E0BF93AF93E5
S1131600FCD3C8D96091B4057091B5058091B60535
S11316109091B705A2DA6093AE057093AF058093FD
S1131620B0059093B1059F938F937F936F93A1EB34
S1131630B1E0BF93AF93E1D36091CC057091CD0538
S11316408091CE059091CF0513DB6093BD05709317
S1131650BE058093BF059093C0059F938F937F939E
S11316606F93A1ECB1E0BF93AF93C7D38DB79EB78F
S113167084960FB6F8949EBF0FBE8DBF6091D005BF
S11316807091D1058091D2059091D30537DD609397
S1131690C5057093C6058093C7059093C8059F93AD
S11316A08F937F936F93A8EDB1E0BF93AF93A5D3CE
S11316B00F900F900F900F900F900F903CCF8DE0F4
S11316C0809381008AE49CE490938900809388004D
S11316D082E080936F00089518951F920F920FB6C1
S11316E00F9211248F939F9395B182E0892785B936
S11316F081E080933A049F918F910F900FBE0F90D9
S11317001F90189581E18093B8008FEF8093BB0000
S113171084E08093BC0008958091BC008178089592
S1131720CF93DF93EC01ECEBF0E090819178E9F753
S113173060930C02888180930D0280FD12C0623098
S113174080F0FE013196AEE0B2E06250262F30E028
S11317502E5F3F4F2C0F3D1F91919D93E217F3078E
S1131760D9F710920B0288EF8093390185EA8093B0
S1131770BC00DF91CF910895AC01ECEBF0E09081D7
S11317809178E9F780910B0280FF11C0662379F00C
S1131790ADE0B2E0FA016150262F30E02F5F3F4FF9
S11317A0240F351F9D919193E217F307D9F7809188
S11317B00B02817008951F920F920FB60F9211249D
S11317C02F933F938F939F93AF93BF93EF93FF9385
S11317D0E091B9008E2F90E0FC013897E135F105D6
S11317E008F055C0E25CFF4F6DC110920A02E0910F
S11317F00A0280910C02E81770F481E08E0F809346
S11318000A02F0E0E35FFD4F80818093BB0085E82E
S11318108093BC0043C080910B02816080930B02D3
S113182084E98093BC003AC0E0910A0281E08E0F03
S113183080930A028091BB00F0E0E35FFD4F808358
S113184020910A0230E080910C0290E00197281761
S1131850390724F485EC8093BC0020C085E880938C
S1131860BC001CC08091BB00E0910A02F0E0E35F81
S1131870FD4F808380910B02816080930B0284E989
S11318808093BC000BC085EA8093BC0007C08091A4
S1131890B9008093390184E08093BC00FF91EF91FB
S11318A0BF91AF919F918F913F912F910F900FBE58
S11318B00F901F9018959093C5008093C40088E9F9
S11318C08093C1008EE08093C20010921F03109297
S11318D0200310921D0210921E02089520911E02F0
S11318E02F5F90911D022917E1F3E22FF0E0E15EF2
S11318F0FD4F808320931E02E1ECF0E08081806242
S11319008083089520911E022F5F90911D02291754
S1131910E1F3E22FF0E0E15EFD4F808320931E02AD
S1131920E1ECF0E080818062808380E090E00895C3
S1131930CF93DF93EC018881882329F02196CEDFB1
S113194089918111FCCFDF91CF9108951F920F925D
S11319500FB60F9211248F939F93EF93FF9390915F
S11319601E0280911D02981761F0E0911D02EF5F45
S1131970E0931D02F0E0E15EFD4F80818093C6009C
S113198005C0E1ECF0E080818F7D8083FF91EF91D1
S11319909F918F910F900FBE0F901F901895909369
S11319A0CD008093CC0088E98093C90086E08093C1
S11319B0CA0010922304109224041092210310925E
S11319C0220308951F920F920FB60F9211242F93A2
S11319D03F938F939F93AF93BF93CF93DF93EF93F3
S11319E0FF939091CE00809124048F5F8093240410
S11319F020912304E82FF0E0E451FA4F90839A30C9
S1131A00D1F49091F1059C3491F4E0E02E2F30E074
S1131A10D901A451B94FE901C451DA4F98819C937B
S1131A20EF5F8E1798F7F0E0E451F94F11821092AE
S1131A30230410922404FF91EF91DF91CF91BF9181
S1131A40AF919F918F913F912F910F900FBE0F9067
S1131A501F9018951F920F920FB60F9211248F9317
S1131A609F93EF93FF939091220380912103981702
S1131A7061F0E0912103EF5FE0932103F0E0ED5D7D
S1131A80FC4F80818093CE0005C0E9ECF0E08081BA
S1131A908F7D8083FF91EF919F918F910F900FBE67
S1131AA00F901F901895DB018F939F9311D0BF91D6
S1131AB0AF91A29F800D911DA39F900DB29F900D99
S1131AC011240895EE0FFF1F0590F491E02D099461
S1131AD085D1A59F900DB49F900DA49F800D911D5D
S1131AE011240895B7FFF4CFF3DF821B930B0895FD
S1131AF0DF93CF931F930F939A9DF02D219FF00DA9
S1131B008B9DF00D8A9DE02DF10D039FF00D029F3A
S1131B10E00DF11D4E9DE00DF11D5E9DF00D4F9DFC
S1131B20F00D7F936F93BF92AF925F934F93D50164
S1131B3055D18B01AC01D70151D1EB01E80FF91F4D
S1131B40D6011FD02F913F91D60148D1C60FD71F80
S1131B50E81FF91FAF91BF9114D02F913F913ED14F
S1131B60C60FD71FE81FF91FD60138D1E60FF71F9C
S1131B709801BE01CF0111240F911F91CF91DF91E4
S1131B8008952CD1460F571FC81FD91F08F431964A
S1131B900895689401C0E894F92FF12B0AF027C046
S1131BA0A0E0B0E0E5EDFDE093C0092E05941AF441
S1131BB079D0112392F4F0E80F26FFEFE094F0942B
S1131BC000951095B094C094D094A194BF0ACF0A04
S1131BD0DF0AEF0AFF0A0F0B1F0B13D007FC62D0BA
S1131BE0CDB7DEB7ECE090C0689401C0E8948F9262
S1131BF09F92CF93DF9305D0DF91CF919F908F90E9
S1131C00089588249924F401E401B0E49F93AA2759
S1131C109A158B049C04ED05FE05CF05D007A1079A
S1131C2098F4AD2FDC2FCF2FFE2FE92D982C892E81
S1131C30982F872F762F652F542F432F322F22274B
S1131C40B85031F7BF9127C01B2EBF91BB27220F7D
S1131C50331F441F551F661F771F881F991F881C39
S1131C60991CEE1FFF1FCC1FDD1FAA1FBB1F8A1468
S1131C709B04EC05FD05CE05DF05A007B10748F080
S1131C808A189B08EC09FD09CE09DF09A00BB10BEA
S1131C9021601A94E1F62EF49401AF01BE01CD0146
S1131CA0000C0895609570958095909530954095B9
S1131CB0509521953F4F4F4F5F4F6F4F7F4F8F4F41
S1131CC09F4F08952F923F924F925F926F927F920F
S1131CD08F929F92AF92BF92CF92DF92EF92FF9238
S1131CE00F931F93CF93DF93CDB7DEB7CA1BDB0BE4
S1131CF00FB6F894DEBF0FBECDBF09942A88398889
S1131D0048885F846E847D848C849B84AA84B9848F
S1131D10C884DF80EE80FD800C811B81AA81B9819B
S1131D20CE0FD11D0FB6F894DEBF0FBECDBFED01AF
S1131D3008950F93083090F0982F872F762F652FF2
S1131D40542F432F322F22270850F4CF220F331F52
S1131D50441F551F661F771F881F991F0A95B2F7E6
S1131D600F91089597FB10F8169400080F9308300C
S1131D7098F00850232F342F452F562F672F782F94
S1131D80892F902DF4CF059497958795779567952E
S1131D9057954795379527950A95AAF70F91089572
S1131DA02A0D3B1D4C1D5D1D6E1D7F1D801F911F47
S1131DB008952A193B094C095D096E097F09800BB6
S1131DC0910B08950024A7FD00942A1730054005BF
S1131DD0500560057005800590050895A29FB00127
S1131DE0B39FC001A39F700D811D1124911DB29F4B
S1131DF0700D811D1124911D0895A0E0B0E0E2E072
S1131E00FFE070CFAE014B5F5F4FFA0161917191BA
S1131E10AF018091EE079091EF0702D0E2E07ECF10
S1131E20ACE0B0E0E5E1FFE04DCF7C016B018A015D
S1131E30FC0117821682838181FFB0C1CE01019615
S1131E404C01F7019381F60193FD859193FF8191F4
S1131E506F01882309F49EC1853239F493FD85917D
S1131E6093FF81916F01853221F4B70190E0B1D1E4
S1131E70E8CF512C312C20E02032A0F48B3269F0D1
S1131E8030F4803259F0833269F420612CC08D32F1
S1131E9039F0803339F4216026C02260246023C0E5
S1131EA0286021C027FD27C030ED380F3A3078F480
S1131EB026FF06C0FAE05F9E300D1124532E13C096
S1131EC08AE0389E300D1124332E20620CC08E32ED
S1131ED021F426FD5FC1206406C08C3611F420680D
S1131EE002C0883641F4F60193FD859193FF8191F8
S1131EF06F018111C1CF982F9F7D9554933028F4A1
S1131F000C5F1F4FFFE3F9830DC0833631F0833735
S1131F1071F0833509F057C021C0F80180818983AD
S1131F200E5F1F4F44244394512C540114C03801B4
S1131F30F2E06F0E711CF801A080B18026FF03C08F
S1131F40652D70E002C06FEF7FEFC5012C8736D19D
S1131F502C0183012C852F77222E16C03801F2E044
S1131F606F0E711CF801A080B18026FF03C0652D9F
S1131F7070E002C06FEF7FEFC5012C8714D12C01F4
S1131F802C852068222E830123FC19C0832D90E028
S1131F9048165906A0F4B70180E290E01AD13A94A9
S1131FA0F5CFF50127FC859127FE81915F01B701EB
S1131FB090E00FD131103A94F1E04F1A51084114D6
S1131FC0510479F7DEC0843611F0893631F5F80111
S1131FD027FF07C060817181828193810C5F1F4F4D
S1131FE008C060817181072E000C880B990B0E5F6D
S1131FF01F4F2F76722E97FF09C09095809570958C
S113200061957F4F8F4F9F4F2068722E2AE030E0FA
S1132010A40117D1A82EA81843C0853729F42F7E10
S1132020B22E2AE030E025C0F22FF97FBF2E8F3682
S1132030C1F018F4883579F0ADC0803719F08837CD
S113204021F0A8C02F2F2061B22EB4FE0DC08B2D1D
S11320508460B82E09C024FF0AC09F2F9660B92E51
S113206006C028E030E005C020E130E002C020E1F5
S113207032E0F801B7FE07C06081718182819381EB
S11320800C5F1F4F06C06081718180E090E00E5F9D
S11320901F4FA401D6D0A82EA818FB2DFF777F2EA2
S11320A076FE0BC0372D3E7FA51450F474FE0AC093
S11320B072FC08C0372D3E7E05C0BA2C372D03C0F4
S11320C0BA2C01C0B52C34FF0DC0FE01EA0DF11D80
S11320D08081803311F4397E09C032FF06C0B39485
S11320E0B39404C0832F867809F0B39433FD12C0EF
S11320F030FF06C05A2CB31418F4530C5B18B32CDD
S1132100B31460F4B70180E290E03C8762D0B394EA
S11321103C85F6CFB31410F43B1801C0312C34FFC6
S113212011C0B70180E390E03C8753D03C8532FF77
S113213016C031FD03C088E790E002C088E590E056
S1132140B7010CC0832F867851F031FF02C08BE2B7
S113215001C080E237FD8DE2B70190E03AD0A514CA
S113216030F4B70180E390E034D05A94F8CFAA94C5
S1132170F401EA0DF11D8081B70190E02AD0A1108D
S1132180F6CF332009F45DCEB70180E290E021D090
S11321903A94F7CFF7018681978102C08FEF9FEFC2
S11321A02C96E2E1ABCDFC0105906150704001102A
S11321B0D8F7809590958E0F9F1F0895FC0161506C
S11321C0704001900110D8F7809590958E0F9F1F55
S11321D008950F931F93CF93DF93FB01238121FD78
S11321E003C08FEF9FEF28C022FF16C0468157819E
S11321F0248135814217530744F4A081B1819D01A4
S11322002F5F3F4F318320838C93268137812F5F4B
S11322103F4F3783268310C0EB01092F182F00840A
S1132220F185E02D0995892BE1F68E819F81019638
S11322309F838E83812F902FDF91CF911F910F91D8
S11322400895FA01AA27283051F1203181F1E89448
S11322506F936E7F6E5F7F4F8F4F9F4FAF4FB1E095
S11322603ED0B4E03CD0670F781F891F9A1FA11D90
S1132270680F791F8A1F911DA11D6A0F711D811D91
S1132280911DA11D20D009F468943F912AE0269F56
S113229011243019305D3193DEF6CF010895462FB5
S11322A04770405D4193B3E00FD0C9F7F6CF462F96
S11322B04F70405D4A3318F0495D31FD40524193FF
S11322C002D0A9F7EACFB4E0A695979587957795BC
S11322D06795BA95C9F700976105710508959B0143
S11322E0AC010A2E06945795479537952795BA95CC
S11322F0C9F7620F731F841F951FA01D0895A8E1DD
S1132300B0E042E050E002C0DC01CB01FC01F999ED
S1132310FECF06C0F2BDE1BDF89A319600B40D922D
S10F232041505040B8F70895F894FFCFE6
S113232C0148656C6C6F20576F726C6421212054CA
S113233C68652073657269616C20706F72742069B2
S113234C7320776F726B696E6721000000000200C6
S113235C000000820C00000000F8686920000A5399
S113236C65636F6E6473203D202575200A000A4C4A
S113237C494441522064697374616E6365203D2045
S113238C2575000A436172626F6E204D6F6E6F7813
S113239C696465203D202575000A487964726F676D
S11323AC656E203D202575000A416D6D6F6E696167
S11323BC203D202575000A4D657468616E65203DCD
S11323CC202575000A4F7A6F6E65203D2025750A0D
S11323DC000A43656C73697573203D20256C750A7E
S11323EC000A507265737375726520696E205061B2
S11323FC203D20256C750A000A2048756D696469B6
S113240C747920696E2070657263656E74207265D0
S113241C6C61746976652068756D69646974793D5D
S109242C20256C750A0076
S9030000FC
