:1000000096C00000B1C00000AFC00000ADC000004D
:10001000ABC00000A9C00000A7C00000A5C0000040
:10002000A3C00000A1C000009FC000009DC0000050
:100030009BC000006FC3000097C0000095C0000087
:1000400068C3000091C000008FC000008DC0000098
:100050008BC0000043C4000087C0000085C00000C2
:1000600083C0000081C000006AC300007DC00000A2
:1000700075C4000079C0000077C0000075C00000A2
:1000800073C0000071C000006FC00000BB030D040E
:100090000D040D040D040D040D040D04BB030D042B
:1000A0000D040D040D040D040D040D04BD030D0419
:1000B0000D040D040D040D040D040D040D040D04B8
:1000C0000D040D040D040D040D040D04BD030D04F9
:1000D0000D040D040D040D040D040D040D040D0498
:1000E0000D040D040D040D040D040D0409040D048C
:1000F0000D040D040D040D040D040D04E6030D04A0
:100100000D040D040D040D040D040D040D040D0467
:100110000D040D040D040D040D040D04DA030D048B
:100120000D040D040D040D040D040D04F803112439
:100130001FBECFEFD0E4DEBFCDBF11E0A0E0B1E045
:10014000EAECFFE000E00BBF02C007900D92A83779
:10015000B107D9F725E0A8E7B1E001C01D92AC379F
:10016000B207E1F70CD22FC7BFC2ECE7F0E09081F5
:10017000907E90839081892B80830895CF93DF9325
:10018000ECE7F0E0808180648083CAE7D0E088817A
:100190008160888388818260888388818460888385
:1001A000A4E6B0E08C918E7F8C9380818F7D8083DC
:1001B0008FE380937E0088818068888310927B0023
:1001C0008FE1D3DF888180648883EAE7F0E0808173
:1001D00084FFFDCFEAE7F0E0808180648083808146
:1001E00084FFFDCF8091780090E090937901809317
:1001F0007801909179002091780130917901892FCF
:1002000090E0982F8827820F931F90937901809315
:100210007801809178019091790199231CF491954E
:100220008195910905972CF08091D6028160809389
:10023000D6028EE19ADFEAE7F0E080818064808375
:10024000808184FFFDCF8091780090E090937901C8
:100250008093780190917900209178013091790113
:10026000892F90E0982F8827820F931F9093790110
:10027000809378018091780190917901815E910954
:100280009093790180937801809178019091790120
:1002900099231CF491958195910905972CF08091F3
:1002A000D60282608093D602EAE7F0E080818F7701
:1002B0008083DF91CF91089587E084B985B115B827
:1002C0002B9A389A399A409A419A089580E090E0A2
:1002D0002FEF33E0FC01EE0FFF1FEE0FFF1FE55580
:1002E000FD4F118210823383228301968530910560
:1002F00089F70895EF92FF920F931F93CF93DF93A7
:100300000F2EF5E9EF2EF2E0FF2EF02D00E010E0C9
:10031000C70144D6E801CC0FDD1FCC0FDD1FC5554A
:10032000DD4F99838883C701029638D69B838A83E1
:100330000F5F1F4F84E0E80EF11C0530110541F7F7
:10034000DF91CF911F910F91FF90EF900895AF92A1
:10035000BF92CF92DF92EF92FF920F931F93CF93B2
:10036000DF931F92CDB7DEB71092D6021092C9026A
:10037000C1DFACDFEAE7F0E080818068808319822A
:100380008981853008F051C00AE710E00F2EF8E7A8
:10039000EF2EF12CF02DBB24B394A12CCC24C394CC
:1003A000D12C8981E2DEF801808180648083F801AC
:1003B000808184FFFCCFF70180819181E981F0E0A9
:1003C000EE0FFF1FEE0FFF1FE555FD4F208131811E
:1003D000E981F0E0EE0FFF1FEE0FFF1FE555FD4F27
:1003E000628173814B2D8217930708F04A2D4111CA
:1003F00007C02B2D6817790708F02A2D222371F0EA
:1004000099812091D6029D5FA60102C0440F551F1D
:100410009A95E2F7CA01822B8093D60289818F5F79
:1004200089838981853008F4BCCFEAE7F0E08081D8
:100430008F7780830F90DF91CF911F910F91FF9065
:10044000EF90DF90CF90BF90AF900895AF92BF92A2
:10045000CF92DF92EF92FF920F931F93CF93DF9390
:1004600000D01F92CDB7DEB7EAE7F0E08081806868
:10047000808319828981853008F073C00AE710E013
:100480000F2EF8E7EF2EF12CF02DCC24C394D12CB5
:10049000BB24B394A12C898168DE1B821A8224E0DC
:1004A00030E0F801808180648083F801808184FFDE
:1004B000FCCFF70180819181E981F0E0EE0FFF1F11
:1004C000EE0FFF1FE555FD4F40815181E981F0E0BE
:1004D000EE0FFF1FEE0FFF1FE555FD4F0280F3816A
:1004E000E02D6B2D8417950708F06A2D611107C068
:1004F0004B2DE817F90708F04A2D442371F0598174
:100500006091D6025D5FF60102C0EE0FFF1F5A95A3
:10051000E2F7AF01462B4093D6024A815B81840FFC
:10052000951F9B838A832150310909F0BACF8A81B4
:100530009B81E981F0E0EE0FFF1FE653FD4F9C0128
:10054000992314F42D5F3F4F3595279535952795C1
:100550003183208389818F5F89838981853008F485
:100560009ACF0F900F900F90DF91CF911F910F9125
:10057000FF90EF90DF90CF90BF90AF9008959CDEFA
:1005800010925F0310925E031092AA028AE291E039
:100590009093790580937805B2D081E890E053D1AB
:1005A00081E890E0C8D1EADDD2DE2A9A2FE784E81C
:1005B0009EE1215080409040E1F700C000002A9861
:1005C000EFE7F4E82EE1E150F0402040E1F700C011
:1005D0000000789480E091E073D10F2EF9E3AF2E04
:1005E000F1E0BF2EF02D0F2EF6E7CF2EF4E0DF2E38
:1005F000F02D0F2EF7E4EF2EF1E0FF2EF02DCAECD8
:10060000D2E00F2EFAE48F2EF1E09F2EF02D0F2E68
:10061000F3E56F2EF1E07F2EF02D0F2EFBE54F2E30
:10062000F1E05F2EF02D0F2EF4E62F2EF1E03F2E9D
:10063000F02D09EC10E08091AA028130E1F71092D0
:10064000AA0280915E0390915F03019690935F03ED
:1006500080935E0380915E0390915F039F938F93DD
:10066000BF92AF92DBD1DF92CF92FF92EF92D6D1C1
:100670008FEF94E3ECE081509040E040E1F700C060
:100680000000E4DE89818F9388818F939F928F92FF
:10069000C5D18B818F938A818F937F926F92BED1C8
:1006A0008D818F938C818F935F924F92B7D18F8181
:1006B0008F938E818F933F922F92B0D189858F93A4
:1006C00088858F938EE691E09F938F93A7D1F80151
:1006D0008081806980838DB79EB74C960FB6F89461
:1006E0009EBF0FBE8DBFA7CF1F920F920FB60F9266
:1006F00011242A9A0F900FBE0F901F9018958DE02D
:10070000809381008AE49CE4909389008093880020
:10071000089518951F920F920FB60F9211248F9380
:100720009F9395B182E0892785B981E08093AA02E1
:100730009F918F910F900FBE0F901F9018951F9251
:100740000F920FB60F9211240BB60F922F933F9377
:100750008F939F93AF93BF93EF93FF93E091B90073
:100760008E2F90E0FC013897E135F10508F055C077
:10077000EA5BFF4F4AC110927A01E0917A018091C1
:100780007C01E81770F481E08E0F80937A01F0E02D
:10079000E358FE4F80818093BB0085E88093BC00C6
:1007A00043C080917B01816080937B0184E98093C9
:1007B000BC003AC0E0917A0181E08E0F80937A010B
:1007C0008091BB00F0E0E358FE4F808320917A01D6
:1007D00030E080917C0190E001972817390724F4DC
:1007E00085EC8093BC0020C085E88093BC001CC0D1
:1007F0008091BB00E0917A01F0E0E358FE4F8083E6
:1008000080917B01816080937B0184E98093BC00AF
:100810000BC085EA8093BC0007C08091B90080932B
:10082000380184E08093BC00FF91EF91BF91AF91BC
:100830009F918F913F912F910F900BBE0F900FBE04
:100840000F901F9018959093C5008093C40088E086
:100850008093C10086E08093C20010928F021092B4
:10086000900210928D0110928E01089520918E01B8
:100870002F5F90918D012917E1F3E22FF0E0E1570E
:10088000FE4F808320938E01E1ECF0E08081806256
:100890008083089520918E012F5F90918D012917FB
:1008A000E1F3E22FF0E0E157FE4F808320938E01C9
:1008B000E1ECF0E080818062808380E090E0089548
:1008C000CF93DF93EC018881882329F02196CEDF36
:1008D00089918111FCCFDF91CF9108951F920F92E2
:1008E0000FB60F9211240BB60F928F939F93EF9335
:1008F000FF9390918E0180918D01981761F0E091A6
:100900008D01EF5FE0938D01F0E0E157FE4F8081B4
:100910008093C60005C0E1ECF0E080818F7D80838C
:10092000FF91EF919F918F910F900BBE0F900FBE93
:100930000F901F9018959093CD008093CC0080E984
:100940008093C90086E08093CA00109293021092AF
:100950009402109291021092920208951F920F92A7
:100960000FB60F9211240BB60F922F933F938F93D4
:100970009F93AF93BF93CF93DF93EF93FF939091A8
:10098000CE00809194028F5F809394022091930215
:10099000E82FF0E0EA58FC4F90839A3029F59091C7
:1009A0007B039734E9F4E0E02E2F30E0D901AA5818
:1009B000BB4FE901CA58DC4F99819C93EF5F8E17BA
:1009C00098F7F0E0EA58FB4F1082E9ECF0E0808104
:1009D000108281E08093AA0295B182E0892785B9CF
:1009E0001092930210929402FF91EF91DF91CF91B8
:1009F000BF91AF919F918F913F912F910F900BBE1F
:100A00000F900FBE0F901F901895EE0FFF1F002440
:100A1000001C0BBE0790F691E02D0994CF93DF9355
:100A2000CDB7DEB7AE014B5F5F4FFA0161917191B7
:100A3000AF01809178059091790503D0DF91CF9136
:100A400008952F923F924F925F926F927F928F9272
:100A50009F92AF92BF92CF92DF92EF92FF920F934D
:100A60001F93CF93DF93CDB7DEB72B970FB6F894D4
:100A7000DEBF0FBECDBF6C017B018A01FC01178276
:100A80001682838181FFBFC1CE0101963C01F60130
:100A90009381F70193FD859193FF81917F018823D5
:100AA00009F4ADC1853239F493FD859193FF8191AD
:100AB0007F01853221F4B60190E0D6D1E8CF912CA8
:100AC000212C312CFFE1F315D8F08B3279F038F47A
:100AD000803279F08332A1F4232D20611DC08D3244
:100AE00061F0803369F4232D216016C0832D82606C
:100AF000382EE32DE4603E2E2AC0F32DF8601DC091
:100B000037FC2DC020ED280F2A3040F08E32B9F48A
:100B100036FC75C1232D2064322E19C036FE06C066
:100B20008AE0989E200D1124922E11C0EAE02E9E9C
:100B3000200D1124222EF32DF0623F2E08C08C369A
:100B400021F4832D8068382E02C0883641F4F701E5
:100B500093FD859193FF81917F018111B3CF982FF0
:100B60009F7D9554933028F40C5F1F4F9FE399832A
:100B70000DC0833631F0833771F0833509F055C0ED
:100B800020C0F801808189830E5F1F4F88248394E1
:100B9000912C530112C02801F2E04F0E511CF801B4
:100BA000A080B18036FE03C0692D70E002C06FEFF7
:100BB0007FEFC5014ED14C018201F32DFF773F2E0F
:100BC00015C0280122E0420E511CF801A080B1801E
:100BD00036FE03C0692D70E002C06FEF7FEFC501E4
:100BE0002DD14C01F32DF0683F2E820133FC19C04A
:100BF000822D90E088169906A0F4B60180E290E07C
:100C000033D12A94F5CFF50137FC859137FE8191D8
:100C10005F01B60190E028D121102A9421E0821AC8
:100C200091088114910479F7E1C0843611F0893676
:100C300039F5F80137FE07C06081718182819381A7
:100C40000C5F1F4F08C060817181072E000C880B5C
:100C5000990B0E5F1F4FF32DFF763F2E97FF09C0B4
:100C600090958095709561957F4F8F4F9F4FF0685D
:100C70003F2E2AE030E0A30133D1882E861844C0ED
:100C8000853731F4232D2F7EB22E2AE030E025C0A7
:100C9000932D997FB92E8F36C1F018F4883579F0ED
:100CA000AEC0803719F0883721F0A9C0E92FE06184
:100CB000BE2EB4FE0DC0FB2DF460BF2E09C034FE65
:100CC0000AC0292F2660B22E06C028E030E005C0F9
:100CD00020E130E002C020E132E0F801B7FE07C0B9
:100CE00060817181828193810C5F1F4F06C060819A
:100CF000718180E090E00E5F1F4FA301F1D0882E3C
:100D00008618FB2DFF773F2E36FE0DC0232D2E7F3C
:100D1000A22E891458F434FE0BC032FC09C0832D76
:100D20008E7EA82E05C0B82CA32C03C0B82C01C001
:100D3000B92CA4FE0FC0FE01E80DF11D80818033A7
:100D400021F49A2D997EA92E09C0A2FE06C0B39463
:100D5000B39404C08A2D867809F0B394A3FC10C024
:100D6000A0FE06C0B21480F4280C922C9B180DC073
:100D7000B21458F4B60180E290E076D0B394F8CF84
:100D8000B21418F42B1802C0982C212CA4FE0FC00A
:100D9000B60180E390E068D0A2FE16C0A1FC03C0BB
:100DA00088E790E002C088E590E0B6010CC08A2D8B
:100DB000867851F0A1FE02C08BE201C080E2A7FC60
:100DC0008DE2B60190E050D0891430F4B60180E392
:100DD00090E04AD09A94F8CF8A94F301E80DF11D7F
:100DE0008081B60190E040D08110F6CF222009F436
:100DF0004ECEB60180E290E037D02A94F7CFF601CC
:100E00008681978102C08FEF9FEF2B960FB6F894E3
:100E1000DEBF0FBECDBFDF91CF911F910F91FF902D
:100E2000EF90DF90CF90BF90AF909F908F907F908A
:100E30006F905F904F903F902F900895FC01059028
:100E4000615070400110D8F7809590958E0F9F1FCC
:100E50000895FC016150704001900110D8F7809511
:100E600090958E0F9F1F08950F931F93CF93DF933D
:100E7000FB01238121FD03C08FEF9FEF2CC022FFD8
:100E800016C046815781248135814217530744F4A7
:100E9000A081B1819D012F5F3F4F318320838C93CF
:100EA000268137812F5F3F4F3783268314C08B0104
:100EB000EC01FB010084F185E02D0995892BE1F619
:100EC000D80116968D919C911797019617969C9331
:100ED0008E931697CE01DF91CF911F910F910895B8
:100EE000FA01AA27283051F1203181F1E8946F935B
:100EF0006E7F6E5F7F4F8F4F9F4FAF4FB1E03ED001
:100F0000B4E03CD0670F781F891F9A1FA11D680F9E
:100F1000791F8A1F911DA11D6A0F711D811D911DD1
:100F2000A11D20D009F468943F912AE0269F112446
:100F30003019305D3193DEF6CF010895462F4770AA
:100F4000405D4193B3E00FD0C9F7F6CF462F4F7005
:100F5000405D4A3318F0495D31FD4052419302D063
:100F6000A9F7EACFB4E0A695979587957795679509
:100F7000BA95C9F700976105710508959B01AC0109
:100F80000A2E06945795479537952795BA95C9F730
:100F9000620F731F841F951FA01D0895A8E1B0E084
:100FA00042E050E002C0DC01CB01FC01F999FECF28
:100FB00006C0F2BDE1BDF89A319600B40D924150E1
:0A0FC0005040B8F70895F894FFCFF1
:100FCA0048656C6C6F20576F726C642121205468DD
:100FDA00652073657269616C20706F727420697321
:100FEA0020776F726B696E672100000000020000B3
:100FFA0000004A0400000000F80A5365636F6E643B
:10100A0073203D202575002573000A434F203D209B
:10101A002575000A48203D202575000A4E41203DCD
:10102A00202575000A434834203D202575000A4FC3
:08103A0033203D2025750A005A
:00000001FF
