:100000008EC00000A9C00000A7C00000A5C000006D
:10001000A3C00000A1C000009FC000009DC0000060
:100020009BC0000099C0000097C0000095C0000070
:1000300093C000000C94600B8FC000008DC00000C6
:100040000C945F0B89C0000087C0000085C00000D1
:1000500083C000000C94990C7FC000007DC000009C
:100060007BC0000079C000000C94CE0B75C000006E
:100070000C94D50C0C941D0D6FC00000E80B3A0CCD
:100080003A0C3A0C3A0C3A0C3A0C3A0CE80B3A0C93
:100090003A0C3A0C3A0C3A0C3A0C3A0CEA0B3A0C81
:1000A0003A0C3A0C3A0C3A0C3A0C3A0C3A0C3A0C20
:1000B0003A0C3A0C3A0C3A0C3A0C3A0CEA0B3A0C61
:1000C0003A0C3A0C3A0C3A0C3A0C3A0C3A0C3A0C00
:1000D0003A0C3A0C3A0C3A0C3A0C3A0C360C3A0CF4
:1000E0003A0C3A0C3A0C3A0C3A0C3A0C130C3A0C07
:1000F0003A0C3A0C3A0C3A0C3A0C3A0C3A0C3A0CD0
:100100003A0C3A0C3A0C3A0C3A0C3A0C070C3A0CF2
:100110003A0C3A0C3A0C3A0C3A0C3A0C250C1124D5
:100120001FBECFEFD8E0DEBFCDBF11E0A0E0B1E051
:10013000E2E1F3E202C005900D92AA3EB107D9F7C1
:1001400027E0AAEEB1E001C01D92A63DB207E1F79B
:100150000E942A0A0C94871153CFECE7F0E09081BB
:10016000907E90839081892B80830895CF93DF9335
:10017000ECE7F0E0808180648083CAE7D0E088818A
:100180008160888388818260888388818460888395
:10019000A4E6B0E08C918E7F8C9380818F7D8083EC
:1001A0008FE380937E0088818068888310927B0033
:1001B0008FE1D3DF888180648883EAE7F0E0808183
:1001C00084FFFDCFEAE7F0E0808180648083808156
:1001D00084FFFDCF8091780090E09093EB018093B5
:1001E000EA01909179002091EA013091EB01892F89
:1001F00090E0982F8827820F931F9093EB018093B4
:10020000EA018091EA019091EB0199231CF4919508
:100210008195910905972CF0809149048160809324
:1002200049048EE19ADFEAE7F0E080818064808310
:10023000808184FFFDCF8091780090E09093EB0166
:100240008093EA01909179002091EA013091EB01CD
:10025000892F90E0982F8827820F931F9093EB01AE
:100260008093EA018091EA019091EB01815E91090E
:100270009093EB018093EA018091EA019091EB0168
:1002800099231CF491958195910905972CF0809103
:100290004904826080934904EAE7F0E080818F7727
:1002A0008083DF91CF91089587E084B985B115B837
:1002B0002B9A389A399A409A419A089580E090E0B2
:1002C0002FEF33E0FC01EE0FFF1FEE0FFF1FE15E8B
:1002D000FB4F118210823383228301968530910572
:1002E00089F70895EF92FF920F931F93CF93DF93B7
:1002F0000F2EF9E0EF2EF4E0FF2EF02D00E010E0DD
:10030000C7010E947211E801CC0FDD1FCC0FDD1F69
:10031000C15EDB4F99838883C70102960E947211E8
:100320009B838A830F5F1F4F84E0E80EF11C05302A
:10033000110531F7DF91CF911F910F91FF90EF9051
:100340000895AF92BF92CF92DF92EF92FF920F93F8
:100350001F93CF93DF931F92CDB7DEB7109249045E
:1003600010923C04BFDFAADFEAE7F0E080818068FA
:10037000808319828981853008F051C00AE710E036
:100380000F2EF8E7EF2EF12CF02DBB24B394A12C07
:10039000CC24C394D12C8981E0DEF8018081806473
:1003A0008083F801808184FFFCCFF70180819181F7
:1003B000E981F0E0EE0FFF1FEE0FFF1FE15EFB4F44
:1003C00020813181E981F0E0EE0FFF1FEE0FFF1F6A
:1003D000E15EFB4F628173814B2D6817790708F04E
:1003E0004A2D411107C04B2D8217930708F04A2D63
:1003F000442371F09981209149049D5FA60102C0B8
:10040000440F551F9A95E2F7CA01822B8093490445
:1004100089818F5F89838981853008F4BCCFEAE7C1
:10042000F0E080818F7780830F90DF91CF911F91D3
:100430000F91FF90EF90DF90CF90BF90AF90089515
:100440008F929F92AF92BF92CF92DF92EF92FF92E4
:100450000F931F93CF93DF9300D01F92CDB7DEB7DA
:10046000EAE7F0E0808180688083198289818530A5
:1004700008F076C06894882482F8912C0AE710E08E
:100480000F2EF8E7EF2EF12CF02DCC24C394D12CB5
:10049000BB24B394A12C898160DE1B821A82282D93
:1004A000392DF801808180648083F801808184FF88
:1004B000FCCFF70180819181E981F0E0EE0FFF1F11
:1004C000EE0FFF1FE15EFB4F40815181E981F0E0BB
:1004D000EE0FFF1FEE0FFF1FE15EFB4F6281738186
:1004E000EB2D6817790708F0EA2DE11107C06B2D95
:1004F0008417950708F06A2D662371F05981609181
:1005000049045D5FF60102C0EE0FFF1F5A95E2F746
:10051000AF01462B409349044A815B81840F951FAC
:100520009B838A832150310909F0BBCF8A819B814B
:10053000E981F0E0EE0FFF1FE35CFB4F9C01992384
:1005400014F42D5F3F4F35952795359527953183C9
:10055000208389818F5F89838981853008F49BCFCF
:100560000F900F900F90DF91CF911F910F91FF90FF
:10057000EF90DF90CF90BF90AF909F908F900895B5
:100580001F93CF93DF93E0E5F4E084EC8083118246
:1005900084E0828363E0CF010E94830B0E947F0B83
:1005A0008111FCCFE0E5F4E084EC808381E081837D
:1005B00062E0CF010E94830B0E947F0B8111FCCF70
:1005C000C0E5D4E015EC1883198262E0CE010E94E8
:1005D000830B0E947F0B8111FCCF62E0CE010E9451
:1005E000AF0B8093600489818093610580FDEBCF20
:1005F000E0E5F4E084EC80838FE8818362E0CF0162
:100600000E94830B0E947F0B8111FCCFE0E5F4E098
:1006100085EC80831182128263E0CF010E94830BFC
:100620000E947F0B8111FCCF63E080E594E00E9483
:10063000AF0B80936004E0E5F4E0818190E0982FB7
:1006400088272281820F911DDF91CF911F910895FC
:10065000FF920F931F93CF93DF9380910001882324
:1006600059F1C1E6D4E00F2EFCEEFF2EF02D03EF82
:100670001DEEF882098362E0CE010E94830B0E9486
:100680007F0B8111FCCF18836AE1CE010E94830B9E
:100690000E947F0B8111FCCF6AE1CE010E94AF0B5B
:1006A00080936004898183FB882780F9809300010F
:1006B000809100018111DDCFE1E6F4E08CEE8083D2
:1006C00088E8818362E0CF010E94830B0E947F0B48
:1006D0008111FCCF8DEE809361046BE181E694E0A3
:1006E0000E94830B0E947F0B8111FCCF6BE181E69E
:1006F00094E00E94AF0B80936004E2E6F4E0AAE687
:10070000B5E02DE734E081918D93E217F307D9F737
:10071000EAE6F5E0818190E0982F88272081822BFE
:100720009093650580936405838190E0982F8827D6
:100730002281822B9093690580936805858190E0E2
:10074000982F88272481822B9093C7058093C60514
:10075000878190E0982F88272681822B9093BB0574
:100760008093BA05818590E0982F88272085822B79
:100770009093A1058093A005838590E0982F88270A
:100780002285822B9093BD058093BC05858590E0E2
:10079000982F88272485822B9093A3058093A20508
:1007A000878590E0982F88272685822B9093AE0529
:1007B0008093AD05818990E0982F88272089822B2E
:1007C0009093C9058093C805838990E0982F882766
:1007D0002289822B9093630580936205858990E03E
:1007E000982F88272489822B9093BF058093BE057C
:1007F000878990E0982F88272689822B9093C505BA
:100800008093C405818D90E0909397058093960521
:1008100081EE80937B04ECE7F4E0A4E8B5E023E804
:1008200034E081918D93E217F307D9F781E2809349
:10083000ED01EAE6F5E0838D90E0982F8827228D80
:10084000822B9093CB058093CA05848D90E0909382
:10085000C3058093C205268D229526952770858D28
:1008600030E1839FC0011124822B90936705809310
:10087000660580A120E1829FC0011124278D229569
:1008800026952770822B9093C1058093C00581A186
:1008900090E09093AC058093AB05DF91CF911F91D1
:1008A0000F91FF900895E1E6F4E08CEE808380EEF6
:1008B000818386EB828363E0CF0125D720D7811126
:1008C000FDCFE1E6F4E08CEE808380ED818362E091
:1008D000CF0119D714D78111FDCF8DEE809361041C
:1008E00062E081E694E00FD70AD78111FDCF62E084
:1008F00081E694E034D7809360048091620480366E
:1009000069F5E1E6F4E08CEE808382EF818381E09B
:10091000828363E0CF01F7D6F2D68111FDCFE1E605
:10092000F4E08CEE808385EF818380E1828363E055
:10093000CF01E9D6E4D68111FDCF8ADE81E3809331
:10094000A405E1E6F4E09CEE908394EF918382832A
:1009500063E0CF01D8D6D3D68111FDCF0895FF92A1
:100960000F931F93CF93DF9381E08093EC018091ED
:10097000EC01882331F1C1E6D4E00F2EFCEEFF2E0E
:10098000F02D03EF1DEEF882098362E0CE01BBD6A5
:10099000B6D68111FDCF188362E0CE01B4D6AFD6B2
:1009A0008111FDCF62E0CE01DAD6809360048981A7
:1009B00083FB882780F98093EC018091EC01811101
:1009C000E2CFE1E6F4E08CEE808387EF818362E0A2
:1009D000CF0199D694D68111FDCF8DEE809361041D
:1009E00069E081E694E08FD68AD68111FDCF69E077
:1009F00081E694E0B4D680936004E2E6F4E0AAE6EF
:100A0000B5E02AE634E081918D93E217F307D9F738
:100A1000EAE6F5E0818190E0A0E0B0E0880F991F60
:100A2000AA1FBB1F880F991FAA1FBB1F880F991FE2
:100A3000AA1FBB1F880F991FAA1FBB1F408150E030
:100A400060E070E0032E3CE0440F551F661F771FE7
:100A50003A95D1F7302D842B952BA62BB72B2281DD
:100A600022952F70822B8093B0059093B105A093AF
:100A7000B205B093B305848190E0A0E0B0E0880FA8
:100A8000991FAA1FBB1F880F991FAA1FBB1F880F82
:100A9000991FAA1FBB1F880F991FAA1FBB1F438145
:100AA00050E060E070E0032E3CE0440F551F661FED
:100AB000771F3A95D1F7302D842B952BA62BB72B8A
:100AC000258122952F70822B80939C0590939D0504
:100AD000A0939E05B0939F05868190E0A0E0B0E0D2
:100AE000BA2FA92F982F88272781822B8093B405AE
:100AF0009093B505A093B605B093B705E1E6F4E091
:100B00008CEE808384EF818381E3828363E0CF0175
:100B1000FAD5F5D58111FDCFDF91CF911F910F91BE
:100B2000FF9008958F929F92AF92BF92CF92DF92E3
:100B3000EF92FF9220916405309165056B017C0175
:100B4000689413F8F594E794D794C7941694D1F762
:100B5000C21AD30AE108F108DC01CB01689412F84B
:100B6000B595A795979587951694D1F7220F331FC2
:100B70004C015D01821A930AA108B108A5019401F4
:100B8000A0916805B0916905A0D74B015C01072EC3
:100B90007BE0B594A794979487947A95D1F7702DBC
:100BA000A7019601C701B60171D79B01AC01012EC7
:100BB0001CE055954795379527951A95D1F7102D37
:100BC000A091C605B091C70580D7DC01CB01072EE7
:100BD0007EE0B595A795979587957A95D1F7702D75
:100BE000880D991DAA1DBB1D8093CC059093CD0542
:100BF000A093CE05B093CF056C017D01CC0CDD1C1C
:100C0000EE1CFF1CCC0CDD1CEE1CFF1C8C0D9D1D76
:100C1000AE1DBF1D80589F4FAF4FBF4F692F7A2F1A
:100C20008B2F992787FD9A95FF90EF90DF90CF90BB
:100C3000BF90AF909F908F9008952F923F924F92C8
:100C40005F926F927F928F929F92AF92BF92CF925C
:100C5000DF92EF92FF920F931F93CF93DF93CDB765
:100C6000DEB76E970FB6F894DEBF0FBECDBF6E8BAA
:100C70007F8B888F998F8091CC059091CD05A09125
:100C8000CE05B091CF058C019D01145F2140310943
:100C900009831A832B833C83330F000B102F980199
:100CA0000D831E832F833887A980BA80CB80DC8098
:100CB000ED80FE2C0E2D1E2D2A2D3B2D4C2D5D2D55
:100CC000602F702F802F9E2D06D72D873E874F8750
:100CD000588B698B7A8B8B8B9C8B1091C8051A8FE4
:100CE0002091C9052E8F3091AD053B8F4091AE0507
:100CF0004D8F5091A2055C8F8091A3058D8B309113
:100D0000A1052091A005932F990F990BFE2C0E2D74
:100D10001E2D492F592F692F792F892FDCD60CE0F2
:100D2000FBD7422E532E642E752E862E972E282EFC
:100D3000392EB090BD05A090BC051B2D110F110BD5
:100D4000C12ED12EE12EF12E012F2D853E854F850E
:100D5000588969897A898B899C89BDD608E0F5D73D
:100D6000A42CB52CC62CD72CE82CF92C022D132D35
:100D70000E94C30E70588F4F9F4F2090BA0530903D
:100D8000BB05A22CB32CC12CD12CE12CF12C00E002
:100D900010E0A1D601E2D9D729873A874B87452EA3
:100DA000562E7C87382E292E652D832D922DA0E07E
:100DB000FCD709F46CC1AA8C1E8D110F110BBE8CCF
:100DC000C12ED12EE12EF12E012F2D853E854F858E
:100DD000588969897A898B899C897DD62D873E8738
:100DE000642E752E862E972E888B9F872B8D9D8D3A
:100DF000990F990BA980BA80CB80DC80ED80FE2C06
:100E00000E2D1E2D3D8D492F592F692F792F892F9A
:100E100062D601E181D7AD84BE84C62CD72CE82CE4
:100E2000F92C08891F85AFD7A22EB32EC42ED52E3C
:100E3000E62EF72EE82F192F80E090E0A0E1B0E039
:100E40002E893F89488D598D821B930BA40BB50BBE
:100E50003C014D01990C6608762C4301282F392F4F
:100E60004A2F5B2F662D762D862D962D0FE154D7B8
:100E7000822E932EF42F752EB62FA72F682E9D83CA
:100E80002C8D9D89990F990B3D89492F592F692FD9
:100E9000792F892F03E240D70E2F75D7A22EB32EBC
:100EA000C42ED52EE62EF72E082F192F282D392DDA
:100EB0004F2F572D6B2F7A2F862D9D816DD7822E28
:100EC000932E4983652EB62FA72FF82FE92F03E025
:100ED00023D7A82CB92CC980D62CEB2EFA2E0F2F95
:100EE0001E2F5AD7A22EB32EC42ED52EE62EF72EA5
:100EF000782E192F03E010D7072D4ED703E00CD71B
:100F0000A82CB92CC980D62CEB2EFA2E0F2F1E2F11
:100F100043D702E001D70F2F3FD701E0FDD60F2FB7
:100F20003BD7A984BA84CB84D42CE52CFC84032D34
:100F3000122D24D62E873D8749835D8369877A8762
:100F40008B879C870DE001D7822E932E742E652E01
:100F5000562E472E382E292E3091C5052091C405D6
:100F6000932F990F990BA82CB92CC72CD62CE52CB4
:100F7000F42C032D122D492F592F692F792F892FEA
:100F8000AAD5A22EB32EC42ED52EE62EF72E082FCC
:100F9000192F282D392D472D562D652D742D832D74
:100FA000922D99D509E1D1D6A22EB32EC42ED52EDD
:100FB000E62EF72E082F192F2E853D8549815D815C
:100FC00069857A858B859C85DED6222E332E442E2C
:100FD000552E662E772E882E992E3091BF052091A2
:100FE000BE05932F990F990BAE84BD84C980DD8017
:100FF000E984FA840B851C85492F592F692F792F95
:10100000892F69D503E1A1D6A22EB32EC42ED52EE9
:10101000E62EF72E082F192F222D332D442D552D76
:10102000662D772D882D992DAED608E08ED640906E
:10103000620550906305052C000C66087708440C87
:10104000551C661C771C440C551C661C771C440CF4
:10105000551C661C771C440C551C661C771C8301B0
:101060007201110FEE08FE2C8701E982FA820B83D0
:101070001C83A42CB52CC62CD72CE980FE2C0E2D5D
:101080001E2D81D6622F732F842F952F04C060E010
:1010900070E080E090E06E960FB6F894DEBF0FBE71
:1010A000CDBFDF91CF911F910F91FF90EF90DF9017
:1010B000CF90BF90AF909F908F907F906F905F90F8
:1010C0004F903F902F9008952F923F924F925F92B2
:1010D0006F927F928F929F92AF92BF92CF92DF9248
:1010E000EF92FF920F931F93CF93DF93CDB7DEB7AD
:1010F00067970FB6F894DEBF0FBECDBF2B013C0142
:101100008091CC059091CD05A091CE05B091CF05F1
:101110006C017D01FF0CCC08DC2C7601282F392FC7
:101120004A2F5B2F6C2D7C2D8C2D9C2D3C524140E9
:10113000510961097109810991092F8B3E8B4983FE
:1011400059876A877B878C879D87032E3EE0440CF6
:10115000551C661C771C3A95D1F7302D530142017E
:10116000BB0C8808982C54013091670520916605C6
:10117000932F990F990B492F592F692F792F892F69
:1011800004E1CAD5F22FE32FC42ED52EE62EF72E7A
:10119000082F192F242D352D462D572D682D782DEC
:1011A000882D982DAF2EBE2EF7D5222E332E442E0D
:1011B000552E662E772E882E992E3091C1052091BE
:1011C000C005932F990F990BAF88BE88C980D98429
:1011D000EA84FB840C851D85492F592F692F792FAF
:1011E000892F79D4A22EB32EC42ED52EE62EF72E1B
:1011F000082F192F222D332D442D552D662D772D97
:10120000882D992DC9D5305C4F4F5F4F6F4F7F4F61
:101210008F4F9F4F0FE099D52E873F87488B598B73
:101220006A8B7B8B8C8B9D8B3091AC052091AB05B1
:10123000932F990F990BAF88BE88C980D984EA840F
:10124000FB840C851D85492F592F692F792F892FF4
:1012500042D40AE07AD5822E932E742E652E562E15
:10126000472E382E292E4091C2055091C3050C857A
:10127000242F352F40E050E060E070E080E090E007
:101280002AD40BE062D530584F4F5F4F6F4F7F4FDE
:101290008F4F9F4FA22EB32EC42ED52EE62EF72EA3
:1012A000082F192F282D392D472D562D652D742DDA
:1012B000832D922D10D40AE048D5405E5F4F6F4FCA
:1012C0007F4F8F4F9F4FB090CB05A090CA051B2D2D
:1012D000110F110BC12ED12EE12EF12E012FFBD3B8
:1012E000305E4F4F5F4F6F4F7F4F8F4F9F4F0EE0DE
:1012F0002CD5A22EB32EC42ED52EE62EF72E082FD7
:10130000192F2E853F85488959896A897B898C895F
:101310009D89E1D3422E532E642E752E862E972E54
:10132000282E392E0FE011D5A22EB32EC42ED52E85
:10133000E62EF72E082F192FCED307E006D5E09121
:101340009605F09197055F01C12CD12CE12CF12C71
:101350008701E983BA82CB82DC82ED82FE820F8331
:101360001887C12CD12CE12CF12C00E010E0B3D374
:1013700004E0EBD4A22EB32EC42ED52EE62EF72EEB
:10138000082F192F242D352D462D572D682D792DF9
:10139000822D932D01D5F22E032F142F652E762E3C
:1013A000B72FF82FE92FA0E000D544F4F12C00E08E
:1013B00010E0612C712CB0E0F0E0E0E08F2C902E7A
:1013C000A12EB62CC72CDB2EEF2EAE2F2F2D302FBB
:1013D000412F562D672D7B2F8F2F9E2F21153105E5
:1013E00041055941610571058105910561F05CF088
:1013F000812C912CA12C0F2EF9E1BF2EF02DC12CA8
:10140000D12CE12CA0E0282D392D4A2D5B2D6C2DFF
:101410007D2D8E2D9A2F0CE098D4622F732F842F60
:10142000952F67960FB6F894DEBF0FBECDBFDF9144
:10143000CF911F910F91FF90EF90DF90CF90BF90D1
:10144000AF909F908F907F906F905F904F903F9064
:101450002F9008950E9454011092B9051092B8057A
:1014600010921E048BE291E09093D3078093D207F1
:1014700019D181E890E012D281E890E083D235D191
:101480000E94B6000E94A10178940DDA81E091E0FB
:1014900042D22FE784E89EE1215080409040E1F75E
:1014A00000C000008AE391E09F938F9399D40F903E
:1014B0000F900F2EFEE3AF2EF1E0BF2EF02DC4E013
:1014C000D7E00F2EFEE4CF2EF1E0DF2EF02D0DE35E
:1014D00014E00F2EF3E6EF2EF1E0FF2EF02D0F2E8D
:1014E000F9E76F2EF1E07F2EF02D0F2EF8E84F2E4A
:1014F000F1E05F2EF02D0F2EF6E92F2EF1E03F2EBA
:10150000F02D80911E048130E1F710921E0480912D
:10151000B8059091B90501969093B9058093B805E7
:101520008091B8059091B9059F938F93BF92AF9228
:1015300057D40F2EF0ED8F2EF6E09F2EF02D0F904A
:101540000F900F900F90D4018D914D01BAD18C1650
:101550009D06C9F715D880933804909339049F935A
:101560008F93DF92CF923CD40E942002F8018181B8
:101570008F9380818F93FF92EF9232D4D80113968C
:101580008C9113978F9312968C918F937F926F9279
:1015900027D4F80185818F9384818F935F924F9236
:1015A0001FD4D80117968C9117978F9316968C910C
:1015B0008F933F922F9214D4F80181858F93808569
:1015C0008F93A4EAB1E0BF93AF930AD4C8D96091D6
:1015D0009C0570919D0580919E0590919F05A2DAD2
:1015E000609392057093930580939405909395056D
:1015F0009F938F937F936F93A1EBB1E0BF93AF93D2
:10160000EFD36091B0057091B1058091B2059091D2
:10161000B30513DB6093A5057093A6058093A7051A
:101620009093A8059B01AC01992324F421503F4FCE
:101630004F4F5F4FBB2757FDBA95A52F942F832F90
:10164000BF93AF939F938F93A1ECB1E0BF93AF9300
:10165000C7D38DB79EB784960FB6F8949EBF0FBEC2
:101660008DBF6091B4057091B5058091B6059091DC
:10167000B7052ADD609398057093990580939A05C4
:1016800090939B059F938F937F936F93A8EDB1E009
:10169000BF93AF93A5D30F900F900F900F900F9023
:1016A0000F902FCF8DE0809381008AE49CE490938B
:1016B00089008093880082E080936F0008951895D8
:1016C0001F920F920FB60F9211248F939F9395B193
:1016D00082E0892785B981E080931E049F918F91D4
:1016E0000F900FBE0F901F90189581E18093B80066
:1016F0008FEF8093BB0084E08093BC0008958091BD
:10170000BC0081780895CF93DF93EC01ECEBF0E01F
:1017100090819178E9F76093F00188818093F101DD
:1017200080FD12C0623080F0FE013196A2EFB1E080
:101730006250262F30E02E5F3F4F2C0F3D1F9191BE
:101740009D93E217F307D9F71092EF0188EF80938A
:10175000390185EA8093BC00DF91CF910895AC01F7
:10176000ECEBF0E090819178E9F78091EF0180FF58
:1017700011C0662379F0A1EFB1E0FA016150262F84
:1017800030E02F5F3F4F240F351F9D919193E2175B
:10179000F307D9F78091EF01817008951F920F929E
:1017A0000FB60F9211242F933F938F939F93AF9374
:1017B000BF93EF93FF93E091B9008E2F90E0FC016F
:1017C0003897E135F10508F055C0E25CFF4F6DC177
:1017D0001092EE01E091EE018091F001E81770F4B3
:1017E00081E08E0F8093EE01F0E0EF50FE4F80819C
:1017F0008093BB0085E88093BC0043C08091EF01DB
:1018000081608093EF0184E98093BC003AC0E0914D
:10181000EE0181E08E0F8093EE018091BB00F0E03D
:10182000EF50FE4F80832091EE0130E08091F00177
:1018300090E001972817390724F485EC8093BC00C9
:1018400020C085E88093BC001CC08091BB00E09163
:10185000EE01F0E0EF50FE4F80838091EF01816058
:101860008093EF0184E98093BC000BC085EA8093EC
:10187000BC0007C08091B9008093390184E0809357
:10188000BC00FF91EF91BF91AF919F918F913F91DC
:101890002F910F900FBE0F901F9018959093C50039
:1018A0008093C40088E98093C1008EE08093C200D9
:1018B000109203031092040310920102109202028C
:1018C0000895209102022F5F909101022917E1F300
:1018D000E22FF0E0ED5FFD4F808320930202E1EC08
:1018E000F0E08081806280830895209102022F5F62
:1018F000909101022917E1F3E22FF0E0ED5FFD4F37
:10190000808320930202E1ECF0E08081806280839A
:1019100080E090E00895CF93DF93EC0188818823E5
:1019200029F02196CEDF89918111FCCFDF91CF91F3
:1019300008951F920F920FB60F9211248F939F93C9
:10194000EF93FF939091020280910102981761F04A
:10195000E0910102EF5FE0930102F0E0ED5FFD4FE7
:1019600080818093C60005C0E1ECF0E080818F7D2E
:101970008083FF91EF919F918F910F900FBE0F90F9
:101980001F9018959093CD008093CC0088E98093A8
:10199000C90086E08093CA001092070410920804E0
:1019A000109205031092060308951F920F920FB62E
:1019B0000F9211242F933F938F939F93AF93BF93D5
:1019C000CF93DF93EF93FF939091CE008091080423
:1019D0008F5F8093080420910704E82FF0E0E05324
:1019E000FA4F90839A30D1F49091D5059C3491F4BC
:1019F000E0E02E2F30E0D901A053B94FE901C053E8
:101A0000DA4F98819C93EF5F8E1798F7F0E0E053E0
:101A1000F94F11821092070410920804FF91EF9180
:101A2000DF91CF91BF91AF919F918F913F912F9176
:101A30000F900FBE0F901F9018951F920F920FB628
:101A40000F9211248F939F93EF93FF93909106032E
:101A500080910503981761F0E0910503EF5FE09333
:101A60000503F0E0E95FFC4F80818093CE0005C064
:101A7000E9ECF0E080818F7D8083FF91EF919F9171
:101A80008F910F900FBE0F901F901895DB018F93D1
:101A90009F9311D0BF91AF91A29F800D911DA39FE5
:101AA000900DB29F900D11240895EE0FFF1F059029
:101AB000F491E02D099485D1A59F900DB49F900DD0
:101AC000A49F800D911D11240895B7FFF4CFF3DF7B
:101AD000821B930B0895DF93CF931F930F939A9DCF
:101AE000F02D219FF00D8B9DF00D8A9DE02DF10DC5
:101AF000039FF00D029FE00DF11D4E9DE00DF11DC5
:101B00005E9DF00D4F9DF00D7F936F93BF92AF924E
:101B10005F934F93D50155D18B01AC01D70151D1C2
:101B2000EB01E80FF91FD6011FD02F913F91D6018D
:101B300048D1C60FD71FE81FF91FAF91BF9114D02E
:101B40002F913F913ED1C60FD71FE81FF91FD60135
:101B500038D1E60FF71F9801BE01CF0111240F9174
:101B60001F91CF91DF9108952CD1460F571FC81FA9
:101B7000D91F08F431960895689401C0E894F92FAC
:101B8000F12B0AF027C0A0E0B0E0E8ECFDE093C044
:101B9000092E05941AF479D0112392F4F0E80F2657
:101BA000FFEFE094F09400951095B094C094D09419
:101BB000A194BF0ACF0ADF0AEF0AFF0A0F0B1F0B1F
:101BC00013D007FC62D0CDB7DEB7ECE090C06894CC
:101BD00001C0E8948F929F92CF93DF9305D0DF915D
:101BE000CF919F908F90089588249924F401E40167
:101BF000B0E49F93AA279A158B049C04ED05FE057B
:101C0000CF05D007A10798F4AD2FDC2FCF2FFE2FE3
:101C1000E92D982C892E982F872F762F652F542FFA
:101C2000432F322F2227B85031F7BF9127C01B2EE8
:101C3000BF91BB27220F331F441F551F661F771FFD
:101C4000881F991F881C991CEE1FFF1FCC1FDD1FCA
:101C5000AA1FBB1F8A149B04EC05FD05CE05DF05FA
:101C6000A007B10748F08A189B08EC09FD09CE09C6
:101C7000DF09A00BB10B21601A94E1F62EF4940158
:101C8000AF01BE01CD01000C08956095709580955F
:101C9000909530954095509521953F4F4F4F5F4F10
:101CA0006F4F7F4F8F4F9F4F08952F923F924F92CC
:101CB0005F926F927F928F929F92AF92BF92CF92DC
:101CC000DF92EF92FF920F931F93CF93DF93CDB7E5
:101CD000DEB7CA1BDB0B0FB6F894DEBF0FBECDBF5D
:101CE00009942A88398848885F846E847D848C842E
:101CF0009B84AA84B984C884DF80EE80FD800C8137
:101D00001B81AA81B981CE0FD11D0FB6F894DEBF19
:101D10000FBECDBFED0108950F93083090F0982FBE
:101D2000872F762F652F542F432F322F22270850CD
:101D3000F4CF220F331F441F551F661F771F881FC4
:101D4000991F0A95B2F70F91089597FB10F8169412
:101D500000080F93083098F00850232F342F452F98
:101D6000562F672F782F892F902DF4CF05949795B4
:101D700087957795679557954795379527950A9550
:101D8000AAF70F9108952A0D3B1D4C1D5D1D6E1D78
:101D90007F1D801F911F08952A193B094C095D0979
:101DA0006E097F09800B910B08950024A7FD009414
:101DB0002A1730054005500560057005800590051F
:101DC0000895A29FB001B39FC001A39F700D811D14
:101DD0001124911DB29F700D811D1124911D089534
:101DE000A0E0B0E0E5EFFEE070CFAE014B5F5F4FEB
:101DF000FA0161917191AF018091D2079091D3075F
:101E000002D0E2E07ECFACE0B0E0E8E0FFE04DCF12
:101E10007C016B018A01FC0117821682838181FF9C
:101E2000B0C1CE0101964C01F7019381F60193FDFB
:101E3000859193FF81916F01882309F49EC18532BA
:101E400039F493FD859193FF81916F01853221F4DF
:101E5000B70190E0B1D1E8CF512C312C20E02032F5
:101E6000A0F48B3269F030F4803259F0833269F497
:101E700020612CC08D3239F0803339F4216026C0C6
:101E80002260246023C0286021C027FD27C030EDD8
:101E9000380F3A3078F426FF06C0FAE05F9E300D26
:101EA0001124532E13C08AE0389E300D1124332E96
:101EB00020620CC08E3221F426FD5FC1206406C072
:101EC0008C3611F4206802C0883641F4F60193FD87
:101ED000859193FF81916F018111C1CF982F9F7DD3
:101EE0009554933028F40C5F1F4FFFE3F9830DC026
:101EF000833631F0833771F0833509F057C021C044
:101F0000F801808189830E5F1F4F44244394512C34
:101F1000540114C03801F2E06F0E711CF801A0806A
:101F2000B18026FF03C0652D70E002C06FEF7FEF28
:101F3000C5012C8736D12C0183012C852F77222EC9
:101F400016C03801F2E06F0E711CF801A080B1805C
:101F500026FF03C0652D70E002C06FEF7FEFC50163
:101F60002C8714D12C012C852068222E830123FC80
:101F700019C0832D90E048165906A0F4B70180E2FD
:101F800090E01AD13A94F5CFF50127FC859127FE10
:101F900081915F01B70190E00FD131103A94F1E0E7
:101FA0004F1A51084114510479F7DEC0843611F0FC
:101FB000893631F5F80127FF07C060817181828180
:101FC00093810C5F1F4F08C060817181072E000C48
:101FD000880B990B0E5F1F4F2F76722E97FF09C04B
:101FE00090958095709561957F4F8F4F9F4F20689A
:101FF000722E2AE030E0A40117D1A82EA81843C001
:10200000853729F42F7EB22E2AE030E025C0F22F4A
:10201000F97FBF2E8F36C1F018F4883579F0ADC046
:10202000803719F0883721F0A8C02F2F2061B22EF9
:10203000B4FE0DC08B2D8460B82E09C024FF0AC0E9
:102040009F2F9660B92E06C028E030E005C020E141
:1020500030E002C020E132E0F801B7FE07C0608145
:102060007181828193810C5F1F4F06C060817181F5
:1020700080E090E00E5F1F4FA401D6D0A82EA818D4
:10208000FB2DFF777F2E76FE0BC0372D3E7FA514EC
:1020900050F474FE0AC072FC08C0372D3E7E05C0A5
:1020A000BA2C372D03C0BA2C01C0B52C34FF0DC09B
:1020B000FE01EA0DF11D8081803311F4397E09C0E3
:1020C00032FF06C0B394B39404C0832F867809F01E
:1020D000B39433FD12C030FF06C05A2CB31418F469
:1020E000530C5B18B32CB31460F4B70180E290E09A
:1020F0003C8762D0B3943C85F6CFB31410F43B1800
:1021000001C0312C34FF11C0B70180E390E03C875F
:1021100053D03C8532FF16C031FD03C088E790E004
:1021200002C088E590E0B7010CC0832F867851F09B
:1021300031FF02C08BE201C080E237FD8DE2B701C2
:1021400090E03AD0A51430F4B70180E390E034D0A9
:102150005A94F8CFAA94F401EA0DF11D8081B701D9
:1021600090E02AD0A110F6CF332009F45DCEB7015C
:1021700080E290E021D03A94F7CFF70186819781F1
:1021800002C08FEF9FEF2C96E2E1ABCDFC010590F2
:10219000615070400110D8F7809590958E0F9F1F69
:1021A0000895FC016150704001900110D8F78095AE
:1021B00090958E0F9F1F08950F931F93CF93DF93DA
:1021C000FB01238121FD03C08FEF9FEF28C022FF79
:1021D00016C046815781248135814217530744F444
:1021E000A081B1819D012F5F3F4F318320838C936C
:1021F000268137812F5F3F4F3783268310C0EB0145
:10220000092F182F0084F185E02D0995892BE1F61F
:102210008E819F8101969F838E83812F902FDF91E6
:10222000CF911F910F910895FA01AA27283051F1FB
:10223000203181F1E8946F936E7F6E5F7F4F8F4FF7
:102240009F4FAF4FB1E03ED0B4E03CD0670F781F56
:10225000891F9A1FA11D680F791F8A1F911DA11D3B
:102260006A0F711D811D911DA11D20D009F4689474
:102270003F912AE0269F11243019305D3193DEF61C
:10228000CF010895462F4770405D4193B3E00FD0D2
:10229000C9F7F6CF462F4F70405D4A3318F0495DBD
:1022A00031FD4052419302D0A9F7EACFB4E0A695A0
:1022B0009795879577956795BA95C9F700976105C2
:1022C000710508959B01AC010A2E06945795479518
:1022D00037952795BA95C9F7620F731F841F951F0D
:1022E000A01D0895A8E1B0E042E050E002C0DC018A
:1022F000CB01FC01F999FECF06C0F2BDE1BDF89A11
:10230000319600B40D9241505040B8F70895F894BA
:02231000FFCFFD
:102312000148656C6C6F20576F726C6421212054E8
:1023220068652073657269616C20706F72742069D0
:102332007320776F726B696E6721000000000200E4
:10234200000000750C00000000F8686920000A53C4
:1023520065636F6E6473203D202575200A000A4C68
:10236200494441522064697374616E6365203D2063
:102372002575000A436172626F6E204D6F6E6F7831
:10238200696465203D202575000A487964726F678B
:10239200656E203D202575000A416D6D6F6E696185
:1023A200203D202575000A4D657468616E65203DEB
:1023B200202575000A4F7A6F6E65203D2025750A2B
:1023C200000A43656C73697573203D20256C750A9C
:1023D200000A507265737375726520696E205061D0
:1023E200203D20256C750A000A2048756D696469D4
:0A23F2007479203D20256C750A0067
:00000001FF
