S01F000043616E61727920536F667477617265205061636B6167652E7372656370
S113000096C00000B3C00000B1C00000AFC0000043
S1130010ADC00000ABC00000A9C00000A7C0000034
S1130020A5C00000A3C00000A1C000009FC0000044
S11300309DC000000C94283A99C0000097C00000AD
S11300400C94273A93C0000091C000008FC00000B8
S11300508DC000000C94463B89C0000087C000009E
S113006085C0000083C000000C94963A7FC0000055
S11300700C94883B7BC0000079C0000077C000006E
S113008075C0000073C0000071C00000B23A043BA8
S1130090043B043B043B043B043B043BB23A043BB7
S11300A0043B043B043B043B043B043BB43A043BA5
S11300B0043B043B043B043B043B043B043B043B44
S11300C0043B043B043B043B043B043BB43A043B85
S11300D0043B043B043B043B043B043B043B043B24
S11300E0043B043B043B043B043B043B003B043B18
S11300F0043B043B043B043B043B043BDD3A043B2C
S1130100043B043B043B043B043B043B043B043BF3
S1130110043B043B043B043B043B043BD13A043B17
S1130120043B043B043B043B043B043BEF3A1124F3
S11301301FBECFEFD0E4DEBFCDBF12E0A0E0B1E040
S1130140E8ECF0E800E00BBF02C007900D92AE327D
S1130150B107D9F726E0AEE2B2E001C01D92A9359D
S1130160B207E1F70E9495380C9462400C94123A5D
S1130170ECE7F0E09081907E90839081892B8083DE
S11301800895CF93DF93ECE7F0E08081806480836F
S1130190CAE7D0E08881816088838881826088830F
S11301A0888184608883A4E6B0E08C918E7F8C93F0
S11301B080818F7D80838FE380937E008881806837
S11301C0888310927B008FE1D3DF888180648883E9
S11301D0EAE7F0E0808184FFFDCFEAE7F0E0808188
S11301E080648083808184FFFDCF8091780090E0DB
S11301F090932F0280932E029091790020912E02E9
S113020030912F02892F90E0982F8827820F931F17
S113021090932F0280932E0280912E0290912F02B0
S113022099231CF491958195910905972CF080915F
S11302301E04816080931E048EE19ADFEAE7F0E0F9
S1130240808180648083808184FFFDCF80917800E9
S113025090E090932F0280932E0290917900209148
S11302602E0230912F02892F90E0982F8827820F39
S1130270931F90932F0280932E0280912E029091CF
S11302802F02815E910990932F0280932E02809118
S11302902E0290912F0299231CF491958195910936
S11302A005972CF080911E04826080931E04EAE777
S11302B0F0E080818F778083DF91CF910895FF9262
S11302C00F931F93CF93DF9380910001882359F1FB
S11302D0C7E6D3E00F2EFCEEFF2EF02D03EF1DEE4C
S11302E0F882098362E0CE010E944B3A0E94473AA9
S11302F08111FCCF18836AE1CE010E944B3A0E941F
S1130300473A8111FCCF6AE1CE010E94773A80938B
S11303104D04898183FB882780F9809300018091B3
S113032000018111DDCFE7E6F3E08CEE808388E8FD
S1130330818362E0CF010E944B3A0E94473A8111C7
S1130340FCCF8DEE809367036BE187E693E00E9418
S11303504B3A0E94473A8111FCCF6BE187E693E068
S11303600E94773A80934D04C8E6D3E003E913E092
S113037023E833E0D801FE0181918D93E217F3075E
S1130380D9F78BE180933102E3E9F3E0818190E0D6
S1130390982F88272081822B90936603809365038E
S11303A0838190E0982F88272281822B9093920357
S11303B080939103858190E0982F88272481822B54
S11303C09093320480933104878190E0982F88279A
S11303D02681822B9093200480931F04818590E0D2
S11303E0982F88272085822B9093D9038093D80354
S11303F0838590E0982F88272285822B909322046E
S113040080932104858590E0982F88272485822B6A
S11304109093DB038093DA03878590E0982F8827F5
S11304202685822B9093FB038093FA03818990E0C5
S1130430982F88272089822B909334048093330447
S1130440838990E0982F88272289822B90936403D4
S113045080936303858990E0982F88272489822BD1
S11304609093240480932304878990E0982F88270D
S11304702689822B9093300480932F04818D90E001
S11304809093C2038093C103E7E6F3E08CEE80838C
S113049081EE818362E0CF010E944B3A0E94473A89
S11304A08111FCCF8DEE8093670368E087E693E0CB
S11304B00E944B3A0E94473A8111FCCF68E087E6DC
S11304C093E00E94773A80934D042FE633E08991BC
S11304D0F80181938F01C217D307C9F787E080938E
S11304E03102E3E9F3E0828190E0982F88272181AB
S11304F0822B9093360480933504838190E090930B
S11305002A0480932904858182958695877090E0DA
S1130510248140E1249F90011124282B392B30930E
S1130520900320938F03268140E1249F900111249E
S1130530822B932B9093270480932604878190E049
S11305409093E8038093E703DF91CF911F910F917C
S1130550FF900895E7E6F3E08CEE808380EE8183DC
S113056086EB828363E0CF010E944B3A0E94473AB4
S11305708111FCCFE7E6F3E08CEE808380ED81838C
S113058062E0CF010E944B3A0E94473A8111FCCFAE
S11305908DEE8093670362E087E693E00E944B3A16
S11305A00E94473A8111FCCF62E087E693E00E9403
S11305B0773A80934D0480916803803699F5E7E695
S11305C0F3E08CEE808382EF818381E0828363E0B9
S11305D0CF010E944B3A0E94473A8111FCCFE7E6D3
S11305E0F3E08CEE808385EF818380E1828363E096
S11305F0CF010E944B3A0E94473A8111FCCF5FDE43
S113060081E38093DC03E7E6F3E09CEE908394EFD0
S11306109183828363E0CF010E944B3A0E94473A60
S11306208111FCCF0895FF920F931F93CF93DF9313
S113063081E08093300280913002882359F1C7E62B
S1130640D3E00F2EFCEEFF2EF02D03EF1DEEF8820B
S1130650098362E0CE010E944B3A0E94473A81111D
S1130660FCCF188362E0CE010E944B3A0E94473AC5
S11306708111FCCF62E0CE010E94773A80934D0451
S1130680898183FB882780F980933002809130022E
S11306908111DDCFE7E6F3E08CEE808387EF818381
S11306A062E0CF010E944B3A0E94473A8111FCCF8D
S11306B08DEE8093670369E087E693E00E944B3AEE
S11306C00E94473A8111FCCF69E087E693E00E94DB
S11306D0773A80934D04E8E6F3E0A3E9B3E020E73A
S11306E033E081918D93E217F307D9F7E3E9F3E05F
S11306F0818190E0A0E0B0E0880F991FAA1FBB1F82
S1130700880F991FAA1FBB1F880F991FAA1FBB1F01
S1130710880F991FAA1FBB1F408150E060E070E062
S1130720032E3CE0440F551F661F771F3A95D1F7FF
S1130730302D842B952BA62BB72B228122952F703D
S1130740822B8093FC039093FD03A093FE03B0934C
S1130750FF03848190E0A0E0B0E0880F991FAA1FF6
S1130760BB1F880F991FAA1FBB1F880F991FAA1FA1
S1130770BB1F880F991FAA1FBB1F438150E060E075
S113078070E0032E3CE0440F551F661F771F3A9517
S1130790D1F7302D842B952BA62BB72B25812295B1
S11307A02F70822B8093C4039093C503A093C60338
S11307B0B093C703868190E0A0E0B0E0BA2FA92FE0
S11307C0982F88272781822B80930004909301041B
S11307D0A0930204B0930304E7E6F3E08CEE808375
S11307E084EF818381E3828363E0CF010E944B3AEB
S11307F00E94473A8111FCCFDF91CF911F910F9155
S1130800FF9008958F929F92AF92BF92CF92DF9202
S1130810EF92FF9220916503309166036B017C0196
S1130820689413F8F594E794D794C7941694D1F781
S1130830C21AD30AE108F108DC01CB01689412F86A
S1130840B595A795979587951694D1F7220F331FE1
S11308504C015D01821A930AA108B108A501940113
S1130860A0919103B09192030E94153C4B015C014D
S1130870072E7BE0B594A794979487947A95D1F743
S1130880702DA7019601C701B6010E94DF3B9B01B1
S1130890AC01012E1CE055954795379527951A957F
S11308A0D1F7102DA0913104B09132040E94153C6F
S11308B0DC01CB01072E7EE0B595A795979587952A
S11308C07A95D1F7702D880D991DAA1DBB1D8093B3
S11308D0370490933804A0933904B0933A046C011C
S11308E07D01CC0CDD1CEE1CFF1CCC0CDD1CEE1CB5
S11308F0FF1C8C0D9D1DAE1DBF1D80589F4FAF4F1B
S1130900BF4F692F7A2F8B2F992787FD9A95FF90D8
S1130910EF90DF90CF90BF90AF909F908F9008950D
S11309202F923F924F925F926F927F928F929F92FB
S1130930AF92BF92CF92DF92EF92FF920F931F93E9
S1130940CF93DF93CDB7DEB76E970FB6F894DEBFC3
S11309500FBECDBF6E8B7F8B888F998F80913704AC
S113096090913804A0913904B0913A048C019D010E
S1130970145F2140310909831A832B833C83330F8D
S1130980000B102F98010D831E832F833887A980B5
S1130990BA80CB80DC80ED80FE2C0E2D1E2D2A2DFE
S11309A03B2D4C2D5D2D602F702F802F9E2D0E948E
S11309B01B3C2D873E874F87588B698B7A8B8B8B9B
S11309C09C8B109133041A8F209134042E8F309114
S11309D0FA033B8F4091FB034D8F5091DA035C8FF8
S11309E08091DB038D8B3091D9032091D803932F11
S11309F0990F990BFE2C0E2D1E2D492F592F692F5F
S1130A00792F892F0E941B3C0CE00E943C3D422E12
S1130A10532E642E752E862E972E282E392EB090A6
S1130A202204A09021041B2D110F110BC12ED12ED5
S1130A30E12EF12E012F2D853E854F855889698938
S1130A407A898B899C890E941B3C08E00E94553D51
S1130A50A42CB52CC62CD72CE82CF92C022D132D44
S1130A600E94733D70588F4F9F4F20901F04309009
S1130A702004A22CB32CC12CD12CE12CF12C00E0AD
S1130A8010E00E941B3C01E20E94553D29873A87F1
S1130A904B87452E562E7C87382E292E652D832D87
S1130AA0922DA0E00E94853D09F489C1AA8C1E8D77
S1130AB0110F110BBE8CC12ED12EE12EF12E012F60
S1130AC02D853E854F85588969897A898B899C89CA
S1130AD00E941B3C2D873E87642E752E862E972EF2
S1130AE0888B9F872B8D9D8D990F990BA980BA8038
S1130AF0CB80DC80ED80FE2C0E2D1E2D3D8D492FEC
S1130B00592F692F792F892F0E941B3C01E10E94E4
S1130B103C3DAD84BE84C62CD72CE82CF92C088926
S1130B201F850E94733DA22EB32EC42ED52EE62E11
S1130B30F72EE82F192F80E090E0A0E1B0E02E8995
S1130B403F89488D598D821B930BA40BB50B3C0137
S1130B504D01990C6608762C4301282F392F4A2F12
S1130B605B2F662D762D862D962D0FE10E943C3D40
S1130B70822E932EF42F752EB62FA72F682E9D83C9
S1130B802C8D9D89990F990B3D89492F592F692FD8
S1130B90792F892F03E20E943C3D0E2F0E94733D62
S1130BA0A22EB32EC42ED52EE62EF72E082F192FE3
S1130BB0282D392D4F2F572D6B2F7A2F862D9D8160
S1130BC00E947C3D822E932E4983652EB62FA72F3B
S1130BD0F82FE92F03E00E943C3DA82CB92CC980D2
S1130BE0D62CEB2EFA2E0F2F1E2F0E947C3DA22E08
S1130BF0B32EC42ED52EE62EF72E782E192F03E011
S1130C000E943C3D072D0E947C3D03E00E943C3D38
S1130C10A82CB92CC980D62CEB2EFA2E0F2F1E2F00
S1130C200E947C3D02E00E943C3D0F2F0E947C3DCF
S1130C3001E00E943C3D0F2F0E947C3DA984BA84B0
S1130C40CB84D42CE52CFC84032D122D0E946E3C05
S1130C502E873D8749835D8369877A878B879C8745
S1130C600DE00E94553D822E932E742E652E562E35
S1130C70472E382E292E3091300420912F04932FA3
S1130C80990F990BA82CB92CC72CD62CE52CF42C35
S1130C90032D122D492F592F692F792F892F0E9447
S1130CA01B3CA22EB32EC42ED52EE62EF72E082FD3
S1130CB0192F282D392D472D562D652D742D832D53
S1130CC0922D0E941B3C09E10E94553DA22EB32E99
S1130CD0C42ED52EE62EF72E082F192F2E853D85EE
S1130CE049815D8169857A858B859C850E94733DE8
S1130CF0222E332E442E552E662E772E882E992E94
S1130D003091240420912304932F990F990BAE84DE
S1130D10BD84C980DD80E984FA840B851C85492F54
S1130D20592F692F792F892F0E941B3C03E10E94C0
S1130D30553DA22EB32EC42ED52EE62EF72E082F07
S1130D40192F222D332D442D552D662D772D882DC9
S1130D50992D0E94733D08E00E94553D4090630325
S1130D6050906403052C000C66087708440C551C4D
S1130D70661C771C440C551C661C771C440C551CC3
S1130D80661C771C440C551C661C771C830172017D
S1130D90110FEE08FE2C8701E982FA820B831C8373
S1130DA0A42CB52CC62CD72CE980FE2C0E2D1E2D80
S1130DB00E94733D622F732F842F952F04C060E02F
S1130DC070E080E090E06E960FB6F894DEBF0FBE40
S1130DD0CDBFDF91CF911F910F91FF90EF90DF90E6
S1130DE0CF90BF90AF909F908F907F906F905F90C7
S1130DF04F903F902F9008952F923F924F925F9281
S1130E006F927F928F929F92AF92BF92CF92DF9216
S1130E10EF92FF920F931F93CF93DF93CDB7DEB77B
S1130E2067970FB6F894DEBF0FBECDBF2B013C0110
S1130E308091370490913804A0913904B0913A0418
S1130E406C017D01FF0CCC08DC2C7601282F392F96
S1130E504A2F5B2F6C2D7C2D8C2D9C2D3C524140B8
S1130E60510961097109810991092F8B3E8B4983CD
S1130E7059876A877B878C879D87032E3EE0440CC5
S1130E80551C661C771C3A95D1F7302D530142014D
S1130E90BB0C8808982C54013091900320918F0347
S1130EA0932F990F990B492F592F692F792F892F38
S1130EB004E10E943C3DF22FE32FC42ED52EE62EF2
S1130EC0F72E082F192F242D352D462D572D682D3B
S1130ED0782D882D982DAF2EBE2E0E947C3D222E7B
S1130EE0332E442E552E662E772E882E992E309131
S1130EF0270420912604932F990F990BAF88BE885D
S1130F00C980D984EA84FB840C851D85492F592F17
S1130F10692F792F892F0E941B3CA22EB32EC42E39
S1130F20D52EE62EF72E082F192F222D332D442DE2
S1130F30552D662D772D882D992D0E947C3D305C92
S1130F404F4F5F4F6F4F7F4F8F4F9F4F0FE00E9468
S1130F50553D2E873F87488B598B6A8B7B8B8C8BB7
S1130F609D8B3091E8032091E703932F990F990B00
S1130F70AF88BE88C980D984EA84FB840C851D852A
S1130F80492F592F692F792F892F0E941B3C0AE082
S1130F900E94553D822E932E742E652E562E472E7A
S1130FA0382E292E4091290450912A040C85242F8F
S1130FB0352F40E050E060E070E080E090E00E9477
S1130FC01B3C0BE00E94553D30584F4F5F4F6F4F15
S1130FD07F4F8F4F9F4FA22EB32EC42ED52EE62EB9
S1130FE0F72E082F192F282D392D472D562D652D15
S1130FF0742D832D922D0E941B3C0AE00E94553DC6
S1131000405E5F4F6F4F7F4F8F4F9F4FB0903604BE
S1131010A09035041B2D110F110BC12ED12EE12EE2
S1131020F12E012F0E941B3C305E4F4F5F4F6F4FDC
S11310307F4F8F4F9F4F0EE00E94553DA22EB32E3F
S1131040C42ED52EE62EF72E082F192F2E853F8578
S1131050488959896A897B898C899D890E941B3CAE
S1131060422E532E642E752E862E972E282E392E20
S11310700FE00E94553DA22EB32EC42ED52EE62E8F
S1131080F72E082F192F0E941B3C07E00E94553DA4
S1131090E091C103F091C2035F01C12CD12CE12C7A
S11310A0F12C8701E983BA82CB82DC82ED82FE8255
S11310B00F831887C12CD12CE12CF12C00E010E017
S11310C00E941B3C04E00E94553DA22EB32EC42E68
S11310D0D52EE62EF72E082F192F242D352D462D2B
S11310E0572D682D792D822D932D0E947C3DF22E53
S11310F0032F142F652E762EB72FF82FE92FA0E09B
S11311000E94853D44F4F12C00E010E0612C712C28
S1131110B0E0F0E0E0E08F2C902EA12EB62CC72C8E
S1131120DB2EEF2EAE2F2F2D302F412F562D672D76
S11311307B2F8F2F9E2F21153105410559416105C4
S113114071058105910561F05CF0812C912CA12C35
S11311500F2EF9E1BF2EF02DC12CD12CE12CA0E0F3
S1131160282D392D4A2D5B2D6C2D7D2D8E2D9A2FFA
S11311700CE00E94553D622F732F842F952F6796A4
S11311800FB6F894DEBF0FBECDBFDF91CF911F9194
S11311900F91FF90EF90DF90CF90BF90AF909F9012
S11311A08F907F906F905F904F903F902F90089515
S11311B087E084B985B115B82B9A389A399A409A40
S11311C0419A089580E090E02FEF33E0FC01EE0FA8
S11311D0FF1FEE0FFF1FE858FC4F1182108233836C
S11311E0228301968530910589F70895EF92FF9245
S11311F00F931F93CF93DF930F2EFEE4EF2EF3E0B4
S1131200FF2EF02D00E010E0C7010E944D40E801E0
S1131210CC0FDD1FCC0FDD1FC858DC4F99838883AA
S1131220C70102960E944D409B838A830F5F1F4F24
S113123084E0E80EF11C0530110531F7DF91CF9100
S11312401F910F91FF90EF900895AF92BF92CF92AC
S1131250DF92EF92FF920F931F93CF93DF931F922E
S1131260CDB7DEB710921E041092ED03BFDFAADFE4
S1131270EAE7F0E080818068808319828981853083
S113128008F052C00AE710E00F2EF8E7EF2EF12C19
S1131290F02DBB24B394A12CCC24C394D12C8981EC
S11312A00E94B800F801808180648083F801808105
S11312B084FFFCCFF70180819181E981F0E0EE0F9A
S11312C0FF1FEE0FFF1FE858FC4F20813181E98199
S11312D0F0E0EE0FFF1FEE0FFF1FE858FC4F628196
S11312E073814B2D6817790708F04A2D411107C007
S11312F04B2D8217930708F04A2D442371F09981EE
S113130020911E049D5FA60102C0440F551F9A95AB
S1131310E2F7CA01822B80931E0489818F5F89833F
S11313208981853008F4BBCFEAE7F0E080818F77CC
S113133080830F90DF91CF911F910F91FF90EF90D9
S1131340DF90CF90BF90AF9008958F929F92AF920D
S1131350BF92CF92DF92EF92FF920F931F93CF939E
S1131360DF9300D01F92CDB7DEB7EAE7F0E08081CB
S11313708068808319828981853008F077C06894F9
S1131380882482F8912C0AE710E00F2EF8E7EF2E5C
S1131390F12CF02DCC24C394D12CBB24B394A12CD8
S11313A089810E94B8001B821A82282D392DF801E8
S11313B0808180648083F801808184FFFCCFF70101
S11313C080819181E981F0E0EE0FFF1FEE0FFF1F96
S11313D0E858FC4F40815181E981F0E0EE0FFF1F96
S11313E0EE0FFF1FE858FC4F62817381EB2D6817E5
S11313F0790708F0EA2DE11107C06B2D84179507D2
S113140008F06A2D662371F0598160911E045D5FB6
S1131410F60102C0EE0FFF1F5A95E2F7AF01462B0B
S113142040931E044A815B81840F951F9B838A83AA
S11314302150310909F0BBCF8A819B81E981F0E019
S1131440EE0FFF1FE251FC4F9C01992314F42D5F12
S11314503F4F35952795359527953183208389818D
S11314608F5F89838981853008F49ACF0F900F901C
S11314700F90DF91CF911F910F91FF90EF90DF902C
S1131480CF90BF90AF909F908F900895CF93DF93AC
S1131490FB01EE0FFF1FE80FF91F0190F081E02D13
S11314A0E217F307CCF5FA01EE0FFF1FE80FF91F5F
S11314B00190F081E02D2E173F0774F5DB01A41B8A
S11314C0B50BFD010AF43196F595E795E40FF51F88
S11314D0DF01AA0FBB1FEC01CA0FDB1F0990D881E3
S11314E0C02D2C173D078CF0A80FB91F12964D91F3
S11314F05C911397421753075CF0AF014F5F5F4F46
S113150050934C0440934B0403C0BF01BFDF04C09D
S1131510AF014F5F5F4FBADFDF91CF9108952F92F4
S11315203F924F925F926F927F928F929F92AF926F
S1131530BF92CF92DF92EF92FF920F931F93CF93BC
S1131540DF93CDB7DEB7C951DC400FB6F894DEBFE8
S11315500FBECDBFC75ED34F8883C951DC40FE01A7
S113156031968CE0DF011D928A95E9F70F2EF9E0A0
S1131570EF2EF12CF02DFA82E98286E090E09C8334
S11315808B838AE090E09E838D8388E090E0988747
S11315908F8387E090E09A8789878CE0EAE3F1E023
S11315A0DE011D9601900D928A95E1F7FE01799670
S11315B080E09CE0DF018C011D9201501040E1F7B6
S11315C086ED9DE29A8F898F84E49FE09C8F8B8FB8
S11315D088E39AE09E8F8D8F83EF97E098A38F8F97
S11315E08EE996E09AA389A38AEB95E09CA38BA34A
S11315F085E195E09EA38DA388E994E098A78FA345
S113160085E394E09AA789A784EE93E09CA78BA72F
S113161080EA93E09EA78DA787E693E098AB8FA717
S113162086E393E09AAB89AB8BE093E09CAB8BAB06
S113163085EE92E09EAB8DAB83EC92E098AF8FABDE
S113164085EA92E09AAF89AF8AE892E09CAF8BAFCB
S113165082E792E09EAF8DAF8BE592E021969FAF3B
S11316608EAF219787E492E023969FAF8EAF2397A6
S113167084E392E025969FAF8EAF259782E292E0B5
S113168027969FAF8EAF279782E192E029969FAF6E
S11316908EAF299783E092E02B969FAF8EAF2B9766
S11316A08CEF91E02D969FAF8EAF2D978EEE91E04B
S11316B02F969FAF8EAF2F9721EE31E061963FAF0B
S11316C02EAF619745ED51E063965FAF4EAF6397E0
S11316D069EC71E065967FAF6EAF65978EEB91E034
S11316E067969FAF8EAF679784EB91E069969FAF43
S11316F08EAF69978BEA91E06B969FAF8EAF6B9735
S1131700A1EAB1E06D96BFAFAEAF6D97E9E9F1E044
S11317106F96FFAFEEAF6F9780E991E0A1969FAF10
S11317208EAFA1970F2EF9E8CF2EDD24D394F02DA0
S1131730A396DFAECEAEA3970F2EF1E82F2E33245F
S11317403394F02DA5963FAE2EAEA5978AE791E08F
S1131750A7969FAF8EAFA79783E791E0A9969FAF17
S11317608EAFA9978CE691E0AB969FAF8EAFAB9707
S113177086E691E0AD969FAF8EAFAD9780E691E09F
S1131780AF969FAF8EAFAF978AE591E0E1969FAF9A
S11317908EAFE19705E511E0E3961FAF0EAFE39737
S11317A08FE491E0E5969FAF8EAFE5978AE491E0F0
S11317B0E7969FAF8EAFE79725E431E0E9963FAF18
S11317C02EAFE99780E491E0EB969FAF8EAFEB9755
S11317D08CE391E0ED969FAF8EAFED9787E391E0B8
S11317E0EF969FAF8EAFEF9783E391E0C158DF4F41
S11317F099838883CF57D0408FE291E0CF57DF4F52
S113180099838883C158D0404BE251E0CD57DF4FD4
S113181059834883C358D04087E291E0CB57DF4FC8
S113182099838883C558D04063E271E0C957DF4F7C
S113183079836883C758D0408FE191E0C757DF4F61
S113184099838883C958D0408CE191E0C557DF4F14
S113185099838883CB58D04088E191E0C357DF4F08
S113186099838883CD58D04085E191E0C157DF4FFB
S113187099838883CF58D040A1E1B1E0CF56DF4FA0
S1131880B983A883C159D0408EE091E0CD56DF4F93
S113189099838883C359D0408BE091E0CB56DF4FC6
S11318A099838883C559D04088E091E0C956DF4FB9
S11318B099838883C759D0400F2EF5E04F2E5524C5
S11318C05394F02DC756DF4F59824882C959D040EE
S11318D082E091E0C556DF4F99838883CB59D0408D
S11318E080E091E0C356DF4F99838883CD59D0407F
S11318F0EDEFF0E0C156DF4FF983E883CF59D040D4
S11319008AEF90E0CF55DF4F99838883C15AD04046
S11319100F2EF8EFCF2ED12CF02DCD55DF4FD982DD
S1131920C882C35AD04005EF10E0CB55DF4F19836E
S11319300883C55AD04083EF90E0C955DF4F99839F
S11319408883C75AD04080EF90E0C755DF4F998312
S11319508883C95AD0408EEE90E0C555DF4F9983F5
S11319608883CB5AD0408CEE90E0C355DF4F9983E7
S11319708883CD5AD04029EE30E0C155DF4F3983FA
S11319802883CF5AD04047EE50E0CF54DF4F5983DD
S11319904883C15BD04065EE70E0CD54DF4F79835E
S11319A06883C35BD04083EE90E0CB54DF4F9983D0
S11319B08883C55BD04081EE90E0C954DF4F9983A2
S11319C08883C75BD0408FED90E0C754DF4F998385
S11319D08883C95BD0400F2EFDED8F2E912CF02D06
S11319E0C554DF4F99828882CB5BD0408BED90E069
S11319F0C354DF4F99838883CD5BD040A9EDB0E019
S1131A00C154DF4FB983A883CF5BD04087ED90E00A
S1131A10CF53DF4F99838883C15CD04086ED90E03B
S1131A20CD53DF4F99838883C35CD04084ED90E02D
S1131A30CB53DF4F99838883C55CD04082ED90E01F
S1131A40C953DF4F99838883C75CD04080ED90E011
S1131A50C753DF4F99838883C95CD040EFECF0E033
S1131A60C553DF4FF983E883CB5CD0400F2EFDECE8
S1131A70CF2ED12CF02DC353DF4FD982C882CD5C39
S1131A80D0408CEC90E0C153DF4F99838883CF5CC6
S1131A90D0400AEC10E0CF52DF4F19830883C15DB8
S1131AA0D04088EC90E0CD52DF4F99838883C35DAA
S1131AB0D04087EC90E0CB52DF4F99838883C55D9B
S1131AC0D04085EC90E0C952DF4F99838883C75D8D
S1131AD0D04024EC30E0C752DF4F39832883C95DFE
S1131AE0D04022EC30E0C552DF4F39832883CB5DF0
S1131AF0D04021EC30E0C352DF4F39832883CD5DE1
S1131B00D04040EC50E0C152DF4F59834883CF5D51
S1131B10D0404FEB50E0CF51DF4F59834883C15E33
S1131B20D0404EEB50E0CD51DF4F59834883C35E24
S1131B30D0404DEB50E0CB51DF4F59834883C55E15
S1131B40D0406CEB70E0C951DF4F79836883C75E86
S1131B50D0406BEB70E0C751DF4F79836883C95E77
S1131B60D0406AEB70E0C551DF4F79836883CB5E68
S1131B70D04069EB70E0C351DF4F79836883CD5E59
S1131B80D040E8EBF0E0C151DF4FF983E883CF5E4A
S1131B90D040A7EBB0E0CF50DF4FB983A883C15F3B
S1131BA0D040E6EBF0E0CD50DF4FF983E883C35F2C
S1131BB0D040E5EBF0E0CB50DF4FF983E883C55F1D
S1131BC0D040A4EBB0E0C950DF4FB983A883C75F0E
S1131BD0D0400F2EF3EBCF2ED12CF02DC750DF4F7A
S1131BE0D982C882C95FD040A2EBB0E0C550DF4FB4
S1131BF0B983A883CB5FD040A1EBB0E0C350DF4FE3
S1131C00B983A883CD5FD04000EB10E0C150DF4F13
S1131C1019830883CF5FD0400FEA10E0CF5FDE4F17
S1131C2019830883C150D1400EEA10E0CD5FDE4F26
S1131C3019830883C350D1400F2EFDEAAF2EB12C77
S1131C40F02DCB5FDE4FB982A882C550D1400CEA9B
S1131C5010E0C95FDE4F19830883C750D1400BEAF7
S1131C6010E0C75FDE4F19830883C950D1400AEAE8
S1131C7010E0C55FDE4F19830883CB50D1400F2E8F
S1131C80F9EA6F2E712CF02DC35FDE4F79826882E2
S1131C90CD50D140C15FDE4F79826882CF50D140B0
S1131CA008EA10E0CF5EDE4F19830883C151D140AA
S1131CB007EA10E0CD5EDE4F19830883C351D1409B
S1131CC00F2EF6EACF2ED12CF02DCB5EDE4FD9822B
S1131CD0C882C551D14005EA10E0C95EDE4F1983C0
S1131CE00883C751D140CC24C394D12CC75EDE4FA6
S1131CF0D982C882C951D1400F2EF5E0CF2ED12C04
S1131D00F02DC55EDE4FD982C882CB51D140C35E6F
S1131D10DE4FF982E882CD51D1400F2EFDE0EF2E47
S1131D20F12CF02DC15EDE4FF982E882CF51D14013
S1131D300F2EF1E1EF2EF12CF02DCF5DDE4FF98265
S1131D40E882C152D1400F2EF5E1EF2EF12CF02D97
S1131D50CD5DDE4FF982E882C352D1400F2EF9E106
S1131D60EF2EF12CF02DCB5DDE4FF982E882C552C7
S1131D70D1400F2EFDE1EF2EF12CF02DC95DDE4F89
S1131D80F982E882C752D1400F2EF1E2EF2EF12CF6
S1131D90F02DC75DDE4FF982E882C952D1400F2E83
S1131DA0F5E2EF2EF12CF02DC55DDE4FF982E882CD
S1131DB0CB52D1400F2EF9E2EF2EF12CF02DC35D62
S1131DC0DE4FF982E882CD52D1400F2EFDE2EF2E94
S1131DD0F12CF02DC15DDE4FF982E882CF52D14063
S1131DE00F2EF1E3EF2EF12CF02DCF5CDE4FF982B4
S1131DF0E882C153D1400F2EF5E3EF2EF12CF02DE4
S1131E00CD5CDE4FF982E882C353D1400F2EF9E353
S1131E10EF2EF12CF02DCB5CDE4FF982E882C55316
S1131E20D1400F2EFDE3EF2EF12CF02DC95CDE4FD7
S1131E30F982E882C753D1400F2EF1E4EF2EF12C42
S1131E40F02DC75CDE4FF982E882C953D1400F2ED2
S1131E50F5E4EF2EF12CF02DC55CDE4FF982E8821B
S1131E60CB53D1400F2EF9E4EF2EF12CF02DC35CAF
S1131E70DE4FF982E882CD53D1400F2EFDE4EF2EE0
S1131E80F12CF02DC15CDE4FF982E882CF53D140B2
S1131E900F2EF1E5EF2EF12CF02DCF5BDE4FF98202
S1131EA0E882C154D1400F2EF5E5EF2EF12CF02D30
S1131EB0CD5BDE4FF982E882C354D1400F2EF9E5A1
S1131EC0EF2EF12CF02DCB5BDE4FF982E882C55466
S1131ED0D1400F2EFDE5EF2EF12CF02DC95BDE4F26
S1131EE0F982E882C754D1400F2EF1E6EF2EF12C8F
S1131EF0F02DC75BDE4FF982E882C954D1400F2E22
S1131F00F5E6EF2EF12CF02DC55BDE4FF982E88269
S1131F10CB54D1400F2EF9E6EF2EF12CF02DC35BFC
S1131F20DE4FF982E882CD54D1400F2EFDE6EF2E2C
S1131F30F12CF02DC15BDE4FF982E882CF54D14001
S1131F400F2EF1E7EF2EF12CF02DCF5ADE4FF98250
S1131F50E882C155D1400F2EF5E7EF2EF12CF02D7C
S1131F60CD5ADE4FF982E882C355D1400F2EF9E7EE
S1131F70EF2EF12CF02DCB5ADE4FF982E882C555B5
S1131F80D1400F2EFDE7EF2EF12CF02DC95ADE4F74
S1131F90F982E882C755D1400F2EF1E8EF2EF12CDB
S1131FA0F02DC75ADE4FF982E882C955D1400F2E71
S1131FB0F5E8EF2EF12CF02DC55ADE4FF982E882B8
S1131FC0CB55D1400F2EF9E8EF2EF12CF02DC35A4A
S1131FD0DE4FF982E882CD55D1400F2EFDE8EF2E79
S1131FE0F12CF02DC15ADE4FF982E882CF55D14051
S1131FF00F2EF1E9EF2EF12CF02DCF59DE4FF9829F
S1132000E882C156D1400F2EF5E9EF2EF12CF02DC8
S1132010CD59DE4FF982E882C356D1400F2EF9E93B
S1132020CF2ED12CF02DCB59DE4FD982C882C55684
S1132030D1400F2EFDE9EF2EF12CF02DC959DE4FC2
S1132040F982E882C756D1400F2EF1EAEF2EF12C27
S1132050F02DC759DE4FF982E882C956D140C559DF
S1132060DE4F19830883CB56D140C359DE4F7982A2
S11320706882CD56D140C159DE4FB982A882CF566D
S1132080D140CF58DE4FB983A883C157D140CD5832
S1132090DE4FF983E883C357D140CB58DE4F7983B1
S11320A06883C557D140C958DE4F59834883C75701
S11320B0D140C758DE4F39832883C957D140C5580A
S11320C0DE4F99838883CB57D14089EC90E0C35885
S11320D0DE4F99838883CD57D1400DEC10E0C15871
S11320E0DE4F19830883CF57D14081ED90E0CF575D
S11320F0DE4F99838883C158D14085ED90E0CD5758
S1132100DE4F99838883C358D14029ED30E0CB5703
S1132110DE4F39832883C558D140C957DE4F998291
S11321208882C758D14041EE50E0C757DE4F5983EB
S11321304883C958D14065EE70E0C557DE4F7983B6
S11321406883CB58D14089EE90E0C357DE4F998322
S11321508883CD58D1408DEE90E0C157DE4F9983EE
S11321608883CF58D14021EF30E0CF56DE4F3983FA
S11321702883C159D140A5EFB0E0CD56DE4FB983D5
S1132180A883C359D14029EF30E0CB56DE4F3983C1
S11321902883C559D140EDEFF0E0C956DE4FF983ED
S11321A0E883C759D14021E031E0C756DE4F398377
S11321B02883C959D140C556DE4F59824882CB592C
S11321C0D14029E031E0C356DE4F39832883CD590D
S11321D0D1402DE031E0C156DE4F39832883CF59F9
S11321E0D14001E111E0CF55DE4F19830883C15A74
S11321F0D14025E131E0CD55DE4F39832883C35AE0
S1132200D14029E131E0CB55DE4F39832883C55ACB
S1132210D1402DE131E0C955DE4F39832883C75AB7
S1132220D14021E231E0C755DE4F39832883C95AB2
S1132230D14025E231E0C555DE4F39832883CB5A9E
S1132240D14029E231E0C355DE4F39832883CD5A8A
S1132250D1402DE231E0C155DE4F39832883CF5A76
S1132260D14021E331E0CF54DE4F39832883C15B71
S1132270D14025E331E0CD54DE4F39832883C35B5D
S1132280D14029E331E0CB54DE4F39832883C55B49
S1132290D1402DE331E0C954DE4F39832883C75B35
S11322A0D14041E451E0C754DE4F59834883C95BB0
S11322B0D14045E451E0C554DE4F59834883CB5B9C
S11322C0D14049E451E0C354DE4F59834883CD5B88
S11322D0D1404DE451E0C154DE4F59834883CF5B74
S11322E0D14041E551E0CF53DE4F59834883C15C6F
S11322F0D14065E571E0CD53DE4F79836883C35CDB
S1132300D14069E571E0CB53DE4F79836883C55CC6
S1132310D1406DE571E0C953DE4F79836883C75CB2
S1132320D14061E671E0C753DE4F79836883C95CAD
S1132330D14065E671E0C553DE4F79836883CB5C99
S1132340D14069E671E0C353DE4F79836883CD5C85
S1132350D1406DE671E0C153DE4F79836883CF5C71
S1132360D14061E771E0CF52DE4F79836883C15D6C
S1132370D14065E771E0CD52DE4F79836883C35D58
S1132380D14069E771E0CB52DE4F79836883C55D44
S1132390D1406DE771E0C952DE4F79836883C75D30
S11323A0D140C752DE4F39822882C95DD14065E8E9
S11323B071E0C552DE4F79836883CB5DD140A9E8D3
S11323C0B1E0C352DE4FB983A883CD5DD1406DE83F
S11323D071E0C152DE4F79836883CF5DD14061E9FA
S11323E071E0CF51DE4F79836883C15ED14065E9E6
S11323F071E0CD51DE4F79836883C35ED140E9E952
S1132400F1E0CB51DE4FF983E883C55ED1406DE93D
S113241071E0C951DE4F79836883C75ED14001EA18
S113242011E0C751DE4F19830883C95ED140E5EA44
S1132430F1E0C551DE4FF983E883CB5ED140E9EA90
S1132440F1E0C351DE4FF983E883CD5ED140EDEA7C
S1132450F1E0C151DE4FF983E883CF5ED140A1EBB7
S1132460B1E0CF50DE4FB983A883C15FD140A5EB63
S1132470B1E0CD50DE4FB983A883C35FD140A9EB4F
S1132480B1E0CB50DE4FB983A883C55FD140ADEB3B
S1132490B1E0C950DE4FB983A883C75FD140A1EC36
S11324A0B1E0C750DE4FB983A883C95FD140A5EC22
S11324B0B1E0C550DE4FB983A883CB5FD140A9EC0E
S11324C0B1E0C350DE4FB983A883CD5FD140ADECFA
S11324D0B1E0C150DE4FB983A883CF5FD140A1EDF5
S11324E0B1E0CF5FDD4FB983A883C150D24005ED81
S11324F011E0CD5FDD4F19830883C350D240A9EDAD
S1132500B1E0CB5FDD4FB983A883C550D240ADEDB8
S1132510B1E0C95FDD4FB983A883C750D240A1EEB3
S1132520B1E0C75FDD4FB983A883C950D240A5EE9F
S1132530B1E0C55FDD4FB983A883CB50D240A9EE8B
S1132540B1E0C35FDD4FB983A883CD50D240ADEE77
S1132550B1E0C15FDD4FB983A883CF50D240A1EF72
S1132560B1E0CF5EDD4FB983A883C151D240A5EF5E
S1132570B1E0CD5EDD4FB983A883C351D240A9EF4A
S1132580B1E0CB5EDD4FB983A883C551D240ADEF36
S1132590B1E0C95EDD4FB983A883C751D240ACEE28
S11325A0B4EEC75EDD4FB983A883C951D240A1EF11
S11325B0BAE4C55EDD4FB983A883CB51D240A4EB06
S11325C0B9E2C35EDD4FB983A883CD51D240A3EFF6
S11325D0BBE1C15EDD4FB983A883CF51D240AFE9DF
S11325E0B4E1CF5DDD4FB983A883C152D240A2E2EA
S11325F0B0E1CD5DDD4FB983A883C352D240A2E2DE
S1132600BDE0CB5DDD4FB983A883C552D240A1E0C4
S1132610BBE0C95DDD4FB983A883C752D240ABE6A6
S1132620B9E0C75DDD4FB983A883C952D240A3E3A3
S1132630B8E0C55DDD4FB983A883CB52D240ACE38B
S1132640B7E0C35DDD4FB983A883CD52D240A5E77F
S1132650B6E0C15DDD4FB983A883CF52D240A1ED6E
S1132660B5E0CF5CDD4FB983A883C153D240A8E461
S1132670B5E0CD5CDD4FB983A883C353D240A4ED4C
S1132680B4E0CB5CDD4FB983A883C553D240A0E747
S1132690B4E0C95CDD4FB983A883C753D240AAE133
S11326A0B4E0C75CDD4FB983A883C953D240AFEC13
S11326B0B3E0C55CDD4FB983A883CB53D240ADE80A
S11326C0B3E0C35CDD4FB983A883CD53D240A3E507
S11326D0B3E0C15CDD4FB983A883CF53D240AFE1EF
S11326E0B3E0CF5BDD4FB983A883C154D240A0EFE0
S11326F0B2E0CD5BDD4FB983A883C354D240A6ECCE
S1132700B2E0CB5BDD4FB983A883C554D240A0EAC5
S1132710B2E0C95BDD4FB983A883C754D240AEE7AA
S1132720B2E0C75BDD4FB983A883C954D240AEE59C
S1132730B2E0C55BDD4FB983A883CB54D240A1E49A
S1132740B2E0C35BDD4FB983A883CD54D240A7E286
S1132750B2E0C15BDD4FB983A883CF54D240AEE071
S1132760B2E0CF5ADD4FB983A883C155D240A8EF58
S1132770B1E0CD5ADD4FB983A883C355D240A3EE4F
S1132780B1E0CB5ADD4FB983A883C555D240A0ED43
S1132790B1E0C95ADD4FB983A883C755D2400EEBC7
S11327A011E0C75ADD4F19830883C955D240C55A71
S11327B0DD4FF983E883CB55D240C35ADD4F79838B
S11327C06883CD55D2406EE871E0C15ADD4F7983FC
S11327D06883CF55D240CF59DD4F39822882C15604
S11327E0D24064E771E0CD59DD4F79836883C356E5
S11327F0D24067E671E0CB59DD4F79836883C556D3
S1132800D2406CE571E0C959DD4F79836883C756BE
S1132810D240C759DD4F59834883C956D24047E453
S113282051E0C559DD4F59834883CB56D240C35933
S1132830DD4F39832883CD56D24024E331E0C1599A
S1132840DD4F39832883CF56D2402BE231E0CF5875
S1132850DD4F39832883C157D24043E251E0CD583C
S1132860DD4F59834883C357D2402BE131E0CB5825
S1132870DD4F39832883C557D24023E131E0C9585D
S1132880DD4F39832883C757D2402CE031E0C75845
S1132890DD4F39832883C957D240C558DD4F59824B
S11328A04882CB57D2402FEF30E0C358DD4F3983F5
S11328B02883CD57D24068EF70E0C158DD4F79834B
S11328C06883CF57D24022EF30E0CF57DD4F3983B2
S11328D02883C158D240CD57DD4F99838883C3588C
S11328E0D24087EE90E0CB57DD4F99838883C5585B
S11328F0D24082EE90E0C957DD4F99838883C75850
S1132900D240C757DD4F99828882C958D24088ED9A
S113291090E0C557DD4F99838883CB58D24083ED2F
S113292090E0C357DD4F99838883CD58D240AFECF4
S1132930B0E0C157DD4FB983A883CF58D240EAEC49
S1132940F0E0CF56DD4FF983E883C159D24086ECDD
S113295090E0CD56DD4F99838883C359D24002EC71
S113296010E0CB56DD4F19830883C559D2402EEBB6
S113297030E0C956DD4F39832883C759D2404AEB2A
S113298050E0C756DD4F59834883C959D24067EB9D
S113299070E0C556DD4F79836883CB59D24083EB11
S11329A090E0C356DD4F99838883CD59D240A0EB84
S11329B0B0E0C156DD4FB983A883CF59D240CF557B
S11329C0DD4FB982A882C15AD240CD55DD4F7982FC
S11329D06882C35AD240E6EAF0E0CB55DD4FF98372
S11329E0E883C55AD240C955DD4FF982E882C75AF7
S11329F0D24083EA90E0C755DD4F99838883C95A52
S1132A00D2408CE990E0C555DD4F99838883CB5A39
S1132A10D240C355DD4FD982C882CD5AD24087E90E
S1132A2090E0C155DD4F99838883CF5AD24084E921
S1132A3090E0CF54DD4F99838883C15BD24082E913
S1132A4090E0CD54DD4F99838883C35BD2408FE8F7
S1132A5090E0CB54DD4F99838883C55BD2408DE8E9
S1132A6090E0C954DD4F99838883C75BD2408BE8DB
S1132A7090E0C754DD4F99838883C95BD24089E8CD
S1132A8090E0C554DD4F99838883CB5BD24087E8BF
S1132A9090E0C354DD4F99838883CD5BD24085E8B1
S1132AA090E0C154DD4F99838883CF5BD24083E8A3
S1132AB090E0CF53DD4F99838883C15CD24021E8F5
S1132AC030E0CD53DD4F39832883C35CD2402FE7F8
S1132AD030E0CB53DD4F39832883C55CD2402DE7EA
S1132AE030E0C953DD4F39832883C75CD2402BE7DC
S1132AF030E0C753DD4F39832883C95CD24029E7CE
S1132B0030E0C553DD4F39832883CB5CD24028E7BE
S1132B1030E0C353DD4F39832883CD5CD24026E7B0
S1132B2030E0C153DD4F39832883CF5CD24024E7A2
S1132B3030E0CF52DD4F39832883C15DD24023E793
S1132B4030E0CD52DD4F39832883C35DD24021E785
S1132B5030E0CB52DD4F39832883C55DD24020E776
S1132B6030E0C952DD4F39832883C75DD2402EE659
S1132B7030E0C752DD4F39832883C95DD2404DE62A
S1132B8050E0C552DD4F59834883CB5DD2404CE6BB
S1132B9050E0C352DD4F59834883CD5DD2404AE6AD
S1132BA050E0C152DD4F59834883CF5DD24049E69E
S1132BB050E0CF51DD4F59834883C15ED24048E68F
S1132BC050E0CD51DD4F59834883C35ED24046E681
S1132BD050E0CB51DD4F59834883C55ED24045E672
S1132BE050E0C951DD4F59834883C75ED24044E663
S1132BF050E0C751DD4F59834883C95ED24043E654
S1132C0050E0C551DD4F59834883CB5ED24041E645
S1132C1050E0C351DD4F59834883CD5ED24040E636
S1132C2050E0C151DD4F59834883CF5ED2406FE5F8
S1132C3070E0CF50DD4F79836883C15FD2406EE589
S1132C4070E0CD50DD4F79836883C35FD2406DE57A
S1132C5070E0CB50DD4F79836883C55FD2406CE56B
S1132C6070E0C950DD4F79836883C75FD2406BE55C
S1132C7070E0C750DD4F79836883C95FD2406AE54D
S1132C8070E0C550DD4F79836883CB5FD24069E53E
S1132C9070E0C350DD4F79836883CD5FD240E8E5AF
S1132CA0F0E0C150DD4FF983E883CF5FD240E7E520
S1132CB0F0E0CF5FDC4FF983E883C150D340E6E511
S1132CC0F0E0CD5FDC4FF983E883C350D340E5E502
S1132CD0F0E0CB5FDC4FF983E883C550D340E4E5F3
S1132CE0F0E0C95FDC4FF983E883C750D340E3E5E4
S1132CF0F0E0C75FDC4FF983E883C950D340E2E5D5
S1132D00F0E0C55FDC4FF983E883CB50D340A1E505
S1132D10B0E0C35FDC4FB983A883CD50D340A0E5B6
S1132D20B0E0C15FDC4FB983A883CF50D3400F2EEE
S1132D30FFE4CF2ED12CF02DCF5EDC4FD982C88298
S1132D40C151D340AEE4B0E0CD5EDC4FB983A8837B
S1132D50C351D340ADE4B0E0CB5EDC4FB983A8836C
S1132D60C551D3400CE410E0C95EDC4F19830883DD
S1132D70C751D340A5E0B0E0C75EDC4FB983A88358
S1132D80C951D340ACE0B0E0C55EDC4FB983A88341
S1132D90CB51D340A3E1B0E0C35EDC4FB983A88339
S1132DA0CD51D340AAE1B0E0C15EDC4FB983A88322
S1132DB0CF51D340A1E2B0E0CF5DDC4FB983A8830B
S1132DC0C152D3400F2EF8E2CF2ED12CF02DCD5D81
S1132DD0DC4FD982C882C352D340AFE2B0E0CB5DAE
S1132DE0DC4FB983A883C552D340A6E3B0E0C95DE4
S1132DF0DC4FB983A883C752D3400DE310E0C75D0D
S1132E00DC4F19830883C952D340A4E4B0E0C55D04
S1132E10DC4FB983A883CB52D340ABE4B0E0C35DAD
S1132E20DC4FB983A883CD52D340C15DDC4FF98315
S1132E30E883CF52D340CF5CDC4F79836883C1539E
S1132E40D340CD5CDC4F59834883C353D34047E61A
S1132E5050E0CB5CDC4F59834883C553D340C95CF5
S1132E60DC4F39832883C753D34025E730E0C75C60
S1132E70DC4F39832883C953D3402CE730E0C55C49
S1132E80DC4F39832883CB53D340C35CDC4F998315
S1132E908883CD53D3408AE890E0C15CDC4F9983AA
S1132EA08883CF53D34081E990E0CF5BDC4F998393
S1132EB08883C154D34088E990E0CD5BDC4F99838B
S1132EC08883C354D3408FE990E0CB5BDC4F998374
S1132ED08883C554D34086EA90E0C95BDC4F99836C
S1132EE08883C754D3408DEA90E0C75BDC4F998355
S1132EF08883C954D34084EB90E0C55BDC4F99834D
S1132F008883CB54D3408BEB90E0C35BDC4F998335
S1132F108883CD54D34082EC90E0C15BDC4F99832D
S1132F208883CF54D34089EC90E0CF5ADC4F998307
S1132F308883C155D34080ED90E0CD5ADC4F99830E
S1132F408883C355D34087ED90E0CB5ADC4F9983F7
S1132F508883C555D3408EED90E0C95ADC4F9983E0
S1132F608883C755D34085EE90E0C75ADC4F9983D8
S1132F708883C955D3408CEE90E0C55ADC4F9983C1
S1132F808883CB55D34083EF90E0C35ADC4F9983B9
S1132F908883CD55D3408AEF90E0C15ADC4F9983A2
S1132FA08883CF55D34081E091E0CF59DC4F99839A
S1132FB08883C156D34088E091E0CD59DC4F998392
S1132FC08883C356D3408FE091E0CB59DC4F99837B
S1132FD08883C556D34086E191E0C959DC4F998373
S1132FE08883C756D3408DE191E0C759DC4F99835C
S1132FF08883C956D34084E291E0C559DC4F998354
S11330008883CB56D3408BE291E0C359DC4F99833C
S11330108883CD56D34082E391E0C159DC4F998334
S11330208883CF56D34089E391E0CF58DC4F99830E
S11330308883C157D34080E491E0CD58DC4F998315
S11330408883C357D34087E491E0CB58DC4F9983FE
S11330508883C557D3408EE491E0C958DC4F9983E7
S11330608883C757D34085E591E0C758DC4F9983DF
S11330708883C957D3408CE591E0C558DC4F9983C8
S11330808883CB57D34083E691E0C358DC4F9983C0
S11330908883CD57D3408AE691E0C158DC4F9983A9
S11330A08883CF57D34081E791E0CF57DC4F998392
S11330B08883C158D34088E791E0CD57DC4F99838A
S11330C08883C358D3408FE791E0CB57DC4F998373
S11330D08883C558D34086E891E0C957DC4F99836B
S11330E08883C758D3408DE891E0C757DC4F998354
S11330F08883C958D34084E991E0C557DC4F99834C
S11331008883CB58D3408BE991E0C357DC4F998334
S11331108883CD58D34082EA91E0C157DC4F99832C
S11331208883CF58D34089EA91E0CF56DC4F998306
S11331308883C159D34080EB91E0CD56DC4F99830D
S11331408883C359D34087EB91E0CB56DC4F9983F6
S11331508883C559D3408EEB91E0C956DC4F9983DF
S11331608883C759D34085EC91E0C756DC4F9983D7
S11331708883C959D3408CEC91E0C556DC4F9983C0
S11331808883CB59D34083ED91E0C356DC4F9983B8
S11331908883CD59D3408AED91E0C156DC4F9983A1
S11331A08883CF59D34081EE91E0CF55DC4F99838A
S11331B08883C15AD34088EE91E0CD55DC4F998382
S11331C08883C35AD3408FEE91E0CB55DC4F99836B
S11331D08883C55AD3402BEF31E0C955DC4F39837E
S11331E02883C75AD34082E092E0C755DC4F9983C5
S11331F08883C95AD34049E052E0C555DC4F59830E
S11332004883CB5AD34080E192E0C355DC4F998385
S11332108883CD5AD34067E172E0C155DC4F79838E
S11332206883CF5AD3408EE192E0CF54DC4F998328
S11332308883C15BD3400F2EF5E22F2EF2E03F2EA0
S1133240F02DCD54DC4F39822882C35BD3408CE20D
S113325092E0CB54DC4F99838883C55BD3400F2E17
S1133260F3E34F2EF2E05F2EF02DC954DC4F598268
S11332704882C75BD3408AE392E0C754DC4F99830A
S11332808883C95BD34081E492E0C554DC4F9983C1
S11332908883CB5BD34088E492E0C354DC4F9983AA
S11332A08883CD5BD3408FE492E0C154DC4F998393
S11332B08883CF5BD34086E592E0CF53DC4F99837C
S11332C08883C15CD3408DE592E0CD53DC4F998374
S11332D08883C35CD34084E692E0CB53DC4F99836C
S11332E08883C55CD3408BE692E0C953DC4F998355
S11332F08883C75CD3400F2EF2E76F2EF2E07F2E57
S1133300F02DC753DC4F79826882C95CD3400F2EFD
S1133310F9E78F2EF2E09F2EF02DC553DC4F9982F2
S11333208882CB5CD34080E892E0C353DC4F99831E
S11333308883CD5CD34087E892E0C153DC4F998306
S11333408883CF5CD3408EE892E0CF52DC4F9983E0
S11333508883C15DD3400F2EF5E9AF2EF2E0BF2E76
S1133360F02DCD52DC4FB982A882C35DD3408CE9E5
S113337092E0CB52DC4F99838883C55DD34083EAC6
S113338092E0C952DC4F99838883C75DD3408AEAAF
S113339092E0C752DC4F99838883C95DD34021EB07
S11333A032E0C552DC4F39832883CB5DD34028EB10
S11333B032E0C352DC4F39832883CD5DD3404FEBD9
S11333C052E0C152DC4F59834883CF5DD34046EC71
S11333D052E0CF51DC4F59834883C15ED3404DEC5A
S11333E052E0CD51DC4F59834883C35ED34044ED52
S11333F052E0CB51DC4F59834883C55ED3404BED3B
S113340052E0C951DC4F59834883C75ED34042EE32
S113341052E0C751DC4F59834883C95ED34049EE1B
S113342052E0C551DC4F59834883CB5ED34060EFF3
S113343072E0C351DC4F79836883CD5ED340E7EFFC
S1133440F2E0C151DC4FF983E883CF5ED340EEEF65
S1133450F2E0CF50DC4FF983E883C15FD340E5E06D
S1133460F3E0CD50DC4FF983E883C35FD340ECE055
S1133470F3E0CB50DC4FF983E883C55FD340A3E18D
S1133480B3E0C950DC4FB983A883C75FD3400AE1D6
S113349013E0C750DC4F19830883C95FD34001E2AE
S11334A013E0C550DC4F19830883CB5FD34008E297
S11334B013E0C350DC4F19830883CD5FD3400FE280
S11334C013E0C150DC4F19830883CF5FD34006E378
S11334D013E0CF5FDB4F19830883C150D4400DE361
S11334E013E0CD5FDB4F19830883C350D4400F2E04
S11334F0F4E4EF2EF3E0FF2EF02DCB5FDB4FF982E7
S1133500E882C550D4400F2EFBE4EF2EF3E0FF2EEB
S1133510F02DC95FDB4FF982E882C750D4400F2EEB
S1133520F2E5EF2EF3E0FF2EF02DC75FDB4FF982BB
S1133530E882C950D4400F2EF9E5CF2EF3E0DF2EF8
S1133540F02DC55FDB4FD982C882CB50D4400F2EFB
S1133550F1E6CF2EF3E0DF2EF02DC35FDB4FD982EF
S1133560C882CD50D4400F2EFFE6CF2EF3E0DF2EDD
S1133570F02DC15FDB4FD982C882CF50D4400F2ECB
S1133580F6E7CF2EF3E0DF2EF02DCF5EDB4FD982AE
S1133590C882C151D4400F2EFDE7CF2EF3E0DF2EB9
S11335A0F02DCD5EDB4FD982C882C351D4400F2E9B
S11335B0F4E8CF2EF3E0DF2EF02DCB5EDB4FD98283
S11335C0C882C551D4400F2EFEE8CF2EF3E0DF2E83
S11335D0F02DC95EDB4FD982C882C751D4400F2E6B
S11335E0F6E2CF2EFBE0DF2EF02DC75EDB4FD98253
S11335F0C882C951D4400F2EFAE8CF2EF7E0DF2E4F
S1133600F02DC55EDB4FD982C882CB51D4400F2E3A
S1133610F0E7CF2EF6E0DF2EF02DC35EDB4FD9822C
S1133620C882CD51D4400F2EF2EDCF2EF5E0DF2E1F
S1133630F02DC15EDB4FD982C882CF51D4400F2E0A
S1133640F8E6CF2EF5E0DF2EF02DCF5DDB4FD982EB
S1133650C882C152D4400F2EF9E1CF2EF5E0DF2EFF
S1133660F02DCD5DDB4FD982C882C352D4400F2EDA
S1133670FCEDCF2EF4E0DF2EF02DCB5DDB4FD982B5
S1133680C882C552D4400F2EF9EACF2EF4E0DF2EC3
S1133690F02DC95DDB4FD982C882C752D4400F2EAA
S11336A0FFE7CF2EF4E0DF2EF02DC75DDB4FD9828C
S11336B0C882C952D4400F2EFBE5CF2EF4E0DF2E92
S11336C0F02DC55DDB4FD982C882CB52D4400F2E7A
S11336D0FBE3CF2EF4E0DF2EF02DC35DDB4FD98268
S11336E0C882CD52D4400F2EFFE1CF2EF4E0DF2E5E
S11336F0F02DC15DDB4FD982C882CF52D4400F2E4A
S1133700F6E0CF2EF4E0DF2EF02DCF5CDB4FD98234
S1133710C882C153D4400F2EF0EFCF2EF3E0DF2E3A
S1133720F02DCD5CDB4FD982C882C353D4400F2E19
S1133730F8EECF2EF3E0DF2EF02DCB5CDB4FD982F9
S1133740C882C553D4400F2EF3EDCF2EF3E0DF2E05
S1133750F02DC95CDB4FD982C882C753D4400F2EE9
S1133760F0ECCF2EF3E0DF2EF02DC75CDB4FD982D7
S1133770C882C953D4400F2EFFEACF2EF3E0DF2EC8
S1133780F02DC55CDB4FD982C882CB53D4400F2EB9
S1133790FFE9CF2EF3E0DF2EF02DC35CDB4FD9829F
S11337A0C882CD53D4400F2EF0E9CF2EF3E0DF2EA4
S11337B0F02DC15CDB4FD982C882CF53D4400F2E89
S11337C0F2E8CF2EF3E0DF2EF02DCF5BDB4FD98272
S11337D0C882C154D4400F2EF5E7CF2EF3E0DF2E7C
S11337E0F02DCD5BDB4FD982C882C354D4400F2E59
S11337F0F8E6CF2EF3E0DF2EF02DCB5BDB4FD98242
S1133800C882C554D4400F2EFDE5CF2EF3E0DF2E41
S1133810F02DC95BDB4FD982C882C754D440C75B43
S1133820DB4FF982E882C954D4400F2EF7E4EF2E1F
S1133830F3E0FF2EF02DC55BDB4FF982E882CB5419
S1133840D440C35BDB4F19830883CD54D44004E3D5
S113385013E0C15BDB4F19830883CF54D4400BE2E0
S113386013E0CF5ADB4F19830883C155D44002E1DA
S113387013E0CD5ADB4F19830883C355D4400BE1C1
S113388013E0CB5ADB4F19830883C555D440C95A7A
S1133890DB4FB983A883C755D440C75ADB4FF9839C
S11338A0E883C955D440E4E0F3E0C55ADB4FF9831B
S11338B0E883CB55D440EDEFF2E0C35ADB4FF983F4
S11338C0E883CD55D440E6EFF2E0C15ADB4FF983EB
S11338D0E883CF55D440CF59DB4F79836883C156F1
S11338E0D440CD59DB4F59834883C356D44043EE6B
S11338F052E0CB59DB4F59834883C556D4404DED34
S113390052E0C959DB4F59834883C756D44047ED29
S113391052E0C759DB4F59834883C956D44041ED1F
S113392052E0C559DB4F59834883CB56D4404CEC05
S113393052E0C359DB4F59834883CD56D44047ECFA
S113394052E0C159DB4F59834883CF56D44042ECEF
S113395052E0CF58DB4F59834883C157D4404DEBD5
S113396052E0CD58DB4F59834883C357D440CB58DA
S1133970DB4F39832883C557D44023EB32E0C95841
S1133980DB4F39832883C757D4402EEA32E0C75827
S1133990DB4F39832883C957D440C558DB4F9983FB
S11339A08883CB57D44086EA92E0C358DB4F99838F
S11339B08883CD57D44081EA92E0C158DB4F998384
S11339C08883CF57D4408DE992E0CF57DB4F99835A
S11339D08883C158D44089E992E0CD57DB4F99835D
S11339E08883C358D440CB57DB4FB982A882C558CB
S11339F0D44081E992E0C957DB4F99838883C75843
S1133A00D4408DE892E0C757DB4F99838883C95827
S1133A10D4408AE892E0C557DB4F99838883CB581A
S1133A20D44086E892E0C357DB4F99838883CD580E
S1133A30D44083E892E0C157DB4F99838883CF5801
S1133A40D4408FE792E0CF56DB4F99838883C159E6
S1133A50D4408CE792E0CD56DB4F99838883C359D9
S1133A60D440CB56DB4F99828882C559D44085E730
S1133A7092E0C956DB4F99838883C759D440C7560F
S1133A80DB4F79826882C959D4408FE692E0C556EB
S1133A90DB4F99838883CB59D4408CE692E0C3569C
S1133AA0DB4F99838883CD59D44089E692E0C1568F
S1133AB0DB4F99838883CF59D44086E692E0CF5573
S1133AC0DB4F99838883C15AD44083E692E0CD5575
S1133AD0DB4F99838883C35AD44080E692E0CB5568
S1133AE0DB4F99838883C55AD4408EE592E0C9554B
S1133AF0DB4F99838883C75AD4408BE592E0C7553E
S1133B00DB4F99838883C95AD44088E592E0C55530
S1133B10DB4F99838883CB5AD44085E592E0C35523
S1133B20DB4F99838883CD5AD44083E592E0C15515
S1133B30DB4F99838883CF5AD44080E592E0CF54F9
S1133B40DB4F99838883C15BD4408EE492E0CD54EB
S1133B50DB4F99838883C35BD4408BE492E0CB54DE
S1133B60DB4F99838883C55BD44089E492E0C954D0
S1133B70DB4F99838883C75BD44087E492E0C754C2
S1133B80DB4F99838883C95BD44084E492E0C554B5
S1133B90DB4F99838883CB5BD44082E492E0C354A7
S1133BA0DB4F99838883CD5BD44080E492E0C15499
S1133BB0DB4F99838883CF5BD4408DE392E0CF536E
S1133BC0DB4F99838883C15CD4408BE392E0CD536F
S1133BD0DB4F99838883C35CD44089E392E0CB5361
S1133BE0DB4F99838883C55CD44087E392E0C95353
S1133BF0DB4F99838883C75CD44085E392E0C75345
S1133C00DB4F99838883C95CD440C553DB4F598209
S1133C104882CB5CD44081E392E0C353DB4F998369
S1133C208883CD5CD4408FE292E0C153DB4F99830B
S1133C308883CF5CD4408DE292E0CF52DB4F9983EE
S1133C408883C15DD4408BE292E0CD52DB4F9983EF
S1133C508883C35DD44089E292E0CB52DB4F9983E1
S1133C608883C55DD44087E292E0C952DB4F9983D3
S1133C708883C75DD440C752DB4F39822882C95D2F
S1133C80D44083E292E0C552DB4F99838883CB5DB5
S1133C90D44081E292E0C352DB4F99838883CD5DA7
S1133CA0D44080E292E0C152DB4F99838883CF5D98
S1133CB0D440AEE1B2E0CF51DB4FB983A883C15EFB
S1133CC0D4408CE192E0CD51DB4F99838883C35E6D
S1133CD0D4408AE192E0CB51DB4F99838883C55E5F
S1133CE0D44089E192E0C951DB4F99838883C75E50
S1133CF0D440E7E1F2E0C751DB4FF983E883C95EC2
S1133D00D44085E192E0C551DB4F99838883CB5E33
S1133D10D44084E192E0C351DB4F99838883CD5E24
S1133D20D44082E192E0C151DB4F99838883CF5E16
S1133D30D44081E192E0CF50DB4F99838883C15F07
S1133D40D4408FE092E0CD50DB4F99838883C35FEA
S1133D50D4408DE092E0CB50DB4F99838883C55FDC
S1133D60D4408CE092E0C950DB4F99838883C75FCD
S1133D70D4408AE092E0C750DB4F99838883C95FBF
S1133D80D4400F2EF9E0CF2EF2E0DF2EF02DC550F7
S1133D90DB4FD982C882CB5FD44087E092E0C35026
S1133DA0DB4F99838883CD5FD44086E092E0C15095
S1133DB0DB4F99838883CF5FD44084E092E0CF5F68
S1133DC0DA4F99838883C150D54083E092E0CD5F78
S1133DD0DA4F99838883C350D54081E092E0CB5F6A
S1133DE0DA4F99838883C550D54080E092E0C95F5B
S1133DF0DA4F99838883C750D5408FEF91E0C75F2E
S1133E00DA4F99838883C950D5408DEF91E0C55F1F
S1133E10DA4F99838883CB50D5408CEF91E0C35F10
S1133E20DA4F99838883CD50D5400BEF11E0C15F01
S1133E30DA4F19830883CF50D54089EF91E0CF5EE4
S1133E40DA4F99838883C151D54088EF91E0CD5EE4
S1133E50DA4F99838883C351D54087EF91E0CB5ED5
S1133E60DA4F99838883C551D54085EF91E0C95EC7
S1133E70DA4F99838883C751D54081E090E0C75ECB
S1133E80DA4F99838883C951D54084E090E0C55EB8
S1133E90DA4F99838883CB51D54087E090E0C35EA5
S1133EA0DA4F99838883CD51D5408AE090E0C15E92
S1133EB0DA4F99838883CF51D5408DE090E0CF5D70
S1133EC0DA4F99838883C152D54080E190E0CD5D7B
S1133ED0DA4F99838883C352D54023E130E0CB5D28
S1133EE0DA4F39832883C552D54086E190E0C95D15
S1133EF0DA4F99838883C752D54089E190E0C75D42
S1133F00DA4F99838883C952D5408CE190E0C55D2E
S1133F10DA4F99838883CB52D5408FE190E0C35D1B
S1133F20DA4F99838883CD52D54082E290E0C15D17
S1133F30DA4F99838883CF52D54085E290E0CF5CF5
S1133F40DA4F99838883C153D54048E250E0CD5C71
S1133F50DA4F59834883C353D5408BE290E0CB5C5E
S1133F60DA4F99838883C553D5408EE290E0C95CCB
S1133F70DA4F99838883C753D54081E390E0C75CC7
S1133F80DA4F99838883C953D54084E390E0C55CB4
S1133F90DA4F99838883CB53D54087E390E0C35CA1
S1133FA0DA4F99838883CD53D5408AE390E0C15C8E
S1133FB0DA4F99838883CF53D5406DE370E0CF5BAC
S1133FC0DA4F79836883C154D54080E490E0CD5BB7
S1133FD0DA4F99838883C354D54083E490E0CB5B64
S1133FE0DA4F99838883C554D54086E490E0C95B51
S1133FF0DA4F99838883C754D54089E490E0C75B3E
S1134000DA4F99838883C954D5408CE490E0C55B2A
S1134010DA4F99838883CB54D540AFE4B0E0C35BD7
S1134020DA4FB983A883CD54D54082E590E0C15BD3
S1134030DA4F99838883CF54D5400F2EF5E5EF2EC0
S1134040F12CF02DCF5ADA4FF982E882C155D540D0
S11340508EE590E0CD5ADA4F99838883C355D540D5
S113406001E610E0CB5ADA4F19830883C555D540D1
S113407084E690E0C95ADA4F99838883C755D540BE
S1134080A7E6B0E0C75ADA4FB983A883C955D5402B
S11340908AE690E0C55ADA4F99838883CB55D54098
S11340A0EDE6F0E0C35ADA4FF983E883CD55D54005
S11340B080E790E0C15ADA4F99838883CF55D54081
S11340C063E770E0CF59DA4F79836883C156D540EE
S11340D086E790E0CD59DA4F99838883C356D5405B
S11340E049E750E0CB59DA4F59834883C556D54048
S11340F08CE790E0C959DA4F99838883C756D54035
S11341002FE730E0C759DA4F39832883C956D540A1
S113411082E890E0C559DA4F99838883CB56D5401D
S11341200F2EF5E8AF2EB12CF02DC359DA4FB9821A
S1134130A882CD56D54088E890E0C159DA4F9983DA
S11341408883CF56D5400F2EFBE88F2E912CF02D6F
S1134150CF58DA4F99828882C157D5408EE890E0D3
S1134160CD58DA4F99838883C357D5400F2EF1E990
S11341706F2E712CF02DCB58DA4F79826882C55797
S1134180D54084E990E0C958DA4F99838883C757AA
S1134190D5400F2EF7E94F2E512CF02DC758DA4F8A
S11341A059824882C957D5408AE990E0C558DA4F08
S11341B099838883CB57D5400F2EFDE92F2E312CC0
S11341C0F02DC358DA4F39822882CD57D54080EA82
S11341D090E0C158DA4F99838883CF57D5400F2E8A
S11341E0F3EACF2ED12CF02DCF57DA4FD982C882E3
S11341F0C158D54086EA90E0CD57DA4F9983888339
S1134200C358D54089EA90E0CB57DA4F9983888325
S1134210C558D5408CEA90E0C957DA4F9983888312
S1134220C758D5400F2EFFEACF2ED12CF02DC757FB
S1134230DA4FD982C882C958D54082EB90E0C5577D
S1134240DA4F99838883CB58D54085EB90E0C357E8
S1134250DA4F99838883CD58D54088EB90E0C157D5
S1134260DA4F99838883CF58D5400F2EFBEBCF2E9E
S1134270D12CF02DCF56DA4FD982C882C159D540FE
S11342808EEB90E0CD56DA4F99838883C359D5409D
S113429081EC90E0CB56DA4F99838883C559D54099
S11342A084EC90E0C956DA4F99838883C759D54086
S11342B00F2EF7ECCF2ED12CF02DC756DA4FD98222
S11342C0C882C959D5408AEC90E0C556DA4F998323
S11342D08883CB59D5408DEC90E0C356DA4F99834F
S11342E08883CD59D5400F2EF0EDCF2ED12CF02D53
S11342F0C156DA4FD982C882CF59D5400F2EF3ED7B
S1134300CF2ED12CF02DCF55DA4FD982C882C15A85
S1134310D5400F2EF6EDCF2ED12CF02DCD55DA4F02
S1134320D982C882C35AD5400F2EF9EDCF2ED12C95
S1134330F02DCB55DA4FD982C882C55AD5400F2EFD
S1134340FCEDCF2ED12CF02DC955DA4FD982C8827D
S1134350C75AD5400F2EFFEDCF2ED12CF02DC755C7
S1134360DA4FD982C882C95AD5400F2EF2EECF2E29
S1134370D12CF02DC555DA4FD982C882CB5AD540FD
S11343800F2EF5EECF2ED12CF02DC355DA4FD98256
S1134390C882CD5AD5400F2EF8EECF2ED12CF02D59
S11343A0C155DA4FD982C882CF5AD5400F2EFBEEC1
S11343B0CF2ED12CF02DCF54DA4FD982C882C15BD5
S11343C0D5400F2EFEEECF2ED12CF02DCD54DA4F4A
S11343D0D982C882C35BD5400F2EF1EFCF2ED12CEA
S11343E0F02DCB54DA4FD982C882C55BD5400F2E4D
S11343F0F4EFCF2ED12CF02DC954DA4FD982C882D4
S1134400C75BD5400F2EF7EFCF2ED12CF02DC7541C
S1134410DA4FD982C882C95BD5400F2EFAEFCF2E6E
S1134420D12CF02DC554DA4FD982C882CB5BD5404C
S11344300F2EFDEFCF2ED12CF02DC354DA4FD9829D
S1134440C882CD5BD540C12CDD24D394C154DA4F4E
S1134450D982C882CF5BD5400F2EF3E0CF2EDD2466
S1134460D394F02DCF53DA4FD982C882C15CD540A2
S11344700F2EF6E0CF2EDD24D394F02DCD53DA4F5A
S1134480D982C882C35CD5400F2EF9E0CF2EDD243B
S1134490D394F02DCB53DA4FD982C882C55CD54072
S11344A00F2EFCE0CF2EDD24D394F02DC953DA4F28
S11344B0D982C882C75CD5400F2EFFE0CF2EDD2401
S11344C0D394F02DC753DA4FD982C882C95CD54042
S11344D00F2EF2E1CF2EDD24D394F02DC553DA4F05
S11344E0D982C882CB5CD5400F2EF5E1CF2EDD24D6
S11344F0D394F02DC353DA4FD982C882CD5CD54012
S11345000F2EF8E1CF2EDD24D394F02DC153DA4FD2
S1134510D982C882CF5CD5400F2EFBE1CF2EDD249B
S1134520D394F02DCF52DA4FD982C882C15DD540E1
S11345300F2EFEE1CF2EDD24D394F02DCD52DA4F91
S1134540D982C882C35DD5400F2EF1E2CF2EDD247F
S1134550D394F02DCB52DA4FD982C882C55DD540B1
S11345600F2EF4E2CF2EDD24D394F02DC952DA4F6E
S1134570D982C882C75DD5400F2EF7E2CF2EDD2445
S1134580D394F02DC752DA4FD982C882C95DD54081
S11345900F2EFAE2CF2EDD24D394F02DC552DA4F3C
S11345A0D982C882CB5DD5400F2EFDE2CF2EDD240B
S11345B0D394F02DC352DA4FD982C882CD5DD54051
S11345C00F2EF0E3CF2EDD24D394F02DC152DA4F19
S11345D0D982C882CF5DD5400F2EF3E3CF2EDD24E0
S11345E0D394F02DCF51DA4FD982C882C15ED54021
S11345F00F2EF6E3CF2EDD24D394F02DCD51DA4FD8
S1134600D982C882C35ED5400F2EF9E3CF2EDD24B4
S1134610D394F02DCB51DA4FD982C882C55ED540F0
S11346200F2EFCE3CF2EDD24D394F02DC951DA4FA5
S1134630D982C882C75ED5400F2EFFE3CF2EDD247A
S1134640D394F02DC751DA4FD982C882C95ED540C0
S11346500F2EF2E4CF2EDD24D394F02DC551DA4F82
S1134660D982C882CB5ED5400F2EF5E4CF2EDD244F
S1134670D394F02DC351DA4FD982C882CD5ED54090
S11346800F2EF8E4CF2EDD24D394F02DC151DA4F50
S1134690D982C882CF5ED5400F2EFBE4CF2EDD2415
S11346A0D394F02DCF50DA4FD982C882C15FD54060
S11346B00F2EFEE4CF2EDD24D394F02DCD50DA4F0F
S11346C0D982C882C35FD5400F2EF1E5CF2EDD24F9
S11346D0D394F02DCB50DA4FD982C882C55FD54030
S11346E00F2EF4E5CF2EDD24D394F02DC950DA4FEC
S11346F0D982C882C75FD5400F2EF7E5CF2EDD24BF
S1134700D394F02DC750DA4FD982C882C95FD540FF
S11347100F2EFAE5CF2EDD24D394F02DC550DA4FB9
S1134720D982C882CB5FD5400F2EFDE5CF2EDD2484
S1134730D394F02DC350DA4FD982C882CD5FD540CF
S11347400F2EF0E6CF2EDD24D394F02DC150DA4F96
S1134750D982C882CF5FD5400F2EF3E6CF2EDD2459
S1134760D394F02DCF5FD94FD982C882C150D6409F
S11347700F2EF6E6CF2EDD24D394F02DCD5FD94F46
S1134780D982C882C350D6400F2EF9E6CF2EDD243D
S1134790D394F02DCB5FD94FD982C882C550D6406F
S11347A00F2EFCE6CF2EDD24D394F02DC95FD94F14
S11347B0D982C882C750D6400F2EFFE6CF2EDD2403
S11347C0D394F02DC75FD94FD982C882C950D6403F
S11347D00F2EF2E7CF2EDD24D394F02DC55FD94FF1
S11347E0D982C882CB50D6400F2EF5E7CF2EDD24D8
S11347F0D394F02DC35FD94FD982C882CD50D6400F
S11348000F2EF8E7CF2EDD24D394F02DC15FD94FBE
S1134810D982C882CF50D6400F2EFBE7CF2EDD249D
S1134820D394F02DCF5ED94FD982C882C151D640DE
S11348300F2EFEE7CF2EDD24D394F02DCD5ED94F7D
S1134840D982C882C351D6400F2EF1E8CF2EDD2481
S1134850D394F02DCB5ED94FD982C882C551D640AE
S11348600F2EF4E8CF2EDD24D394F02DC95ED94F5A
S1134870D982C882C751D6400F2EF9E4CF2EFBE06F
S1134880DF2EF02DC75ED94FD982C882C951D640D8
S11348900F2EFEEACF2EF7E0DF2EF02DC55ED94FA6
S11348A0D982C882CB51D6400F2EFCE6CF2EF6E03B
S11348B0DF2EF02DC35ED94FD982C882CD51D640A8
S11348C00F2EF6EBCF2EF5E0DF2EF02DC15ED94F83
S11348D0D982C882CF51D6400F2EFAE3CF2EF5E00D
S11348E0DF2EF02DCF5DD94FD982C882C152D64078
S11348F00F2EF0EECF2EF4E0DF2EF02DCD5DD94F4C
S1134900D982C882C352D6400F2EF9E9CF2EF4E0E3
S1134910DF2EF02DCB5DD94FD982C882C552D64047
S11349200F2EFFE5CF2EF4E0DF2EF02DC95DD94F19
S1134930D982C882C752D6400F2EFFE2CF2EF4E0B0
S1134940DF2EF02DC75DD94FD982C882C952D64017
S11349500F2EF6E0CF2EF4E0DF2EF02DC55DD94FFB
S1134960D982C882CB52D6400F2EF3EECF2EF3E07D
S1134970DF2EF02DC35DD94FD982C882CD52D640E7
S11349800F2EF4ECCF2EF3E0DF2EF02DC15DD94FC6
S1134990D982C882CF52D6400F2EF8EACF2EF3E048
S11349A0DF2EF02DCF5CD94FD982C882C153D640B7
S11349B00F2EFFE8CF2EF3E0DF2EF02DCD5CD94F84
S11349C0D982C882C353D6400F2EF8E7CF2EF3E026
S11349D0DF2EF02DCB5CD94FD982C882C553D64087
S11349E00F2EF4E6CF2EF3E0DF2EF02DC95CD94F65
S11349F0D982C882C753D6400F2EF1E5CF2EF3E0FB
S1134A00DF2EF02DC75CD94FD982C882C953D64056
S1134A100F2EF0E4CF2EF3E0DF2EF02DC55CD94F3E
S1134A20D982C882CB53D6400F2EF0E3CF2EF3E0C9
S1134A30DF2EF02DC35CD94FD982C882CD53D64026
S1134A400F2EF1E2CF2EF3E0DF2EF02DC15CD94F13
S1134A50D982C882CF53D6400F2EF3E1CF2EF3E094
S1134A60DF2EF02DCF5BD94FD982C882C154D640F6
S1134A700F2EF6E0CF2EF3E0DF2EF02DCD5BD94FD5
S1134A80D982C882C354D6400F2EFAEFCF2EF2E05B
S1134A90DF2EF02DCB5BD94FD982C882C554D640C6
S1134AA00F2EFEEECF2EF2E0DF2EF02DC95BD94F94
S1134AB0D982C882C754D6400F2EF3EECF2EF2E02F
S1134AC0DF2EF02DC75BD94FD982C882C954D64096
S1134AD00F2EF9EDCF2EF2E0DF2EF02DC55BD94F6E
S1134AE0D982C882CB54D6400F2EFFECCF2EF2E0F1
S1134AF0DF2EF02DC35BD94FD982C882CD54D64066
S1134B000F2EF6ECCF2EF2E0DF2EF02DC15BD94F45
S1134B10D982C882CF54D6400F2EFDEBCF2EF2E0BF
S1134B20DF2EF02DCF5AD94FD982C882C155D64035
S1134B300F2EF5EBCF2EF2E0DF2EF02DCD5AD94F0C
S1134B40D982C882C355D6400F2EFDEACF2EF2E09B
S1134B50DF2EF02DCB5AD94FD982C882C555D64005
S1134B600F2EF5EACF2EF2E0DF2EF02DC95AD94FE1
S1134B70D982C882C755D6400F2EFEE9CF2EF2E067
S1134B80DF2EF02DC75AD94FD982C882C955D640D5
S1134B900F2EF7E9CF2EF2E0DF2EF02DC55AD94FB4
S1134BA0D982C882CB55D6400F2EF0E9CF2EF2E041
S1134BB0DF2EF02DC35AD94FD982C882CD55D640A5
S1134BC00F2EF9E8CF2EF2E0DF2EF02DC15AD94F87
S1134BD0D982C882CF55D6400F2EF3E8CF2EF2E00B
S1134BE0DF2EF02DCF59D94FD982C882C156D64075
S1134BF00F2EFDE7CF2EF2E0DF2EF02DCD59D94F49
S1134C00D982C882C356D6400F2EF7E7CF2EF2E0E2
S1134C10DF2EF02DCB59D94FD982C882C556D64044
S1134C200F2EF1E7CF2EF2E0DF2EF02DC959D94F28
S1134C30D982C882C756D6400F2EFCE6CF2EF2E0AA
S1134C40DF2EF02DC759D94FD982C882C956D64014
S1134C500F2EF7E6CF2EF2E0DF2EF02DC559D94FF7
S1134C60D982C882CB56D6400F2EF2E6CF2EF2E080
S1134C70DF2EF02DC359D94FD982C882CD56D640E4
S1134C800F2EFDE5CF2EF2E0DF2EF02DC159D94FC6
S1134C90D982C882CF56D6400F2EF8E5CF2EF2E047
S1134CA0DF2EF02DCF58D94FD982C882C157D640B4
S1134CB00F2EF3E5CF2EF2E0DF2EF02DCD58D94F95
S1134CC0D982C882C357D6400F2EFFE4CF2EF2E01C
S1134CD0DF2EF02DCB58D94FD982C882C557D64084
S1134CE00F2EFAE4CF2EF2E0DF2EF02DC958D94F63
S1134CF0D982C882C757D6400F2EF6E4CF2EF2E0F1
S1134D00DF2EF02DC758D94FD982C882C957D64053
S1134D100F2EF2E4CF2EF2E0DF2EF02DC558D94F3E
S1134D20D982C882CB57D6400F2EFEE3CF2EF2E0B5
S1134D30DF2EF02DC358D94FD982C882CD57D64023
S1134D400F2EFAE3CF2EF2E0DF2EF02DC158D94F0B
S1134D50D982C882CF57D6400F2EF6E3CF2EF2E089
S1134D60DF2EF02DCF57D94FD982C882C158D640F3
S1134D700F2EF2E3CF2EF2E0DF2EF02DCD57D94FD8
S1134D80D982C882C358D6400F2EFFE2CF2EF2E05C
S1134D90DF2EF02DCB57D94FD982C882C558D640C3
S1134DA00F2EFBE2CF2EF2E0DF2EF02DC957D94FA4
S1134DB0D982C882C758D6400F2EF8E2CF2EF2E02F
S1134DC0DF2EF02DC757D94FD982C882C958D64093
S1134DD00F2EF4E2CF2EF2E0DF2EF02DC557D94F7F
S1134DE0D982C882CB58D6400F2EF1E2CF2EF2E002
S1134DF0DF2EF02DC357D94FD982C882CD58D64063
S1134E000F2EFEE1CF2EF2E0DF2EF02DC157D94F49
S1134E10D982C882CF58D6400F2EFBE1CF2EF2E0C4
S1134E20DF2EF02DCF56D94FD982C882C159D64032
S1134E300F2EF8E1CF2EF2E0DF2EF02DCD56D94F14
S1134E40D982C882C359D6400F2EF5E1CF2EF2E0A5
S1134E50DF2EF02DCB56D94FD982C882C559D64002
S1134E600F2EF2E1CF2EF2E0DF2EF02DC956D94FEE
S1134E70D982C882C759D6400F2EFFE0CF2EF2E068
S1134E80DF2EF02DC756D94FD982C882C959D640D2
S1134E900F2EFCE0CF2EF2E0DF2EF02DC556D94FB9
S1134EA0D982C882CB59D6400F2EF9E0CF2EF2E03A
S1134EB0DF2EF02DC356D94FD982C882CD59D640A2
S1134EC00F2EF6E0CF2EF2E0DF2EF02DC156D94F93
S1134ED0D982C882CF59D6406894CC24C2F8DD2444
S1134EE0D1F8CF55D94FD982C882C15AD640CC24E3
S1134EF0C3946894DD24D1F8CD55D94FD982C882A2
S1134F00C35AD640CC24CA94DD24D394CB55D94F6C
S1134F10D982C882C55AD6400F2EFCEFCF2EDD248D
S1134F20D394F02DC955D94FD982C882C75AD640D7
S1134F300F2EFAEFCF2EDD24D394F02DC755D94F81
S1134F40D982C882C95AD6400F2EF7EFCF2EDD245E
S1134F50D394F02DC555D94FD982C882CB5AD640A7
S1134F600F2EF5EFCF2EDD24D394F02DC355D94F5A
S1134F70D982C882CD5AD6400F2EF2EFCF2EDD242F
S1134F80D394F02DC155D94FD982C882CF5AD64077
S1134F900F2EF0EFCF2EDD24D394F02DCF54D94F24
S1134FA0D982C882C15BD6400F2EFEEECF2EDD24FF
S1134FB0D394F02DCD54D94FD982C882C35BD64047
S1134FC00F2EFCEECF2EDD24D394F02DCB54D94FED
S1134FD0D982C882C55BD6400F2EFAEECF2EDD24CF
S1134FE0D394F02DC954D94FD982C882C75BD64017
S1134FF00F2EF7EECF2EDD24D394F02DC754D94FC6
S1135000D982C882C95BD6400F2EF5EECF2EDD249F
S1135010D394F02DC554D94FD982C882CB5BD640E6
S11350200F2EF3EECF2EDD24D394F02DC354D94F9D
S1135030D982C882CD5BD6400F2EF1EECF2EDD246F
S1135040D394F02DC154D94FD982C882CF5BD640B6
S11350500F2EFFEDCF2EDD24D394F02DCF53D94F57
S1135060D982C882C15CD6400F2EFDEDCF2EDD243F
S1135070D394F02DCD53D94FD982C882C35CD64086
S11350800F2EFBEDCF2EDD24D394F02DCB53D94F2F
S1135090D982C882C55CD6400F2EF9EDCF2EDD240F
S11350A0D394F02DC953D94FD982C882C75CD64056
S11350B00F2EF7EDCF2EDD24D394F02DC753D94F07
S11350C0D982C882C95CD6400F2EF6EDCF2EDD24DE
S11350D0D394F02DC553D94FD982C882CB5CD64026
S11350E00F2EF4EDCF2EDD24D394F02DC353D94FDE
S11350F0D982C882CD5CD6400F2EF2EDCF2EDD24AE
S1135100D394F02DC153D94FD982C882CF5CD640F5
S11351100F2EF0EDCF2EDD24D394F02DCF52D94FA6
S1135120D982C882C15DD6400F2EFEECCF2EDD247D
S1135130D394F02DCD52D94FD982C882C35DD640C5
S11351400F2EFDECCF2EDD24D394F02DCB52D94F6E
S1135150D982C882C55DD6400F2EFBECCF2EDD244C
S1135160D394F02DC952D94FD982C882C75DD64095
S11351700F2EF9ECCF2EDD24D394F02DC752D94F46
S1135180D982C882C95DD6400F2EF8ECCF2EDD241B
S1135190D394F02DC552D94FD982C882CB5DD64065
S11351A00F2EF6ECCF2EDD24D394F02DC352D94F1D
S11351B0D982C882CD5DD6400F2EF5ECCF2EDD24EA
S11351C0D394F02DC152D94FD982C882CF5DD64035
S11351D00F2EF3ECCF2EDD24D394F02DCF51D94FE5
S11351E0D982C882C15ED6400F2EF1ECCF2EDD24C9
S11351F0D394F02DCD51D94FD982C882C35ED64005
S11352000F2EF0ECCF2EDD24D394F02DCB51D94FBB
S1135210D982C882C55ED6400F2EFEEBCF2EDD2488
S1135220D394F02DC951D94FD982C882C75ED640D4
S11352300F2EFDEBCF2EDD24D394F02DC751D94F83
S1135240D982C882C95ED6400F2EFBEBCF2EDD2457
S1135250D394F02DC551D94FD982C882CB5ED640A4
S11352600F2EFAEBCF2EDD24D394F02DC351D94F5A
S1135270D982C882CD5ED6400F2EF8EBCF2EDD2426
S1135280D394F02DC151D94FD982C882CF5ED64074
S11352900F2EF7EBCF2EDD24D394F02DCF50D94F22
S11352A0D982C882C15FD6400F2EF6EBCF2EDD2403
S11352B0D394F02DCD50D94FD982C882C35FD64044
S11352C00F2EF4EBCF2EDD24D394F02DCB50D94FF9
S11352D0D982C882C55FD6400F2EF3EBCF2EDD24D2
S11352E0D394F02DC950D94FD982C882C75FD64014
S11352F00F2EF1EBCF2EDD24D394F02DC750D94FD0
S1135300D982C882C95FD6400F2EF0EBCF2EDD24A0
S1135310D394F02DC550D94FD982C882CB5FD640E3
S11353200F2EFFEACF2EDD24D394F02DC350D94F96
S1135330D982C882CD5FD6400F2EFDEACF2EDD2460
S1135340D394F02DC150D94FD982C882CF5FD640B3
S11353500F2EFCEACF2EDD24D394F02DCF5FD84F4F
S1135360D982C882C150D7400F2EFBEACF2EDD244C
S1135370D394F02DCD5FD84FD982C882C350D74083
S11353800F2EFAEACF2EDD24D394F02DCB5FD84F25
S1135390D982C882C550D7400F2EF8EACF2EDD241B
S11353A0D394F02DC95FD84FD982C882C750D74053
S11353B00F2EF7EACF2EDD24D394F02DC75FD84FFC
S11353C0D982C882C950D7400F2EF6EACF2EDD24E9
S11353D0D394F02DC55FD84FD982C882CB50D74023
S11353E00F2EF5EACF2EDD24D394F02DC35FD84FD2
S11353F0D982C882CD50D7400F2EF4EACF2EDD24B7
S1135400D394F02DC15FD84FD982C882CF50D740F2
S11354100F2EF2EACF2EDD24D394F02DCF5ED84F99
S1135420D982C882C151D7400F2EF1EACF2EDD2494
S1135430D394F02DCD5ED84FD982C882C351D740C2
S11354400F2EF0EACF2EDD24D394F02DCB5ED84F6F
S1135450D982C882C551D7400F2EFFE9CF2EDD2453
S1135460D394F02DC95ED84FD982C882C751D74092
S1135470CC24C394D12CC75ED84FD982C882C951D9
S1135480D7400F2EF3E0CF2ED12CF02DC55ED84F90
S1135490D982C882CB51D7400F2EF5E0CF2ED12C24
S11354A0F02DC35ED84FD982C882CD51D7400F2E7C
S11354B0F7E0CF2ED12CF02DC15ED84FD982C8820F
S11354C0CF51D7400F2EF9E0CF2ED12CF02DCF5D48
S11354D0D84FD982C882C152D7400F2EFBE0CF2EBD
S11354E0D12CF02DCD5DD84FD982C882C352D7407C
S11354F00F2EFDE0CF2ED12CF02DCB5DD84FD982CD
S1135500C882C552D7400F2EFFE0CF2ED12CF02DEC
S1135510C95DD84FD982C882C752D7400F2EF1E156
S1135520CF2ED12CF02DC75DD84FD982C882C95255
S1135530D7400F2EF3E1CF2ED12CF02DC55DD84FDF
S1135540D982C882CB52D7400F2EF5E1CF2ED12C71
S1135550F02DC35DD84FD982C882CD52D7400F2ECB
S1135560F7E1CF2ED12CF02DC15DD84FD982C8825E
S1135570CF52D7400F2EF9E1CF2ED12CF02DCF5C96
S1135580D84FD982C882C153D7400F2EFBE1CF2E0A
S1135590D12CF02DCD5CD84FD982C882C353D740CB
S11355A00F2EFDE1CF2ED12CF02DCB5CD84FD9821C
S11355B0C882C553D7400F2EFFE1CF2ED12CF02D3A
S11355C0C95CD84FD982C882C753D7400F2EF1E2A5
S11355D0CF2ED12CF02DC75CD84FD982C882C953A5
S11355E0D7400F2EF3E2CF2ED12CF02DC55CD84F2F
S11355F0D982C882CB53D7400F2EF5E2CF2ED12CBF
S1135600F02DC35CD84FD982C882CD53D7400F2E1A
S1135610F7E2CF2ED12CF02DC15CD84FD982C882AD
S1135620CF53D7400F2EF9E2CF2ED12CF02DCF5BE4
S1135630D84FD982C882C154D7400F2EFBE2CF2E57
S1135640D12CF02DCD5BD84FD982C882C354D7401A
S11356500F2EFDE2CF2ED12CF02DCB5BD84FD9826B
S1135660C882C554D7400F2EFFE2CF2ED12CF02D87
S1135670C95BD84FD982C882C754D7400F2EF1E3F3
S1135680CF2ED12CF02DC75BD84FD982C882C954F4
S1135690D7400F2EF3E3CF2ED12CF02DC55BD84F7E
S11356A0D982C882CB54D7400F2EF5E3CF2ED12C0C
S11356B0F02DC35BD84FD982C882CD54D7400F2E6A
S11356C0F7E3CF2ED12CF02DC15BD84FD982C882FD
S11356D0CF54D7400F2EF9E3CF2ED12CF02DCF5A33
S11356E0D84FD982C882C155D7400F2EFBE3CF2EA5
S11356F0D12CF02DCD5AD84FD982C882C355D7406A
S11357000F2EFDE3CF2ED12CF02DCB5AD84FD982BA
S1135710C882C555D7400F2EFFE3CF2ED12CF02DD4
S1135720C95AD84FD982C882C755D7400F2EF1E441
S1135730CF2ED12CF02DC75AD84FD982C882C95543
S1135740D7400F2EF3E4CF2ED12CF02DC55AD84FCD
S1135750D982C882CB55D7400F2EF5E4CF2ED12C59
S1135760F02DC35AD84FD982C882CD55D7400F2EB9
S1135770F7E4CF2ED12CF02DC15AD84FD982C8824C
S1135780CF55D7400F2EF9E4CF2ED12CF02DCF5981
S1135790D84FD982C882C156D7400F2EFBE4CF2EF2
S11357A0D12CF02DCD59D84FD982C882C356D740B9
S11357B00F2EFDE4CF2ED12CF02DCB59D84FD9820A
S11357C0C882C556D7400F2EFFE4CF2ED12CF02D22
S11357D0C959D84FD982C882C756D7400F2EF1E590
S11357E0CF2ED12CF02DC759D84FD982C882C95693
S11357F0D7400F2EF3E5CF2ED12CF02DC559D84F1D
S1135800D982C882CB56D740C359D84FF982E8828F
S1135810CD56D7400F2EF7E5EF2EF12CF02DC159C0
S1135820D84FF982E882CF56D7400F2EF9E5EF2EF4
S1135830F12CF02DCF58D84FF982E882C157D740C8
S11358400F2EFBE5EF2EF12CF02DCD58D84FF98219
S1135850E882C357D7400F2EFDE5EF2EF12CF02D33
S1135860CB58D84FF982E882C557D7400F2EFFE5B1
S1135870EF2EF12CF02DC958D84FF982E882C75782
S1135880D740C758D84F19830883C957D74003E670
S113589010E0C558D84F19830883CB57D74005E685
S11358A010E0C358D84F19830883CD57D740C15847
S11358B0D84FB983A883CF57D740A9E6B0E0CF57D4
S11358C0D84FB983A883C158D740ABE6B0E0CD57D1
S11358D0D84FB983A883C358D740CB57D84FF9833F
S11358E0E883C558D740EFE6F0E0C957D84FF983AD
S11358F0E883C758D740E1E7F0E0C757D84FF983AA
S1135900E883C958D740C557D84F79836883CB58A3
S1135910D74065E770E0C357D84F79836883CD5883
S1135920D74067E770E0C157D84F79836883CF5871
S1135930D740CF56D84F59834883C159D7404BE7F6
S113594050E0CD56D84F59834883C359D7404DE7CB
S113595050E0CB56D84F59834883C559D740C956D0
S1135960D84F39832883C759D74021E830E0C75638
S1135970D84F39832883C959D74023E830E0C55626
S1135980D84F39832883CB59D740C356D84FB982CF
S1135990A882CD59D74027E830E0C156D84F398383
S11359A02883CF59D74029E830E0CF55D84F3983E1
S11359B02883C15AD740CD55D84F99828882C35A7B
S11359C0D7402DE830E0CB55D84F39832883C55ACA
S11359D0D7402FE830E0C955D84F39832883C75AB8
S11359E0D740C755D84F79826882C95AD74023E92E
S11359F030E0C555D84F39832883CB5AD74025E9A1
S1135A0030E0C355D84F39832883CD5AD740C15588
S1135A10D84F59824882CF5AD74029E930E0CF5431
S1135A20D84F39832883C15BD7402BE930E0CD546C
S1135A30D84F39832883C35BD740CB54D84F39829E
S1135A402882C55BD7402FE930E0C954D84F398349
S1135A502883C75BD74021EA30E0C754D84F398345
S1135A602883C95BD74003EA10E0C554D84F198393
S1135A700883CB5BD74025EA30E0C354D84F398341
S1135A802883CD5BD74027EA30E0C154D84F39830F
S1135A902883CF5BD74029EA30E0CF53D84F3983EE
S1135AA02883C15CD7402BEA30E0CD53D84F3983EB
S1135AB02883C35CD7402DEA30E0CB53D84F3983D9
S1135AC02883C55CD7404FEA50E0C953D84F598367
S1135AD04883C75CD74021EB30E0C753D84F3983A4
S1135AE02883C95CD74023EB30E0C553D84F3983B2
S1135AF02883CB5CD74065EB70E0C353D84F7983E0
S1135B006883CD5CD74027EB30E0C153D84F39834D
S1135B102883CF5CD74029EB30E0CF52D84F39836C
S1135B202883C15DD740ABEBB0E0CD52D84FB983E9
S1135B30A883C35DD7402DEB30E0CB52D84F3983D7
S1135B402883C55DD7402FEB30E0C952D84F398345
S1135B502883C75DD740E1ECF0E0C752D84FF98302
S1135B60E883C95DD74023EC30E0C552D84F398370
S1135B702883CB5DD74025EC30E0C352D84F39831E
S1135B802883CD5DD7400F2EF7ECCF2ED12CF02DEE
S1135B90C152D84FD982C882CF5DD74029EC30E0BA
S1135BA0CF51D84F39832883C15ED7402BEC30E0E6
S1135BB0CD51D84F39832883C35ED740CB51D84FBA
S1135BC099838883C55ED7408FEC90E0C951D84F44
S1135BD099838883C75ED74081ED90E0C751D84F41
S1135BE099838883C95ED74003ED10E0C551D84F2F
S1135BF019830883CB5ED74085ED90E0C351D84F1D
S1135C0099838883CD5ED74087ED90E0C151D84F0A
S1135C1099838883CF5ED74089ED90E0CF50D84FE9
S1135C2099838883C15FD7408BED90E0CD50D84FE6
S1135C3099838883C35FD7400F2EFDED2F2E312C1F
S1135C40F02DCB50D84F39822882C55FD7400F2E14
S1135C50FFED4F2E512CF02DC950D84F5982488258
S1135C60C75FD7400F2EF1EE6F2E712CF02DC75069
S1135C70D84F79826882C95FD74083EE90E0C550DF
S1135C80D84F99838883CB5FD74085EE90E0C3508B
S1135C90D84F99838883CD5FD74087EE90E0C15079
S1135CA0D84F99838883CF5FD74089EE90E0CF5F48
S1135CB0D74F99838883C150D8408BEE90E0CD5F55
S1135CC0D74F99838883C350D8400F2EFDEE8F2E73
S1135CD0912CF02DCB5FD74F99828882C550D84044
