:100000008EC00000A7C00000A5C00000A3C0000073
:10001000A1C000009FC000009DC000009BC0000068
:1000200099C0000097C0000095C0000093C0000078
:1000300091C00000EEC000008DC000008BC0000029
:10004000E7C0000087C0000085C0000083C000003A
:1000500081C00000C8C100007DC000007BC000005E
:1000600079C0000077C00000F3C0000073C000003A
:10007000F6C1000046C200006DC0000042019401BC
:10008000940194019401940194019401420194011A
:100090009401940194019401940194014401940108
:1000A00094019401940194019401940194019401A8
:1000B00094019401940194019401940144019401E8
:1000C0009401940194019401940194019401940188
:1000D000940194019401940194019401900194017C
:1000E0009401940194019401940194016D0194018F
:1000F0009401940194019401940194019401940158
:10010000940194019401940194019401610194017A
:100110009401940194019401940194017F011124AC
:100120001FBECFEFD8E0DEBFCDBF11E0A0E0B1E051
:10013000ECEFFAE002C005900D92A434B107D9F7B4
:1001400025E0A4E4B1E001C01D92A03CB207E1F7B4
:100150000CD0D2C455CF87E084B985B115B82B9A9D
:10016000389A399A409A419A0895F5DF1092B90366
:100170001092B8031092740380E091E09093BD0553
:100180008093BC0538D081E890E0E2D081E890E02F
:1001900053D154D078948FE091E09F938F93E0D126
:1001A0000F900F9003E211E0C3E3D1E0809174035C
:1001B0008130E1F7109274038091B8039091B903F4
:1001C00001969093B9038093B8038091B8039091FE
:1001D000B9039F938F931F930F93C2D1DF93CF9354
:1001E000BFD18AEB94E0F1D00F900F900F900F9059
:1001F0000F900F90DBCF8DE0809381008AE49CE428
:10020000909389008093880082E080936F00089526
:1002100018951F920F920FB60F9211248F939F93F0
:1002200095B182E0892785B981E0809374039F911D
:100230008F910F900FBE0F901F90189581E18093C2
:10024000B8008FEF8093BB0084E08093BC000895DA
:100250001F920F920FB60F9211242F933F938F93FB
:100260009F93AF93BF93EF93FF93E091B9008E2FCD
:1002700090E0FC013897E135F10508F055C0E25CEB
:10028000FF4F68C110924401E09144018091460102
:10029000E81770F481E08E0F80934401F0E0E95B91
:1002A000FE4F80818093BB0085E88093BC0043C0F3
:1002B0008091450181608093450184E98093BC0071
:1002C0003AC0E091440181E08E0F80934401809117
:1002D000BB00F0E0E95BFE4F80832091440130E0F9
:1002E0008091460190E001972817390724F485ECA6
:1002F0008093BC0020C085E88093BC001CC0809126
:10030000BB00E0914401F0E0E95BFE4F8083809107
:10031000450181608093450184E98093BC000BC056
:1003200085EA8093BC0007C08091B90080930E01DC
:1003300084E08093BC00FF91EF91BF91AF919F91BA
:100340008F913F912F910F900FBE0F901F90189596
:100350009093C5008093C40088E98093C1008EE02B
:100360008093C2001092590210925A0210925701C3
:10037000109258010895209158012F5F90915701D4
:100380002917E1F3E22FF0E0E75AFE4F8083209334
:100390005801E1ECF0E08081806280830895209133
:1003A00058012F5F909157012917E1F3E22FF0E0F8
:1003B000E75AFE4F808320935801E1ECF0E0808102
:1003C0008062808380E090E00895CF93DF93EC011A
:1003D0008881882329F02196CEDF89918111FCCF75
:1003E000DF91CF9108951F920F920FB60F921124B3
:1003F0008F939F93EF93FF939091580180915701B2
:10040000981761F0E0915701EF5FE0935701F0E03A
:10041000E75AFE4F80818093C60005C0E1ECF0E012
:1004200080818F7D8083FF91EF919F918F910F90BD
:100430000FBE0F901F9018959093CD008093CC0025
:1004400088E98093C90086E08093CA0010925D031A
:1004500010925E0310925B0210925C0208951F924C
:100460000F920FB60F9211242F933F934F935F93E8
:100470006F937F938F939F93AF93BF93CF93EF939C
:10048000FF938091CE00C0915E03CF5FC0935E0367
:1004900090915D03EC2FF0E0E654FC4F80838A30AE
:1004A000F1F48EE668DF8091BF038C34A1F463DF42
:1004B000E0E08E2F90E09C0126543B4F86549C4FE9
:1004C000DC018C91D9018C93EF5FCE1790F7F0E0AF
:1004D000E654FB4F118210925D0310925E03FF9170
:1004E000EF91CF91BF91AF919F918F917F916F913C
:1004F0005F914F913F912F910F900FBE0F901F90E2
:1005000018951F920F920FB60F9211248F939F93FD
:10051000EF93FF9390915C0280915B02981761F0DA
:10052000E0915B02EF5FE0935B02F0E0E35AFD4F86
:1005300080818093CE0005C0E9ECF0E080818F7D62
:100540008083FF91EF919F918F910F900FBE0F903D
:100550001F901895EE0FFF1F0590F491E02D099460
:10056000A0E0B0E0E5EBF2E0A0C2AE014B5F5F4F70
:10057000FA0161917191AF018091BC059091BD0527
:1005800002D0E2E0AEC2ABE0B0E0E8ECF2E07DC267
:100590006C017B018A01FC0117821682838181FF35
:1005A000BFC1CE0101963C01F6019381F70193FD95
:1005B000859193FF81917F01882309F4ADC1853234
:1005C00039F493FD859193FF81917F01853221F468
:1005D000B60190E0C0D1E8CF912C212C312CFFE165
:1005E000F315D8F08B3279F038F4803279F0833219
:1005F000A1F4232D20611DC08D3261F0803369F498
:10060000232D216016C0832D8260382EE32DE460F7
:100610003E2E2AC0F32DF8601DC037FC2DC020ED02
:10062000280F2A3040F08E32B9F436FC75C1232DE4
:100630002064322E19C036FE06C08AE0989E200D36
:100640001124922E11C0EAE02E9E200D1124222E9C
:10065000F32DF0623F2E08C08C3621F4832D806884
:10066000382E02C0883641F4F70193FD859193FF3F
:1006700081917F018111B3CF982F9F7D9554933045
:1006800028F40C5F1F4F9FE399830DC0833631F030
:10069000833771F0833509F055C020C0F80180819F
:1006A00089830E5F1F4F88248394912C530112C0BD
:1006B0002801F2E04F0E511CF801A080B18036FEF7
:1006C00003C0692D70E002C06FEF7FEFC50138D124
:1006D0004C018201F32DFF773F2E15C0280122E047
:1006E000420E511CF801A080B18036FE03C0692D76
:1006F00070E002C06FEF7FEFC50117D14C01F32D01
:10070000F0683F2E820133FC19C0822D90E08816DC
:100710009906A0F4B60180E290E01DD12A94F5CFAD
:10072000F50137FC859137FE81915F01B60190E0BC
:1007300012D121102A9421E0821A91088114910487
:1007400079F7E1C0843611F0893639F5F80137FEC2
:1007500007C060817181828193810C5F1F4F08C047
:1007600060817181072E000C880B990B0E5F1F4F63
:10077000F32DFF763F2E97FF09C0909580957095D9
:1007800061957F4F8F4F9F4FF0683F2E2AE030E0FA
:10079000A3011DD1882E861844C0853731F4232D3E
:1007A0002F7EB22E2AE030E025C0932D997FB92EFE
:1007B0008F36C1F018F4883579F0AEC0803719F063
:1007C000883721F0A9C0E92FE061BE2EB4FE0DC02C
:1007D000FB2DF460BF2E09C034FE0AC0292F26600D
:1007E000B22E06C028E030E005C020E130E002C0B3
:1007F00020E132E0F801B7FE07C06081718182819B
:1008000093810C5F1F4F06C06081718180E090E092
:100810000E5F1F4FA301DBD0882E8618FB2DFF77BC
:100820003F2E36FE0DC0232D2E7FA22E891458F4A4
:1008300034FE0BC032FC09C0832D8E7EA82E05C06D
:10084000B82CA32C03C0B82C01C0B92CA4FE0FC037
:10085000FE01E80DF11D8081803321F49A2D997EEF
:10086000A92E09C0A2FE06C0B394B39404C08A2D79
:10087000867809F0B394A3FC10C0A0FE06C0B214A1
:1008800080F4280C922C9B180DC0B21458F4B601B9
:1008900080E290E060D0B394F8CFB21418F42B1833
:1008A00002C0982C212CA4FE0FC0B60180E390E07A
:1008B00052D0A2FE16C0A1FC03C088E790E002C09F
:1008C00088E590E0B6010CC08A2D867851F0A1FE33
:1008D00002C08BE201C080E2A7FC8DE2B60190E08D
:1008E0003AD0891430F4B60180E390E034D09A9481
:1008F000F8CF8A94F301E80DF11D8081B60190E0F4
:100900002AD08110F6CF222009F44ECEB60180E223
:1009100090E021D02A94F7CFF6018681978102C01A
:100920008FEF9FEF2B96E2E1CCC0FC010590615068
:1009300070400110D8F7809590958E0F9F1F0895F5
:10094000FC016150704001900110D8F7809590959E
:100950008E0F9F1F08950F931F93CF93DF93FB017B
:10096000238121FD03C08FEF9FEF2CC022FF16C013
:1009700046815781248135814217530744F4A08171
:10098000B1819D012F5F3F4F318320838C9326815E
:1009900037812F5F3F4F3783268314C08B01EC01D3
:1009A000FB010084F185E02D0995892BE1F6D80142
:1009B00016968D919C911797019617969C938E93FE
:1009C0001697CE01DF91CF911F910F910895FA01F3
:1009D000AA27283051F1203181F1E8946F936E7F7E
:1009E0006E5F7F4F8F4F9F4FAF4FB1E03ED0B4E06F
:1009F0003CD0670F781F891F9A1FA11D680F791FB0
:100A00008A1F911DA11D6A0F711D811D911DA11DC0
:100A100020D009F468943F912AE0269F11243019D0
:100A2000305D3193DEF6CF010895462F4770405D6B
:100A30004193B3E00FD0C9F7F6CF462F4F70405D1A
:100A40004A3318F0495D31FD4052419302D0A9F775
:100A5000EACFB4E0A6959795879577956795BA956F
:100A6000C9F700976105710508959B01AC010A2E35
:100A700006945795479537952795BA95C9F7620F0C
:100A8000731F841F951FA01D08952F923F924F92B0
:100A90005F926F927F928F929F92AF92BF92CF920E
:100AA000DF92EF92FF920F931F93CF93DF93CDB717
:100AB000DEB7CA1BDB0B0FB6F894DEBF0FBECDBF8F
:100AC00009942A88398848885F846E847D848C8460
:100AD0009B84AA84B984C884DF80EE80FD800C8169
:100AE0001B81AA81B981CE0FD11D0FB6F894DEBF4C
:0C0AF0000FBECDBFED010895F894FFCFBC
:100AFC000000000200000000CF0100000000F853CD
:100B0C0074617274696E67206D61696E206C6F6FB1
:100B1C00702E000A5365636F6E6473203D2025753B
:100B2C00200A0057686572652077657265206172CE
:040B3C00653A000016
:00000001FF
