:1000000096C00000B3C00000B1C00000AFC0000047
:10001000ADC00000ABC00000A9C00000A7C0000038
:10002000A5C00000A3C00000A1C000009FC0000048
:100030009DC000000C941B1399C0000097C00000E5
:100040000C941A1393C0000091C000008FC00000F0
:100050008DC000000C94391489C0000087C00000D6
:1000600085C0000083C000000C9489137FC000008D
:100070000C947B147BC0000079C0000077C00000A6
:1000800075C0000073C0000071C00000A513F71315
:10009000F713F713F713F713F713F713A513F71362
:1000A000F713F713F713F713F713F713A713F71350
:1000B000F713F713F713F713F713F713F713F713F0
:1000C000F713F713F713F713F713F713A713F71330
:1000D000F713F713F713F713F713F713F713F713D0
:1000E000F713F713F713F713F713F713F313F713C4
:1000F000F713F713F713F713F713F713D013F713D7
:10010000F713F713F713F713F713F713F713F7139F
:10011000F713F713F713F713F713F713C413F713C2
:10012000F713F713F713F713F713F713E213112469
:100130001FBECFEFD0E4DEBFCDBF12E0A0E0B1E044
:10014000EEEAF2E300E00BBF02C007900D92A2328C
:10015000B107D9F726E0A2E2B2E001C01D92AD34AA
:10016000B207E1F70E9488110C9455190C940513FD
:10017000ECE7F0E09081907E90839081892B8083E2
:100180000895CF93DF93ECE7F0E080818064808373
:10019000CAE7D0E088818160888388818260888313
:1001A000888184608883A4E6B0E08C918E7F8C93F4
:1001B00080818F7D80838FE380937E00888180683B
:1001C000888310927B008FE1D3DF888180648883ED
:1001D000EAE7F0E0808184FFFDCFEAE7F0E080818C
:1001E00080648083808184FFFDCF8091780090E0DF
:1001F0009093230280932202909179002091220211
:1002000030912302892F90E0982F8827820F931F27
:1002100090932302809322028091220290912302E4
:1002200099231CF491958195910905972CF0809163
:1002300012048160809312048EE19ADFEAE7F0E015
:10024000808180648083808184FFFDCF80917800ED
:1002500090E0909323028093220290917900209164
:10026000220230912302892F90E0982F8827820F55
:10027000931F9093230280932202809122029091F7
:100280002302815E91099093230280932202809140
:1002900022029091230299231CF491958195910952
:1002A00005972CF080911204826080931204EAE793
:1002B000F0E080818F778083DF91CF910895FF9266
:1002C0000F931F93CF93DF9380910001882359F1FF
:1002D000CBE5D3E00F2EFCEEFF2EF02D03EF1DEE4D
:1002E000F882098362E0CE010E943E130E943A1315
:1002F0008111FCCF18836AE1CE010E943E130E9457
:100300003A138111FCCF6AE1CE010E946A138093F7
:100310004104898183FB882780F9809300018091C3
:1003200000018111DDCFEBE5F3E08CEE808388E8FE
:10033000818362E0CF010E943E130E943A13811133
:10034000FCCF8DEE80935B036BE18BE593E00E9425
:100350003E130E943A138111FCCF6BE18BE593E0D1
:100360000E946A1380934104CCE5D3E007E813E0D0
:1003700027E733E0D801FE0181918D93E217F3075F
:10038000D9F78BE180932502E7E8F3E0818190E0E3
:10039000982F88272081822B90935A0380935903AA
:1003A000838190E0982F88272281822B9093860367
:1003B00080938503858190E0982F88272481822B64
:1003C0009093260480932504878190E0982F8827B6
:1003D0002681822B9093140480931304818590E0EE
:1003E000982F88272085822B9093CD038093CC0370
:1003F000838590E0982F88272285822B909316047E
:1004000080931504858590E0982F88272485822B7A
:100410009093CF038093CE03878590E0982F882711
:100420002685822B9093EF038093EE03818990E0E1
:10043000982F88272089822B909328048093270463
:10044000838990E0982F88272289822B90935803E4
:1004500080935703858990E0982F88272489822BE1
:100460009093180480931704878990E0982F882729
:100470002689822B9093240480932304818D90E01D
:100480009093B6038093B503EBE5F3E08CEE8083A5
:1004900081EE818362E0CF010E943E130E943A13F5
:1004A0008111FCCF8DEE80935B0368E08BE593E0D8
:1004B0000E943E130E943A138111FCCF68E08BE545
:1004C00093E00E946A138093410423E633E089910C
:1004D000F80181938F01C217D307C9F787E0809392
:1004E0002502E7E8F3E0828190E0982F88272181B8
:1004F000822B90932A0480932904838190E0909327
:100500001E0480931D04858182958695877090E0F6
:10051000248140E1249F90011124282B392B309312
:10052000840320938303268140E1249F90011124BA
:10053000822B932B90931B0480931A04878190E065
:100540009093DC038093DB03DF91CF911F910F9198
:10055000FF900895EBE5F3E08CEE808380EE8183DD
:1005600086EB828363E0CF010E943E130E943A1320
:100570008111FCCFEBE5F3E08CEE808380ED81838D
:1005800062E0CF010E943E130E943A138111FCCF1A
:100590008DEE80935B0362E08BE593E00E943E1357
:1005A0000E943A138111FCCF62E08BE593E00E9438
:1005B0006A138093410480915C03803699F5EBE5E2
:1005C000F3E08CEE808382EF818381E0828363E0BD
:1005D000CF010E943E130E943A138111FCCFEBE53C
:1005E000F3E08CEE808385EF818380E1828363E09A
:1005F000CF010E943E130E943A138111FCCF5FDEAF
:1006000081E38093D003EBE5F3E09CEE908394EFDD
:100610009183828363E0CF010E943E130E943A13CC
:100620008111FCCF0895FF920F931F93CF93DF9317
:1006300081E08093240280912402882359F1CBE544
:10064000D3E00F2EFCEEFF2EF02D03EF1DEEF8820F
:10065000098362E0CE010E943E130E943A13811189
:10066000FCCF188362E0CE010E943E130E943A1331
:100670008111FCCF62E0CE010E946A138093410495
:10068000898183FB882780F980932402809124024A
:100690008111DDCFEBE5F3E08CEE808387EF818382
:1006A00062E0CF010E943E130E943A138111FCCFF9
:1006B0008DEE80935B0369E08BE593E00E943E132F
:1006C0000E943A138111FCCF69E08BE593E00E9410
:1006D0006A1380934104ECE5F3E0A7E8B3E024E675
:1006E00033E081918D93E217F307D9F7E7E8F3E060
:1006F000818190E0A0E0B0E0880F991FAA1FBB1F86
:10070000880F991FAA1FBB1F880F991FAA1FBB1F05
:10071000880F991FAA1FBB1F408150E060E070E066
:10072000032E3CE0440F551F661F771F3A95D1F703
:10073000302D842B952BA62BB72B228122952F7041
:10074000822B8093F0039093F103A093F203B09374
:10075000F303848190E0A0E0B0E0880F991FAA1F06
:10076000BB1F880F991FAA1FBB1F880F991FAA1FA5
:10077000BB1F880F991FAA1FBB1F438150E060E079
:1007800070E0032E3CE0440F551F661F771F3A951B
:10079000D1F7302D842B952BA62BB72B25812295B5
:1007A0002F70822B8093B8039093B903A093BA0360
:1007B000B093BB03868190E0A0E0B0E0BA2FA92FF0
:1007C000982F88272781822B8093F4039093F50339
:1007D000A093F603B093F703EBE5F3E08CEE808390
:1007E00084EF818381E3828363E0CF010E943E1323
:1007F0000E943A138111FCCFDF91CF911F910F918D
:10080000FF9008958F929F92AF92BF92CF92DF9206
:10081000EF92FF922091590330915A036B017C01B2
:10082000689413F8F594E794D794C7941694D1F785
:10083000C21AD30AE108F108DC01CB01689412F86E
:10084000B595A795979587951694D1F7220F331FE5
:100850004C015D01821A930AA108B108A501940117
:10086000A0918503B09186030E9408154B015C019D
:10087000072E7BE0B594A794979487947A95D1F747
:10088000702DA7019601C701B6010E94D2149B01E9
:10089000AC01012E1CE055954795379527951A9583
:1008A000D1F7102DA0912504B09126040E940815BF
:1008B000DC01CB01072E7EE0B595A795979587952E
:1008C0007A95D1F7702D880D991DAA1DBB1D8093B7
:1008D0002B0490932C04A0932D04B0932E046C0150
:1008E0007D01CC0CDD1CEE1CFF1CCC0CDD1CEE1CB9
:1008F000FF1C8C0D9D1DAE1DBF1D80589F4FAF4F1F
:10090000BF4F692F7A2F8B2F992787FD9A95FF90DC
:10091000EF90DF90CF90BF90AF909F908F90089511
:100920002F923F924F925F926F927F928F929F92FF
:10093000AF92BF92CF92DF92EF92FF920F931F93ED
:10094000CF93DF93CDB7DEB76E970FB6F894DEBFC7
:100950000FBECDBF6E8B7F8B888F998F80912B04BC
:1009600090912C04A0912D04B0912E048C019D0136
:10097000145F2140310909831A832B833C83330F91
:10098000000B102F98010D831E832F833887A980B9
:10099000BA80CB80DC80ED80FE2C0E2D1E2D2A2D02
:1009A0003B2D4C2D5D2D602F702F802F9E2D0E9492
:1009B0000E152D873E874F87588B698B7A8B8B8BD3
:1009C0009C8B109127041A8F209128042E8F309130
:1009D000EE033B8F4091EF034D8F5091CE035C8F20
:1009E0008091CF038D8B3091CD032091CC03932F39
:1009F000990F990BFE2C0E2D1E2D492F592F692F63
:100A0000792F892F0E940E150CE00E942F16422E7E
:100A1000532E642E752E862E972E282E392EB090AA
:100A20001604A09015041B2D110F110BC12ED12EF1
:100A3000E12EF12E012F2D853E854F85588969893C
:100A40007A898B899C890E940E1508E00E944816BD
:100A5000A42CB52CC62CD72CE82CF92C022D132D48
:100A60000E94661670588F4F9F4F2090130430904D
:100A70001404A22CB32CC12CD12CE12CF12C00E0BD
:100A800010E00E940E1501E20E94481629873A875D
:100A90004B87452E562E7C87382E292E652D832D8B
:100AA000922DA0E00E94781609F489C1AA8C1E8DAF
:100AB000110F110BBE8CC12ED12EE12EF12E012F64
:100AC0002D853E854F85588969897A898B899C89CE
:100AD0000E940E152D873E87642E752E862E972E2A
:100AE000888B9F872B8D9D8D990F990BA980BA803C
:100AF000CB80DC80ED80FE2C0E2D1E2D3D8D492FF0
:100B0000592F692F792F892F0E940E1501E10E941C
:100B10002F16AD84BE84C62CD72CE82CF92C08895E
:100B20001F850E946616A22EB32EC42ED52EE62E49
:100B3000F72EE82F192F80E090E0A0E1B0E02E8999
:100B40003F89488D598D821B930BA40BB50B3C013B
:100B50004D01990C6608762C4301282F392F4A2F16
:100B60005B2F662D762D862D962D0FE10E942F1678
:100B7000822E932EF42F752EB62FA72F682E9D83CD
:100B80002C8D9D89990F990B3D89492F592F692FDC
:100B9000792F892F03E20E942F160E2F0E946616CE
:100BA000A22EB32EC42ED52EE62EF72E082F192FE7
:100BB000282D392D4F2F572D6B2F7A2F862D9D8164
:100BC0000E946F16822E932E4983652EB62FA72F73
:100BD000F82FE92F03E00E942F16A82CB92CC9800A
:100BE000D62CEB2EFA2E0F2F1E2F0E946F16A22E40
:100BF000B32EC42ED52EE62EF72E782E192F03E015
:100C00000E942F16072D0E946F1603E00E942F16D8
:100C1000A82CB92CC980D62CEB2EFA2E0F2F1E2F04
:100C20000E946F1602E00E942F160F2F0E946F166F
:100C300001E00E942F160F2F0E946F16A984BA841C
:100C4000CB84D42CE52CFC84032D122D0E9461153D
:100C50002E873D8749835D8369877A878B879C8749
:100C60000DE00E944816822E932E742E652E562E6D
:100C7000472E382E292E3091240420912304932FBF
:100C8000990F990BA82CB92CC72CD62CE52CF42C39
:100C9000032D122D492F592F692F792F892F0E944B
:100CA0000E15A22EB32EC42ED52EE62EF72E082F0B
:100CB000192F282D392D472D562D652D742D832D57
:100CC000922D0E940E1509E10E944816A22EB32E05
:100CD000C42ED52EE62EF72E082F192F2E853D85F2
:100CE00049815D8169857A858B859C850E94661620
:100CF000222E332E442E552E662E772E882E992E98
:100D00003091180420911704932F990F990BAE84FA
:100D1000BD84C980DD80E984FA840B851C85492F58
:100D2000592F692F792F892F0E940E1503E10E94F8
:100D30004816A22EB32EC42ED52EE62EF72E082F3F
:100D4000192F222D332D442D552D662D772D882DCD
:100D5000992D0E94661608E00E944816409057039D
:100D600050905803052C000C66087708440C551C5D
:100D7000661C771C440C551C661C771C440C551CC7
:100D8000661C771C440C551C661C771C8301720181
:100D9000110FEE08FE2C8701E982FA820B831C8377
:100DA000A42CB52CC62CD72CE980FE2C0E2D1E2D84
:100DB0000E946616622F732F842F952F04C060E067
:100DC00070E080E090E06E960FB6F894DEBF0FBE44
:100DD000CDBFDF91CF911F910F91FF90EF90DF90EA
:100DE000CF90BF90AF909F908F907F906F905F90CB
:100DF0004F903F902F9008952F923F924F925F9285
:100E00006F927F928F929F92AF92BF92CF92DF921A
:100E1000EF92FF920F931F93CF93DF93CDB7DEB77F
:100E200067970FB6F894DEBF0FBECDBF2B013C0114
:100E300080912B0490912C04A0912D04B0912E044C
:100E40006C017D01FF0CCC08DC2C7601282F392F9A
:100E50004A2F5B2F6C2D7C2D8C2D9C2D3C524140BC
:100E6000510961097109810991092F8B3E8B4983D1
:100E700059876A877B878C879D87032E3EE0440CC9
:100E8000551C661C771C3A95D1F7302D5301420151
:100E9000BB0C8808982C5401309184032091830363
:100EA000932F990F990B492F592F692F792F892F3C
:100EB00004E10E942F16F22FE32FC42ED52EE62E2A
:100EC000F72E082F192F242D352D462D572D682D3F
:100ED000782D882D982DAF2EBE2E0E946F16222EB3
:100EE000332E442E552E662E772E882E992E309135
:100EF0001B0420911A04932F990F990BAF88BE8879
:100F0000C980D984EA84FB840C851D85492F592F1B
:100F1000692F792F892F0E940E15A22EB32EC42E71
:100F2000D52EE62EF72E082F192F222D332D442DE6
:100F3000552D662D772D882D992D0E946F16305CCA
:100F40004F4F5F4F6F4F7F4F8F4F9F4F0FE00E946C
:100F500048162E873F87488B598B6A8B7B8B8C8BEF
:100F60009D8B3091DC032091DB03932F990F990B1C
:100F7000AF88BE88C980D984EA84FB840C851D852E
:100F8000492F592F692F792F892F0E940E150AE0BA
:100F90000E944816822E932E742E652E562E472EB2
:100FA000382E292E40911D0450911E040C85242FAB
:100FB000352F40E050E060E070E080E090E00E947B
:100FC0000E150BE00E94481630584F4F5F4F6F4F81
:100FD0007F4F8F4F9F4FA22EB32EC42ED52EE62EBD
:100FE000F72E082F192F282D392D472D562D652D19
:100FF000742D832D922D0E940E150AE00E94481632
:10100000405E5F4F6F4F7F4F8F4F9F4FB0902A04CE
:10101000A09029041B2D110F110BC12ED12EE12EF2
:10102000F12E012F0E940E15305E4F4F5F4F6F4F14
:101030007F4F8F4F9F4F0EE00E944816A22EB32E77
:10104000C42ED52EE62EF72E082F192F2E853F857C
:10105000488959896A897B898C899D890E940E15E6
:10106000422E532E642E752E862E972E282E392E24
:101070000FE00E944816A22EB32EC42ED52EE62EC7
:10108000F72E082F192F0E940E1507E00E94481610
:10109000E091B503F091B6035F01C12CD12CE12C96
:1010A000F12C8701E983BA82CB82DC82ED82FE8259
:1010B0000F831887C12CD12CE12CF12C00E010E01B
:1010C0000E940E1504E00E944816A22EB32EC42ED4
:1010D000D52EE62EF72E082F192F242D352D462D2F
:1010E000572D682D792D822D932D0E946F16F22E8B
:1010F000032F142F652E762EB72FF82FE92FA0E09F
:101100000E94781644F4F12C00E010E0612C712C60
:10111000B0E0F0E0E0E08F2C902EA12EB62CC72C92
:10112000DB2EEF2EAE2F2F2D302F412F562D672D7A
:101130007B2F8F2F9E2F21153105410559416105C8
:1011400071058105910561F05CF0812C912CA12C39
:101150000F2EF9E1BF2EF02DC12CD12CE12CA0E0F7
:10116000282D392D4A2D5B2D6C2D7D2D8E2D9A2FFE
:101170000CE00E944816622F732F842F952F6796DC
:101180000FB6F894DEBF0FBECDBFDF91CF911F9198
:101190000F91FF90EF90DF90CF90BF90AF909F9016
:1011A0008F907F906F905F904F903F902F90089519
:1011B00087E084B985B115B82B9A389A399A409A44
:1011C000419A089580E090E02FEF33E0FC01EE0FAC
:1011D000FF1FEE0FFF1FE459FC4F11821082338373
:1011E000228301968530910589F70895EF92FF9249
:1011F0000F931F93CF93DF930F2EF2E4EF2EF3E0C4
:10120000FF2EF02D00E010E0C7010E944019E80118
:10121000CC0FDD1FCC0FDD1FC459DC4F99838883B1
:10122000C70102960E9440199B838A830F5F1F4F5C
:1012300084E0E80EF11C0530110531F7DF91CF9104
:101240001F910F91FF90EF900895AF92BF92CF92B0
:10125000DF92EF92FF920F931F93CF93DF931F9232
:10126000CDB7DEB7109212041092E103BFDFAADF00
:10127000EAE7F0E080818068808319828981853087
:1012800008F052C00AE710E00F2EF8E7EF2EF12C1D
:10129000F02DBB24B394A12CCC24C394D12C8981F0
:1012A0000E94B800F801808180648083F801808109
:1012B00084FFFCCFF70180819181E981F0E0EE0F9E
:1012C000FF1FEE0FFF1FE459FC4F20813181E981A0
:1012D000F0E0EE0FFF1FEE0FFF1FE459FC4F62819D
:1012E00073814B2D6817790708F04A2D411107C00B
:1012F0004B2D8217930708F04A2D442371F09981F2
:10130000209112049D5FA60102C0440F551F9A95BB
:10131000E2F7CA01822B8093120489818F5F89834F
:101320008981853008F4BBCFEAE7F0E080818F77D0
:1013300080830F90DF91CF911F910F91FF90EF90DD
:10134000DF90CF90BF90AF9008958F929F92AF9211
:10135000BF92CF92DF92EF92FF920F931F93CF93A2
:10136000DF9300D01F92CDB7DEB7EAE7F0E08081CF
:101370008068808319828981853008F077C06894FD
:10138000882482F8912C0AE710E00F2EF8E7EF2E60
:10139000F12CF02DCC24C394D12CBB24B394A12CDC
:1013A00089810E94B8001B821A82282D392DF801EC
:1013B000808180648083F801808184FFFCCFF70105
:1013C00080819181E981F0E0EE0FFF1FEE0FFF1F9A
:1013D000E459FC4F40815181E981F0E0EE0FFF1F9D
:1013E000EE0FFF1FE459FC4F62817381EB2D6817EC
:1013F000790708F0EA2DE11107C06B2D84179507D6
:1014000008F06A2D662371F05981609112045D5FC6
:10141000F60102C0EE0FFF1F5A95E2F7AF01462B0F
:10142000409312044A815B81840F951F9B838A83BA
:101430002150310909F0BBCF8A819B81E981F0E01D
:10144000EE0FFF1FEE51FC4F9C01992314F42D5F0A
:101450003F4F359527953595279531832083898191
:101460008F5F89838981853008F49ACF0F900F9020
:101470000F90DF91CF911F910F91FF90EF90DF9030
:10148000CF90BF90AF909F908F900895CF93DF93B0
:10149000FB01EE0FFF1FE80FF91F0190F081E02D17
:1014A000E217F307CCF5FA01EE0FFF1FE80FF91F63
:1014B0000190F081E02D2E173F0774F5DB01A41B8E
:1014C000B50BFD010AF43196F595E795E40FF51F8C
:1014D000DF01AA0FBB1FEC01CA0FDB1F0990D881E7
:1014E000C02D2C173D078CF0A80FB91F12964D91F7
:1014F0005C911397421753075CF0AF014F5F5F4F4A
:101500005093400440933F0403C0BF01BFDF04C0B9
:10151000AF014F5F5F4FBADFDF91CF9108952F92F8
:101520003F924F925F926F927F928F929F92AF9273
:10153000BF92CF92DF92EF92FF920F931F93CF93C0
:10154000DF93CDB7DEB7C250D6400FB6F894DEBFFA
:101550000FBECDBF9E012F5F3F4FCF5FD94F398365
:101560002883C150D64080E096E0F9019C01119299
:1015700021503040E1F785E690E09A83898343E685
:1015800050E05C834B8382E690E09E838D8380E60F
:1015900090E098878F838FE590E09A8789878DE523
:1015A00090E09C878B878CE590E09E878D878AE50D
:1015B00090E0988B8F8789E590E09A8B898B87E5FF
:1015C00090E09C8B8B8B86E590E09E8B8D8B84E5E9
:1015D00090E0988F8F8BE3E5F0E0FA8FE98F81E55B
:1015E00090E09C8F8B8F0F2EF0E5CF2ED12CF02D1D
:1015F000DE8ECD8E2EE430E038A32F8F8DE490E088
:101600009AA389A34BE450E05CA34BA30F2EFAE40A
:101610002F2E312CF02D3EA22DA288E490E098A729
:101620008FA30F2EF7E44F2E512CF02D5AA649A66A
:1016300085E490E09CA78BA70F2EF3E46F2E712C0E
:10164000F02D7EA66DA60F2EF2E48F2E912CF02D9C
:1016500098AA8FA66894AA24A6F8B12CBAAAA9AA17
:101660008FE390E09CAB8BAB8DE390E09EAB8DABBA
:101670006CE370E078AF6FAB8AE390E09AAF89AF2C
:1016800049E350E05CAF4BAFA7E3B0E0BEAFADAF16
:1016900006E310E021961FAF0EAF21970F2EF4E363
:1016A000EF2EF12CF02D2396FFAEEEAE239783E3C1
:1016B00090E025969FAF8EAF259781E390E0279627
:1016C0009FAF8EAF279780E390E029969FAF8EAFB4
:1016D00029978EE290E02B969FAF8EAF2B978DE2ED
:1016E00090E02D969FAF8EAF2D978BE290E02F96D6
:1016F0009FAF8EAF2F978AE290E061969FAF8EAF3B
:10170000619788E290E063969FAF8EAF639787E220
:1017100090E065969FAF8EAF659785E290E0679603
:101720009FAF8EAF679783E290E069969FAF8EAFD1
:10173000699782E290E06B969FAF8EAF6B9780E2E5
:1017400090E06D969FAF8EAF6D978FE190E06F96B2
:101750009FAF8EAF6F978DE190E0A1969FAF8EAF58
:10176000A1978CE190E0A3969FAF8EAFA3978AE1FB
:1017700090E0A5969FAF8EAFA59789E190E0A796E0
:101780009FAF8EAFA79787E190E0A9969FAF8EAFEE
:10179000A99786E190E0AB969FAF8EAFAB9784E1BF
:1017A00090E0AD969FAF8EAFAD9783E190E0AF969E
:1017B0009FAF8EAFAF9781E190E0E1969FAF8EAF84
:1017C000E19780E190E0E3969FAF8EAFE3978EE0E4
:1017D00090E0E5969FAF8EAFE5978DE090E0E796BD
:1017E0009FAF8EAFE7978BE090E0E9969FAF8EAF0B
:1017F000E9978AE090E0EB969FAF8EAFEB97E8E039
:10180000F0E0ED96FFAFEEAFED9727E030E0EF961A
:101810003FAF2EAFEF9785E090E0C158DF4F99833F
:101820008883CF57D0400F2EFCE2CF2ED12CF02D45
:10183000CF57DF4FD982C882C158D040CD57DF4F34
:10184000F982E882C358D0400F2EF5E3EF2EF12C39
:10185000F02DCB57DF4FF982E882C558D040C957E9
:10186000DF4F19830883C758D040C757DF4FB9836C
:10187000A883C958D040C557DF4F59834883CB58F8
:10188000D040C357DF4F59834883CD58D0404BE3F6
:1018900050E0C157DF4F59834883CF58D040CF56CF
:1018A000DF4F79836883C159D0404EE350E0CD5675
:1018B000DF4F59834883C359D040CB56DF4FB9829D
:1018C000A882C559D040C956DF4F99828882C7592E
:1018D000D040C756DF4F79826882C959D04046E46C
:1018E00050E0C556DF4F59834883CB59D040C3568B
:1018F000DF4F59824882CD59D040C156DF4F3982DF
:101900002882CF59D0404BE450E0CF55DF4F598368
:101910004883C15AD0400F2EFEE4CF2ED12CF02D9B
:10192000CD55DF4FD982C882C35AD04040E550E040
:10193000CB55DF4F59834883C55AD0400F2EF3E56E
:10194000CF2ED12CF02DC955DF4FD982C882C75A6E
:10195000D04045E550E0C755DF4F59834883C95A09
:10196000D04048E550E0C555DF4F59834883CB5AF6
:10197000D0404CE550E0C355DF4F59834883CD5AE2
:10198000D0404EE550E0C155DF4F59834883CF5AD0
:10199000D0400F2EF3E6CF2ED12CF02DCF54DF4FB9
:1019A000D982C882C15BD04046E650E0CD54DF4FBB
:1019B00059834883C35BD0404BE650E0CB54DF4FA4
:1019C00059834883C55BD0404EE650E0C954DF4F91
:1019D00059834883C75BD04044E750E0C754DF4F8A
:1019E00059834883C95BD04047E750E0C554DF4F77
:1019F00059834883CB5BD0404DE750E0C354DF4F61
:101A000059834883CD5BD04040E850E0C154DF4F5C
:101A100059834883CF5BD04047E850E0CF53DF4F36
:101A200059834883C15CD0404BE850E0CD53DF4F31
:101A300059834883C35CD04042E950E0CB53DF4F29
:101A400059834883C55CD04046E950E0C953DF4F15
:101A500059834883C75CD0404FE950E0C753DF4FFC
:101A600059834883C95CD04043EA50E0C553DF4FF7
:101A700059834883CB5CD0404EEA50E0C353DF4FDC
:101A800059834883CD5CD04044EB50E0C153DF4FD5
:101A900059834883CF5CD04040EC50E0CF52DF4FB9
:101AA00059834883C15DD04048EC50E0CD52DF4FB0
:101AB00059834883C35DD04048ED50E0CB52DF4F9F
:101AC00059834883C55DD04049EE50E0C952DF4F8D
:101AD00059834883C75DD04043EF50E0C752DF4F82
:101AE00059834883C95DD04048E051E0C552DF4F7B
:101AF00059834883CB5DD04046E151E0C352DF4F6C
:101B000059834883CD5DD04042E351E0C152DF4F5D
:101B100059834883CF5DD04043E451E0CF51DF4F3C
:101B200059834883C15ED04047E651E0CD51DF4F35
:101B300059834883C35ED0406DE771E0CB51DF4FDE
:101B400079836883C55ED04040EB51E0C951DF4FD7
:101B500059834883C75ED04042ED51E0C751DF4F03
:101B600059834883C95ED0404EE152E0C551DF4FF2
:101B700059834883CB5ED0404AE452E0C351DF4FE3
:101B800059834883CD5ED0404BEB52E0C151DF4FCB
:101B900059834883CF5ED0404BE053E0CF50DF4FB6
:101BA00059834883C15FD04044ED53E0CD50DF4FAF
:101BB00059834883C35FD0404DE454E0CB50DF4F9E
:101BC00059834883C55FD0404AE955E0C950DF4F8B
:101BD00059834883C75FD04044E956E0C750DF4F80
:101BE00059834883C95FD04049E659E0C550DF4F6B
:101BF00059834883CB5FD0404BE85BE0C350DF4F55
:101C000059834883CD5FD04043ED51E1C150DF4F50
:101C100059834883CF5FD040CF5FDE4FF983E8839D
:101C2000C150D140CD5FDE4F39832883C350D140AE
:101C3000CB5FDE4F39832883C550D14026E030E0AA
:101C4000C95FDE4F39832883C750D140C75FDE4F5D
:101C500039832883C950D140C55FDE4F398328833B
:101C6000CB50D140C35FDE4F99838883CD50D140A4
:101C7000C15FDE4F99838883CF50D140CF5EDE4F66
:101C800099838883C151D14084E090E0CD5EDE4FDE
:101C900099838883C351D140CB5EDE4F998388837B
:101CA000C551D140C95EDE4F99838883C751D14069
:101CB00083E090E0C75EDE4F99838883C951D140AD
:101CC000C55EDE4F99838883CB51D140C35EDE4F22
:101CD00099838883CD51D140C15EDE4F998388833B
:101CE000CF51D140CF5DDE4F99838883C152D1401F
:101CF00082E090E0CD5DDE4F99838883C352D1406E
:101D0000CB5DDE4F99838883C552D140C95DDE4FDC
:101D100099838883C752D140C75DDE4F99838883FA
:101D2000C952D140C55DDE4F99838883CB52D140E3
:101D3000C35DDE4F99838883CD52D140C15DDE4FB4
:101D400099838883CF52D14021E030E0CF5CDE4FD1
:101D500039832883C153D140CD5CDE4F398328833A
:101D6000C353D140CB5CDE4F39832883C553D14068
:101D7000C95CDE4F39832883C753D140C75CDE4F2F
:101D800039832883C953D140C55CDE4F398328830A
:101D9000CB53D140C35CDE4F39832883CD53D14030
:101DA000C15CDE4F39832883CF53D140CF5BDE4FF8
:101DB00039832883C154D140CD5BDE4F39832883DA
:101DC000C354D140CB5BDE4F39832883C554D14007
:101DD000C95BDE4F39832883C754D140C75BDE4FD0
:101DE00039832883C954D140C55BDE4F39832883AA
:101DF000CB54D140C35BDE4F39832883CD54D140CF
:101E000080ED90E0CF57DE4F99838883C158D14051
:101E10008BED90E0CD57DE4F99838883C358D14036
:101E200088EE90E0CB57DE4F99838883C558D14028
:101E300084EF90E0C957DE4F99838883C758D1401B
:101E400082E091E0C757DE4F99838883C958D1401B
:101E500080E191E0C557DE4F99838883CB58D1400C
:101E60008FE191E0C357DE4F99838883CD58D140ED
:101E70008FE291E0C157DE4F99838883CF58D140DC
:101E800080E491E0CF56DE4F99838883C159D140D9
:101E900082E591E0CD56DE4F99838883C359D140C6
:101EA00085E691E0CB56DE4F99838883C559D140B2
:101EB00088E791E0C956DE4F99838883C759D1409E
:101EC0008DE891E0C756DE4F99838883C959D14088
:101ED00083EA91E0C556DE4F99838883CB59D14080
:101EE0008AEB91E0C356DE4F99838883CD59D14068
:101EF00083ED91E0C156DE4F99838883CF59D1405D
:101F00008DEE91E0CF55DE4F99838883C15AD14041
:101F100083E092E0CD55DE4F99838883C35AD14048
:101F200080E292E0CB55DE4F99838883C55AD14039
:101F30008EE392E0C955DE4F99838883C75AD1401A
:101F40008DE592E0C755DE4F99838883C95AD14009
:101F50008FE792E0C555DE4F99838883CB5AD140F5
:101F600082EA92E0C355DE4F99838883CD5AD140EF
:101F700088EC92E0C155DE4F99838883CF5AD140D7
:101F80008FEE92E0CF54DE4F99838883C15BD140BE
:101F900089E193E0CD54DE4F99838883C35BD140C0
:101FA00088E393E0CB54DE4F99838883C55BD140AF
:101FB00084E693E0C954DE4F99838883C75BD140A0
:101FC00082E993E0C754DE4F99838883C95BD1408F
:101FD00084EC93E0C554DE4F99838883CB5BD1407A
:101FE00089EF93E0C354DE4F99838883CD5BD14062
:101FF00082E394E0C154DE4F99838883CF5BD14064
:102000008EE694E0CF53DE4F99838883C15CD14044
:102010008DEA94E0CD53DE4F99838883C35CD14031
:102020008FEE94E0CB53DE4F99838883C55CD1401B
:1020300085E395E0C953DE4F99838883C75CD1401F
:102040008FE795E0C753DE4F99838883C95CD14001
:102050008DEC95E0C553DE4F99838883CB5CD140EE
:102060008CEF95E0C353DE4F99838883CD5CD140DC
:102070008EE496E0C153DE4F99838883CF5CD140D4
:1020800087EA96E0CF52DE4F99838883C15DD140C5
:1020900086E097E0CD52DE4F99838883C35DD140BF
:1020A00084E697E0CB52DE4F99838883C55DD140AB
:1020B00080ED97E0C952DE4F99838883C75DD14098
:1020C00083E398E0C752DE4F99838883C95DD1408E
:1020D0008BEA98E0C552DE4F99838883CB5DD1406F
:1020E00086E299E0C352DE4F99838883CD5DD1406B
:1020F00088EA99E0C152DE4F99838883CF5DD14051
:1021000081E39AE0CF51DE4F99838883C15ED1404D
:1021100082EF92E0CD51DE4F99838883C35ED14038
:102120008AE59BE0CB51DE4F99838883C55ED14021
:102130008DED9BE0C951DE4F99838883C75ED14006
:1021400085E89CE0C751DE4F99838883C95ED14002
:1021500087E39DE0C551DE4F99838883CB5ED140F4
:1021600082EF9DE0C351DE4F99838883CD5ED140DD
:1021700088EB9EE0C151DE4F99838883CF5ED140CA
:1021800089E89FE0CF50DE4F99838883C15FD140BB
:1021900085E690E1CD50DE4F99838883C35FD140BF
:1021A0008EE491E1CB50DE4F99838883C55FD140A7
:1021B00083E492E1C950DE4F99838883C75FD140A1
:1021C00086E493E1C750DE4F99838883C95FD1408D
:1021D0008BEC93E1C550DE4F99838883CB5FD14070
:1021E0008BEC94E1C350DE4F99838883CD5FD1405F
:1021F00084EE95E1C150DE4F99838883CF5FD14053
:102200001092D8031092D7031092B4031092B30324
:102210001092D2031092D1031092400410923F0406
:1022200080E09091E203CDD37093D2036093D10309
:102230003093B4032093B3038091D1039091D203E0
:1022400095958795959587959093D8038093D70317
:102250002091D7033091D8034FE350E060E070E065
:10226000CE01019613D980913F04909140042091B2
:102270003F043091400440913F04509140046091EC
:10228000B3037091B40301969695982F882797957C
:102290008795E1E0F0E0EC0FFD1F8E0F9F1F41508E
:1022A0005109241B350B3695322F22273795279558
:1022B00035952795269FA001279F500D369F500DDD
:1022C00011249A01359527953595279535952795AC
:1022D000820F931F9093C1038093C003CE5FD94FA9
:1022E0000FB6F894DEBF0FBECDBFDF91CF911F9127
:1022F0000F91FF90EF90DF90CF90BF90AF909F90A5
:102300008F907F906F905F904F903F902F900895A7
:102310000E94D808109246041092450410926B0354
:102320008BE291E090934A068093490679D181E847
:1023300090E073D281E890E0CBD292D10E94C100AC
:102340000E9425092A9A2A9878940E94AA0281E07C
:1023500091E09F938F938AE391E09F938F93E3D4CF
:1023600095B181E0982795B995B1892785B90F90E6
:102370000F900F900F900F2EFEE3AF2EF1E0BF2EC7
:10238000F02D0F2EF7E4CF2EF5E0DF2EF02D0F2EDF
:10239000FAE3EF2EF1E0FF2EF02D0F2EFCE48F2E4E
:1023A000F1E09F2EF02DC2EED3E00F2EF1E66F2E5E
:1023B000F1E07F2EF02D80916B038130E1F71092D8
:1023C0006B038091450490914604019690934604D6
:1023D0008093450480914504909146049F938F9388
:1023E000BF92AF92A0D4DF92CF92FF92EF929BD494
:1023F0008091BF038F938091BE038F939F928F92A2
:1024000092D40E94A50989818F9388818F937F92AE
:102410006F9289D48B818F938A818F93AAE6B1E0E2
:10242000BF93AF9380D48D818F938C818F93A2E7DC
:10243000B1E0BF93AF9377D48F818F938E818F93C9
:10244000ABE7B1E0BF93AF936ED489858F93888556
:102450008F93A5E8B1E0BF93AF9365D48DB79EB7D6
:1024600080960FB6F8949EBF0FBE8DBF0E941303D7
:102470006091B8037091B9038091BA039091BB0346
:102480000E9402046093AF037093B0038093B10382
:102490009093B2039F938F937F936F93AEE8B1E0D5
:1024A000BF93AF9340D46091F0037091F10380919A
:1024B000F2039091F3030E9490046093D30370930E
:1024C000D4038093D5039093D603BB2797FDBA9589
:1024D000A92F982F872FBF93AF939F938F93ADE929
:1024E000B1E0BF93AF931FD46091F4037091F503F3
:1024F0008091F6039091F7030E94FC061B012C01CA
:102500006093DD037093DE038093DF039093E00319
:10251000A8EEB3E09B01AC0171D2DC01CB01072E28
:102520007AE0B595A795979587957A95D1F7702D0F
:10253000BF93AF939F938F93D201C101072E7AE08F
:10254000B595A795979587957A95D1F7702DBF93F7
:10255000AF939F938F93A3EBB1E0BF93AF93E3D37C
:102560008DB79EB746960FB6F8949EBF0FBE8DBF2F
:1025700010E0812F0E948F0A1F5F1530D1F700EC09
:1025800013E0D8018D919C919F938F938AEC91E0F9
:102590009F938F93C8D3F801828193819F938F93E8
:1025A0008BED91E09F938F93BED3D80114968D91BC
:1025B0009C9115979F938F938CEE91E09F938F93AF
:1025C000B2D3F801868197819F938F938EEF91E02C
:1025D0009F938F93A8D3D80118968D919C911997AA
:1025E0009F938F9380E192E09F938F939CD3E9EC2C
:1025F000F0E0808180698083EDB7FEB774960FB6F6
:10260000F894FEBF0FBEEDBFD6CE1F920F920FB64D
:102610000F9211242A9A0F900FBE0F901F901895B9
:102620008DE0809381008AE49CE4909389008093FC
:102630008800089518951F920F920FB60F921124DB
:102640008F939F9395B182E0892785B981E080932C
:102650006B039F918F910F900FBE0F901F90189555
:1026600081E18093B8008FEF8093BB0084E080937A
:10267000BC0008958091BC0081780895CF93DF93CA
:10268000EC01ECEBF0E090819178E9F7609328029F
:1026900088818093290280FD12C0623080F0FE01A3
:1026A0003196AAE2B2E06250262F30E02E5F3F4F13
:1026B0002C0F3D1F91919D93E217F307D9F71092CC
:1026C000270288EF8093390185EA8093BC00DF916F
:1026D000CF910895AC01ECEBF0E090819178E9F7AF
:1026E0008091270280FF11C0662379F0A9E2B2E051
:1026F000FA016150262F30E02F5F3F4F240F351F26
:102700009D919193E217F307D9F780912702817089
:1027100008951F920F920FB60F9211240BB60F92CD
:102720002F933F938F939F93AF93BF93EF93FF9319
:10273000E091B9008E2F90E0FC013897E135F1056A
:1027400008F055C0EA5BFF4F50C110922602E0919D
:10275000260280912802E81770F481E08E0F8093A2
:102760002602F0E0E75DFD4F80818093BB0085E8A5
:102770008093BC0043C08091270281608093270230
:1027800084E98093BC003AC0E091260281E08E0F7C
:10279000809326028091BB00F0E0E75DFD4F8083CF
:1027A0002091260230E08091280290E001972817BE
:1027B000390724F485EC8093BC0020C085E8809321
:1027C000BC001CC08091BB00E0912602F0E0E75DF8
:1027D000FD4F80838091270281608093270284E9E6
:1027E0008093BC000BC085EA8093BC0007C0809139
:1027F000B9008093390184E08093BC00FF91EF9190
:10280000BF91AF919F918F913F912F910F900BBEF0
:102810000F900FBE0F901F9018959093C500809356
:10282000C40088E08093C10086E08093C2001092CB
:102830003B0310923C031092390210923A02089521
:1028400091E090933D0320913A022F5F90913902DD
:102850002917E1F3E22FF0E0E55CFD4F8083209340
:102860003A02E1ECF0E080818062808380E090E0D9
:1028700008951F920F920FB60F9211240BB60F926C
:102880008F939F93EF93FF9390913A028091390237
:10289000981761F0E0913902EF5FE0933902F0E0C0
:1028A000E55CFD4F80818093C60007C0E1ECF0E05D
:1028B00080818F7D808310923D03FF91EF919F91E6
:1028C0008F910F900BBE0F900FBE0F901F90189519
:1028D0009093CD008093CC0080E98093C90086E07E
:1028E0008093CA00109240031092410310923E035D
:1028F00010923F0308951F920F920FB60F9211246A
:102900000BB60F922F933F938F939F93AF93BF93E9
:10291000CF93DF93EF93FF939091CE00809141038B
:102920008F5F8093410320914003E82FF0E0E95B43
:10293000FB4F90839A3029F590914C049734E9F439
:10294000E0E02E2F30E0D901A95BBA4FE901C95B65
:10295000DB4F99819C93EF5F8E1798F7F0E0EC5B6B
:10296000FA4F1082E9ECF0E08081108281E08093E0
:102970006B0395B182E0892785B9109240031092CC
:102980004103FF91EF91DF91CF91BF91AF919F9163
:102990008F913F912F910F900BBE0F900FBE0F9014
:1029A0001F901895DB018F939F9328D0BF91AF9113
:1029B000A29F800D911DA39F900DB29F900D112499
:1029C0000895AA1BBB1B51E107C0AA1FBB1FA61776
:1029D000B70710F0A61BB70B881F991F5A95A9F7C8
:1029E00080959095BC01CD010895EE0FFF1F002446
:1029F000001C0BBE0790F691E02D099485D1A59F90
:102A0000900DB49F900DA49F800D911D11240895E9
:102A1000B7FFF4CFF3DF821B930B0895DF93CF93BF
:102A20001F930F939A9DF02D219FF00D8B9DF00D1C
:102A30008A9DE02DF10D039FF00D029FE00DF11D29
:102A40004E9DE00DF11D5E9DF00D4F9DF00D7F93AD
:102A50006F93BF92AF925F934F93D50155D18B0186
:102A6000AC01D70151D1EB01E80FF91FD6011FD0FE
:102A70002F913F91D60148D1C60FD71FE81FF91FEC
:102A8000AF91BF9114D02F913F913ED1C60FD71F68
:102A9000E81FF91FD60138D1E60FF71F9801BE01D4
:102AA000CF0111240F911F91CF91DF9108952CD167
:102AB000460F571FC81FD91F08F431960895689410
:102AC00001C0E894F92FF12B0AF027C0A0E0B0E094
:102AD000EBE6F5E193C0092E05941AF479D01123A1
:102AE00092F4F0E80F26FFEFE094F0940095109533
:102AF000B094C094D094A194BF0ACF0ADF0AEF0A21
:102B0000FF0A0F0B1F0B13D007FC62D0CDB7DEB747
:102B1000ECE090C0689401C0E8948F929F92CF93AC
:102B2000DF9305D0DF91CF919F908F9008958824F7
:102B30009924F401E401B0E49F93AA279A158B0429
:102B40009C04ED05FE05CF05D007A10798F4AD2F35
:102B5000DC2FCF2FFE2FE92D982C892E982F872F31
:102B6000762F652F542F432F322F2227B85031F75D
:102B7000BF9127C01B2EBF91BB27220F331F441FBD
:102B8000551F661F771F881F991F881C991CEE1FF1
:102B9000FF1FCC1FDD1FAA1FBB1F8A149B04EC055F
:102BA000FD05CE05DF05A007B10748F08A189B0890
:102BB000EC09FD09CE09DF09A00BB10B21601A94C5
:102BC000E1F62EF49401AF01BE01CD01000C089591
:102BD000609570958095909530954095509521958C
:102BE0003F4F4F4F5F4F6F4F7F4F8F4F9F4F089516
:102BF0002F923F924F925F926F927F928F929F920D
:102C0000AF92BF92CF92DF92EF92FF920F931F93FA
:102C1000CF93DF93CDB7DEB7CA1BDB0B0FB6F894AB
:102C2000DEBF0FBECDBF09942A88398848885F84EB
:102C30006E847D848C849B84AA84B984C884DF805C
:102C4000EE80FD800C811B81AA81B981CE0FD11D40
:102C50000FB6F894DEBF0FBECDBFED0108950F9300
:102C6000083090F0982F872F762F652F542F432F01
:102C7000322F22270850F4CF220F331F441F551F35
:102C8000661F771F881F991F0A95B2F70F91089545
:102C900097FB10F8169400080F93083098F008502E
:102CA000232F342F452F562F672F782F892F902DC4
:102CB000F4CF0594979587957795679557954795A0
:102CC000379527950A95AAF70F9108952A0D3B1D70
:102CD0004C1D5D1D6E1D7F1D801F911F08952A19BB
:102CE0003B094C095D096E097F09800B910B089522
:102CF0000024A7FD00942A17300540055005600503
:102D00007005800590050895A29FB001B39FC00192
:102D1000A39F700D811D1124911DB29F700D811D07
:102D20001124911D0895CF93DF93CDB7DEB7AE0187
:102D30004B5F5F4FFA0161917191AF01809149063C
:102D400090914A0603D0DF91CF9108952F923F9240
:102D50004F925F926F927F928F929F92AF92BF92AB
:102D6000CF92DF92EF92FF920F931F93CF93DF9357
:102D7000CDB7DEB72C970FB6F894DEBF0FBECDBF30
:102D80007C016B018A01FC0117821682838181FF1D
:102D9000B0C1CE0101964C01F7019381F60193FD7C
:102DA000859193FF81916F01882309F49EC185323B
:102DB00039F493FD859193FF81916F01853221F460
:102DC000B70190E0C7D1E8CF512C312C20E0203260
:102DD000A0F48B3269F030F4803259F0833269F418
:102DE00020612CC08D3239F0803339F4216026C047
:102DF0002260246023C0286021C027FD27C030ED59
:102E0000380F3A3078F426FF06C0FAE05F9E300DA6
:102E10001124532E13C08AE0389E300D1124332E16
:102E200020620CC08E3221F426FD5FC1206406C0F2
:102E30008C3611F4206802C0883641F4F60193FD07
:102E4000859193FF81916F018111C1CF982F9F7D53
:102E50009554933028F40C5F1F4FFFE3F9830DC0A6
:102E6000833631F0833771F0833509F057C021C0C4
:102E7000F801808189830E5F1F4F44244394512CB5
:102E8000540114C03801F2E06F0E711CF801A080EB
:102E9000B18026FF03C0652D70E002C06FEF7FEFA9
:102EA000C5012C874CD12C0183012C852F77222E34
:102EB00016C03801F2E06F0E711CF801A080B180DD
:102EC00026FF03C0652D70E002C06FEF7FEFC501E4
:102ED0002C872AD12C012C852068222E830123FCEB
:102EE00019C0832D90E048165906A0F4B70180E27E
:102EF00090E030D13A94F5CFF50127FC859127FE7B
:102F000081915F01B70190E025D131103A94F1E051
:102F10004F1A51084114510479F7DEC0843611F07C
:102F2000893631F5F80127FF07C060817181828100
:102F300093810C5F1F4F08C060817181072E000CC8
:102F4000880B990B0E5F1F4F2F76722E97FF09C0CB
:102F500090958095709561957F4F8F4F9F4F20681A
:102F6000722E2AE030E0A4012DD1A82EA81843C06B
:102F7000853729F42F7EB22E2AE030E025C0F22FCB
:102F8000F97FBF2E8F36C1F018F4883579F0ADC0C7
:102F9000803719F0883721F0A8C02F2F2061B22E7A
:102FA000B4FE0DC08B2D8460B82E09C024FF0AC06A
:102FB0009F2F9660B92E06C028E030E005C020E1C2
:102FC00030E002C020E132E0F801B7FE07C06081C6
:102FD0007181828193810C5F1F4F06C06081718176
:102FE00080E090E00E5F1F4FA401ECD0A82EA8183F
:102FF000FB2DFF777F2E76FE0BC0372D3E7FA5146D
:1030000050F474FE0AC072FC08C0372D3E7E05C025
:10301000BA2C372D03C0BA2C01C0B52C34FF0DC01B
:10302000FE01EA0DF11D8081803311F4397E09C063
:1030300032FF06C0B394B39404C0832F867809F09E
:10304000B39433FD12C030FF06C05A2CB31418F4E9
:10305000530C5B18B32CB31460F4B70180E290E01A
:103060003C8778D0B3943C85F6CFB31410F43B186A
:1030700001C0312C34FF11C0B70180E390E03C87E0
:1030800069D03C8532FF16C031FD03C088E790E06F
:1030900002C088E590E0B7010CC0832F867851F01C
:1030A00031FF02C08BE201C080E237FD8DE2B70143
:1030B00090E050D0A51430F4B70180E390E04AD0FE
:1030C0005A94F8CFAA94F401EA0DF11D8081B7015A
:1030D00090E040D0A110F6CF332009F45DCEB701C7
:1030E00080E290E037D03A94F7CFF701868197815C
:1030F00002C08FEF9FEF2C960FB6F894DEBF0FBE85
:10310000CDBFDF91CF911F910F91FF90EF90DF9096
:10311000CF90BF90AF909F908F907F906F905F9077
:103120004F903F902F900895FC01059061507040A2
:103130000110D8F7809590958E0F9F1F0895FC0180
:103140006150704001900110D8F7809590958E0FD6
:103150009F1F08950F931F93CF93DF93FB0123814C
:1031600021FD03C08FEF9FEF28C022FF16C04681CC
:103170005781248135814217530744F4A081B181DE
:103180009D012F5F3F4F318320838C9326813781B0
:103190002F5F3F4F3783268310C0EB01092F182F75
:1031A0000084F185E02D0995892BE1F68E819F81C0
:1031B00001969F838E83812F902FDF91CF911F9156
:1031C0000F910895FA01AA27283051F1203181F199
:1031D000E8946F936E7F6E5F7F4F8F4F9F4FAF4F1F
:1031E000B1E03ED0B4E03CD0670F781F891F9A1F32
:1031F000A11D680F791F8A1F911DA11D6A0F711DE6
:10320000811D911DA11D20D009F468943F912AE0F1
:10321000269F11243019305D3193DEF6CF010895D9
:10322000462F4770405D4193B3E00FD0C9F7F6CF0A
:10323000462F4F70405D4A3318F0495D31FD4052D2
:10324000419302D0A9F7EACFB4E0A6959795879568
:1032500077956795BA95C9F7009761057105089547
:103260009B01AC010A2E06945795479537952795F3
:10327000BA95C9F7620F731F841F951FA01D08958B
:10328000A8E1B0E042E050E002C0DC01CB01FC016B
:10329000F999FECF06C0F2BDE1BDF89A319600B4AF
:0E32A0000D9241505040B8F70895F894FFCFBA
:1032AE000148656C6C6F20576F726C64212120543D
:1032BE0068652073657269616C20706F7274206925
:1032CE007320776F726B696E672100000000020039
:1032DE00000000201400000000F80A2573000A53B5
:1032EE0065636F6E6473203D202575000A4C49445A
:1032FE0041522064697374616E6365203D202575AB
:10330E00000A434F203D202575000A48203D202508
:10331E0075000A4E41203D202575000A4348342091
:10332E003D202575000A4F33203D202575000A43A8
:10333E00656C73697573203D20256C75000A50729B
:10334E0065737375726520696E205061203D20256E
:10335E006C75000A48756D69646974792525203D80
:10336E0020256C752E256C750A0070706D207661A7
:10337E006C756520434F3A2025640070706D207681
:10338E00616C75652048323A2025640070706D209E
:10339E0076616C7565204E48333A20256400707056
:1033AE006D2076616C7565204348343A20256400A3
:1033BE0070706D2076616C7565204F333A202564F0
:0233CE000000FD
:00000001FF
