:100000008EC00000A7C00000A5C00000A3C0000073
:10001000A1C000009FC000009DC000009BC0000068
:1000200099C0000097C0000095C0000093C0000078
:1000300091C0000022C400008DC000008BC00000F1
:100040001BC4000087C0000085C0000083C0000002
:1000500081C0000029C500007DC000007BC00000F9
:1000600079C0000077C0000076C4000073C00000B3
:1000700044C5000061C500006DC00000C50417053F
:10008000170517051705170517051705C5041705E3
:10009000170517051705170517051705C7041705D1
:1000A0001705170517051705170517051705170570
:1000B000170517051705170517051705C7041705B1
:1000C0001705170517051705170517051705170550
:1000D0001705170517051705170517051305170544
:1000E000170517051705170517051705F004170558
:1000F0001705170517051705170517051705170520
:10010000170517051705170517051705E404170543
:1001100017051705170517051705170502051124FB
:100120001FBECFEFD8E0DEBFCDBF11E0A0E0B1E051
:10013000ECE0F1E102C005900D92A233B107D9F7CE
:1001400024E0A2E3B1E001C01D92AF3AB207E1F7AB
:100150002AD3DAC755CFFC01892B81F083819481A2
:10016000892B71F085819681892B61F081E027814F
:100170003085232B09F080E0819508958FEF089555
:100180008FEF08958FEF0895CF92DF92EF92FF9255
:100190001F93CF93DF93182F7B016A01E901C901F7
:1001A000DADF81110DC08A81813009F01068EB819E
:1001B000FC819601A701612F8981099581118CEF3E
:1001C000DF91CF911F91FF90EF90DF90CF90089536
:1001D000BF92CF92DF92EF92FF920F931F93CF9334
:1001E000DF93CDB7DEB764970FB6F894DEBF0FBECE
:1001F000CDBF7C016B018901B42E8AE0841720F405
:100200000F2EFAE0BF2EF02DC801A5DF811156C0D8
:10021000E114F10409F454C0C114D10409F452C02A
:10022000BB2009F451C0D6018C918983F8018281E9
:10023000813009F44BC0F7012FEF2B0D30E02F5F19
:100240003F4F2E0D3F1D90819F779193E217F3074B
:10025000D1F7F1E0FB15F0F497012F5F3F4F8FEFDF
:10026000C81AD80AFE01339681E0D9019D919D01FB
:10027000AF0141505109DA019C93D6019D916D0166
:1002800090838F5F32968B1580F32B2D30E0220FF9
:10029000331F02C02B2D30E0D8011596ED91FC9153
:1002A0001697AE014F5F5F4FD7016C91D801119641
:1002B0008C910995882371F08CEF0CC08FEF0AC0E8
:1002C0008FEF08C08FEF06C08DEF04C0B1E0BB1503
:1002D00018F2E0CF64960FB6F894DEBF0FBECDBF24
:1002E000DF91CF911F910F91FF90EF90DF90CF9012
:1002F000BF900895EF92FF921F93CF93DF9300D0AA
:10030000CDB7DEB77C0180EE898386EB8A83C70197
:1003100022DF182F811113C0970141E0BE016E5FEB
:100320007F4FCE01019654DF182FD7011796ED911C
:10033000FC91189762E070E080E090E00995812FD1
:100340000F900F90DF91CF911F91FF90EF90089544
:10035000EF92FF921F93CF93DF93CDB7DEB76B97EA
:100360000FB6F894DEBF0FBECDBF7C011982F3DE5D
:100370008111E3C015E0970141E050E0BE016F5FDD
:100380007F4F80ED01DF8111C6C08981803609F081
:10039000C2C0D7018C93C701ADDF8111CBC0BE01B4
:1003A0006E5F7F4F8AE1FB0111928A95E9F7970111
:1003B0004AE150E088E8E8DE8111BCC08B8190E022
:1003C000982F88272A81822BD7011A969C938E9387
:1003D00019978D8190E0982F88272C81822B1C966D
:1003E0009C938E931B978F8190E0982F88272E8166
:1003F000822B1E969C938E931D97898590E0982F53
:1004000088272885822B50969C938E931F978B85E7
:1004100090E0982F88272A85822B52969C938E9362
:1004200051978D8590E0982F88272C85822B5496A4
:100430009C938E9353978F8590E0982F88272E85D5
:10044000822B56969C938E935597898990E0982F8E
:1004500088272889822B58969C938E9357978B894F
:1004600090E0982F88272A89822B5A969C938E9306
:1004700059978D8990E0982F88272C89822B5C963C
:100480009C938E935B978F8990E0982F88272E8975
:10049000822B5E969C938E935D97898D90E0982F2A
:1004A0008827288D822B90969C938E935F978B8DB7
:1004B00091968C93970147E050E0BE016E5F7F4FAD
:1004C00081EE62DE811136C02B8130E0322F22278F
:1004D0009A81292BF70133A322A39C8194A39E81A7
:1004E0002D81F0E12F0290011124492F4F70242B10
:1004F000D70196963C932E9395972F81B0E12B02CE
:100500009001112492959F70292BF70130A727A302
:10051000988591A70FC0D7011796ED91FC91189778
:1005200061E070E080E090E00995115009F023CF80
:100530008EEF03C0111101C08EEF6B960FB6F894C9
:10054000DEBF0FBECDBFDF91CF911F91FF90EF9027
:100550000895CF92DF92EF92FF920F931F93CF9364
:10056000DF93CDB7DEB7962F0DB71EB7B9016D5F1C
:100570007F4FEDB7FEB7E61BF70B0FB6F894FEBF43
:100580000FBEEDBF31967F01DF01880FEDB7FEB7DB
:10059000818311969C93119721153105A9F0E0E014
:1005A000F0E090E06D01C90ED11C97FDDA94E40FE4
:1005B000F51F8081F60182839F5FE92F092E000CD1
:1005C000FF0BE217F30770F3C7017AD175D1892BBE
:1005D000E9F780E00FB6F8941EBF0FBE0DBFDF91A4
:1005E000CF911F910F91FF90EF90DF90CF900895E2
:1005F0005F926F927F928F929F92AF92BF92CF92B3
:10060000DF92EF92FF920F931F93CF93DF931F928E
:10061000CDB7DEB7582E6A0189016DB67EB64901A5
:1006200082E0880E911CEDB7FEB7E819F9090FB604
:10063000F894FEBF0FBEEDBF8DB79EB701965C016B
:100640007C01852D880F8183F501618362E070E074
:10065000C50136D131D1892BE9F7852D880F81600D
:10066000F5018083B8016D5F7F4FC50129D124D189
:10067000892BE9F7B401C5014FD189830115110513
:10068000A9F080E090E020E0F701E20FF11D27FDE6
:10069000FA95D601A80FB91F8C9181832F5F822F05
:1006A000022E000C990B8017910770F380E00FB6B3
:1006B000F8947EBE0FBE6DBE0F90DF91CF911F915B
:1006C0000F91FF90EF90DF90CF90BF90AF909F90F1
:1006D0008F907F906F905F90089587E084B985B187
:1006E00015B82B9A389A399A409A419A08951F93CF
:1006F000CF93DF93E4E9F4E084EC8083118284E01B
:10070000828363E0CF01DCD0D7D08111FDCFE4E953
:10071000F4E084EC808381E0818362E0CF01D0D07B
:10072000CBD08111FDCFC4E9D4E015EC1883198238
:1007300062E0CE01C5D0C0D08111FDCF62E0CE0114
:10074000EBD08093A40489818093A50480FDEECF33
:10075000E4E9F4E084EC80838FE8818362E0CF01F8
:10076000AFD0AAD08111FDCFE4E9F4E085EC80831D
:100770001182128263E0CF01A3D09ED08111FDCF00
:1007800063E084E994E0C8D08093A404E4E9F4E051
:10079000818190E0982F88272281820F911DDF911F
:1007A000CF911F910895CF93DF93CDB7DEB7E39735
:1007B0000FB6F894DEBF0FBECDBF8FDF1092A80436
:1007C0001092A7041092620480E091E09093AC0430
:1007D0008093AB0444D083E091E03DD163D0789422
:1007E00086E78A8381E08B8388EF92E09D838C8308
:1007F00089EA92E09F838E83CE010196A9DD0F2EB8
:10080000FFE0EF2EF1E0FF2EF02D0DE111E08091E1
:1008100062048130E1F7109262048091A704909104
:10082000A80401969093A8048093A7048091A7043C
:100830009091A8049F938F93FF92EF92E3D157DF9B
:1008400080937C0490937D049F938F931F930F93C9
:10085000D9D10FB6F894DEBF0FBECDBFD8CF8DE093
:10086000809381008AE49CE49093890080938800BF
:1008700082E080936F00089518951F920F920FB633
:100880000F9211248F939F9395B182E0892785B9A8
:1008900081E0809362049F918F910F900FBE0F9023
:1008A0001F90189581E18093B8008FEF8093BB0073
:1008B00084E08093BC0008958091BC008178089505
:1008C000CF93DF93EC01ECEBF0E090819178E9F7C6
:1008D0006093340188818093350180FD12C06230BD
:1008E00080F0FE013196A6E3B1E06250262F30E0A1
:1008F0002E5F3F4F2C0F3D1F91919D93E217F30701
:10090000D9F71092330188EF80930E0185EA809326
:10091000BC00DF91CF910895AC01ECEBF0E0908149
:100920009178E9F78091330180FF11C0662379F057
:10093000A5E3B1E0FA016150262F30E02F5F3F4F71
:10094000240F351F9D919193E217F307D9F78091FA
:100950003301817008951F920F920FB60F921124E8
:100960002F933F938F939F93AF93BF93EF93FF93F7
:10097000E091B9008E2F90E0FC013897E135F10548
:1009800008F055C0E25CFF4F00C110923201E091C7
:10099000320180913401E81770F481E08E0F80936A
:1009A0003201F0E0EB5CFE4F80818093BB0085E874
:1009B0008093BC0043C080913301816080933301F8
:1009C00084E98093BC003AC0E091320181E08E0F4F
:1009D000809332018091BB00F0E0EB5CFE4F80839E
:1009E0002091320130E08091340190E00197281786
:1009F000390724F485EC8093BC0020C085E88093FF
:100A0000BC001CC08091BB00E0913201F0E0EB5CC7
:100A1000FE4F80838091330181608093330184E9AC
:100A20008093BC000BC085EA8093BC0007C0809116
:100A3000B90080930E0184E08093BC00FF91EF9198
:100A4000BF91AF919F918F913F912F910F900FBECA
:100A50000F901F9018959093C5008093C40088E96B
:100A60008093C1008EE08093C200109247021092E2
:100A700048021092450110924601089520914601C6
:100A80002F5F909145012917E1F3E22FF0E0E95B38
:100A9000FE4F808320934601E1ECF0E0808180628C
:100AA000808380E090E008951F920F920FB60F921E
:100AB00011248F939F93EF93FF9390914601809120
:100AC0004501981761F0E0914501EF5FE093450122
:100AD000F0E0E95BFE4F80818093C60005C0E1EC49
:100AE000F0E080818F7D8083FF91EF919F918F91C6
:100AF0000F900FBE0F901F9018951F920F920FB678
:100B00000F9211248F939F93EF93FF938091CE00C8
:100B1000E0914C03EF5FE0934C0390914B03F0E0C6
:100B2000E35BFC4F8083FF91EF919F918F910F903A
:100B30000FBE0F901F9018951F920F920FB60F9235
:100B400011248F939F93EF93FF9390914A0280918A
:100B50004902981761F0E0914902EF5FE093490282
:100B6000F0E0E55BFD4F80818093CE0005C0E9ECAD
:100B7000F0E080818F7D8083FF91EF919F918F9135
:100B80000F900FBE0F901F901895EE0FFF1F05904E
:100B9000F491E02D09942F923F924F925F926F92C1
:100BA0007F928F929F92AF92BF92CF92DF92EF92FD
:100BB000FF920F931F93CF93DF93CDB7DEB7CA1B7E
:100BC000DB0B0FB6F894DEBF0FBECDBF09942A88A9
:100BD000398848885F846E847D848C849B84AA8451
:100BE000B984C884DF80EE80FD800C811B81AA81DE
:100BF000B981CE0FD11D0FB6F894DEBF0FBECDBFA9
:100C0000ED010895A0E0B0E0E7E0F6E0D4CFAE015A
:100C10004B5F5F4FFA0161917191AF018091AB041D
:100C20009091AC0402D0E2E0E2CFACE0B0E0EAE1C7
:100C3000F6E0B1CF7C016B018A01FC0117821682BC
:100C4000838181FFB0C1CE0101964C01F7019381F0
:100C5000F60193FD859193FF81916F01882309F43B
:100C60009EC1853239F493FD859193FF81916F0187
:100C7000853221F4B70190E0B1D1E8CF512C312C6D
:100C800020E02032A0F48B3269F030F4803259F049
:100C9000833269F420612CC08D3239F0803339F40D
:100CA000216026C02260246023C0286021C027FD67
:100CB00027C030ED380F3A3078F426FF06C0FAE04E
:100CC0005F9E300D1124532E13C08AE0389E300DE4
:100CD0001124332E20620CC08E3221F426FD5FC118
:100CE000206406C08C3611F4206802C0883641F4B6
:100CF000F60193FD859193FF81916F018111C1CF21
:100D0000982F9F7D9554933028F40C5F1F4FFFE37D
:100D1000F9830DC0833631F0833771F0833509F0E4
:100D200057C021C0F801808189830E5F1F4F442482
:100D30004394512C540114C03801F2E06F0E711C21
:100D4000F801A080B18026FF03C0652D70E002C0CD
:100D50006FEF7FEFC5012C8736D12C0183012C85E5
:100D60002F77222E16C03801F2E06F0E711CF801A9
:100D7000A080B18026FF03C0652D70E002C06FEF38
:100D80007FEFC5012C8714D12C012C852068222EE1
:100D9000830123FC19C0832D90E048165906A0F466
:100DA000B70180E290E01AD13A94F5CFF50127FC23
:100DB000859127FE81915F01B70190E00FD131103D
:100DC0003A94F1E04F1A51084114510479F7DEC00A
:100DD000843611F0893631F5F80127FF07C06081AC
:100DE0007181828193810C5F1F4F08C06081718186
:100DF000072E000C880B990B0E5F1F4F2F76722E5B
:100E000097FF09C090958095709561957F4F8F4FA2
:100E10009F4F2068722E2AE030E0A40117D1A82E3F
:100E2000A81843C0853729F42F7EB22E2AE030E07F
:100E300025C0F22FF97FBF2E8F36C1F018F4883508
:100E400079F0ADC0803719F0883721F0A8C02F2F76
:100E50002061B22EB4FE0DC08B2D8460B82E09C067
:100E600024FF0AC09F2F9660B92E06C028E030E00C
:100E700005C020E130E002C020E132E0F801B7FE19
:100E800007C060817181828193810C5F1F4F06C012
:100E90006081718180E090E00E5F1F4FA401D6D089
:100EA000A82EA818FB2DFF777F2E76FE0BC0372DBE
:100EB0003E7FA51450F474FE0AC072FC08C0372DA2
:100EC0003E7E05C0BA2C372D03C0BA2C01C0B52C0C
:100ED00034FF0DC0FE01EA0DF11D8081803311F455
:100EE000397E09C032FF06C0B394B39404C0832F87
:100EF000867809F0B39433FD12C030FF06C05A2C37
:100F0000B31418F4530C5B18B32CB31460F4B7018A
:100F100080E290E03C8762D0B3943C85F6CFB31476
:100F200010F43B1801C0312C34FF11C0B70180E32D
:100F300090E03C8753D03C8532FF16C031FD03C0A2
:100F400088E790E002C088E590E0B7010CC0832FED
:100F5000867851F031FF02C08BE201C080E237FD9C
:100F60008DE2B70190E03AD0A51430F4B70180E3E8
:100F700090E034D05A94F8CFAA94F401EA0DF11D10
:100F80008081B70190E02AD0A110F6CF332009F478
:100F90005DCEB70180E290E021D03A94F7CFF7011F
:100FA0008681978102C08FEF9FEF2C96E2E10FCEF2
:100FB000FC010590615070400110D8F78095909524
:100FC0008E0F9F1F0895FC01615070400190011029
:100FD000D8F7809590958E0F9F1F08950F931F93BC
:100FE000CF93DF93FB01238121FD03C08FEF9FEFA0
:100FF00028C022FF16C046815781248135814217BF
:10100000530744F4A081B1819D012F5F3F4F31838D
:1010100020838C93268137812F5F3F4F3783268330
:1010200010C0EB01092F182F0084F185E02D0995E0
:10103000892BE1F68E819F8101969F838E83812F7C
:10104000902FDF91CF911F910F910895FA01AA2758
:10105000283051F1203181F1E8946F936E7F6E5FFB
:101060007F4F8F4F9F4FAF4FB1E03ED0B4E03CD0A9
:10107000670F781F891F9A1FA11D680F791F8A1F8C
:10108000911DA11D6A0F711D811D911DA11D20D0F3
:1010900009F468943F912AE0269F11243019305DAD
:1010A0003193DEF6CF010895462F4770405D41939E
:1010B000B3E00FD0C9F7F6CF462F4F70405D4A33EB
:1010C00018F0495D31FD4052419302D0A9F7EACFB3
:1010D000B4E0A6959795879577956795BA95C9F7E2
:1010E00000976105710508959B01AC010A2E0694D5
:1010F0005795479537952795BA95C9F7620F731F8E
:0C110000841F951FA01D0895F894FFCFD8
:10110C0000000002000000003E0500000000F80A8C
:10111C005365636F6E6473203D202575000A4C493E
:10112C004441522064697374616E6365203D2025CF
:02113C0075003C
:00000001FF
