S01F000043616E61727920536F667477617265205061636B6167652E7372656370
S11300008EC00000A7C00000A5C00000A3C000006F
S1130010A1C000009FC000009DC000009BC0000064
S113002099C0000097C0000095C0000093C0000074
S113003091C0000046C100008DC000008BC00000CC
S11300403FC1000087C0000085C0000083C00000DD
S113005081C000004DC200007DC000007BC00000D4
S113006079C0000077C000009AC1000073C000008E
S113007068C2000085C200006DC00000E9013B02B7
S11300803B023B023B023B023B023B02E9013B02D7
S11300903B023B023B023B023B023B02EB013B02C5
S11300A03B023B023B023B023B023B023B023B0264
S11300B03B023B023B023B023B023B02EB013B02A5
S11300C03B023B023B023B023B023B023B023B0244
S11300D03B023B023B023B023B023B0237023B0238
S11300E03B023B023B023B023B023B0214023B024B
S11300F03B023B023B023B023B023B023B023B0214
S11301003B023B023B023B023B023B0208023B0236
S11301103B023B023B023B023B023B022602112410
S11301201FBECFEFD8E0DEBFCDBF11E0A0E0B1E04D
S1130130EAE7FBE002C005900D92A233B107D9F7BC
S113014024E0A2E3B1E001C01D92AF3AB207E1F7A7
S113015068D011C555CF87E084B985B115B82B9AFD
S1130160389A399A409A419A08951F93CF93DF930E
S1130170E4E9F4E084EC8083118284E0828363E028
S1130180CF01C2D0BDD08111FDCFE4E9F4E084EC0D
S1130190808381E0818362E0CF01B6D0B1D0811148
S11301A0FDCFC4E9D4E015EC1883198262E0CE01D6
S11301B0ABD0A6D08111FDCF62E0CE01D1D0809327
S11301C0A40489818093A50480FDEECFE4E9F4E0E2
S11301D084EC80838FE8818362E0CF0195D090D056
S11301E08111FDCFE4E9F4E085EC80831182128271
S11301F063E0CF0189D084D08111FDCF63E084E92D
S113020094E0AED08093A404E4E9F4E0818190E02A
S1130210982F88272281820F911DDF91CF911F9102
S1130220089599DF1092A8041092A7041092620412
S113023080E091E09093AC048093AB0434D083E0ED
S113024091E02DD153D078940FE011E0CDE1D1E0CD
S1130250809162048130E1F7109262048091A704D6
S11302609091A80401969093A8048093A704809188
S1130270A7049091A8049F938F931F930F93E6D1A3
S113028074DF80937C0490937D049F938F93DF931A
S1130290CF93DCD18DB79EB708960FB6F8949EBF66
S11302A00FBE8DBFD5CF8DE0809381008AE49CE49E
S11302B0909389008093880082E080936F00089572
S11302C018951F920F920FB60F9211248F939F933C
S11302D095B182E0892785B981E0809362049F917A
S11302E08F910F900FBE0F901F90189581E180930E
S11302F0B8008FEF8093BB0084E08093BC00089526
S11303008091BC0081780895CF93DF93EC01ECEBEE
S1130310F0E090819178E9F76093340188818093CB
S1130320350180FD12C0623080F0FE013196A6E3F3
S1130330B1E06250262F30E02E5F3F4F2C0F3D1F5F
S113034091919D93E217F307D9F71092330188EF47
S113035080930E0185EA8093BC00DF91CF910895CC
S1130360AC01ECEBF0E090819178E9F780913301F6
S113037080FF11C0662379F0A5E3B1E0FA01615072
S1130380262F30E02F5F3F4F240F351F9D9191930F
S1130390E217F307D9F780913301817008951F9212
S11303A00F920FB60F9211242F933F938F939F9325
S11303B0AF93BF93EF93FF93E091B9008E2F90E03A
S11303C0FC013897E135F10508F055C0E25CFF4FB8
S11303D000C110923201E091320180913401E8179A
S11303E070F481E08E0F80933201F0E0EB5CFE4FFD
S11303F080818093BB0085E88093BC0043C08091DA
S1130400330181608093330184E98093BC003AC056
S1130410E091320181E08E0F809332018091BB0024
S1130420F0E0EB5CFE4F80832091320130E080915C
S1130430340190E001972817390724F485EC809360
S1130440BC0020C085E88093BC001CC08091BB0028
S1130450E0913201F0E0EB5CFE4F80838091330148
S113046081608093330184E98093BC000BC085EAEA
S11304708093BC0007C08091B90080930E0184E092
S11304808093BC00FF91EF91BF91AF919F918F91A9
S11304903F912F910F900FBE0F901F90189590933E
S11304A0C5008093C40088E98093C1008EE08093E6
S11304B0C200109247021092480210924501109215
S11304C046010895209146012F5F90914501291717
S11304D0E1F3E22FF0E0E95BFE4F808320934601D5
S11304E0E1ECF0E080818062808380E090E0089518
S11304F01F920F920FB60F9211248F939F93EF9335
S1130500FF939091460180914501981761F0E09125
S11305104501EF5FE0934501F0E0E95BFE4F808128
S11305208093C60005C0E1ECF0E080818F7D80837C
S1130530FF91EF919F918F910F900FBE0F901F909D
S113054018951F920F920FB60F9211248F939F93B9
S1130550EF93FF938091CE00E0914C03EF5FE09323
S11305604C0390914B03F0E0E35BFC4F8083FF91DD
S1130570EF919F918F910F900FBE0F901F90189540
S11305801F920F920FB60F9211248F939F93EF93A4
S1130590FF9390914A0280914902981761F0E0918B
S11305A04902EF5FE0934902F0E0E55BFD4F808193
S11305B08093CE0005C0E9ECF0E080818F7D8083DC
S11305C0FF91EF919F918F910F900FBE0F901F900D
S11305D01895EE0FFF1F0590F491E02D09942F92CA
S11305E03F924F925F926F927F928F929F92AF92BF
S11305F0BF92CF92DF92EF92FF920F931F93CF930C
S1130600DF93CDB7DEB7CA1BDB0B0FB6F894DEBFA2
S11306100FBECDBF09942A88398848885F846E84C8
S11306207D848C849B84AA84B984C884DF80EE8012
S1130630FD800C811B81AA81B981CE0FD11D0FB61B
S1130640F894DEBF0FBECDBFED010895A0E0B0E089
S1130650EBE2F3E0D4CFAE014B5F5F4FFA0161915F
S11306607191AF018091AB049091AC0402D0E2E0AF
S1130670E2CFABE0B0E0EEE3F3E0B1CF6C017B019D
S11306808A01FC0117821682838181FFBFC1CE01DA
S113069001963C01F6019381F70193FD859193FF47
S11306A081917F01882309F4ADC1853239F493FD2A
S11306B0859193FF81917F01853221F4B60190E009
S11306C0C0D1E8CF912C212C312CFFE1F315D8F0C7
S11306D08B3279F038F4803279F08332A1F4232D0F
S11306E020611DC08D3261F0803369F4232D2160B7
S11306F016C0832D8260382EE32DE4603E2E2AC07E
S1130700F32DF8601DC037FC2DC020ED280F2A30D2
S113071040F08E32B9F436FC75C1232D2064322E9C
S113072019C036FE06C08AE0989E200D1124922E30
S113073011C0EAE02E9E200D1124222EF32DF0622A
S11307403F2E08C08C3621F4832D8068382E02C0D9
S1130750883641F4F70193FD859193FF81917F01E0
S11307608111B3CF982F9F7D9554933028F40C5F5B
S11307701F4F9FE399830DC0833631F0833771F0A7
S1130780833509F055C020C0F801808189830E5F4C
S11307901F4F88248394912C530112C02801F2E046
S11307A04F0E511CF801A080B18036FE03C0692DA4
S11307B070E002C06FEF7FEFC50138D14C018201B8
S11307C0F32DFF773F2E15C0280122E0420E511C65
S11307D0F801A080B18036FE03C0692D70E002C02C
S11307E06FEF7FEFC50117D14C01F32DF0683F2E59
S11307F0820133FC19C0822D90E088169906A0F47A
S1130800B60180E290E01DD12A94F5CFF50137FCC2
S1130810859137FE81915F01B60190E012D12110DC
S11308202A9421E0821A91088114910479F7E1C095
S1130830843611F0893639F5F80137FE07C0608136
S11308407181828193810C5F1F4F08C06081718127
S1130850072E000C880B990B0E5F1F4FF32DFF76AC
S11308603F2E97FF09C090958095709561957F4FB5
S11308708F4F9F4FF0683F2E2AE030E0A3011DD137
S1130880882E861844C0853731F4232D2F7EB22E4E
S11308902AE030E025C0932D997FB92E8F36C1F020
S11308A018F4883579F0AEC0803719F0883721F014
S11308B0A9C0E92FE061BE2EB4FE0DC0FB2DF4608B
S11308C0BF2E09C034FE0AC0292F2660B22E06C0EE
S11308D028E030E005C020E130E002C020E132E051
S11308E0F801B7FE07C060817181828193810C5F3A
S11308F01F4F06C06081718180E090E00E5F1F4F42
S1130900A301DBD0882E8618FB2DFF773F2E36FE01
S11309100DC0232D2E7FA22E891458F434FE0BC053
S113092032FC09C0832D8E7EA82E05C0B82CA32CC2
S113093003C0B82C01C0B92CA4FE0FC0FE01E80D01
S1130940F11D8081803321F49A2D997EA92E09C04E
S1130950A2FE06C0B394B39404C08A2D867809F02D
S1130960B394A3FC10C0A0FE06C0B21480F4280CFB
S1130970922C9B180DC0B21458F4B60180E290E09A
S113098060D0B394F8CFB21418F42B1802C0982C8A
S1130990212CA4FE0FC0B60180E390E052D0A2FE49
S11309A016C0A1FC03C088E790E002C088E590E08F
S11309B0B6010CC08A2D867851F0A1FE02C08BE2EC
S11309C001C080E2A7FC8DE2B60190E03AD0891420
S11309D030F4B60180E390E034D09A94F8CF8A944E
S11309E0F301E80DF11D8081B60190E02AD0811059
S11309F0F6CF222009F44ECEB60180E290E021D059
S1130A002A94F7CFF6018681978102C08FEF9FEF7A
S1130A102B96E2E100CEFC0105906150704001107C
S1130A20D8F7809590958E0F9F1F0895FC01615013
S1130A30704001900110D8F7809590958E0F9F1FFC
S1130A4008950F931F93CF93DF93FB01238121FD1F
S1130A5003C08FEF9FEF2CC022FF16C04681578141
S1130A60248135814217530744F4A081B1819D014B
S1130A702F5F3F4F318320838C93268137812F5FF3
S1130A803F4F3783268314C08B01EC01FB010084A4
S1130A90F185E02D0995892BE1F6D80116968D9103
S1130AA09C911797019617969C938E931697CE0157
S1130AB0DF91CF911F910F910895FA01AA27283051
S1130AC051F1203181F1E8946F936E7F6E5F7F4F17
S1130AD08F4F9F4FAF4FB1E03ED0B4E03CD0670F93
S1130AE0781F891F9A1FA11D680F791F8A1F911DE6
S1130AF0A11D6A0F711D811D911DA11D20D009F436
S1130B0068943F912AE0269F11243019305D319377
S1130B10DEF6CF010895462F4770405D4193B3E060
S1130B200FD0C9F7F6CF462F4F70405D4A3318F007
S1130B30495D31FD4052419302D0A9F7EACFB4E0B8
S1130B40A6959795879577956795BA95C9F7009770
S1130B506105710508959B01AC010A2E0694579511
S1130B60479537952795BA95C9F7620F731F841F68
S10D0B70951FA01D0895F894FFCF0F
S1130B7A0000000200000000620200000000F80AFF
S1130B8A5365636F6E6473203D202575000A4C49D2
S1130B9A4441522064697374616E6365203D202563
S1050BAA7500D0
S9030000FC
