S01F000043616E61727920536F667477617265205061636B6167652E7372656370
S113000096C00000B3C00000B1C00000AFC0000043
S1130010ADC00000ABC00000A9C00000A7C0000034
S1130020A5C00000A3C00000A1C000009FC0000044
S11300309DC000000C940B3899C0000097C00000CC
S11300400C940A3893C0000091C000008FC00000D7
S11300508DC000000C94263989C0000087C00000C0
S113006085C0000083C000000C9479387FC0000074
S11300700C9466397BC0000079C0000077C0000092
S113008075C0000073C0000071C000009538E738E7
S1130090E738E738E738E738E738E7389538E738B6
S11300A0E738E738E738E738E738E7389738E738A4
S11300B0E738E738E738E738E738E738E738E73844
S11300C0E738E738E738E738E738E7389738E73884
S11300D0E738E738E738E738E738E738E738E73824
S11300E0E738E738E738E738E738E738E338E73818
S11300F0E738E738E738E738E738E738C038E7382B
S1130100E738E738E738E738E738E738E738E738F3
S1130110E738E738E738E738E738E738B438E73816
S1130120E738E738E738E738E738E738D2381124D2
S11301301FBECFEFD0E4DEBFCDBF12E0A0E0B1E040
S1130140ECE3F2E800E00BBF02C007900D92AE357D
S1130150B107D9F726E0AEE5B2E001C01D92AD3992
S1130160B207E1F70E949D350C941C410C94FF37B3
S1130170ECE7F0E09081907E90839081892B8083DE
S11301800895CF93DF93ECE7F0E08081806480836F
S1130190CAE7D0E08881816088838881826088830F
S11301A0888184608883A4E6B0E08C918E7F8C93F0
S11301B080818F7D80838FE380937E008881806837
S11301C0888310927B008FE1D3DF888180648883E9
S11301D0EAE7F0E0808184FFFDCFEAE7F0E0808188
S11301E080648083808184FFFDCF8091780090E0DB
S11301F090935F0280935E029091790020915E0259
S113020030915F02892F90E0982F8827820F931FE7
S113021090935F0280935E0280915E0290915F02F0
S113022099231CF491958195910905972CF080915F
S113023061048160809361048EE19ADFEAE7F0E073
S1130240808180648083808184FFFDCF80917800E9
S113025090E090935F0280935E02909179002091E8
S11302605E0230915F02892F90E0982F8827820FD9
S1130270931F90935F0280935E0280915E0290913F
S11302805F02815E910990935F0280935E02809188
S11302905E0290915F0299231CF4919581959109D6
S11302A005972CF080916104826080936104EAE7F1
S11302B0F0E080818F778083DF91CF910895FF9262
S11302C00F931F93CF93DF9380910001882359F1FB
S11302D0CFE9D3E00F2EFCEEFF2EF02D03EF1DEE41
S11302E0F882098362E0CE010E942E380E942A38E7
S11302F08111FCCF18836AE1CE010E942E380E943E
S11303002A388111FCCF6AE1CE010E945A388093C9
S11303109604898183FB882780F98093000180916A
S113032000018111DDCFEFE9F3E08CEE808388E8F2
S1130330818362E0CF010E942E380E942A38811105
S1130340FCCF8DEE80939F036BE18FE993E00E94D5
S11303502E380E942A388111FCCF6BE18FE993E09B
S11303600E945A3880939604C0EAD3E00BEC13E061
S11303702BEB33E0D801FE0181918D93E217F30753
S1130380D9F78BE180936102EBECF3E0818190E09B
S1130390982F88272081822B90939E0380939D031E
S11303A0838190E0982F88272281822B9093CA031F
S11303B08093C903858190E0982F88272481822B1C
S11303C090937B0480937A04878190E0982F882708
S11303D02681822B9093630480936204818590E04C
S11303E0982F88272085822B90930D0480930C04EA
S11303F0838590E0982F88272285822B909365042B
S113040080936404858590E0982F88272485822B27
S113041090930F0480930E04878590E0982F88278B
S11304202685822B9093290480932804818990E067
S1130430982F88272089822B90937D0480937C04B5
S1130440838990E0982F88272289822B90939C039C
S113045080939B03858990E0982F88272489822B99
S11304609093670480936604878990E0982F882787
S11304702689822B9093790480937804818D8093CC
S1130480F903EFE9F3E08CEE808381EE818362E08F
S1130490CF010E942E380E942A388111FCCF8DEEA4
S11304A080939F0368E08FE993E00E942E380E94B6
S11304B02A388111FCCF68E08FE993E00E945A3812
S11304C08093960427EA33E08991F80181938F01A0
S11304D0C217D307C9F787E080936102EBECF3E01E
S11304E0818190E0982F88272081822B90937F042C
S11304F080937E048281809375048481829586959D
S1130500877090E0238140E1249F90011124282BDF
S1130510392B3093C8032093C703258140E1249FDE
S113052090011124822B932B909373048093720473
S1130530868180931804DF91CF911F910F91FF90D2
S11305400895EFE9F3E08CEE808380EE818386EBFF
S1130550828363E0CF010E942E380E942A388111E1
S1130560FCCFEFE9F3E08CEE808380ED818362E0E1
S1130570CF010E942E380E942A388111FCCF8DEEC3
S113058080939F0362E08FE993E00E942E380E94DB
S11305902A388111FCCF62E08FE993E00E945A3837
S11305A0809396048091A003803689F5EFE9F3E007
S11305B08CEE808382EF818381E0828363E0CF01CC
S11305C00E942E380E942A388111FCCFEFE9F3E013
S11305D08CEE808385EF818380E1828363E0CF01A9
S11305E00E942E380E942A388111FCCF68DEEFE980
S11305F0F3E08CEE808384EF818381E3828363E084
S1130600CF010E942E380E942A388111FCCF089510
S1130610FF920F931F93CF93DF9381E08093600247
S113062080916002882359F1CFE9D3E00F2EFCEECC
S1130630FF2EF02D03EF1DEEF882098362E0CE0158
S11306400E942E380E942A388111FCCF188362E060
S1130650CE010E942E380E942A388111FCCF62E01C
S1130660CE010E945A3880939604898183FB88279F
S113067080F980936002809160028111DDCFEFE9FF
S1130680F3E08CEE808387EF818362E0CF010E94E8
S11306902E380E942A388111FCCF8DEE80939F035F
S11306A069E08FE993E00E942E380E942A38811174
S11306B0FCCF69E08FE993E00E945A388093960456
S11306C0E0EAF3E0ABECB3E028EA33E081918D9308
S11306D0E217F307D9F7EBECF3E0808190E0A0E0B8
S11306E0B0E0AC01BD01032E3CE0440F551F661F72
S11306F0771F3A95D1F7302D9181892F90E0A0E0B2
S1130700B0E0880F991FAA1FBB1F880F991FAA1F4B
S1130710BB1F880F991FAA1FBB1F880F991FAA1FF1
S1130720BB1F842B952BA62BB72B228122952F70D0
S1130730822B80932A0490932B04A0932C04B093CF
S11307402D04838190E0A0E0B0E0AC01BD01032E54
S11307503CE0440F551F661F771F3A95D1F7302DA3
S11307609481892F90E0A0E0B0E0880F991FAA1F20
S1130770BB1F880F991FAA1FBB1F880F991FAA1F91
S1130780BB1F880F991FAA1FBB1F842B952BA62B59
S1130790B72B258122952F70822B8093FA03909397
S11307A0FB03A093FC03B093FD03868190E0A0E0DB
S11307B0B0E0BA2FA92F982F88272781822B809306
S11307C02E0490932F04A0933004B0933104EFE9E6
S11307D0F3E08CEE808384EF818381E3828363E0A2
S11307E0CF010E942E380E942A388111FCCFDF915C
S11307F0CF911F910F91FF9008958F929F92AF9286
S1130800BF92CF92DF92EF92FF9220919D0330919D
S11308109E036B017C01689413F8F594E794D794D4
S1130820C7941694D1F7C21AD30AE108F108DC017F
S1130830CB01689412F8B595A7959795879516946A
S1130840D1F7220F331F4C015D01821A930AA108CC
S1130850B108A5019401A091C903B091CA030E94F3
S1130860953C4B015C01072E7BE0B594A7949794CB
S113087087947A95D1F7702DA7019601C701B60127
S11308800E94433C9B01AC01012E1CE05595479509
S1130890379527951A95D1F7102DA0917A04B09128
S11308A07B040E94953CDC01CB01072E7EE0B595CC
S11308B0A795979587957A95D1F7702D880D991DF1
S11308C0AA1DBB1D8093800490938104A09382048D
S11308D0B09383046C017D01CC0CDD1CEE1CFF1C69
S11308E0CC0CDD1CEE1CFF1C8C0D9D1DAE1DBF1D14
S11308F080589F4FAF4FBF4F692F7A2F8B2F992767
S113090087FD9A95FF90EF90DF90CF90BF90AF90C6
S11309109F908F9008952F923F924F925F926F9283
S11309207F928F929F92AF92BF92CF92DF92EF927B
S1130930FF920F931F93CF93DF93CDB7DEB76997E1
S11309400FB6F894DEBF0FBECDBF6C8B7D8B8E8B44
S11309509F8B8091800490918104A0918204B09136
S113096083046C017D01FF0CCC08DC2C7601282F5C
S1130970392F4A2F5B2F6C2D7C2D8C2D9C2D345FB1
S113098041405109610971098109910929833D8314
S11309904E835F83688779878A879B87A22EB32ECD
S11309A0C42ED52EE62EF72E082F192F0E949B3C1D
S11309B02C873D874E875F87688B798B8A8B9B8BCF
S11309C030910D0420910C04932F990F990B492F0A
S11309D0592F692F792F892F0E949B3C0CE00E948C
S11309E0BC3D622E732E842E952E698F788F582EDF
S11309F0492E3091650420916404932F990F990B2B
S1130A00AC84BD84CE84DF84E888F9880A891B8994
S1130A10492F592F692F792F892F0E949B3C08E079
S1130A200E94D53DA62CB72CC82CD92CE98CF88C67
S1130A30052D142D0E94F33D70588F4F9F4F209029
S1130A40620430906304A22CB32CC12CD12CE12C71
S1130A50F12C00E010E00E949B3C01E20E94D53D95
S1130A60322E232E942E598F688F472E582E692E9E
S1130A70A0E00E94053E09F435C130917D04209127
S1130A807C04932F990F990BAC84BD84CE84DF84AE
S1130A90E888F9880A891B89492F592F692F792FEA
S1130AA0892F0E949B3C2C873D874E87752E862E6E
S1130AB07F87888B998B3091290420912804932F68
S1130AC0990F990BA980BD80CE80DF80E884F984DA
S1130AD00A851B85492F592F692F792F892F0E9449
S1130AE09B3C01E10E94BC3DAC84BD84CE84D72CE8
S1130AF0E82CFF84088919890E94F33DA22EB32EA5
S1130B00C42ED52EE62EF72E782E192F80E090E0F5
S1130B10A0E1B0E02C893D894E895F89821B930B4B
S1130B20A40BB50B9C01AD01550F220B322FA9016B
S1130B3029833A834B835C83282F392F4A2F5B2FD9
S1130B406981762F862F962F0FE10E94BC3D822E5D
S1130B5039834D835E83B62FA72FF82FE92F309169
S1130B600F0420910E04932F990F990B492F592F9D
S1130B70692F792F892F03E20E94BC3D072D0E9423
S1130B80F33DA22EB32EC42ED52EE62EF72E082F1B
S1130B90192F282D39814D815E816B2F7A2F8F2F4C
S1130BA09E2F0E94FC3D0F2EF5E3AF2EF02D0F2E4D
S1130BB0FCE0BF2EF02DC12CD12CE12CF12C00E057
S1130BC010E00E949B3CA32CB22CC92CD98CE88C3D
S1130BD0F42C052D162D0E94EE3C2B873A87498371
S1130BE05D836E837F83888799870DE00E94D53D5E
S1130BF0922E832E742E652E562E472E382E292E95
S1130C003091790420917804932F990F990BA92C92
S1130C10B82CC72CD62CE52CF42C032D122D492FDF
S1130C20592F692F792F892F0E949B3C0E949B3C4E
S1130C3009E10E94D53DAB84BA84C980DD80EE8091
S1130C40FF80088519850E94F33D222E332E442E01
S1130C50552E662E772E882E992E3091670420917A
S1130C606604932F990F990B492F592F692F792FC8
S1130C70892F0E949B3C03E10E94D53DA22EB32EF6
S1130C80C42ED52EE62EF72E082F192F222D332D04
S1130C90442D552D662D772D882D992D0E94F33DD9
S1130CA008E00E94D53DA22EB32EC42ED52EE62EEA
S1130CB0F72EE82F192F30919C0320919B03932F3B
S1130CC0990F990B492F592F692F792F892F04E0F8
S1130CD00E94BC3D0E2F0E94F33D622F732F842F80
S1130CE0952F04C060E070E080E090E069960FB654
S1130CF0F894DEBF0FBECDBFDF91CF911F910F914E
S1130D00FF90EF90DF90CF90BF90AF909F908F9027
S1130D107F906F905F904F903F902F9008954F92E7
S1130D205F926F927F928F929F92AF92BF92CF9277
S1130D30DF92EF92FF928090800490908104A090C3
S1130D408204B09083042CE2921A21E0A20AB10832
S1130D506B017C010B2EBEE0CC0CDD1CEE1CFF1CD9
S1130D60BA95D1F7B02D8091C7039091C803092E8D
S1130D70000CAA0BBB0B072E74E1880F991FAA1F46
S1130D80BB1F7A95D1F7702DC81AD90AEA0AFB0A53
S1130D90A0917204B0917304A50194010E94953C42
S1130DA0C61AD70AE80AF90A30E4D30EE11CF11C8A
S1130DB00B2EBFE0F594E794D794C794BA95D1F776
S1130DC0B02DA0917504B0E0A50194010E948B3C64
S1130DD02B013C01032E3BE0759467945794479490
S1130DE03A95D1F7302D40E8540E611C711CA09146
S1130DF018040A2E000CBB0BA50194010E94953C1B
S1130E00052E5AE095958795779567955A95D1F76C
S1130E10502DA30192010E94433CDC01CB01072E1B
S1130E207AE0B595A795979587957A95D1F7702D22
S1130E309C01AD01405E5F4FA0917E04B0917F04A0
S1130E400E94953CDC01CB01905EAF4FBF4FBC01CB
S1130E50CD01052E5EE095958795779567955A9512
S1130E60D1F7502DA70196010E94433C6B017C01F0
S1130E70052E5FE095958795779567955A95D1F7F7
S1130E80502D9B01AC010E94433C9B01AC01689432
S1130E9016F855954795379527951694D1F7A0914F
S1130EA0F903B0E00E948B3CDC01CB01689413F899
S1130EB0B595A795979587951694D1F7A7019601AF
S1130EC0281B390B4A0B5B0BDA01C9011AF480E0C9
S1130ED090E0DC0181309105A10539E1B30724F0EC
S1130EE080E090E0A0E0B9E1BC01CD01052E5CE01A
S1130EF095958795779567955A95D1F7502DFF90DD
S1130F00EF90DF90CF90BF90AF909F908F907F90A5
S1130F106F905F904F90089587E084B985B115B8BC
S1130F202B9A389A399A409A419A089580E090E031
S1130F302FEF33E0FC01EE0FFF1FEE0FFF1FE05514
S1130F40FC4F1182108233832283019685309105F0
S1130F5089F70895EF92FF920F931F93CF93DF9336
S1130F600F2EF6E8EF2EF3E0FF2EF02D00E010E058
S1130F70C7010E940741E801CC0FDD1FCC0FDD1F24
S1130F80C055DC4F99838883C70102960E940741AC
S1130F909B838A830F5F1F4F84E0E80EF11C0530AA
S1130FA0110531F7DF91CF911F910F91FF90EF90D1
S1130FB00895AF92BF92CF92DF92EF92FF920F9378
S1130FC01F93CF93DF931F92CDB7DEB710926104C6
S1130FD010921D04BFDFAADFEAE7F0E08081806899
S1130FE0808319828981853008F051C00AE710E0B6
S1130FF00F2EF8E7EF2EF12CF02DBB24B394A12C87
S1131000CC24C394D12C8981B3D8F8018081806425
S11310108083F801808184FFFCCFF7018081918176
S1131020E981F0E0EE0FFF1FEE0FFF1FE055FC4FCC
S113103020813181E981F0E0EE0FFF1FEE0FFF1FE9
S1131040E055FC4F628173814B2D8217930708F0A2
S11310504A2D411107C02B2D6817790708F02A2D56
S1131060222371F09981209161049D5FA60102C041
S1131070440F551F9A95E2F7CA01822B80936104AD
S113108089818F5F89838981853008F4BCCFEAE741
S1131090F0E080818F7780830F90DF91CF911F9153
S11310A00F91FF90EF90DF90CF90BF90AF90089595
S11310B0AF92BF92CF92DF92EF92FF920F931F9362
S11310C0CF93DF9300D01F92CDB7DEB7EAE7F0E00D
S11310D080818068808319828981853008F073C09B
S11310E00AE710E00F2EF8E7EF2EF12CF02DCC24B8
S11310F0C394D12CBB24B394A12C898139D81B82ED
S11311001A8224E030E0F801808180648083F80151
S1131110808184FFFCCFF70180819181E981F0E037
S1131120EE0FFF1FEE0FFF1FE055FC4F4081518172
S1131130E981F0E0EE0FFF1FEE0FFF1FE055FC4FBB
S11311400280F381E02D6B2D8417950708F06A2D3A
S1131150611107C04B2DE817F90708F04A2D442305
S113116071F05981609161045D5FF60102C0EE0F78
S1131170FF1F5A95E2F7AF01462B409361044A8161
S11311805B81840F951F9B838A832150310909F069
S1131190BACF8A819B81E981F0E0EE0FFF1FE25E06
S11311A0FB4F9C01992314F42D5F3F4F35952795F0
S11311B0359527953183208389818F5F8983898140
S11311C0853008F49ACF0F900F900F90DF91CF9154
S11311D01F910F91FF90EF90DF90CF90BF90AF9051
S11311E00895CF93DF93FB01EE0FFF1FE80FF91F64
S11311F00190F081E02DE217F307CCF5FA01EE0F30
S1131200FF1FE80FF91F0190F081E02D2E173F0713
S113121074F5DB01A41BB50BFD010AF43196F595B9
S1131220E795E40FF51FDF01AA0FBB1FEC01CA0FFE
S1131230DB1F0990D881C02D2C173D078CF0A80F17
S1131240B91F12964D915C911397421753075CF0A6
S1131250AF014F5F5F4F509395044093940403C0D4
S1131260BF01BFDF04C0AF014F5F5F4FBADFDF9143
S1131270CF9108952F923F924F925F926F927F92F7
S11312808F929F92AF92BF92CF92DF92EF92FF9292
S11312900F931F93CF93DF93CDB7DEB7C753DC40D3
S11312A00FB6F894DEBF0FBECDBFC35DD34F8883A6
S11312B0CD52DC40C05DD34F488359836A837B831E
S11312C0C053DC40CC5CD34F088319832A833B830F
S11312D0C453DC40C25DD34FF982E882CE52DC4075
S11312E084E1E1E1F1E0DE01119601900D928A952D
S11312F0E1F7FE0175968CE0DF011D928A95E9F70E
S11313000F2EF9E0EF2EF12CF02DFE8AED8A86E007
S113131090E0988F8F8B8AE090E09A8F898F88E095
S113132090E09C8F8B8F87E090E09E8F8D8F8CE078
S1131330E5E2F1E0DE01919601900D928A95E1F7E4
S1131340FE01BD9680E09CE0DF018C011D920150FE
S11313501040E1F786ED9DE29EA78DA784E49FE00F
S113136098AB8FA788E39AE09AAB89AB83EF97E0B9
S11313709CAB8BAB8EE996E09EAB8DAB8AEB95E094
S113138098AF8FAB85E195E09AAF89AF88E994E097
S11313909CAF8BAF85E394E09EAF8DAF84EE93E07A
S11313A021969FAF8EAF219780EA93E023969FAF5B
S11313B08EAF239787E693E025969FAF8EAF259750
S11313C086E393E027969FAF8EAF27978BE093E059
S11313D029969FAF8EAF299785EE92E02B969FAF0B
S11313E08EAF2B9783EC92E02D969FAF8EAF2D9707
S11313F085EA92E02F969FAF8EAF2F978AE892E00E
S113140061969FAF8EAF619782E792E063969FAF3C
S11314108EAF63978BE592E065969FAF8EAF65972D
S113142087E492E067969FAF8EAF679784E392E07C
S113143069969FAF8EAF699782E292E06B969FAFF9
S11314408EAF6B9782E192E06D969FAF8EAF6D97F2
S113145083E092E06F969FAF8EAF6F978CEF91E031
S1131460A1969FAF8EAFA1978EEE91E0A3969FAF0A
S11314708EAFA39721EE31E0A5963FAF2EAFA5978F
S113148045ED51E0A7965FAF4EAFA79769EC71E0C9
S1131490A9967FAF6EAFA9978EEB91E0AB969FAF05
S11314A08EAFAB9784EB91E0AD969FAF8EAFAD97C7
S11314B08BEA91E0AF969FAF8EAFAF97A1EAB1E010
S11314C0E196BFAFAEAFE197E9E9F1E0E396FFAF94
S11314D0EEAFE39780E991E0E5969FAF8EAFE59795
S11314E009E811E0E7961FAF0EAFE7970F2EF1E87A
S11314F02F2E33243394F02DE9963FAE2EAEE99788
S11315008AE791E0EB969FAF8EAFEB9783E791E08C
S1131510ED969FAF8EAFED978CE691E0EF969FAF7F
S11315208EAFEF9786E691E0C158DF4F99838883A9
S1131530CF57D04080E691E0CF57DF4F998388831F
S1131540C158D0408AE591E0CD57DF4F9983888315
S1131550C358D04025E531E0CB57DF4F398328838A
S1131560C558D0408FE491E0C957DF4F99838883F1
S1131570C758D0408AE491E0C757DF4F99838883E6
S1131580C958D04045E451E0C557DF4F59834883DB
S1131590CB58D04080E491E0C357DF4F99838883D0
S11315A0CD58D0408CE391E0C157DF4F99838883B5
S11315B0CF58D04087E391E0CF56DF4F998388839B
S11315C0C159D04083E391E0CD56DF4F998388839E
S11315D0C359D0408FE291E0CB56DF4F9983888383
S11315E0C559D0406BE271E0C956DF4F79836883F7
S11315F0C759D04087E291E0C756DF4F998388836B
S1131600C959D04083E291E0C556DF4F998388835E
S1131610CB59D0408FE191E0C356DF4F9983888343
S1131620CD59D0408CE191E0C156DF4F9983888336
S1131630CF59D04088E191E0CF55DF4F998388831B
S1131640C15AD040A5E1B1E0CD55DF4FB983A8839D
S1131650C35AD040E1E1F1E0CB55DF4FF983E88391
S1131660C55AD0408EE091E0C955DF4F99838883F5
S1131670C75AD0408BE091E0C755DF4F99838883E8
S1131680C95AD04088E091E0C555DF4F99838883DB
S1131690CB5AD0400F2EF5E04F2E55245394F02D05
S11316A0C355DF4F59824882CD5AD04082E091E041
S11316B0C155DF4F99838883CF5AD04080E091E0B1
S11316C0CF54DF4F99838883C15BD0400DEF10E086
S11316D0CD54DF4F19830883C35BD0408AEF90E079
S11316E0CB54DF4F99838883C55BD04028EF30E02B
S11316F0C954DF4F39832883C75BD04045EF50E09E
S1131700C754DF4F59834883C95BD04083EF90E0CF
S1131710C554DF4F99838883CB5BD04080EF90E042
S1131720C354DF4F99838883CD5BD0408EEE90E025
S1131730C154DF4F99838883CF5BD0408CEE90E017
S1131740CF53DF4F99838883C15CD04069EE70E04A
S1131750CD53DF4F79836883C35CD04087EE90E03C
S1131760CB53DF4F99838883C55CD040A5EEB0E0AE
S1131770C953DF4FB983A883C75CD04083EE90E0A0
S1131780C753DF4F99838883C95CD040E1EEF0E012
S1131790C553DF4FF983E883CB5CD0408FED90E0F5
S11317A0C353DF4F99838883CD5CD0400F2EFDED6A
S11317B08F2E912CF02DC153DF4F99828882CF5CFC
S11317C0D0408BED90E0CF52DF4F99838883C15D89
S11317D0D04009ED10E0CD52DF4F19830883C35D7B
S11317E0D04087ED90E0CB52DF4F99838883C55D6D
S11317F0D04086ED90E0C952DF4F99838883C75D5E
S1131800D04084ED90E0C752DF4F99838883C95D4F
S1131810D04082ED90E0C552DF4F99838883CB5D41
S1131820D04080ED90E0C352DF4F99838883CD5D33
S1131830D0402FEC30E0C152DF4F39832883CF5D95
S1131840D0404DEC50E0CF51DF4F59834883C15E07
S1131850D0408CEC90E0CD51DF4F99838883C35EF8
S1131860D0406AEC70E0CB51DF4F79836883C55E6A
S1131870D04088EC90E0C951DF4F99838883C75EDC
S1131880D04087EC90E0C751DF4F99838883C95ECD
S1131890D04085EC90E0C551DF4F99838883CB5EBF
S11318A0D04024EC30E0C351DF4F39832883CD5E30
S11318B0D040A2ECB0E0C151DF4FB983A883CF5E22
S11318C0D04021EC30E0CF50DF4F39832883C15F13
S11318D0D04040EC50E0CD50DF4F59834883C35F84
S11318E0D0404FEB50E0CB50DF4F59834883C55F66
S11318F0D040EEEBF0E0C950DF4FF983E883C75FD7
S1131900D0404DEB50E0C750DF4F59834883C95F47
S1131910D0406CEB70E0C550DF4F79836883CB5FB8
S1131920D0406BEB70E0C350DF4F79836883CD5FA9
S1131930D0400AEB10E0C150DF4F19830883CF5F1A
S1131940D04069EB70E0CF5FDE4F79836883C1508C
S1131950D140E8EBF0E0CD5FDE4FF983E883C3507C
S1131960D140A7EBB0E0CB5FDE4FB983A883C5506D
S1131970D140E6EBF0E0C95FDE4FF983E883C7505E
S1131980D140E5EBF0E0C75FDE4FF983E883C9504F
S1131990D140A4EBB0E0C55FDE4FB983A883CB5040
S11319A0D14003EB10E0C35FDE4F19830883CD50B1
S11319B0D140A2EBB0E0C15FDE4FB983A883CF5022
S11319C0D140A1EBB0E0CF5EDE4FB983A883C15113
S11319D0D14000EB10E0CD5EDE4F19830883C35184
S11319E0D1400FEA10E0CB5EDE4F19830883C55166
S11319F0D1400EEA10E0C95EDE4F19830883C75157
S1131A00D1400F2EFDEAAF2EB12CF02DC75EDE4F74
S1131A10B982A882C951D1400CEA10E0C55EDE4FFC
S1131A2019830883CB51D1400BEA10E0C35EDE4F2B
S1131A3019830883CD51D1400AEA10E0C15EDE4F1C
S1131A4019830883CF51D1400F2EF9EA6F2E712CE0
S1131A50F02DCF5DDE4F79826882C152D140CD5DD9
S1131A60DE4F79826882C352D14008EA10E0CB5D30
S1131A70DE4F19830883C552D14007EA10E0C95DDF
S1131A80DE4F19830883C752D14006EA10E0C75DD0
S1131A90DE4F19830883C952D14005EA10E0C55DC1
S1131AA0DE4F19830883CB52D140CC24C394D12C6C
S1131AB0C35DDE4FD982C882CD52D1400F2EF5E0EE
S1131AC0CF2ED12CF02DC15DDE4FD982C882CF52EA
S1131AD0D140CF5CDE4FF982E882C153D1400F2E52
S1131AE0FDE0EF2EF12CF02DCD5CDE4FF982E88283
S1131AF0C353D1400F2EF1E1EF2EF12CF02DCB5C2E
S1131B00DE4FF982E882C553D1400F2EF5E1EF2E66
S1131B10F12CF02DC95CDE4FF982E882C753D14025
S1131B200F2EF9E1EF2EF12CF02DC75CDE4FF98278
S1131B30E882C953D1400F2EFDE1EF2EF12CF02D98
S1131B40C55CDE4FF982E882CB53D1400F2EF1E21F
S1131B50EF2EF12CF02DC35CDE4FF982E882CD53D9
S1131B60D1400F2EF5E2EF2EF12CF02DC15CDE4FAB
S1131B70F982E882CF53D1400F2EF9E2EF2EF12CF7
S1131B80F02DCF5BDE4FF982E882C154D1400F2E95
S1131B90FDE2EF2EF12CF02DCD5BDE4FF982E882D1
S1131BA0C354D1400F2EF1E3EF2EF12CF02DCB5B7B
S1131BB0DE4FF982E882C554D1400F2EF5E3EF2EB3
S1131BC0F12CF02DC95BDE4FF982E882C754D14075
S1131BD00F2EF9E3EF2EF12CF02DC75BDE4FF982C7
S1131BE0E882C954D1400F2EFDE3EF2EF12CF02DE5
S1131BF0C55BDE4FF982E882CB54D1400F2EF1E46D
S1131C00EF2EF12CF02DC35BDE4FF982E882CD5428
S1131C10D1400F2EF5E4EF2EF12CF02DC15BDE4FF9
S1131C20F982E882CF54D1400F2EF9E4EF2EF12C43
S1131C30F02DCF5ADE4FF982E882C155D1400F2EE4
S1131C40FDE4EF2EF12CF02DCD5ADE4FF982E8821F
S1131C50C355D1400F2EF1E5EF2EF12CF02DCB5AC8
S1131C60DE4FF982E882C555D1400F2EF5E5EF2EFF
S1131C70F12CF02DC95ADE4FF982E882C755D140C4
S1131C800F2EF9E5EF2EF12CF02DC75ADE4FF98215
S1131C90E882C955D1400F2EFDE5EF2EF12CF02D31
S1131CA0C55ADE4FF982E882CB55D1400F2EF1E6BA
S1131CB0EF2EF12CF02DC35ADE4FF982E882CD5578
S1131CC0D1400F2EF5E6EF2EF12CF02DC15ADE4F48
S1131CD0F982E882CF55D1400F2EF9E6EF2EF12C90
S1131CE0F02DCF59DE4FF982E882C156D1400F2E34
S1131CF0FDE6EF2EF12CF02DCD59DE4FF982E8826E
S1131D00C356D1400F2EF1E7EF2EF12CF02DCB5915
S1131D10DE4FF982E882C556D1400F2EF5E7EF2E4B
S1131D20F12CF02DC959DE4FF982E882C756D14013
S1131D300F2EF9E7EF2EF12CF02DC759DE4FF98263
S1131D40E882C956D1400F2EFDE7EF2EF12CF02D7D
S1131D50C559DE4FF982E882CB56D1400F2EF1E807
S1131D60EF2EF12CF02DC359DE4FF982E882CD56C7
S1131D70D1400F2EF5E8EF2EF12CF02DC159DE4F96
S1131D80F982E882CF56D1400F2EF9E8EF2EF12CDC
S1131D90F02DCF58DE4FF982E882C157D1400F2E83
S1131DA0FDE8EF2EF12CF02DCD58DE4FF982E882BC
S1131DB0C357D1400F2EF1E9EF2EF12CF02DCB5863
S1131DC0DE4FF982E882C557D1400F2EF5E9EF2E98
S1131DD0F12CF02DC958DE4FF982E882C757D14063
S1131DE00F2EF9E9EF2EF12CF02DC758DE4FF982B2
S1131DF0E882C957D1400F2EFDE9EF2EF12CF02DCA
S1131E00C558DE4FF982E882CB57D1400F2EF1EA54
S1131E10EF2EF12CF02DC358DE4FF982E882CD5716
S1131E20D140C158DE4F19830883CF57D140CF57D3
S1131E30DE4F79826882C158D140CD57DE4FB982D6
S1131E40A882C358D140CB57DE4FB983A883C55865
S1131E50D140C957DE4FF983E883C758D140C757EB
S1131E60DE4F79836883C958D140C557DE4F598303
S1131E704883CB58D140C357DE4F39832883CD588C
S1131E80D140C157DE4F99838883CF58D14089EC24
S1131E9090E0CF56DE4F99838883C159D1402DEC11
S1131EA030E0CD56DE4F39832883C359D14081EDCC
S1131EB090E0CB56DE4F99838883C559D14085ED98
S1131EC090E0C956DE4F99838883C759D14049EDC4
S1131ED050E0C756DE4F59834883C959D140C5568F
S1131EE0DE4F99828882CB59D14061EE70E0C356AF
S1131EF0DE4F79836883CD59D14085EE90E0C15699
S1131F00DE4F99838883CF59D140A9EEB0E0CF55F5
S1131F10DE4FB983A883C15AD1408DEE90E0CD55F0
S1131F20DE4F99838883C35AD14021EF30E0CB55EB
S1131F30DE4F39832883C55AD140E5EFF0E0C95517
S1131F40DE4FF983E883C75AD14029EF30E0C75503
S1131F50DE4F39832883C95AD1400DEF10E0C555AF
S1131F60DE4F19830883CB5AD14021E031E0C355B9
S1131F70DE4F39832883CD5AD140C155DE4F598273
S1131F804882CF5AD14029E031E0CF54DE4F398323
S1131F902883C15BD1402DE031E0CD54DE4F39833D
S1131FA02883C35BD14021E131E0CB54DE4F398338
S1131FB02883C55BD14045E151E0C954DE4F5983C4
S1131FC04883C75BD14029E131E0C754DE4F3983F0
S1131FD02883C95BD1402DE131E0C554DE4F3983FC
S1131FE02883CB5BD14021E231E0C354DE4F3983F7
S1131FF02883CD5BD14025E231E0C154DE4F3983E3
S11320002883CF5BD14029E231E0CF53DE4F3983BF
S11320102883C15CD1402DE231E0CD53DE4F3983BA
S11320202883C35CD14021E331E0CB53DE4F3983B5
S11320302883C55CD14025E331E0C953DE4F3983A1
S11320402883C75CD14029E331E0C753DE4F39838D
S11320502883C95CD1402DE331E0C553DE4F398379
S11320602883CB5CD14041E451E0C353DE4F598314
S11320704883CD5CD14065E471E0C153DE4F798380
S11320806883CF5CD14049E451E0CF52DE4F59839D
S11320904883C15DD1404DE451E0CD52DE4F5983B8
S11320A04883C35DD14041E551E0CB52DE4F5983B3
S11320B04883C55DD140A5E5B1E0C952DE4FB9837F
S11320C0A883C75DD14069E571E0C752DE4F7983CB
S11320D06883C95DD1406DE571E0C552DE4F7983F7
S11320E06883CB5DD14061E671E0C352DE4F7983F2
S11320F06883CD5DD14065E671E0C152DE4F7983DE
S11321006883CF5DD14069E671E0CF51DE4F7983BA
S11321106883C15ED1406DE671E0CD51DE4F7983B5
S11321206883C35ED14061E771E0CB51DE4F7983B0
S11321306883C55ED14065E771E0C951DE4F79839C
S11321406883C75ED14069E771E0C751DE4F798388
S11321506883C95ED1406DE771E0C551DE4F798374
S11321606883CB5ED140C351DE4F39822882CD5E75
S1132170D14065E871E0C151DE4F79836883CF5E59
S1132180D140E9E8F1E0CF50DE4FF983E883C15F45
S1132190D1406DE871E0CD50DE4F79836883C35F31
S11321A0D14061E971E0CB50DE4F79836883C55F2C
S11321B0D14065E971E0C950DE4F79836883C75F18
S11321C0D14009E911E0C750DE4F19830883C95F84
S11321D0D1406DE971E0C550DE4F79836883CB5FF0
S11321E0D140A1EAB1E0C350DE4FB983A883CD5FEB
S11321F0D140E5EAF1E0C150DE4FF983E883CF5FD7
S1132200D140E9EAF1E0CF5FDD4FF983E883C150C3
S1132210D240EDEAF1E0CD5FDD4FF983E883C350AE
S1132220D240A1EBB1E0CB5FDD4FB983A883C550A9
S1132230D240A5EBB1E0C95FDD4FB983A883C75095
S1132240D240A9EBB1E0C75FDD4FB983A883C95081
S1132250D240ADEBB1E0C55FDD4FB983A883CB506D
S1132260D240A1ECB1E0C35FDD4FB983A883CD5068
S1132270D240A5ECB1E0C15FDD4FB983A883CF5054
S1132280D24009EC11E0CF5EDD4F19830883C151C0
S1132290D240ADECB1E0CD5EDD4FB983A883C3512C
S11322A0D240A1EDB1E0CB5EDD4FB983A883C55127
S11322B0D240A5EDB1E0C95EDD4FB983A883C75113
S11322C0D240A9EDB1E0C75EDD4FB983A883C951FF
S11322D0D240ADEDB1E0C55EDD4FB983A883CB51EB
S11322E0D24001EE11E0C35EDD4F19830883CD5166
S11322F0D240A5EEB1E0C15EDD4FB983A883CF51D2
S1132300D240A9EEB1E0CF5DDD4FB983A883C152BD
S1132310D240ADEEB1E0CD5DDD4FB983A883C352A9
S1132320D240A1EFB1E0CB5DDD4FB983A883C552A4
S1132330D240A5EFB1E0C95DDD4FB983A883C75290
S1132340D240A9EFB1E0C75DDD4FB983A883C9527C
S1132350D240ADEFB1E0C55DDD4FB983A883CB5268
S1132360D240ACEEB4EEC35DDD4FB983A883CD5249
S1132370D240A1EFBAE4C15DDD4FB983A883CF5247
S1132380D240A4EBB9E2CF5CDD4FB983A883C1533B
S1132390D240A3EFBBE1CD5CDD4FB983A883C35327
S11323A0D240AFE9B4E1CB5CDD4FB983A883C55318
S11323B0D240A2E2B0E1C95CDD4FB983A883C75320
S11323C0D240A2E2BDE0C75CDD4FB983A883C95304
S11323D0D240A1E0BBE0C55CDD4FB983A883CB53F9
S11323E0D240ABE6B9E0C35CDD4FB983A883CD53DB
S11323F0D240A3E3B8E0C15CDD4FB983A883CF53D7
S1132400D240ACE3B7E0CF5BDD4FB983A883C154BE
S1132410D240A5E7B6E0CD5BDD4FB983A883C354B2
S1132420D240A1EDB5E0CB5BDD4FB983A883C554A1
S1132430D240A8E4B5E0C95BDD4FB983A883C75493
S1132440D240A4EDB4E0C75BDD4FB983A883C9547F
S1132450D240A0E7B4E0C55BDD4FB983A883CB5479
S1132460D240AAE1B4E0C35BDD4FB983A883CD5465
S1132470D240AFECB3E0C15BDD4FB983A883CF5446
S1132480D240ADE8B3E0CF5ADD4FB983A883C1553C
S1132490D240A3E5B3E0CD5ADD4FB983A883C35539
S11324A0D240AFE1B3E0CB5ADD4FB983A883C55521
S11324B0D240A0EFB2E0C95ADD4FB983A883C75513
S11324C0D240A6ECB2E0C75ADD4FB983A883C95500
S11324D0D240A0EAB2E0C55ADD4FB983A883CB55F8
S11324E0D240AEE7B2E0C35ADD4FB983A883CD55DD
S11324F0D240AEE5B2E0C15ADD4FB983A883CF55CF
S1132500D240A1E4B2E0CF59DD4FB983A883C156CC
S1132510D240A7E2B2E0CD59DD4FB983A883C356B8
S1132520D240AEE0B2E0CB59DD4FB983A883C556A3
S1132530D240A8EFB1E0C959DD4FB983A883C7568B
S1132540D240A3EEB1E0C759DD4FB983A883C95681
S1132550D240A0EDB1E0C559DD4FB983A883CB5675
S1132560D240AEEBB1E0C359DD4FB983A883CD5659
S1132570D240C159DD4FF983E883CF56D240CF58BA
S1132580DD4F79836883C157D2406EE871E0CD583E
S1132590DD4F79836883C357D240CB58DD4F3982EE
S11325A02882C557D24064E771E0C958DD4F79836A
S11325B06883C757D24067E671E0C758DD4F798317
S11325C06883C957D2406CE571E0C558DD4F798303
S11325D06883CB57D240C358DD4F59834883CD57C6
S11325E0D24047E451E0C158DD4F59834883CF5767
S11325F0D240CF57DD4F39832883C158D24024E3DA
S113260031E0CD57DD4F39832883C358D240EBE204
S1132610F1E0CB57DD4FF983E883C558D24003E29C
S113262011E0C957DD4F19830883C758D2402BE105
S113263031E0C757DD4F39832883C958D24023E19D
S113264031E0C557DD4F39832883CB58D2402CE085
S113265031E0C357DD4F39832883CD58D240C15769
S1132660DD4F59824882CF58D2402FEF30E0CF5609
S1132670DD4F39832883C159D24028EF30E0CD564D
S1132680DD4F39832883C359D24022EF30E0CB5643
S1132690DD4F39832883C559D240C956DD4F99830C
S11326A08883C759D24047EE50E0C756DD4F59835F
S11326B04883C959D24082EE90E0C556DD4F9983D4
S11326C08883CB59D240C356DD4F99828882CD5935
S11326D0D24088ED90E0C156DD4F99838883CF596D
S11326E0D24083ED90E0CF55DD4F99838883C15A62
S11326F0D2406FEC70E0CD55DD4F79836883C35AC7
S1132700D2408AEC90E0CB55DD4F99838883C55A3B
S1132710D24086EC90E0C955DD4F99838883C75A2F
S1132720D240A2ECB0E0C755DD4FB983A883C95AA3
S1132730D240EEEBF0E0C555DD4FF983E883CB5A88
S1132740D2400AEB10E0C355DD4F19830883CD5AFC
S1132750D24027EB30E0C155DD4F39832883CF5A6F
S1132760D24043EB50E0CF54DD4F59834883C15BE3
S1132770D24060EB70E0CD54DD4F79836883C35B56
S1132780D240CB54DD4FB982A882C55BD240C95434
S1132790DD4F79826882C75BD24086EA90E0C754F5
S11327A0DD4F99838883C95BD24081EA90E0C554A8
S11327B0DD4F99838883CB5BD24083EA90E0C35496
S11327C0DD4F99838883CD5BD2408CE990E0C1547E
S11327D0DD4F99838883CF5BD24089E990E0CF5362
S11327E0DD4F99838883C15CD24087E990E0CD5363
S11327F0DD4F99838883C35CD24084E990E0CB5356
S1132800DD4F99838883C55CD24082E990E0C95347
S1132810DD4F99838883C75CD2408FE890E0C7532B
S1132820DD4F99838883C95CD2408DE890E0C5531D
S1132830DD4F99838883CB5CD2408BE890E0C3530F
S1132840DD4F99838883CD5CD24089E890E0C15301
S1132850DD4F99838883CF5CD24087E890E0CF52E4
S1132860DD4F99838883C15DD24085E890E0CD52E5
S1132870DD4F99838883C35DD24083E890E0CB52D7
S1132880DD4F99838883C55DD24021E830E0C95289
S1132890DD4F39832883C75DD2402FE730E0C7522C
S11328A0DD4F39832883C95DD2402DE730E0C5521E
S11328B0DD4F39832883CB5DD2402BE730E0C35210
S11328C0DD4F39832883CD5DD24029E730E0C15202
S11328D0DD4F39832883CF5DD24028E730E0CF51E4
S11328E0DD4F39832883C15ED24026E730E0CD51E5
S11328F0DD4F39832883C35ED24024E730E0CB51D7
S1132900DD4F39832883C55ED24023E730E0C951C7
S1132910DD4F39832883C75ED24021E730E0C751B9
S1132920DD4F39832883C95ED24020E730E0C551AA
S1132930DD4F39832883CB5ED2402EE630E0C3518D
S1132940DD4F39832883CD5ED2404DE650E0C1513E
S1132950DD4F59834883CF5ED2404CE650E0CF50E0
S1132960DD4F59834883C15FD2404AE650E0CD50E1
S1132970DD4F59834883C35FD24049E650E0CB50D2
S1132980DD4F59834883C55FD24048E650E0C950C3
S1132990DD4F59834883C75FD24046E650E0C750B5
S11329A0DD4F59834883C95FD24045E650E0C550A6
S11329B0DD4F59834883CB5FD24044E650E0C35097
S11329C0DD4F59834883CD5FD24043E650E0C15088
S11329D0DD4F59834883CF5FD24041E650E0CF5F5B
S11329E0DC4F59834883C150D34040E650E0CD5F6B
S11329F0DC4F59834883C350D3406FE570E0CB5F0D
S1132A00DC4F79836883C550D3406EE570E0C95FBD
S1132A10DC4F79836883C750D3406DE570E0C75FAE
S1132A20DC4F79836883C950D3406CE570E0C55F9F
S1132A30DC4F79836883CB50D3406BE570E0C35F90
S1132A40DC4F79836883CD50D3406AE570E0C15F81
S1132A50DC4F79836883CF50D34069E570E0CF5E63
S1132A60DC4F79836883C151D340E8E5F0E0CD5E63
S1132A70DC4FF983E883C351D340E7E5F0E0CB5E54
S1132A80DC4FF983E883C551D340E6E5F0E0C95E45
S1132A90DC4FF983E883C751D340E5E5F0E0C75E36
S1132AA0DC4FF983E883C951D340E4E5F0E0C55E27
S1132AB0DC4FF983E883CB51D340E3E5F0E0C35E18
S1132AC0DC4FF983E883CD51D340E2E5F0E0C15E09
S1132AD0DC4FF983E883CF51D340A1E5B0E0CF5D6B
S1132AE0DC4FB983A883C152D340A0E5B0E0CD5DEB
S1132AF0DC4FB983A883C352D340AFE4B0E0CB5DCD
S1132B00DC4FB983A883C552D340AEE4B0E0C95DBD
S1132B10DC4FB983A883C752D340ADE4B0E0C75DAE
S1132B20DC4FB983A883C952D340ACE4B0E0C55D9F
S1132B30DC4FB983A883CB52D340A5E0B0E0C35D9A
S1132B40DC4FB983A883CD52D340ACE0B0E0C15D83
S1132B50DC4FB983A883CF52D340A3E1B0E0CF5C6C
S1132B60DC4FB983A883C153D340AAE1B0E0CD5C64
S1132B70DC4FB983A883C353D340A1E2B0E0CB5C5C
S1132B80DC4FB983A883C553D34008E210E0C95C85
S1132B90DC4F19830883C753D340AFE2B0E0C75C6E
S1132BA0DC4FB983A883C953D340A6E3B0E0C55C26
S1132BB0DC4FB983A883CB53D340ADE3B0E0C35C0F
S1132BC0DC4FB983A883CD53D340A4E4B0E0C15C07
S1132BD0DC4FB983A883CF53D340ABE4B0E0CF5BE1
S1132BE0DC4FB983A883C154D340CD5BDC4FF98358
S1132BF0E883C354D340CB5BDC4F79836883C554EB
S1132C00D340C95BDC4F59834883C754D34047E65C
S1132C1050E0C75BDC4F59834883C954D340C55B3C
S1132C20DC4F39832883CB54D34025E730E0C35BA2
S1132C30DC4F39832883CD54D3402CE730E0C15B8B
S1132C40DC4F39832883CF54D340CF5ADC4F998348
S1132C508883C155D3408AE890E0CD5ADC4F9983EC
S1132C608883C355D34081E990E0CB5ADC4F9983E4
S1132C708883C555D34088E990E0C95ADC4F9983CD
S1132C808883C755D3408FE990E0C75ADC4F9983B6
S1132C908883C955D34086EA90E0C55ADC4F9983AE
S1132CA08883CB55D3408DEA90E0C35ADC4F998397
S1132CB08883CD55D34084EB90E0C15ADC4F99838F
S1132CC08883CF55D3408BEB90E0CF59DC4F998369
S1132CD08883C156D34082EC90E0CD59DC4F998370
S1132CE08883C356D34089EC90E0CB59DC4F998359
S1132CF08883C556D34080ED90E0C959DC4F998351
S1132D008883C756D34087ED90E0C759DC4F998339
S1132D108883C956D3408EED90E0C559DC4F998322
S1132D208883CB56D34085EE90E0C359DC4F99831A
S1132D308883CD56D3408CEE90E0C159DC4F998303
S1132D408883CF56D34083EF90E0CF58DC4F9983EC
S1132D508883C157D3408AEF90E0CD58DC4F9983E4
S1132D608883C357D34081E091E0CB58DC4F9983EB
S1132D708883C557D34088E091E0C958DC4F9983D4
S1132D808883C757D3408FE091E0C758DC4F9983BD
S1132D908883C957D34086E191E0C558DC4F9983B5
S1132DA08883CB57D3408DE191E0C358DC4F99839E
S1132DB08883CD57D34084E291E0C158DC4F998396
S1132DC08883CF57D3408BE291E0CF57DC4F998370
S1132DD08883C158D34082E391E0CD57DC4F998377
S1132DE08883C358D34089E391E0CB57DC4F998360
S1132DF08883C558D34080E491E0C957DC4F998358
S1132E008883C758D34087E491E0C757DC4F998340
S1132E108883C958D3408EE491E0C557DC4F998329
S1132E208883CB58D34085E591E0C357DC4F998321
S1132E308883CD58D3408CE591E0C157DC4F99830A
S1132E408883CF58D34083E691E0CF56DC4F9983F3
S1132E508883C159D3408AE691E0CD56DC4F9983EB
S1132E608883C359D34081E791E0CB56DC4F9983E3
S1132E708883C559D34088E791E0C956DC4F9983CC
S1132E808883C759D3408FE791E0C756DC4F9983B5
S1132E908883C959D34086E891E0C556DC4F9983AD
S1132EA08883CB59D3408DE891E0C356DC4F998396
S1132EB08883CD59D34084E991E0C156DC4F99838E
S1132EC08883CF59D3408BE991E0CF55DC4F998368
S1132ED08883C15AD34082EA91E0CD55DC4F99836F
S1132EE08883C35AD34089EA91E0CB55DC4F998358
S1132EF08883C55AD34080EB91E0C955DC4F998350
S1132F008883C75AD34087EB91E0C755DC4F998338
S1132F108883C95AD3408EEB91E0C555DC4F998321
S1132F208883CB5AD34085EC91E0C355DC4F998319
S1132F308883CD5AD3408CEC91E0C155DC4F998302
S1132F408883CF5AD34083ED91E0CF54DC4F9983EB
S1132F508883C15BD3408AED91E0CD54DC4F9983E3
S1132F608883C35BD34081EE91E0CB54DC4F9983DB
S1132F708883C55BD34088EE91E0C954DC4F9983C4
S1132F808883C75BD3408FEE91E0C754DC4F9983AD
S1132F908883C95BD340EBEFF1E0C554DC4FF98380
S1132FA0E883CB5BD34082E092E0C354DC4F998347
S1132FB08883CD5BD34009E012E0C154DC4F198310
S1132FC00883CF5BD34080E192E0CF53DC4F9983F9
S1132FD08883C15CD34027E132E0CD53DC4F398391
S1132FE02883C35CD3404EE152E0CB53DC4F59837A
S1132FF04883C55CD3400F2EF5E22F2EF2E03F2E1E
S1133000F02DC953DC4F39822882C75CD3408CE24F
S113301092E0C753DC4F99838883C95CD3400F2E59
S1133020F3E34F2EF2E05F2EF02DC553DC4F5982AF
S11330304882CB5CD3408AE392E0C353DC4F99834C
S11330408883CD5CD34081E492E0C153DC4F998303
S11330508883CF5CD34088E492E0CF52DC4F9983DD
S11330608883C15DD3408FE492E0CD52DC4F9983D5
S11330708883C35DD34086E592E0CB52DC4F9983CD
S11330808883C55DD3408DE592E0C952DC4F9983B6
S11330908883C75DD34084E692E0C752DC4F9983AE
S11330A08883C95DD3408BE692E0C552DC4F998397
S11330B08883CB5DD3400F2EF2E76F2EF2E07F2E94
S11330C0F02DC352DC4F79826882CD5DD3400F2E40
S11330D0F9E78F2EF2E09F2EF02DC152DC4F99823A
S11330E08882CF5DD34080E892E0CF51DC4F998352
S11330F08883C15ED34087E892E0CD51DC4F998349
S11331008883C35ED3408EE892E0CB51DC4F998331
S11331108883C55ED3400F2EF5E9AF2EF2E0BF2EB3
S1133120F02DC951DC4FB982A882C75ED3408CE927
S113313092E0C751DC4F99838883C95ED34083EA08
S113314092E0C551DC4F99838883CB5ED3408AEAF1
S113315092E0C351DC4F99838883CD5ED34021EB49
S113316032E0C151DC4F39832883CF5ED34028EB52
S113317032E0CF50DC4F39832883C15FD3404FEB1B
S113318052E0CD50DC4F59834883C35FD34046ECB3
S113319052E0CB50DC4F59834883C55FD3404DEC9C
S11331A052E0C950DC4F59834883C75FD34044ED94
S11331B052E0C750DC4F59834883C95FD3404BED7D
S11331C052E0C550DC4F59834883CB5FD34042EE75
S11331D052E0C350DC4F59834883CD5FD34049EE5E
S11331E052E0C150DC4F59834883CF5FD34060EF36
S11331F072E0CF5FDB4F79836883C150D440E7EF3F
S1133200F2E0CD5FDB4FF983E883C350D440EEEFA7
S1133210F2E0CB5FDB4FF983E883C550D440E5E0AF
S1133220F3E0C95FDB4FF983E883C750D440ECE097
S1133230F3E0C75FDB4FF983E883C950D440A3E1CF
S1133240B3E0C55FDB4FB983A883CB50D4400AE118
S113325013E0C35FDB4F19830883CD50D44001E2F0
S113326013E0C15FDB4F19830883CF50D44008E2D9
S113327013E0CF5EDB4F19830883C151D4400FE2C2
S113328013E0CD5EDB4F19830883C351D44006E3BA
S113329013E0CB5EDB4F19830883C551D4400DE3A3
S11332A013E0C95EDB4F19830883C751D4400F2E46
S11332B0F4E4EF2EF3E0FF2EF02DC75EDB4FF9822E
S11332C0E882C951D4400F2EFBE4EF2EF3E0FF2E29
S11332D0F02DC55EDB4FF982E882CB51D4400F2E2E
S11332E0F2E5EF2EF3E0FF2EF02DC35EDB4FF98203
S11332F0E882CD51D4400F2EF9E5CF2EF3E0DF2E36
S1133300F02DC15EDB4FD982C882CF51D4400F2E3D
S1133310F1E6CF2EF3E0DF2EF02DCF5DDB4FD98227
S1133320C882C152D4400F2EFFE6CF2EF3E0DF2E29
S1133330F02DCD5DDB4FD982C882C352D4400F2E0D
S1133340F6E7CF2EF3E0DF2EF02DCB5DDB4FD982F5
S1133350C882C552D4400F2EFDE7CF2EF3E0DF2EF6
S1133360F02DC95DDB4FD982C882C752D4400F2EDD
S1133370F4E8CF2EF3E0DF2EF02DC75DDB4FD982CA
S1133380C882C952D4400F2EFEE8CF2EF3E0DF2EC0
S1133390F02DC55DDB4FD982C882CB52D4400F2EAD
S11333A0F6E2CF2EFBE0DF2EF02DC35DDB4FD9829A
S11333B0C882CD52D4400F2EFAE8CF2EF7E0DF2E8C
S11333C0F02DC15DDB4FD982C882CF52D4400F2E7D
S11333D0F0E7CF2EF6E0DF2EF02DCF5CDB4FD98265
S11333E0C882C153D4400F2EF2EDCF2EF5E0DF2E6C
S11333F0F02DCD5CDB4FD982C882C353D4400F2E4D
S1133400F8E6CF2EF5E0DF2EF02DCB5CDB4FD98232
S1133410C882C553D4400F2EF9E1CF2EF5E0DF2E3C
S1133420F02DC95CDB4FD982C882C753D4400F2E1C
S1133430FCEDCF2EF4E0DF2EF02DC75CDB4FD982FC
S1133440C882C953D4400F2EF9EACF2EF4E0DF2E00
S1133450F02DC55CDB4FD982C882CB53D4400F2EEC
S1133460FFE7CF2EF4E0DF2EF02DC35CDB4FD982D3
S1133470C882CD53D4400F2EFBE5CF2EF4E0DF2ECF
S1133480F02DC15CDB4FD982C882CF53D4400F2EBC
S1133490FBE3CF2EF4E0DF2EF02DCF5BDB4FD982A0
S11334A0C882C154D4400F2EFFE1CF2EF4E0DF2EAA
S11334B0F02DCD5BDB4FD982C882C354D4400F2E8C
S11334C0F6E0CF2EF4E0DF2EF02DCB5BDB4FD9827C
S11334D0C882C554D4400F2EF0EFCF2EF3E0DF2E78
S11334E0F02DC95BDB4FD982C882C754D4400F2E5C
S11334F0F8EECF2EF3E0DF2EF02DC75BDB4FD98241
S1133500C882C954D4400F2EF3EDCF2EF3E0DF2E42
S1133510F02DC55BDB4FD982C882CB54D4400F2E2B
S1133520F0ECCF2EF3E0DF2EF02DC35BDB4FD9821E
S1133530C882CD54D4400F2EFFEACF2EF3E0DF2E05
S1133540F02DC15BDB4FD982C882CF54D4400F2EFB
S1133550FFE9CF2EF3E0DF2EF02DCF5ADB4FD982D7
S1133560C882C155D4400F2EF0E9CF2EF3E0DF2EF0
S1133570F02DCD5ADB4FD982C882C355D4400F2ECB
S1133580F2E8CF2EF3E0DF2EF02DCB5ADB4FD982B9
S1133590C882C555D4400F2EF5E7CF2EF3E0DF2EB9
S11335A0F02DC95ADB4FD982C882C755D4400F2E9B
S11335B0F8E6CF2EF3E0DF2EF02DC75ADB4FD98289
S11335C0C882C955D4400F2EFDE5CF2EF3E0DF2E7F
S11335D0F02DC55ADB4FD982C882CB55D440C35A8B
S11335E0DB4FF982E882CD55D4400F2EF7E4EF2E5D
S11335F0F3E0FF2EF02DC15ADB4FF982E882CF555C
S1133600D440CF59DB4F19830883C156D44004E317
S113361013E0CD59DB4F19830883C356D4400BE222
S113362013E0CB59DB4F19830883C556D44002E11C
S113363013E0C959DB4F19830883C756D4400BE103
S113364013E0C759DB4F19830883C956D440C559C1
S1133650DB4FB983A883CB56D440C359DB4FF983DE
S1133660E883CD56D440E4E0F3E0C159DB4FF9835D
S1133670E883CF56D440EDEFF2E0CF58DB4FF98327
S1133680E883C157D440E6EFF2E0CD58DB4FF9832D
S1133690E883C357D440CB58DB4F79836883C5573D
S11336A0D440C958DB4F59834883C757D44043EEAD
S11336B052E0C758DB4F59834883C957D4404DED76
S11336C052E0C558DB4F59834883CB57D44047ED6C
S11336D052E0C358DB4F59834883CD57D44041ED62
S11336E052E0C158DB4F59834883CF57D4404CEC48
S11336F052E0CF57DB4F59834883C158D44047EC3D
S113370052E0CD57DB4F59834883C358D44042EC31
S113371052E0CB57DB4F59834883C558D4404DEB17
S113372052E0C957DB4F59834883C758D440C75721
S1133730DB4F39832883C958D44023EB32E0C55783
S1133740DB4F39832883CB58D4402EEA32E0C35769
S1133750DB4F39832883CD58D440C157DB4F99833D
S11337608883CF58D44086EA92E0CF56DB4F9983C2
S11337708883C159D44081EA92E0CD56DB4F9983C6
S11337808883C359D4408DE992E0CB56DB4F9983AB
S11337908883C559D44089E992E0C956DB4F99839F
S11337A08883C759D440C756DB4FB982A882C95908
S11337B0D44081E992E0C556DB4F99838883CB5985
S11337C0D4408DE892E0C356DB4F99838883CD596A
S11337D0D4408AE892E0C156DB4F99838883CF595D
S11337E0D44086E892E0CF55DB4F99838883C15A51
S11337F0D44083E892E0CD55DB4F99838883C35A44
S1133800D4408FE792E0CB55DB4F99838883C55A28
S1133810D4408CE792E0C955DB4F99838883C75A1B
S1133820D440C755DB4F99828882C95AD44085E772
S113383092E0C555DB4F99838883CB5AD440C35556
S1133840DB4F79826882CD5AD4408FE692E0C1552D
S1133850DB4F99838883CF5AD4408CE692E0CF54CF
S1133860DB4F99838883C15BD44089E692E0CD54D1
S1133870DB4F99838883C35BD44086E692E0CB54C4
S1133880DB4F99838883C55BD44083E692E0C954B7
S1133890DB4F99838883C75BD44080E692E0C754AA
S11338A0DB4F99838883C95BD4408EE592E0C5548D
S11338B0DB4F99838883CB5BD4408BE592E0C35480
S11338C0DB4F99838883CD5BD44088E592E0C15473
S11338D0DB4F99838883CF5BD44085E592E0CF5357
S11338E0DB4F99838883C15CD44083E592E0CD5358
S11338F0DB4F99838883C35CD44080E592E0CB534B
S1133900DB4F99838883C55CD4408EE492E0C9532D
S1133910DB4F99838883C75CD4408BE492E0C75320
S1133920DB4F99838883C95CD44089E492E0C55312
S1133930DB4F99838883CB5CD44087E492E0C35304
S1133940DB4F99838883CD5CD44084E492E0C153F7
S1133950DB4F99838883CF5CD44082E492E0CF52DA
S1133960DB4F99838883C15DD44080E492E0CD52DB
S1133970DB4F99838883C35DD4408DE392E0CB52BF
S1133980DB4F99838883C55DD4408BE392E0C952B1
S1133990DB4F99838883C75DD44089E392E0C752A3
S11339A0DB4F99838883C95DD44087E392E0C55295
S11339B0DB4F99838883CB5DD44085E392E0C35287
S11339C0DB4F99838883CD5DD440C152DB4F59824C
S11339D04882CF5DD44081E392E0CF51DB4F99839D
S11339E08883C15ED4408FE292E0CD51DB4F99834E
S11339F08883C35ED4408DE292E0CB51DB4F998340
S1133A008883C55ED4408BE292E0C951DB4F998331
S1133A108883C75ED44089E292E0C751DB4F998323
S1133A208883C95ED44087E292E0C551DB4F998315
S1133A308883CB5ED440C351DB4F39822882CD5E6C
S1133A40D44083E292E0C151DB4F99838883CF5EF7
S1133A50D44081E292E0CF50DB4F99838883C15FE9
S1133A60D44080E292E0CD50DB4F99838883C35FDA
S1133A70D4406EE172E0CB50DB4F79836883C55F3D
S1133A80D4408CE192E0C950DB4F99838883C75FAF
S1133A90D4408AE192E0C750DB4F99838883C95FA1
S1133AA0D44089E192E0C550DB4F99838883CB5F92
S1133AB0D44087E192E0C350DB4F99838883CD5F84
S1133AC0D44085E192E0C150DB4F99838883CF5F76
S1133AD0D44084E192E0CF5FDA4F99838883C15068
S1133AE0D54082E192E0CD5FDA4F99838883C35059
S1133AF0D54081E192E0CB5FDA4F99838883C5504A
S1133B00D5408FE092E0C95FDA4F99838883C7502C
S1133B10D5408DE092E0C75FDA4F99838883C9501E
S1133B20D5408CE092E0C55FDA4F99838883CB500F
S1133B30D5408AE092E0C35FDA4F99838883CD5001
S1133B40D540A9E0B2E0C15FDA4FB983A883CF5072
S1133B50D54087E092E0CF5EDA4F99838883C151E4
S1133B60D54086E092E0CD5EDA4F99838883C351D5
S1133B70D54084E092E0CB5EDA4F99838883C551C7
S1133B80D54083E092E0C95EDA4F99838883C751B8
S1133B90D54081E092E0C75EDA4F99838883C951AA
S1133BA0D54080E092E0C55EDA4F99838883CB519B
S1133BB0D5408FEF91E0C35EDA4F99838883CD516E
S1133BC0D5408DEF91E0C15EDA4F99838883CF5160
S1133BD0D5408CEF91E0CF5DDA4F99838883C15251
S1133BE0D540EBEFF1E0CD5DDA4FF983E883C352C2
S1133BF0D54089EF91E0CB5DDA4F99838883C55234
S1133C00D54088EF91E0C95DDA4F99838883C75224
S1133C10D54087EF91E0C75DDA4F99838883C95215
S1133C20D54085EF91E0C55DDA4F99838883CB5207
S1133C30D54081E090E0C35DDA4F99838883CD520B
S1133C40D54084E090E0C15DDA4F99838883CF52F8
S1133C50D54087E090E0CF5CDA4F99838883C153E5
S1133C60D5408AE090E0CD5CDA4F99838883C353D2
S1133C70D5408DE090E0CB5CDA4F99838883C553BF
S1133C80D54080E190E0C95CDA4F99838883C753BB
S1133C90D54003E110E0C75CDA4F19830883C953A8
S1133CA0D54086E190E0C55CDA4F99838883CB5395
S1133CB0D54089E190E0C35CDA4F99838883CD5382
S1133CC0D5408CE190E0C15CDA4F99838883CF536F
S1133CD0D5408FE190E0CF5BDA4F99838883C1545C
S1133CE0D54082E290E0CD5BDA4F99838883C35458
S1133CF0D54085E290E0CB5BDA4F99838883C55445
S1133D00D54028E230E0C95BDA4F39832883C754B1
S1133D10D5408BE290E0C75BDA4F99838883C9541E
S1133D20D5408EE290E0C55BDA4F99838883CB540B
S1133D30D54081E390E0C35BDA4F99838883CD5407
S1133D40D54084E390E0C15BDA4F99838883CF54F4
S1133D50D54087E390E0CF5ADA4F99838883C155E1
S1133D60D5408AE390E0CD5ADA4F99838883C355CE
S1133D70D5404DE350E0CB5ADA4F59834883C555BB
S1133D80D54080E490E0C95ADA4F99838883C755B7
S1133D90D54063E470E0C75ADA4F79836883C95524
S1133DA0D54086E490E0C55ADA4F99838883CB5591
S1133DB0D54049E450E0C35ADA4F59834883CD557E
S1133DC0D5408CE490E0C15ADA4F99838883CF556B
S1133DD0D5402FE430E0CF59DA4F39832883C156D8
S1133DE0D54082E590E0CD59DA4F99838883C35654
S1133DF0D54085E590E0CB59DA4F99838883C55641
S1133E00D540EEE5F0E0C959DA4FF983E883C756A7
S1133E10D540A1E6B0E0C759DA4FB983A883C956A3
S1133E20D540E4E6F0E0C559DA4FF983E883CB5690
S1133E30D54007E610E0C359DA4F19830883CD56FD
S1133E40D540EAE6F0E0C159DA4FF983E883CF566A
S1133E50D5400F2EFDE6EF2EF12CF02DCF58DA4F82
S1133E60F982E882C157D540E0E7F0E0CD58DA4F57
S1133E70F983E883C357D5400F2EF3E7CF2ED12C17
S1133E80F02DCB58DA4FD982C882C557D540E6E722
S1133E90F0E0C958DA4FF983E883C757D5400F2EAD
S1133EA0F9E7AF2EB12CF02DC758DA4FB982A882AA
S1133EB0C957D540ECE7F0E0C558DA4FF983E883F9
S1133EC0CB57D5400F2EFFE78F2E912CF02DC358E2
S1133ED0DA4F99828882CD57D540E2E8F0E0C158A4
S1133EE0DA4FF983E883CF57D5400F2EF5E86F2ECC
S1133EF0712CF02DCF57DA4F79826882C158D540A2
S1133F00E8E8F0E0CD57DA4FF983E883C358D540A9
S1133F100F2EFBE84F2E512CF02DCB57DA4F598240
S1133F204882C558D540EEE8F0E0C957DA4FF98326
S1133F30E883C758D5400F2EF1E92F2E312CF02DF0
S1133F40C757DA4F39822882C958D540E4E9F0E0EE
S1133F50C557DA4FF983E883CB58D540E7E9F0E059
S1133F60C357DA4FF983E883CD58D540EAE9F0E046
S1133F70C157DA4FF983E883CF58D540EDE9F0E033
S1133F80CF56DA4FF983E883C159D540E0EAF0E02F
S1133F90CD56DA4FF983E883C359D540E3EAF0E01C
S1133FA0CB56DA4FF983E883C559D540E6EAF0E009
S1133FB0C956DA4FF983E883C759D540E9EAF0E0F6
S1133FC0C756DA4FF983E883C959D540ECEAF0E0E3
S1133FD0C556DA4FF983E883CB59D540EFEAF0E0D0
S1133FE0C356DA4FF983E883CD59D540E2EBF0E0CC
S1133FF0C156DA4FF983E883CF59D540E5EBF0E0B9
S1134000CF55DA4FF983E883C15AD540E8EBF0E0A5
S1134010CD55DA4FF983E883C35AD540EBEBF0E092
S1134020CB55DA4FF983E883C55AD540EEEBF0E07F
S1134030C955DA4FF983E883C75AD540E1ECF0E07B
S1134040C755DA4FF983E883C95AD540E4ECF0E068
S1134050C555DA4FF983E883CB5AD540E7ECF0E055
S1134060C355DA4FF983E883CD5AD540EAECF0E042
S1134070C155DA4FF983E883CF5AD540EDECF0E02F
S1134080CF54DA4FF983E883C15BD540E0EDF0E02B
S1134090CD54DA4FF983E883C35BD540E3EDF0E018
S11340A0CB54DA4FF983E883C55BD540E6EDF0E005
S11340B0C954DA4FF983E883C75BD540E9EDF0E0F2
S11340C0C754DA4FF983E883C95BD540ECEDF0E0DF
S11340D0C554DA4FF983E883CB5BD540EFEDF0E0CC
S11340E0C354DA4FF983E883CD5BD540E2EEF0E0C8
S11340F0C154DA4FF983E883CF5BD540E5EEF0E0B5
S1134100CF53DA4FF983E883C15CD540E8EEF0E0A1
S1134110CD53DA4FF983E883C35CD540EBEEF0E08E
S1134120CB53DA4FF983E883C55CD540EEEEF0E07B
S1134130C953DA4FF983E883C75CD540E1EFF0E077
S1134140C753DA4FF983E883C95CD540E4EFF0E064
S1134150C553DA4FF983E883CB5CD540E7EFF0E051
S1134160C353DA4FF983E883CD5CD540EAEFF0E03E
S1134170C153DA4FF983E883CF5CD540EDEFF0E02B
S1134180CF52DA4FF983E883C15DD540E0E0F1E036
S1134190CD52DA4FF983E883C35DD540E3E0F1E023
S11341A0CB52DA4FF983E883C55DD540E6E0F1E010
S11341B0C952DA4FF983E883C75DD540E9E0F1E0FD
S11341C0C752DA4FF983E883C95DD540ECE0F1E0EA
S11341D0C552DA4FF983E883CB5DD540EFE0F1E0D7
S11341E0C352DA4FF983E883CD5DD540E2E1F1E0D3
S11341F0C152DA4FF983E883CF5DD540E5E1F1E0C0
S1134200CF51DA4FF983E883C15ED540E8E1F1E0AC
S1134210CD51DA4FF983E883C35ED540EBE1F1E099
S1134220CB51DA4FF983E883C55ED540EEE1F1E086
S1134230C951DA4FF983E883C75ED540E1E2F1E082
S1134240C751DA4FF983E883C95ED540E4E2F1E06F
S1134250C551DA4FF983E883CB5ED540E7E2F1E05C
S1134260C351DA4FF983E883CD5ED540EAE2F1E049
S1134270C151DA4FF983E883CF5ED540EDE2F1E036
S1134280CF50DA4FF983E883C15FD540E0E3F1E032
S1134290CD50DA4FF983E883C35FD540E3E3F1E01F
S11342A0CB50DA4FF983E883C55FD540E6E3F1E00C
S11342B0C950DA4FF983E883C75FD540E9E3F1E0F9
S11342C0C750DA4FF983E883C95FD540ECE3F1E0E6
S11342D0C550DA4FF983E883CB5FD540EFE3F1E0D3
S11342E0C350DA4FF983E883CD5FD540E2E4F1E0CF
S11342F0C150DA4FF983E883CF5FD540E5E4F1E0BC
S1134300CF5FD94FF983E883C150D640E8E4F1E0A8
S1134310CD5FD94FF983E883C350D640EBE4F1E095
S1134320CB5FD94FF983E883C550D640EEE4F1E082
S1134330C95FD94FF983E883C750D640E1E5F1E07E
S1134340C75FD94FF983E883C950D640E4E5F1E06B
S1134350C55FD94FF983E883CB50D640E7E5F1E058
S1134360C35FD94FF983E883CD50D640EAE5F1E045
S1134370C15FD94FF983E883CF50D640EDE5F1E032
S1134380CF5ED94FF983E883C151D640E0E6F1E02E
S1134390CD5ED94FF983E883C351D640E3E6F1E01B
S11343A0CB5ED94FF983E883C551D640E6E6F1E008
S11343B0C95ED94FF983E883C751D640E9E6F1E0F5
S11343C0C75ED94FF983E883C951D640ECE6F1E0E2
S11343D0C55ED94FF983E883CB51D640EFE6F1E0CF
S11343E0C35ED94FF983E883CD51D640E2E7F1E0CB
S11343F0C15ED94FF983E883CF51D640E5E7F1E0B8
S1134400CF5DD94FF983E883C152D640E8E7F1E0A4
S1134410CD5DD94FF983E883C352D640EBE7F1E091
S1134420CB5DD94FF983E883C552D640EEE7F1E07E
S1134430C95DD94FF983E883C752D640E1E8F1E07A
S1134440C75DD94FF983E883C952D640E4E8F1E067
S1134450C55DD94FF983E883CB52D640E9E4FBE04C
S1134460C35DD94FF983E883CD52D640EEEAF7E035
S1134470C15DD94FF983E883CF52D640ECE6F6E02C
S1134480CF5CD94FF983E883C153D640E6EBF5E01E
S1134490CD5CD94FF983E883C353D640EAE3F5E012
S11344A0CB5CD94FF983E883C553D640E0EEF4E002
S11344B0C95CD94FF983E883C753D640E9E9F4E0EE
S11344C0C75CD94FF983E883C953D640EFE5F4E0DC
S11344D0C55CD94FF983E883CB53D640EFE2F4E0CF
S11344E0C35CD94FF983E883CD53D640E6E0F4E0CA
S11344F0C15CD94FF983E883CF53D640E3EEF3E0B0
S1134500CF5BD94FF983E883C154D640E4ECF3E0A0
S1134510CD5BD94FF983E883C354D640E8EAF3E08E
S1134520CB5BD94FF983E883C554D640EFE8F3E079
S1134530C95BD94FF983E883C754D640E8E7F3E071
S1134540C75BD94FF983E883C954D640E4E6F3E066
S1134550C55BD94FF983E883CB54D640E1E5F3E05A
S1134560C35BD94FF983E883CD54D640E0E4F3E04C
S1134570C15BD94FF983E883CF54D640E0E3F3E03D
S1134580CF5AD94FF983E883C155D640E1E2F3E02D
S1134590CD5AD94FF983E883C355D640E3E1F3E01C
S11345A0CB5AD94FF983E883C555D640E6E0F3E00A
S11345B0C95AD94FF983E883C755D640EAEFF2E0E8
S11345C0C75AD94FF983E883C955D640EEEEF2E0D5
S11345D0C55AD94FF983E883CB55D640E3EEF2E0D0
S11345E0C35AD94FF983E883CD55D640E9EDF2E0BB
S11345F0C15AD94FF983E883CF55D640EFECF2E0A6
S1134600CF59D94FF983E883C156D640E6ECF2E09E
S1134610CD59D94FF983E883C356D640EDEBF2E088
S1134620CB59D94FF983E883C556D640E5EBF2E080
S1134630C959D94FF983E883C756D640EDEAF2E069
S1134640C759D94FF983E883C956D640E5EAF2E061
S1134650C559D94FF983E883CB56D640EEE9F2E049
S1134660C359D94FF983E883CD56D640E7E9F2E040
S1134670C159D94FF983E883CF56D640E0E9F2E037
S1134680CF58D94FF983E883C157D640E9E8F2E01F
S1134690CD58D94FF983E883C357D640E3E8F2E015
S11346A0CB58D94FF983E883C557D640EDE7F2E0FC
S11346B0C958D94FF983E883C757D640E7E7F2E0F2
S11346C0C758D94FF983E883C957D640E1E7F2E0E8
S11346D0C558D94FF983E883CB57D640ECE6F2E0CE
S11346E0C358D94FF983E883CD57D640E7E6F2E0C3
S11346F0C158D94FF983E883CF57D640E2E6F2E0B8
S1134700CF57D94FF983E883C158D640EDE5F2E09D
S1134710CD57D94FF983E883C358D640E8E5F2E092
S1134720CB57D94FF983E883C558D640E3E5F2E087
S1134730C957D94FF983E883C758D640EFE4F2E06C
S1134740C757D94FF983E883C958D640EAE4F2E061
S1134750C557D94FF983E883CB58D640E6E4F2E055
S1134760C357D94FF983E883CD58D640E2E4F2E049
S1134770C157D94FF983E883CF58D640EEE3F2E02E
S1134780CF56D94FF983E883C159D640EAE3F2E022
S1134790CD56D94FF983E883C359D640E6E3F2E016
S11347A0CB56D94FF983E883C559D640E2E3F2E00A
S11347B0C956D94FF983E883C759D640EFE2F2E0EE
S11347C0C756D94FF983E883C959D640EBE2F2E0E2
S11347D0C556D94FF983E883CB59D640E8E2F2E0D5
S11347E0C356D94FF983E883CD59D640E4E2F2E0C9
S11347F0C156D94FF983E883CF59D640E1E2F2E0BC
S1134800CF55D94FF983E883C15AD640EEE1F2E09F
S1134810CD55D94FF983E883C35AD640EBE1F2E092
S1134820CB55D94FF983E883C55AD640E8E1F2E085
S1134830C955D94FF983E883C75AD640E5E1F2E078
S1134840C755D94FF983E883C95AD640E2E1F2E06B
S1134850C555D94FF983E883CB5AD640EFE0F2E04F
S1134860C355D94FF983E883CD5AD640ECE0F2E042
S1134870C155D94FF983E883CF5AD640E9E0F2E035
S1134880CF54D94FF983E883C15BD640E6E0F2E028
S1134890CD54D94FF983E883C35BD640E4E0F2E01A
S11348A0CB54D94FF983E883C55BD640E1E0F2E00D
S11348B0C954D94FF983E883C75BD640EFEFF1E0E1
S11348C0C754D94FF983E883C95BD640ECEFF1E0D4
S11348D0C554D94FF983E883CB5BD640EAEFF1E0C6
S11348E0C354D94FF983E883CD5BD640E7EFF1E0B9
S11348F0C154D94FF983E883CF5BD640E5EFF1E0AB
S1134900CF53D94FF983E883C15CD640E2EFF1E09D
S1134910CD53D94FF983E883C35CD640E0EFF1E08F
S1134920CB53D94FF983E883C55CD640EEEEF1E072
S1134930C953D94FF983E883C75CD640ECEEF1E064
S1134940C753D94FF983E883C95CD640EAEEF1E056
S1134950C553D94FF983E883CB5CD640E7EEF1E049
S1134960C353D94FF983E883CD5CD640E5EEF1E03B
S1134970C153D94FF983E883CF5CD640E3EEF1E02D
S1134980CF52D94FF983E883C15DD640E1EEF1E01F
S1134990CD52D94FF983E883C35DD640EFEDF1E002
S11349A0CB52D94FF983E883C55DD640EDEDF1E0F4
S11349B0C952D94FF983E883C75DD640EBEDF1E0E6
S11349C0C752D94FF983E883C95DD640E9EDF1E0D8
S11349D0C552D94FF983E883CB5DD640E7EDF1E0CA
S11349E0C352D94FF983E883CD5DD640E6EDF1E0BB
S11349F0C152D94FF983E883CF5DD640E4EDF1E0AD
S1134A00CF51D94FF983E883C15ED640E2EDF1E09E
S1134A10CD51D94FF983E883C35ED640E0EDF1E090
S1134A20CB51D94FF983E883C55ED640EEECF1E073
S1134A30C951D94FF983E883C75ED640EDECF1E064
S1134A40C751D94FF983E883C95ED640EBECF1E056
S1134A50C551D94FF983E883CB5ED640E9ECF1E048
S1134A60C351D94FF983E883CD5ED640E8ECF1E039
S1134A70C151D94FF983E883CF5ED640E6ECF1E02B
S1134A80CF50D94FF983E883C15FD640E5ECF1E01C
S1134A90CD50D94FF983E883C35FD640E3ECF1E00E
S1134AA0CB50D94FF983E883C55FD640E1ECF1E000
S1134AB0C950D94FF983E883C75FD640E0ECF1E0F1
S1134AC0C750D94FF983E883C95FD640EEEBF1E0D4
S1134AD0C550D94FF983E883CB5FD640EDEBF1E0C5
S1134AE0C350D94FF983E883CD5FD640EBEBF1E0B7
S1134AF0C150D94FF983E883CF5FD640EAEBF1E0A8
S1134B00CF5FD84FF983E883C150D740E8EBF1E099
S1134B10CD5FD84FF983E883C350D740E7EBF1E08A
S1134B20CB5FD84FF983E883C550D740E6EBF1E07B
S1134B30C95FD84FF983E883C750D740E4EBF1E06D
S1134B40C75FD84FF983E883C950D740E3EBF1E05E
S1134B50C55FD84FF983E883CB50D740E1EBF1E050
S1134B60C35FD84FF983E883CD50D740E0EBF1E041
S1134B70C15FD84FF983E883CF50D740EFEAF1E023
S1134B80CF5ED84FF983E883C151D740EDEAF1E015
S1134B90CD5ED84FF983E883C351D740ECEAF1E006
S1134BA0CB5ED84FF983E883C551D740EBEAF1E0F7
S1134BB0C95ED84FF983E883C751D740EAEAF1E0E8
S1134BC0C75ED84FF983E883C951D740E8EAF1E0DA
S1134BD0C55ED84FF983E883CB51D740E7EAF1E0CB
S1134BE0C35ED84FF983E883CD51D740E6EAF1E0BC
S1134BF0C15ED84FF983E883CF51D740E5EAF1E0AD
S1134C00CF5DD84FF983E883C152D740E4EAF1E09D
S1134C10CD5DD84FF983E883C352D740E2EAF1E08F
S1134C20CB5DD84FF983E883C552D740E1EAF1E080
S1134C30C95DD84FF983E883C752D740E0EAF1E071
S1134C40C75DD84FF983E883C952D740EFE9F1E053
S1134C50C55DD84FF983E883CB52D740E1E0F0E05B
S1134C60C35DD84FF983E883CD52D740E3E0F0E049
S1134C70C15DD84FF983E883CF52D740E5E0F0E037
S1134C80CF5CD84FF983E883C153D740E7E0F0E025
S1134C90CD5CD84FF983E883C353D740E9E0F0E013
S1134CA0CB5CD84FF983E883C553D740EBE0F0E001
S1134CB0C95CD84FF983E883C753D740EDE0F0E0EF
S1134CC0C75CD84FF983E883C953D740EFE0F0E0DD
S1134CD0C55CD84FF983E883CB53D740E1E1F0E0DA
S1134CE0C35CD84FF983E883CD53D740E3E1F0E0C8
S1134CF0C15CD84FF983E883CF53D740E5E1F0E0B6
S1134D00CF5BD84FF983E883C154D740E7E1F0E0A3
S1134D10CD5BD84FF983E883C354D740E9E1F0E091
S1134D20CB5BD84FF983E883C554D740EBE1F0E07F
S1134D30C95BD84FF983E883C754D740EDE1F0E06D
S1134D40C75BD84FF983E883C954D740EFE1F0E05B
S1134D50C55BD84FF983E883CB54D740E1E2F0E058
S1134D60C35BD84FF983E883CD54D740E3E2F0E046
S1134D70C15BD84FF983E883CF54D740E5E2F0E034
S1134D80CF5AD84FF983E883C155D740E7E2F0E022
S1134D90CD5AD84FF983E883C355D740E9E2F0E010
S1134DA0CB5AD84FF983E883C555D740EBE2F0E0FE
S1134DB0C95AD84FF983E883C755D740EDE2F0E0EC
S1134DC0C75AD84FF983E883C955D740EFE2F0E0DA
S1134DD0C55AD84FF983E883CB55D740E1E3F0E0D7
S1134DE0C35AD84FF983E883CD55D740E3E3F0E0C5
S1134DF0C15AD84FF983E883CF55D740E5E3F0E0B3
S1134E00CF59D84FF983E883C156D740E7E3F0E0A0
S1134E10CD59D84FF983E883C356D740E9E3F0E08E
S1134E20CB59D84FF983E883C556D740EBE3F0E07C
S1134E30C959D84FF983E883C756D740EDE3F0E06A
S1134E40C759D84FF983E883C956D740EFE3F0E058
S1134E50C559D84FF983E883CB56D740E1E4F0E055
S1134E60C359D84FF983E883CD56D740C159D84F99
S1134E7079836883CF56D74065E470E0CF58D84F24
S1134E8079836883C157D74067E470E0CD58D84F21
S1134E9079836883C357D740CB58D84F5983488305
S1134EA0C557D7404BE450E0C958D84F598348837D
S1134EB0C757D7404DE450E0C758D84F598348836B
S1134EC0C957D740C558D84F39832883CB57D740C3
S1134ED021E530E0C358D84F39832883CD57D740D4
S1134EE023E530E0C158D84F39832883CF57D740C2
S1134EF0CF57D84F99838883C158D74087E590E02E
S1134F00CD57D84F99838883C358D74089E590E01B
S1134F10CB57D84F99838883C558D7408BE590E009
S1134F20C957D84F99838883C758D7408DE590E0F7
S1134F30C757D84F99838883C958D7408FE590E0E5
S1134F40C557D84F99838883CB58D740C357D84F78
S1134F50B983A883CD58D74083E690E0C157D84F92
S1134F6099838883CF58D74085E690E0CF56D84FB1
S1134F7099838883C159D740CD56D84F1983088364
S1134F80C359D74089E690E0CB56D84F998388839C
S1134F90C559D7408BE690E0C956D84F998388838A
S1134FA0C759D740C756D84FF982E882C959D74064
S1134FB08FE690E0C556D84F99838883CB59D74064
S1134FC081E790E0C356D84F99838883CD59D74061
S1134FD0C156D84FD982C882CF59D74085E790E0CF
S1134FE0CF55D84F99838883C15AD74087E790E03B
S1134FF0CD55D84F99838883C35AD740CB55D84FC2
S1135000B982A882C55AD7408BE790E0C955D84FDA
S113501099838883C75AD7408DE790E0C755D84F06
S113502099838883C95AD740C555D84F99828882B5
S1135030CB5AD74081E890E0C355D84F99838883F1
S1135040CD5AD74083E890E0C155D84F99838883DF
S1135050CF5AD740CF54D84F79826882C15BD740AA
S113506087E890E0CD54D84F99838883C35BD740B9
S113507089E890E0CB54D84F99838883C55BD740A7
S1135080C954D84F59824882C75BD7408DE890E015
S1135090C754D84F99838883C95BD7408FE890E081
S11350A0C554D84F99838883CB5BD740C354D84F1A
S11350B039822882CD5BD74083E990E0C154D84F30
S11350C099838883CF5BD74085E990E0CF53D84F4D
S11350D099838883C15CD74007E910E0CD53D84F4A
S11350E019830883C35CD74089E990E0CB53D84F38
S11350F099838883C55CD7408BE990E0C953D84F26
S113510099838883C75CD7402DE930E0C753D84FD3
S113511039832883C95CD7408FE990E0C553D84FC1
S113512099838883CB5CD74081EA90E0C353D84FFE
S113513099838883CD5CD74043EA50E0C153D84F6C
S113514059834883CF5CD74085EA90E0CF52D84F4B
S113515099838883C15DD74087EA90E0CD52D84FC8
S113516099838883C35DD74069EA70E0CB52D84FF6
S113517079836883C55DD7408BEA90E0C952D84FE4
S113518099838883C75DD7408DEA90E0C752D84F92
S113519099838883C95DD7408FEA90E0C552D84F80
S11351A099838883CB5DD74081EB90E0C352D84F7D
S11351B099838883CD5DD74083EB90E0C152D84F6B
S11351C099838883CF5DD740A5EBB0E0CF51D84F0A
S11351D0B983A883C15ED74087EB90E0CD51D84F07
S11351E099838883C35ED74089EB90E0CB51D84F35
S11351F099838883C55ED740EBEBF0E0C951D84F63
S1135200F983E883C75ED7408DEB90E0C751D84F50
S113521099838883C95ED7408FEB90E0C551D84FFE
S113522099838883CB5ED74001EC10E0C351D84FFB
S113523019830883CD5ED74083EC90E0C151D84FE9
S113524099838883CF5ED74085EC90E0CF50D84FC8
S113525099838883C15FD74087EC90E0CD50D84FC5
S113526099838883C35FD74029EC30E0CB50D84F73
S113527039832883C55FD7408BEC90E0C950D84F61
S113528099838883C75FD7408DEC90E0C750D84F8F
S113529099838883C95FD7408FEC90E0C550D84F7D
S11352A099838883CB5FD74041ED50E0C350D84FFA
S11352B059834883CD5FD74063ED70E0C150D84F28
S11352C079836883CF5FD74085ED90E0CF5FD74F78
S11352D099838883C150D84087ED90E0CD5FD74F44
S11352E099838883C350D84089ED90E0CB5FD74F32
S11352F099838883C550D8408BED90E0C95FD74F20
S113530099838883C750D8400F2EFDED2F2E312C62
S1135310F02DC75FD74F39822882C950D8400F2E4D
S1135320FFED4F2E512CF02DC55FD74F5982488287
S1135330CB50D8400F2EF1EE6F2E712CF02DC35FA1
S1135340D74F79826882CD50D84083EE90E0C15F18
S1135350D74F99838883CF50D84085EE90E0CF5EB5
S1135360D74F99838883C151D84087EE90E0CD5EB2
S1135370D74F99838883C351D84089EE90E0CB5EA0
S1135380D74F99838883C551D8408BEE90E0C95E8E
S1135390D74F99838883C751D8400F2EFDEE8F2EA7
S11353A0912CF02DC75ED74F99828882C951D8407D
S11353B00F2EFFEEAF2EB12CF02DC55ED74FB98264
S11353C0A882CB51D84081EF90E0C35ED74F998338
S11353D08883CD51D84023EF30E0C15ED74F398365
S11353E02883CF51D84045EF50E0CF5DD74F598344
S11353F04883C152D84067EF70E0CD5DD74F7983C1
S11354006883C352D840E9EFF0E0CB5DD74FF9830E
S1135410E883C552D840ABEFB0E0C95DD74FB9833C
S1135420A883C752D8400DEF10E0C75DD74F19834A
S11354300883C952D840EE24EA94F12CC55DD74FB5
S1135440F982E882CB52D8400F2EFCE6CF2EDD2421
S1135450D394F02DC35DD74FD982C882CD52D840A2
S11354600F2EFAE6CF2EDD24D394F02DC15DD74F55
S1135470D982C882CF52D8400F2EF9E6CF2EDD2430
S1135480D394F02DCF5CD74FD982C882C153D84072
S11354900F2EF8E6CF2EDD24D394F02DCD5CD74F1C
S11354A0D982C882C353D8400F2EF6E6CF2EDD240E
S11354B0D394F02DCB5CD74FD982C882C553D84042
S11354C00F2EF5E6CF2EDD24D394F02DC95CD74FF3
S11354D0D982C882C753D8400F2EF4E6CF2EDD24DC
S11354E0D394F02DC75CD74FD982C882C953D84012
S11354F00F2EF2E6CF2EDD24D394F02DC55CD74FCA
S1135500D982C882CB53D8400F2EF1E6CF2EDD24AA
S1135510D394F02DC35CD74FD982C882CD53D840E1
S11355200F2EFFE5CF2EDD24D394F02DC15CD74F91
S1135530D982C882CF53D8400F2EFEE5CF2EDD246A
S1135540D394F02DCF5BD74FD982C882C154D840B1
S11355500F2EFCE5CF2EDD24D394F02DCD5BD74F59
S1135560D982C882C354D8400F2EFBE5CF2EDD2448
S1135570D394F02DCB5BD74FD982C882C554D84081
S11355800F2EFAE5CF2EDD24D394F02DC95BD74F2F
S1135590D982C882C754D8400F2EF8E5CF2EDD2417
S11355A0D394F02DC75BD74FD982C882C954D84051
S11355B00F2EF7E5CF2EDD24D394F02DC55BD74F06
S11355C0D982C882CB54D8400F2EF5E5CF2EDD24E6
S11355D0D394F02DC35BD74FD982C882CD54D84021
S11355E00F2EF4E5CF2EDD24D394F02DC15BD74FDD
S11355F0D982C882CF54D8400F2EF2E5CF2EDD24B5
S1135600D394F02DCF5AD74FD982C882C155D840F0
S11356100F2EF1E5CF2EDD24D394F02DCD5AD74FA4
S1135620D982C882C355D8400F2EFFE4CF2EDD2483
S1135630D394F02DCB5AD74FD982C882C555D840C0
S11356400F2EFEE4CF2EDD24D394F02DC95AD74F6C
S1135650D982C882C755D8400F2EFCE4CF2EDD2452
S1135660D394F02DC75AD74FD982C882C955D84090
S11356700F2EFBE4CF2EDD24D394F02DC55AD74F43
S1135680D982C882CB55D8400F2EF9E4CF2EDD2421
S1135690D394F02DC35AD74FD982C882CD55D84060
S11356A00F2EF8E4CF2EDD24D394F02DC15AD74F1A
S11356B0D982C882CF55D8400F2EF6E4CF2EDD24F0
S11356C0D394F02DCF59D74FD982C882C156D84030
S11356D00F2EF5E4CF2EDD24D394F02DCD59D74FE2
S11356E0D982C882C356D8400F2EF3E4CF2EDD24CE
S11356F0D394F02DCB59D74FD982C882C556D84000
S11357000F2EF2E4CF2EDD24D394F02DC959D74FB8
S1135710D982C882C756D8406894CC24C6F8DD2400
S1135720D394C759D74FD982C882C956D8400F2EAF
S1135730FFE3CF2EDD24D394F02DC559D74FD98262
S1135740C882CB56D8400F2EFDE3CF2EDD24D39450
S1135750F02DC359D74FD982C882CD56D8400F2EC9
S1135760FBE3CF2EDD24D394F02DC159D74FD9823A
S1135770C882CF56D8400F2EFAE3CF2EDD24D3941F
S1135780F02DCF58D74FD982C882C157D8400F2E99
S1135790F8E3CF2EDD24D394F02DCD58D74FD98202
S11357A0C882C357D8400F2EF7E3CF2EDD24D394FD
S11357B0F02DCB58D74FD982C882C557D8400F2E69
S11357C0F5E3CF2EDD24D394F02DC958D74FD982D9
S11357D0C882C757D8400F2EF3E3CF2EDD24D394CD
S11357E0F02DC758D74FD982C882C957D8400F2E39
S11357F0F2E3CF2EDD24D394F02DC558D74FD982B0
S1135800C882CB57D8400F2EF0E3CF2EDD24D3949B
S1135810F02DC358D74FD982C882CD57D8400F2E08
S1135820FFE2CF2EDD24D394F02DC158D74FD98277
S1135830C882CF57D8400F2EFDE2CF2EDD24D3945B
S1135840F02DCF57D74FD982C882C158D8400F2ED8
S1135850FBE2CF2EDD24D394F02DCD57D74FD98240
S1135860C882C358D8400F2EF9E2CF2EDD24D3943A
S1135870F02DCB57D74FD982C882C558D8400F2EA8
S1135880F8E2CF2EDD24D394F02DC957D74FD98217
S1135890C882C758D8400F2EF6E2CF2EDD24D39409
S11358A0F02DC757D74FD982C882C958D8400F2E78
S11358B0F4E2CF2EDD24D394F02DC557D74FD982EF
S11358C0C882CB58D8400F2EF3E2CF2EDD24D394D8
S11358D0F02DC357D74FD982C882CD58D8400F2E48
S11358E0F1E2CF2EDD24D394F02DC157D74FD982C6
S11358F0C882CF58D8400F2EFFE1CF2EDD24D39499
S1135900F02DCF56D74FD982C882C159D8400F2E17
S1135910FDE1CF2EDD24D394F02DCD56D74FD9827F
S1135920C882C359D8400F2EFCE1CF2EDD24D39476
S1135930F02DCB56D74FD982C882C559D8400F2EE7
S1135940FAE1CF2EDD24D394F02DC956D74FD98256
S1135950C882C759D8400F2EF8E1CF2EDD24D39446
S1135960F02DC756D74FD982C882C959D8400F2EB7
S1135970F6E1CF2EDD24D394F02DC556D74FD9822E
S1135980C882CB59D8400F2EF4E1CF2EDD24D39416
S1135990F02DC356D74FD982C882CD59D8400F2E87
S11359A0F3E1CF2EDD24D394F02DC156D74FD98205
S11359B0C882CF59D8400F2EF1E1CF2EDD24D394E5
S11359C0F02DCF55D74FD982C882C15AD8400F2E57
S11359D0FFE0CF2EDD24D394F02DCD55D74FD982BF
S11359E0C882C35AD8400F2EFDE0CF2EDD24D394B5
S11359F0F02DCB55D74FD982C882C55AD8400F2E27
S1135A00FBE0CF2EDD24D394F02DC955D74FD98296
S1135A10C882C75AD8400F2EF9E0CF2EDD24D39484
S1135A20F02DC755D74FD982C882C95AD8400F2EF6
S1135A30F7E0CF2EDD24D394F02DC555D74FD9826E
S1135A40C882CB5AD8400F2EF5E0CF2EDD24D39454
S1135A50F02DC355D74FD982C882CD5AD8400F2EC6
S1135A60F3E0CF2EDD24D394F02DC155D74FD98246
S1135A70C882CF5AD840CC24C394DC2CCF54D74FFF
S1135A80D982C882C15BD840CD54D74FF982E8820D
S1135A90C35BD840CB54D74F19830883C55BD84028
S1135AA0C954D74FB983A883C75BD840C754D74FCD
S1135AB0F983E883C95BD840C554D74F7983688399
S1135AC0CB5BD840C354D74F59834883CD5BD84070
S1135AD0C154D74F39832883CF5BD840CF53D74F96
S1135AE099838883C15CD840CD53D74FB982A882AB
S1135AF0C35CD840CB53D74F99828882C55CD840C9
S1135B008AEE90E0C953D74F99838883C75CD84005
S1135B1088EE90E0C753D74F99838883C95CD840F7
S1135B2086EE90E0C553D74F99838883CB5CD840E9
S1135B3084EE90E0C353D74F99838883CD5CD840DB
S1135B40C153D74F79826882CF5CD840CF52D74FA8
S1135B5059824882C15DD840CD52D74F39822882BC
S1135B60C35DD8408AED90E0CB52D74F99838883A8
S1135B70C55DD84088ED90E0C952D74F998388839A
S1135B80C75DD84086ED90E0C752D74F998388838C
S1135B90C95DD84083ED90E0C552D74F998388837F
S1135BA0CB5DD840A1EDB0E0C352D74FB983A883F1
S1135BB0CD5DD8408EEC90E0C152D74F9983888355
S1135BC0CF5DD8408CEC90E0CF51D74F9983888338
S1135BD0C15ED840E9ECF0E0CD51D74FF983E883BA
S1135BE0C35ED84086EC90E0CB51D74F998388832D
S1135BF0C55ED84084EC90E0C951D74F998388831F
S1135C00C75ED84081EC90E0C751D74F9983888311
S1135C10C95ED8408EEB90E0C551D74F99838883F5
S1135C20CB5ED8408CEB90E0C351D74F99838883E7
S1135C30CD5ED84089EB90E0C151D74F99838883DA
S1135C40CF5ED84086EB90E0CF50D74F99838883BE
S1135C50C15FD84083EB90E0CD50D74F99838883C0
S1135C60C35FD84080EB90E0CB50D74F99838883B3
S1135C70C55FD8408DEA90E0C950D74F9983888397
S1135C80C75FD8408AEA90E0C750D74F998388838A
S1135C90C95FD84087EA90E0C550D74F998388837D
S1135CA0CB5FD84083EA90E0C350D74F9983888371
S1135CB0CD5FD84080EA90E0C150D74F9983888364
S1135CC0CF5FD8408DE990E0CF5FD64F998388832A
S1135CD0C150D94089E990E0CD5FD64F998388833C
